{
  "contractName": "BulkIssue",
  "abi": [
    {
      "anonymous": false,
      "inputs": [
        {
          "indexed": true,
          "internalType": "bytes32",
          "name": "merkleRoot",
          "type": "bytes32"
        }
      ],
      "name": "BatchPrepared",
      "type": "event"
    },
    {
      "anonymous": false,
      "inputs": [
        {
          "indexed": true,
          "internalType": "bytes32",
          "name": "merkleRoot",
          "type": "bytes32"
        },
        {
          "indexed": false,
          "internalType": "bytes32",
          "name": "srrHash",
          "type": "bytes32"
        }
      ],
      "name": "CreateSRRWithProof",
      "type": "event"
    },
    {
      "anonymous": false,
      "inputs": [
        {
          "indexed": true,
          "internalType": "address",
          "name": "previousOwner",
          "type": "address"
        },
        {
          "indexed": true,
          "internalType": "address",
          "name": "newOwner",
          "type": "address"
        }
      ],
      "name": "OwnershipTransferred",
      "type": "event"
    },
    {
      "inputs": [
        {
          "internalType": "bytes32",
          "name": "",
          "type": "bytes32"
        }
      ],
      "name": "batches",
      "outputs": [
        {
          "internalType": "bool",
          "name": "prepared",
          "type": "bool"
        },
        {
          "internalType": "address",
          "name": "issuer",
          "type": "address"
        },
        {
          "internalType": "uint8",
          "name": "processedCount",
          "type": "uint8"
        }
      ],
      "stateMutability": "view",
      "type": "function",
      "constant": true
    },
    {
      "inputs": [],
      "name": "owner",
      "outputs": [
        {
          "internalType": "address",
          "name": "",
          "type": "address"
        }
      ],
      "stateMutability": "view",
      "type": "function",
      "constant": true
    },
    {
      "inputs": [],
      "name": "renounceOwnership",
      "outputs": [],
      "stateMutability": "nonpayable",
      "type": "function"
    },
    {
      "inputs": [
        {
          "internalType": "address",
          "name": "newOwner",
          "type": "address"
        }
      ],
      "name": "transferOwnership",
      "outputs": [],
      "stateMutability": "nonpayable",
      "type": "function"
    },
    {
      "inputs": [
        {
          "internalType": "address",
          "name": "nameRegistry",
          "type": "address"
        }
      ],
      "name": "initialize",
      "outputs": [],
      "stateMutability": "nonpayable",
      "type": "function"
    },
    {
      "inputs": [
        {
          "internalType": "bytes32",
          "name": "merkleRoot",
          "type": "bytes32"
        }
      ],
      "name": "prepareBatch",
      "outputs": [],
      "stateMutability": "nonpayable",
      "type": "function"
    },
    {
      "inputs": [
        {
          "internalType": "bytes32",
          "name": "merkleRoot",
          "type": "bytes32"
        },
        {
          "internalType": "uint8",
          "name": "v",
          "type": "uint8"
        },
        {
          "internalType": "bytes32",
          "name": "r",
          "type": "bytes32"
        },
        {
          "internalType": "bytes32",
          "name": "s",
          "type": "bytes32"
        }
      ],
      "name": "prepareBatchFromLicensedUser",
      "outputs": [],
      "stateMutability": "nonpayable",
      "type": "function"
    },
    {
      "inputs": [
        {
          "internalType": "bytes32[]",
          "name": "merkleProof",
          "type": "bytes32[]"
        },
        {
          "internalType": "bytes32",
          "name": "merkleRoot",
          "type": "bytes32"
        },
        {
          "internalType": "bytes32",
          "name": "srrHash",
          "type": "bytes32"
        },
        {
          "internalType": "bool",
          "name": "isPrimaryIssuer",
          "type": "bool"
        },
        {
          "internalType": "address",
          "name": "artistAddress",
          "type": "address"
        },
        {
          "internalType": "bytes32",
          "name": "metadataDigest",
          "type": "bytes32"
        }
      ],
      "name": "createSRRWithProof",
      "outputs": [
        {
          "internalType": "uint256",
          "name": "tokenId",
          "type": "uint256"
        }
      ],
      "stateMutability": "nonpayable",
      "type": "function"
    },
    {
      "inputs": [
        {
          "internalType": "bytes32",
          "name": "srrHash",
          "type": "bytes32"
        },
        {
          "internalType": "bool",
          "name": "isPrimaryIssuer",
          "type": "bool"
        },
        {
          "internalType": "address",
          "name": "artistAddress",
          "type": "address"
        },
        {
          "internalType": "bytes32",
          "name": "metadataDigest",
          "type": "bytes32"
        }
      ],
      "name": "verifySRRHash",
      "outputs": [
        {
          "internalType": "bool",
          "name": "hashMatches",
          "type": "bool"
        }
      ],
      "stateMutability": "pure",
      "type": "function",
      "constant": true
    },
    {
      "inputs": [],
      "name": "getNameRegistryAddress",
      "outputs": [
        {
          "internalType": "address",
          "name": "",
          "type": "address"
        }
      ],
      "stateMutability": "view",
      "type": "function",
      "constant": true
    }
  ],
  "bytecode": "0x608060405234801561001057600080fd5b50611355806100206000396000f3fe608060405234801561001057600080fd5b506004361061009e5760003560e01c8063bf1095b411610066578063bf1095b414610106578063c4d66de814610126578063c81e25ab14610139578063e867ab781461015b578063f2fde38b1461016e5761009e565b8063308014f5146100a35780634ef996d4146100b857806362b9bdc2146100e1578063715018a6146100f65780638da5cb5b146100fe575b600080fd5b6100b66100b1366004610e08565b610181565b005b6100cb6100c6366004610e20565b6101fd565b6040516100d89190610f5f565b60405180910390f35b6100e9610236565b6040516100d89190610f4b565b6100b6610245565b6100e96102c4565b610119610114366004610d13565b6102d3565b6040516100d89190610fb7565b6100b6610134366004610cd4565b6104cf565b61014c610147366004610e08565b610575565b6040516100d893929190610f93565b6100b6610169366004610e67565b6105a5565b6100b661017c366004610cd4565b610783565b600081815260976020526040902054819060ff16156101bb5760405162461bcd60e51b81526004016101b290611103565b60405180910390fd5b6101c361083a565b6065546001600160a01b039081169116146101f05760405162461bcd60e51b81526004016101b290611151565b6101f98261083e565b5050565b600083838360405160200161021493929190610edf565b6040516020818303038152906040528051906020012085149050949350505050565b6098546001600160a01b031690565b61024d61083a565b6065546001600160a01b0390811691161461027a5760405162461bcd60e51b81526004016101b290611151565b6065546040516000916001600160a01b0316907f8be0079c531659141344cd1fd0a4f28419497f9722a3daafe3b4186f6b6457e0908390a3606580546001600160a01b0319169055565b6065546001600160a01b031690565b600085815260976020526040812054869060ff166103035760405162461bcd60e51b81526004016101b290611070565b60008781526097602090815260408083208984526001019091529020548790879060ff16156103445760405162461bcd60e51b81526004016101b290611231565b610350888888886101fd565b61036c5760405162461bcd60e51b81526004016101b290611261565b6103778a8a8a6108e1565b6103935760405162461bcd60e51b81526004016101b29061103b565b60008981526097602081815260408084208c855260018082018452918520805460ff191683179055938d9052919052815460ff60a81b19811660ff600160a81b928390048116909301909216021790556103eb61097e565b60008a815260976020526040908190205490516304ed8b8d60e51b81526001600160a01b0392831692639db171a092610436928c928c928c9261010090910490911690600401610f6a565b602060405180830381600087803b15801561045057600080fd5b505af1158015610464573d6000803e3d6000fd5b505050506040513d601f19601f820116820180604052508101906104889190610ec7565b9350887fdfaa618c92ac2a063b19734f3cc41d29ff6d2f0cfa172f99f22c7e5660f3e4c7896040516104ba9190610fb7565b60405180910390a25050509695505050505050565b600054610100900460ff16806104e857506104e8610a0b565b806104f6575060005460ff16155b6105125760405162461bcd60e51b81526004016101b2906111e3565b600054610100900460ff1615801561053d576000805460ff1961ff0019909116610100171660011790555b609880546001600160a01b0319166001600160a01b038416179055610560610a11565b80156101f9576000805461ff00191690555050565b60976020526000908152604090205460ff808216916001600160a01b0361010082041691600160a81b9091041683565b600084815260976020526040902054849060ff16156105d65760405162461bcd60e51b81526004016101b290611103565b6105de610236565b6001600160a01b031663938509d3336040518263ffffffff1660e01b81526004016106099190610f4b565b60206040518083038186803b15801561062157600080fd5b505afa158015610635573d6000803e3d6000fd5b505050506040513d601f19601f820116820180604052508101906106599190610dec565b806106675750610667610aa4565b6106835760405162461bcd60e51b81526004016101b290610fde565b600061068e86610b2d565b90506000600182878787604051600081526020016040526040516106b59493929190610fc0565b6020604051602081039080840390855afa1580156106d7573d6000803e3d6000fd5b5050604051601f1981015163145c351b60e31b8252925033915063a2e1a8d890610705908490600401610f4b565b60206040518083038186803b15801561071d57600080fd5b505afa158015610731573d6000803e3d6000fd5b505050506040513d601f19601f820116820180604052508101906107559190610dec565b6107715760405162461bcd60e51b81526004016101b290611186565b61077a8761083e565b50505050505050565b61078b61083a565b6065546001600160a01b039081169116146107b85760405162461bcd60e51b81526004016101b290611151565b6001600160a01b0381166107de5760405162461bcd60e51b81526004016101b2906110bd565b6065546040516001600160a01b038084169216907f8be0079c531659141344cd1fd0a4f28419497f9722a3daafe3b4186f6b6457e090600090a3606580546001600160a01b0319166001600160a01b0392909216919091179055565b3390565b604080516060810182526001815233602080830191825260008385018181528682526097909252848120935184549351925160ff1990941690151517610100600160a81b0319166101006001600160a01b03909316929092029190911760ff60a81b1916600160a81b60ff9093169290920291909117909155905182917fe4dd69b1474d45a85a99c7e40eac6c4da1d71b0fba50511c992c03d08fe329d891a250565b600081815b85518110156109735760008682815181106108fd57fe5b6020026020010151905080831161093e578281604051602001610921929190610f0c565b60405160208183030381529060405280519060200120925061096a565b8083604051602001610951929190610f0c565b6040516020818303038152906040528051906020012092505b506001016108e6565b509092149392505050565b600080610989610236565b6001600160a01b031663f72d0b3b60016040518263ffffffff1660e01b81526004016109b591906112a7565b60206040518083038186803b1580156109cd57600080fd5b505afa1580156109e1573d6000803e3d6000fd5b505050506040513d601f19601f82011682018060405250810190610a059190610cf7565b91505090565b303b1590565b600054610100900460ff1680610a2a5750610a2a610a0b565b80610a38575060005460ff16155b610a545760405162461bcd60e51b81526004016101b2906111e3565b600054610100900460ff16158015610a7f576000805460ff1961ff0019909116610100171660011790555b610a87610b5d565b610a8f610bde565b8015610aa1576000805461ff00191690555b50565b6000338082816001600160a01b031663419900776040518163ffffffff1660e01b815260040160206040518083038186803b158015610ae257600080fd5b505afa158015610af6573d6000803e3d6000fd5b505050506040513d601f19601f82011682018060405250810190610b1a9190610ea8565b6002811115610b2557fe5b149250505090565b600081604051602001610b409190610f1a565b604051602081830303815290604052805190602001209050919050565b600054610100900460ff1680610b765750610b76610a0b565b80610b84575060005460ff16155b610ba05760405162461bcd60e51b81526004016101b2906111e3565b600054610100900460ff16158015610a8f576000805460ff1961ff0019909116610100171660011790558015610aa1576000805461ff001916905550565b600054610100900460ff1680610bf75750610bf7610a0b565b80610c05575060005460ff16155b610c215760405162461bcd60e51b81526004016101b2906111e3565b600054610100900460ff16158015610c4c576000805460ff1961ff0019909116610100171660011790555b6000610c5661083a565b606580546001600160a01b0319166001600160a01b038316908117909155604051919250906000907f8be0079c531659141344cd1fd0a4f28419497f9722a3daafe3b4186f6b6457e0908290a3508015610aa1576000805461ff001916905550565b8035610cc3816112fc565b92915050565b8035610cc381611311565b600060208284031215610ce5578081fd5b8135610cf0816112fc565b9392505050565b600060208284031215610d08578081fd5b8151610cf0816112fc565b60008060008060008060c08789031215610d2b578182fd5b863567ffffffffffffffff811115610d41578283fd5b80880189601f820112610d52578384fd5b80359150610d67610d62836112dc565b6112b5565b80838252602080830192508084018d828388028701011115610d87578788fd5b8794505b85851015610da9578035845260019490940193928101928101610d8b565b509099508a01359750505060408801359450610dca90508860608901610cc9565b9250610dd98860808901610cb8565b915060a087013590509295509295509295565b600060208284031215610dfd578081fd5b8151610cf081611311565b600060208284031215610e19578081fd5b5035919050565b60008060008060808587031215610e35578384fd5b843593506020850135610e4781611311565b92506040850135610e57816112fc565b9396929550929360600135925050565b60008060008060808587031215610e7c578384fd5b84359350602085013560ff81168114610e93578384fd5b93969395505050506040820135916060013590565b600060208284031215610eb9578081fd5b815160038110610cf0578182fd5b600060208284031215610ed8578081fd5b5051919050565b92151560f81b835260609190911b6bffffffffffffffffffffffff19166001830152601582015260350190565b918252602082015260400190565b7f19457468657265756d205369676e6564204d6573736167653a0a3332000000008152601c810191909152603c0190565b6001600160a01b0391909116815260200190565b901515815260200190565b93151584526001600160a01b039283166020850152604084019190915216606082015260800190565b92151583526001600160a01b0391909116602083015260ff16604082015260600190565b90815260200190565b93845260ff9290921660208401526040830152606082015260800190565b6020808252603e908201527f5468652073656e646572206973206e65697468657220746865206c6963656e7360408201527f6564207573657220636f6e7472616374206e6f72207468652061646d696e0000606082015260800190565b6020808252818101527f4d65726b6c652070726f6f6620766572696669636174696f6e206661696c6564604082015260600190565b6020808252602d908201527f426174636820646f65736e277420657869737420666f7220746865206769766560408201526c1b881b595c9adb19481c9bdbdd609a1b606082015260800190565b60208082526026908201527f4f776e61626c653a206e6577206f776e657220697320746865207a65726f206160408201526564647265737360d01b606082015260800190565b6020808252602e908201527f426174636820616c72656164792065786973747320666f72207468652067697660408201526d195b881b595c9adb19481c9bdbdd60921b606082015260800190565b6020808252818101527f4f776e61626c653a2063616c6c6572206973206e6f7420746865206f776e6572604082015260600190565b60208082526039908201527f5369676e6572206d75737420626520616e206f776e6572206f6e20746865206360408201527f616c6c696e67204c6963656e7365645573657257616c6c657400000000000000606082015260800190565b6020808252602e908201527f436f6e747261637420696e7374616e63652068617320616c726561647920626560408201526d195b881a5b9a5d1a585b1a5e995960921b606082015260800190565b60208082526016908201527529a9291030b63932b0b23c90383937b1b2b9b9b2b21760511b604082015260600190565b60208082526026908201527f7372724861736820646f6573206e6f74206d6174636820746865207372722064604082015265657461696c7360d01b606082015260800190565b60ff91909116815260200190565b60405181810167ffffffffffffffff811182821017156112d457600080fd5b604052919050565b600067ffffffffffffffff8211156112f2578081fd5b5060209081020190565b6001600160a01b0381168114610aa157600080fd5b8015158114610aa157600080fdfea264697066735822122068529455729e713ac023726bbdc188aae3fa484f7bae4a2639c87c783157a6c764736f6c634300060b0033",
  "source": "pragma solidity 0.6.11;\npragma experimental ABIEncoderV2;\n\nimport \"@openzeppelin/contracts/cryptography/MerkleProof.sol\";\nimport \"@openzeppelin/contracts/cryptography/ECDSA.sol\";\nimport \"@openzeppelin/contracts-ethereum-package/contracts/access/Ownable.sol\";\n\nimport \"../../rootLogic/contracts/RootLogic.sol\";\nimport \"../../licensedUser/contracts/LicensedUserLogic.sol\";\nimport \"../../licensedUser/contracts/IdentityUserType.sol\";\nimport \"../../name/contracts/Contracts.sol\";\n\ncontract BulkIssue is IdentityUserType, Contracts, OwnableUpgradeSafe {\n  using ECDSA for bytes32;\n  /*\n   * Structs\n   */\n  struct Batch {\n    bool prepared;\n    address issuer;\n    uint8 processedCount;\n    mapping(bytes32 => bool) processedLeaves;\n  }\n\n  /*\n   * Events\n   */\n  event BatchPrepared(bytes32 indexed merkleRoot);\n\n  event CreateSRRWithProof(bytes32 indexed merkleRoot, bytes32 srrHash);\n\n  /*\n   * Storages\n   */\n  mapping(bytes32 => Batch) public batches;\n  address private _nameRegistryAddress;\n\n  /*\n   * Modifiers\n   */\n  modifier isNewBatch(bytes32 merkleRoot) {\n    require(\n      !batches[merkleRoot].prepared,\n      \"Batch already exists for the given merkle root\"\n    );\n    _;\n  }\n\n  modifier batchExists(bytes32 merkleRoot) {\n    require(\n      batches[merkleRoot].prepared,\n      \"Batch doesn't exist for the given merkle root\"\n    );\n    _;\n  }\n\n  modifier srrNotAlreadyProcessed(bytes32 merkleRoot, bytes32 srrHash) {\n    require(\n      !batches[merkleRoot].processedLeaves[srrHash],\n      \"SRR already processed.\"\n    );\n    _;\n  }\n\n  modifier onlyLicensedUser() {\n    require(\n      _nameRegistry().instantiation(msg.sender) || _isAdmin(),\n      \"The sender is neither the licensed user contract nor the admin\"\n    );\n    _;\n  }\n\n  /*\n   * Public functions\n   */\n\n  /**\n   * @dev Initializes the BulkIssue contract\n   */\n  function initialize(address nameRegistry) public initializer {\n    _nameRegistryAddress = nameRegistry;\n    OwnableUpgradeSafe.__Ownable_init();\n  }\n\n  /**\n   * @dev Reserves a batch request before excuting\n   * @param merkleRoot bytes32 of merkle root\n   */\n  function prepareBatch(bytes32 merkleRoot)\n    public\n    isNewBatch(merkleRoot)\n    onlyOwner\n  {\n    _prepareBatch(merkleRoot);\n  }\n\n  /**\n   * @dev Reserves a batch request before excuting\n   * @param merkleRoot bytes32 of merkle root\n   * @param v uint8 of sig.v\n   * @param r bytes32 of sig.r\n   * @param s bytes32 of sig.s\n   */\n  function prepareBatchFromLicensedUser(\n    bytes32 merkleRoot,\n    uint8 v,\n    bytes32 r,\n    bytes32 s\n  ) public isNewBatch(merkleRoot) onlyLicensedUser {\n    bytes32 messageHash = merkleRoot.toEthSignedMessageHash();\n    address signer = ecrecover(messageHash, v, r, s);\n    require(\n      LicensedUserLogic(msg.sender).isOwnerAddress(signer),\n      \"Signer must be an owner on the calling LicensedUserWallet\"\n    );\n    _prepareBatch(merkleRoot);\n  }\n\n  /**\n   * @dev Creates SRR with merkle proof\n   * @param merkleProof bytes32 of merkle proof value\n   * @param merkleRoot bytes32 of merkle root value\n   * @param srrHash bytes32 of merkle tree leaf\n   * @param isPrimaryIssuer boolean whether the user is a primary issuer\n   * @param artistAddress address of the artist contract\n   * @param metadataDigest bytes32 of metadata hash\n   */\n  function createSRRWithProof(\n    bytes32[] memory merkleProof,\n    bytes32 merkleRoot,\n    bytes32 srrHash,\n    bool isPrimaryIssuer,\n    address artistAddress,\n    bytes32 metadataDigest\n  )\n    public\n    batchExists(merkleRoot)\n    srrNotAlreadyProcessed(merkleRoot, srrHash)\n    returns (uint256 tokenId)\n  {\n    require(\n      verifySRRHash(srrHash, isPrimaryIssuer, artistAddress, metadataDigest),\n      \"srrHash does not match the srr details\"\n    );\n\n    require(\n      MerkleProof.verify(merkleProof, merkleRoot, srrHash),\n      \"Merkle proof verification failed\"\n    );\n\n    batches[merkleRoot].processedLeaves[srrHash] = true;\n    batches[merkleRoot].processedCount++;\n\n    tokenId = _rootLogic().createSRRFromBulk(\n      isPrimaryIssuer,\n      artistAddress,\n      metadataDigest,\n      batches[merkleRoot].issuer // LUW address - issuer\n    );\n    emit CreateSRRWithProof(merkleRoot, srrHash);\n  }\n\n  /**\n   * @dev Verify the hash of the params when creating SRR\n   * @param srrHash bytes32 of hash value of all other params\n   * @param isPrimaryIssuer boolean whether the user is a primary issuer\n   * @param artistAddress address of the artist contract\n   * @param metadataDigest bytes32 of metadata hash\n   */\n  function verifySRRHash(\n    bytes32 srrHash,\n    bool isPrimaryIssuer,\n    address artistAddress,\n    bytes32 metadataDigest\n  ) public pure returns (bool hashMatches) {\n    hashMatches =\n      srrHash ==\n      keccak256(\n        abi.encodePacked(isPrimaryIssuer, artistAddress, metadataDigest)\n      );\n  }\n\n  /**\n   * @dev Gets the endpoint address of NameRegistry\n   * @return NameRegistry proxy address\n   */\n  function getNameRegistryAddress() public view returns (address) {\n    return _nameRegistryAddress;\n  }\n\n  /**\n   * Private functions\n   */\n\n  function _prepareBatch(bytes32 merkleRoot) private {\n    batches[merkleRoot] = Batch({\n      prepared: true,\n      issuer: msg.sender,\n      processedCount: 0\n    });\n    emit BatchPrepared(merkleRoot);\n  }\n\n  function _isAdmin() private view returns (bool) {\n    address proxy = msg.sender;\n    LicensedUserLogic logic = LicensedUserLogic(proxy);\n    return logic.getUserType() == UserType.ADMIN;\n  }\n\n  function _nameRegistry() private view returns (NameRegistry) {\n    return NameRegistry(_nameRegistryAddress);\n  }\n\n  function _rootLogic() private view returns (RootLogic) {\n    address rootLogicAddress = _nameRegistry().get(ROOT_LOGIC);\n    RootLogic rootLogic = RootLogic(rootLogicAddress);\n    return rootLogic;\n  }\n}\n",
  "sourcePath": "/root/rinkeby/startrail/app/batch/contracts/BulkIssue.sol",
  "compiler": {
    "name": "solc",
    "version": "0.6.11+commit.5ef660b1.Emscripten.clang"
  },
  "schemaVersion": "3.0.23",
  "updatedAt": "2020-08-24T04:21:50.514Z",
  "networkType": "ethereum",
  "devdoc": {
    "kind": "dev",
    "methods": {
      "createSRRWithProof(bytes32[],bytes32,bytes32,bool,address,bytes32)": {
        "details": "Creates SRR with merkle proof",
        "params": {
          "artistAddress": "address of the artist contract",
          "isPrimaryIssuer": "boolean whether the user is a primary issuer",
          "merkleProof": "bytes32 of merkle proof value",
          "merkleRoot": "bytes32 of merkle root value",
          "metadataDigest": "bytes32 of metadata hash",
          "srrHash": "bytes32 of merkle tree leaf"
        }
      },
      "getNameRegistryAddress()": {
        "details": "Gets the endpoint address of NameRegistry",
        "returns": {
          "_0": "NameRegistry proxy address"
        }
      },
      "initialize(address)": {
        "details": "Initializes the BulkIssue contract"
      },
      "owner()": {
        "details": "Returns the address of the current owner."
      },
      "prepareBatch(bytes32)": {
        "details": "Reserves a batch request before excuting",
        "params": {
          "merkleRoot": "bytes32 of merkle root"
        }
      },
      "prepareBatchFromLicensedUser(bytes32,uint8,bytes32,bytes32)": {
        "details": "Reserves a batch request before excuting",
        "params": {
          "merkleRoot": "bytes32 of merkle root",
          "r": "bytes32 of sig.r",
          "s": "bytes32 of sig.s",
          "v": "uint8 of sig.v"
        }
      },
      "renounceOwnership()": {
        "details": "Leaves the contract without owner. It will not be possible to call `onlyOwner` functions anymore. Can only be called by the current owner. NOTE: Renouncing ownership will leave the contract without an owner, thereby removing any functionality that is only available to the owner."
      },
      "transferOwnership(address)": {
        "details": "Transfers ownership of the contract to a new account (`newOwner`). Can only be called by the current owner."
      },
      "verifySRRHash(bytes32,bool,address,bytes32)": {
        "details": "Verify the hash of the params when creating SRR",
        "params": {
          "artistAddress": "address of the artist contract",
          "isPrimaryIssuer": "boolean whether the user is a primary issuer",
          "metadataDigest": "bytes32 of metadata hash",
          "srrHash": "bytes32 of hash value of all other params"
        }
      }
    },
    "version": 1
  },
  "userdoc": {
    "kind": "user",
    "methods": {},
    "version": 1
  }
}