{
  "contractName": "BulkIssue",
  "abi": [
    {
      "anonymous": false,
      "inputs": [
        {
          "indexed": true,
          "internalType": "bytes32",
          "name": "merkleRoot",
          "type": "bytes32"
        }
      ],
      "name": "BatchPrepared",
      "type": "event"
    },
    {
      "anonymous": false,
      "inputs": [
        {
          "indexed": true,
          "internalType": "bytes32",
          "name": "merkleRoot",
          "type": "bytes32"
        },
        {
          "indexed": false,
          "internalType": "bytes32",
          "name": "srrHash",
          "type": "bytes32"
        }
      ],
      "name": "CreateSRRWithProof",
      "type": "event"
    },
    {
      "anonymous": false,
      "inputs": [
        {
          "indexed": true,
          "internalType": "address",
          "name": "previousOwner",
          "type": "address"
        },
        {
          "indexed": true,
          "internalType": "address",
          "name": "newOwner",
          "type": "address"
        }
      ],
      "name": "OwnershipTransferred",
      "type": "event"
    },
    {
      "constant": true,
      "inputs": [
        {
          "internalType": "bytes32",
          "name": "",
          "type": "bytes32"
        }
      ],
      "name": "batches",
      "outputs": [
        {
          "internalType": "bool",
          "name": "prepared",
          "type": "bool"
        },
        {
          "internalType": "address",
          "name": "issuer",
          "type": "address"
        },
        {
          "internalType": "uint8",
          "name": "processedCount",
          "type": "uint8"
        }
      ],
      "payable": false,
      "stateMutability": "view",
      "type": "function"
    },
    {
      "constant": true,
      "inputs": [
        {
          "internalType": "string",
          "name": "_type",
          "type": "string"
        }
      ],
      "name": "getUserType",
      "outputs": [
        {
          "internalType": "enum IdentityUserType.UserType",
          "name": "",
          "type": "uint8"
        }
      ],
      "payable": false,
      "stateMutability": "pure",
      "type": "function"
    },
    {
      "constant": true,
      "inputs": [],
      "name": "isOwner",
      "outputs": [
        {
          "internalType": "bool",
          "name": "",
          "type": "bool"
        }
      ],
      "payable": false,
      "stateMutability": "view",
      "type": "function"
    },
    {
      "constant": true,
      "inputs": [],
      "name": "owner",
      "outputs": [
        {
          "internalType": "address",
          "name": "",
          "type": "address"
        }
      ],
      "payable": false,
      "stateMutability": "view",
      "type": "function"
    },
    {
      "constant": false,
      "inputs": [],
      "name": "renounceOwnership",
      "outputs": [],
      "payable": false,
      "stateMutability": "nonpayable",
      "type": "function"
    },
    {
      "constant": false,
      "inputs": [
        {
          "internalType": "address",
          "name": "newOwner",
          "type": "address"
        }
      ],
      "name": "transferOwnership",
      "outputs": [],
      "payable": false,
      "stateMutability": "nonpayable",
      "type": "function"
    },
    {
      "constant": false,
      "inputs": [
        {
          "internalType": "address",
          "name": "nameRegistry",
          "type": "address"
        }
      ],
      "name": "initialize",
      "outputs": [],
      "payable": false,
      "stateMutability": "nonpayable",
      "type": "function"
    },
    {
      "constant": false,
      "inputs": [
        {
          "internalType": "bytes32",
          "name": "merkleRoot",
          "type": "bytes32"
        }
      ],
      "name": "prepareBatch",
      "outputs": [],
      "payable": false,
      "stateMutability": "nonpayable",
      "type": "function"
    },
    {
      "constant": false,
      "inputs": [
        {
          "internalType": "bytes32",
          "name": "merkleRoot",
          "type": "bytes32"
        },
        {
          "internalType": "uint8",
          "name": "v",
          "type": "uint8"
        },
        {
          "internalType": "bytes32",
          "name": "r",
          "type": "bytes32"
        },
        {
          "internalType": "bytes32",
          "name": "s",
          "type": "bytes32"
        }
      ],
      "name": "prepareBatchFromLicensedUser",
      "outputs": [],
      "payable": false,
      "stateMutability": "nonpayable",
      "type": "function"
    },
    {
      "constant": false,
      "inputs": [
        {
          "internalType": "bytes32[]",
          "name": "merkleProof",
          "type": "bytes32[]"
        },
        {
          "internalType": "bytes32",
          "name": "merkleRoot",
          "type": "bytes32"
        },
        {
          "internalType": "bytes32",
          "name": "srrHash",
          "type": "bytes32"
        },
        {
          "internalType": "bool",
          "name": "isPrimaryIssuer",
          "type": "bool"
        },
        {
          "internalType": "address",
          "name": "artistAddress",
          "type": "address"
        },
        {
          "internalType": "bytes32",
          "name": "metadataDigest",
          "type": "bytes32"
        }
      ],
      "name": "createSRRWithProof",
      "outputs": [
        {
          "internalType": "uint256",
          "name": "tokenId",
          "type": "uint256"
        }
      ],
      "payable": false,
      "stateMutability": "nonpayable",
      "type": "function"
    },
    {
      "constant": true,
      "inputs": [
        {
          "internalType": "bytes32",
          "name": "srrHash",
          "type": "bytes32"
        },
        {
          "internalType": "bool",
          "name": "isPrimaryIssuer",
          "type": "bool"
        },
        {
          "internalType": "address",
          "name": "artistAddress",
          "type": "address"
        },
        {
          "internalType": "bytes32",
          "name": "metadataDigest",
          "type": "bytes32"
        }
      ],
      "name": "verifySRRHash",
      "outputs": [
        {
          "internalType": "bool",
          "name": "hashMatches",
          "type": "bool"
        }
      ],
      "payable": false,
      "stateMutability": "pure",
      "type": "function"
    },
    {
      "constant": true,
      "inputs": [],
      "name": "getNameRegistryAddress",
      "outputs": [
        {
          "internalType": "address",
          "name": "",
          "type": "address"
        }
      ],
      "payable": false,
      "stateMutability": "view",
      "type": "function"
    }
  ],
  "bytecode": "0x6080604052612509806100136000396000f3fe608060405234801561001057600080fd5b50600436106100b45760003560e01c80638f32d59b116100715780638f32d59b1461017b578063bf1095b414610199578063c4d66de8146101c9578063c81e25ab146101e5578063e867ab7814610217578063f2fde38b14610233576100b4565b8063308014f5146100b95780634ef996d4146100d557806362b9bdc214610105578063715018a6146101235780637ba20a4d1461012d5780638da5cb5b1461015d575b600080fd5b6100d360048036036100ce919081019061173c565b61024f565b005b6100ef60048036036100ea9190810190611765565b610308565b6040516100fc9190611f7b565b60405180910390f35b61010d610341565b60405161011a9190611f45565b60405180910390f35b61012b61036b565b005b61014760048036036101429190810190611854565b610473565b6040516101549190612072565b60405180910390f35b610165610548565b6040516101729190611f45565b60405180910390f35b610183610572565b6040516101909190611f7b565b60405180910390f35b6101b360048036036101ae9190810190611672565b6105d1565b6040516101c091906121ef565b60405180910390f35b6101e360048036036101de9190810190611620565b6108de565b005b6101ff60048036036101fa919081019061173c565b610a12565b60405161020e93929190611fdb565b60405180910390f35b610231600480360361022c91908101906117c8565b610a76565b005b61024d60048036036102489190810190611620565b610cf3565b005b806066600082815260200190815260200160002060000160009054906101000a900460ff16156102b4576040517f08c379a00000000000000000000000000000000000000000000000000000000081526004016102ab9061212f565b60405180910390fd5b6102bc610572565b6102fb576040517f08c379a00000000000000000000000000000000000000000000000000000000081526004016102f29061214f565b60405180910390fd5b61030482610d46565b5050565b600083838360405160200161031f93929190611e60565b6040516020818303038152906040528051906020012085149050949350505050565b6000606760009054906101000a900473ffffffffffffffffffffffffffffffffffffffff16905090565b610373610572565b6103b2576040517f08c379a00000000000000000000000000000000000000000000000000000000081526004016103a99061214f565b60405180910390fd5b600073ffffffffffffffffffffffffffffffffffffffff16603360009054906101000a900473ffffffffffffffffffffffffffffffffffffffff1673ffffffffffffffffffffffffffffffffffffffff167f8be0079c531659141344cd1fd0a4f28419497f9722a3daafe3b4186f6b6457e060405160405180910390a36000603360006101000a81548173ffffffffffffffffffffffffffffffffffffffff021916908373ffffffffffffffffffffffffffffffffffffffff160217905550565b600080826040516020016104879190611ec9565b6040516020818303038152906040528051906020012090506040516020016104ae90611f1b565b604051602081830303815290604052805190602001208114156104d5576000915050610543565b6040516020016104e490611f06565b6040516020818303038152906040528051906020012081141561050b576001915050610543565b60405160200161051a90611f30565b60405160208183030381529060405280519060200120811415610541576002915050610543565b505b919050565b6000603360009054906101000a900473ffffffffffffffffffffffffffffffffffffffff16905090565b6000603360009054906101000a900473ffffffffffffffffffffffffffffffffffffffff1673ffffffffffffffffffffffffffffffffffffffff166105b5610e4c565b73ffffffffffffffffffffffffffffffffffffffff1614905090565b6000856066600082815260200190815260200160002060000160009054906101000a900460ff16610637576040517f08c379a000000000000000000000000000000000000000000000000000000000815260040161062e906120ef565b60405180910390fd5b868660666000838152602001908152602001600020600101600082815260200190815260200160002060009054906101000a900460ff16156106ae576040517f08c379a00000000000000000000000000000000000000000000000000000000081526004016106a5906121af565b60405180910390fd5b6106ba88888888610308565b6106f9576040517f08c379a00000000000000000000000000000000000000000000000000000000081526004016106f0906121cf565b60405180910390fd5b6107048a8a8a610e54565b610743576040517f08c379a000000000000000000000000000000000000000000000000000000000815260040161073a906120cf565b60405180910390fd5b6001606660008b815260200190815260200160002060010160008a815260200190815260200160002060006101000a81548160ff021916908315150217905550606660008a8152602001908152602001600020600001601581819054906101000a900460ff168092919060010191906101000a81548160ff021916908360ff160217905550506107d1610f01565b73ffffffffffffffffffffffffffffffffffffffff16639db171a0888888606660008f815260200190815260200160002060000160019054906101000a900473ffffffffffffffffffffffffffffffffffffffff166040518563ffffffff1660e01b81526004016108459493929190611f96565b602060405180830381600087803b15801561085f57600080fd5b505af1158015610873573d6000803e3d6000fd5b505050506040513d601f19601f820116820180604052506108979190810190611895565b9350887fdfaa618c92ac2a063b19734f3cc41d29ff6d2f0cfa172f99f22c7e5660f3e4c7896040516108c99190612012565b60405180910390a25050509695505050505050565b600060019054906101000a900460ff16806108fd57506108fc610fd8565b5b8061091457506000809054906101000a900460ff16155b610953576040517f08c379a000000000000000000000000000000000000000000000000000000000815260040161094a9061218f565b60405180910390fd5b60008060019054906101000a900460ff1615905080156109a3576001600060016101000a81548160ff02191690831515021790555060016000806101000a81548160ff0219169083151502179055505b81606760006101000a81548173ffffffffffffffffffffffffffffffffffffffff021916908373ffffffffffffffffffffffffffffffffffffffff1602179055506109ed33610fef565b8015610a0e5760008060016101000a81548160ff0219169083151502179055505b5050565b60666020528060005260406000206000915090508060000160009054906101000a900460ff16908060000160019054906101000a900473ffffffffffffffffffffffffffffffffffffffff16908060000160159054906101000a900460ff16905083565b836066600082815260200190815260200160002060000160009054906101000a900460ff1615610adb576040517f08c379a0000000000000000000000000000000000000000000000000000000008152600401610ad29061212f565b60405180910390fd5b610ae3611197565b73ffffffffffffffffffffffffffffffffffffffff1663938509d3336040518263ffffffff1660e01b8152600401610b1b9190611f60565b60206040518083038186803b158015610b3357600080fd5b505afa158015610b47573d6000803e3d6000fd5b505050506040513d601f19601f82011682018060405250610b6b9190810190611713565b80610b7a5750610b7961126e565b5b610bb9576040517f08c379a0000000000000000000000000000000000000000000000000000000008152600401610bb0906120af565b60405180910390fd5b6000610bc486611317565b9050600060018287878760405160008152602001604052604051610beb949392919061202d565b6020604051602081039080840390855afa158015610c0d573d6000803e3d6000fd5b5050506020604051035190503373ffffffffffffffffffffffffffffffffffffffff1663a2e1a8d8826040518263ffffffff1660e01b8152600401610c529190611f45565b60206040518083038186803b158015610c6a57600080fd5b505afa158015610c7e573d6000803e3d6000fd5b505050506040513d601f19601f82011682018060405250610ca29190810190611713565b610ce1576040517f08c379a0000000000000000000000000000000000000000000000000000000008152600401610cd89061216f565b60405180910390fd5b610cea87610d46565b50505050505050565b610cfb610572565b610d3a576040517f08c379a0000000000000000000000000000000000000000000000000000000008152600401610d319061214f565b60405180910390fd5b610d4381611347565b50565b60405180606001604052806001151581526020013373ffffffffffffffffffffffffffffffffffffffff168152602001600060ff168152506066600083815260200190815260200160002060008201518160000160006101000a81548160ff02191690831515021790555060208201518160000160016101000a81548173ffffffffffffffffffffffffffffffffffffffff021916908373ffffffffffffffffffffffffffffffffffffffff16021790555060408201518160000160156101000a81548160ff021916908360ff160217905550905050807fe4dd69b1474d45a85a99c7e40eac6c4da1d71b0fba50511c992c03d08fe329d860405160405180910390a250565b600033905090565b60008082905060008090505b8551811015610ef3576000868281518110610e7757fe5b6020026020010151905080831015610eb9578281604051602001610e9c929190611e9d565b604051602081830303815290604052805190602001209250610ee5565b8083604051602001610ecc929190611e9d565b6040516020818303038152906040528051906020012092505b508080600101915050610e60565b508381149150509392505050565b600080610f0c611477565b73ffffffffffffffffffffffffffffffffffffffff1663693ec85e6040518060400160405280600a81526020017f524f4f545f4c4f474943000000000000000000000000000000000000000000008152506040518263ffffffff1660e01b8152600401610f79919061208d565b60206040518083038186803b158015610f9157600080fd5b505afa158015610fa5573d6000803e3d6000fd5b505050506040513d601f19601f82011682018060405250610fc99190810190611649565b90506000819050809250505090565b6000803090506000813b9050600081149250505090565b600060019054906101000a900460ff168061100e575061100d610fd8565b5b8061102557506000809054906101000a900460ff16155b611064576040517f08c379a000000000000000000000000000000000000000000000000000000000815260040161105b9061218f565b60405180910390fd5b60008060019054906101000a900460ff1615905080156110b4576001600060016101000a81548160ff02191690831515021790555060016000806101000a81548160ff0219169083151502179055505b81603360006101000a81548173ffffffffffffffffffffffffffffffffffffffff021916908373ffffffffffffffffffffffffffffffffffffffff160217905550603360009054906101000a900473ffffffffffffffffffffffffffffffffffffffff1673ffffffffffffffffffffffffffffffffffffffff16600073ffffffffffffffffffffffffffffffffffffffff167f8be0079c531659141344cd1fd0a4f28419497f9722a3daafe3b4186f6b6457e060405160405180910390a380156111935760008060016101000a81548160ff0219169083151502179055505b5050565b6000806111a2611477565b73ffffffffffffffffffffffffffffffffffffffff1663693ec85e6040518060400160405280601c81526020017f4c4943454e5345445f555345525f57414c4c45545f464143544f5259000000008152506040518263ffffffff1660e01b815260040161120f919061208d565b60206040518083038186803b15801561122757600080fd5b505afa15801561123b573d6000803e3d6000fd5b505050506040513d601f19601f8201168201806040525061125f9190810190611649565b90506000819050809250505090565b60008033905060008190506000600281111561128657fe5b8173ffffffffffffffffffffffffffffffffffffffff1663419900776040518163ffffffff1660e01b815260040160206040518083038186803b1580156112cc57600080fd5b505afa1580156112e0573d6000803e3d6000fd5b505050506040513d601f19601f82011682018060405250611304919081019061182b565b600281111561130f57fe5b149250505090565b60008160405160200161132a9190611ee0565b604051602081830303815290604052805190602001209050919050565b600073ffffffffffffffffffffffffffffffffffffffff168173ffffffffffffffffffffffffffffffffffffffff1614156113b7576040517f08c379a00000000000000000000000000000000000000000000000000000000081526004016113ae9061210f565b60405180910390fd5b8073ffffffffffffffffffffffffffffffffffffffff16603360009054906101000a900473ffffffffffffffffffffffffffffffffffffffff1673ffffffffffffffffffffffffffffffffffffffff167f8be0079c531659141344cd1fd0a4f28419497f9722a3daafe3b4186f6b6457e060405160405180910390a380603360006101000a81548173ffffffffffffffffffffffffffffffffffffffff021916908373ffffffffffffffffffffffffffffffffffffffff16021790555050565b6000606760009054906101000a900473ffffffffffffffffffffffffffffffffffffffff16905090565b6000813590506114b081612443565b92915050565b6000815190506114c581612443565b92915050565b600082601f8301126114dc57600080fd5b81356114ef6114ea82612237565b61220a565b9150818183526020840193506020810190508385602084028201111561151457600080fd5b60005b83811015611544578161152a8882611578565b845260208401935060208301925050600181019050611517565b5050505092915050565b60008135905061155d8161245a565b92915050565b6000815190506115728161245a565b92915050565b60008135905061158781612471565b92915050565b60008151905061159c81612488565b92915050565b600082601f8301126115b357600080fd5b81356115c66115c18261225f565b61220a565b915080825260208301602083018583830111156115e257600080fd5b6115ed838284612377565b50505092915050565b60008151905061160581612498565b92915050565b60008135905061161a816124af565b92915050565b60006020828403121561163257600080fd5b6000611640848285016114a1565b91505092915050565b60006020828403121561165b57600080fd5b6000611669848285016114b6565b91505092915050565b60008060008060008060c0878903121561168b57600080fd5b600087013567ffffffffffffffff8111156116a557600080fd5b6116b189828a016114cb565b96505060206116c289828a01611578565b95505060406116d389828a01611578565b94505060606116e489828a0161154e565b93505060806116f589828a016114a1565b92505060a061170689828a01611578565b9150509295509295509295565b60006020828403121561172557600080fd5b600061173384828501611563565b91505092915050565b60006020828403121561174e57600080fd5b600061175c84828501611578565b91505092915050565b6000806000806080858703121561177b57600080fd5b600061178987828801611578565b945050602061179a8782880161154e565b93505060406117ab878288016114a1565b92505060606117bc87828801611578565b91505092959194509250565b600080600080608085870312156117de57600080fd5b60006117ec87828801611578565b94505060206117fd8782880161160b565b935050604061180e87828801611578565b925050606061181f87828801611578565b91505092959194509250565b60006020828403121561183d57600080fd5b600061184b8482850161158d565b91505092915050565b60006020828403121561186657600080fd5b600082013567ffffffffffffffff81111561188057600080fd5b61188c848285016115a2565b91505092915050565b6000602082840312156118a757600080fd5b60006118b5848285016115f6565b91505092915050565b6118c78161232f565b82525050565b6118d6816122bd565b82525050565b6118ed6118e8826122bd565b6123b9565b82525050565b6118fc816122cf565b82525050565b61191361190e826122cf565b6123cb565b82525050565b611922816122db565b82525050565b611939611934826122db565b6123dd565b82525050565b61194881612341565b82525050565b600061195982612296565b61196381856122b2565b9350611973818560208601612386565b80840191505092915050565b600061198a8261228b565b61199481856122a1565b93506119a4818560208601612386565b6119ad8161240b565b840191505092915050565b60006119c5603e836122a1565b91507f5468652073656e646572206973206e65697468657220746865206c6963656e7360008301527f6564207573657220636f6e7472616374206e6f72207468652061646d696e00006020830152604082019050919050565b6000611a2b601c836122b2565b91507f19457468657265756d205369676e6564204d6573736167653a0a3332000000006000830152601c82019050919050565b6000611a6b6020836122a1565b91507f4d65726b6c652070726f6f6620766572696669636174696f6e206661696c65646000830152602082019050919050565b6000611aab602d836122a1565b91507f426174636820646f65736e277420657869737420666f7220746865206769766560008301527f6e206d65726b6c6520726f6f74000000000000000000000000000000000000006020830152604082019050919050565b6000611b116026836122a1565b91507f4f776e61626c653a206e6577206f776e657220697320746865207a65726f206160008301527f64647265737300000000000000000000000000000000000000000000000000006020830152604082019050919050565b6000611b77602e836122a1565b91507f426174636820616c72656164792065786973747320666f72207468652067697660008301527f656e206d65726b6c6520726f6f740000000000000000000000000000000000006020830152604082019050919050565b6000611bdd6020836122a1565b91507f4f776e61626c653a2063616c6c6572206973206e6f7420746865206f776e65726000830152602082019050919050565b6000611c1d6039836122a1565b91507f5369676e6572206d75737420626520616e206f776e6572206f6e20746865206360008301527f616c6c696e67204c6963656e7365645573657257616c6c6574000000000000006020830152604082019050919050565b6000611c83602e836122a1565b91507f436f6e747261637420696e7374616e63652068617320616c726561647920626560008301527f656e20696e697469616c697a65640000000000000000000000000000000000006020830152604082019050919050565b6000611ce96016836122a1565b91507f53525220616c72656164792070726f6365737365642e000000000000000000006000830152602082019050919050565b6000611d296026836122a1565b91507f7372724861736820646f6573206e6f74206d617463682074686520737272206460008301527f657461696c7300000000000000000000000000000000000000000000000000006020830152604082019050919050565b6000611d8f6007836122b2565b91507f68616e646c6572000000000000000000000000000000000000000000000000006000830152600782019050919050565b6000611dcf6005836122b2565b91507f61646d696e0000000000000000000000000000000000000000000000000000006000830152600582019050919050565b6000611e0f6006836122b2565b91507f61727469737400000000000000000000000000000000000000000000000000006000830152600682019050919050565b611e4b81612318565b82525050565b611e5a81612322565b82525050565b6000611e6c8286611902565b600182019150611e7c82856118dc565b601482019150611e8c8284611928565b602082019150819050949350505050565b6000611ea98285611928565b602082019150611eb98284611928565b6020820191508190509392505050565b6000611ed5828461194e565b915081905092915050565b6000611eeb82611a1e565b9150611ef78284611928565b60208201915081905092915050565b6000611f1182611d82565b9150819050919050565b6000611f2682611dc2565b9150819050919050565b6000611f3b82611e02565b9150819050919050565b6000602082019050611f5a60008301846118cd565b92915050565b6000602082019050611f7560008301846118be565b92915050565b6000602082019050611f9060008301846118f3565b92915050565b6000608082019050611fab60008301876118f3565b611fb860208301866118cd565b611fc56040830185611919565b611fd260608301846118cd565b95945050505050565b6000606082019050611ff060008301866118f3565b611ffd60208301856118cd565b61200a6040830184611e51565b949350505050565b60006020820190506120276000830184611919565b92915050565b60006080820190506120426000830187611919565b61204f6020830186611e51565b61205c6040830185611919565b6120696060830184611919565b95945050505050565b6000602082019050612087600083018461193f565b92915050565b600060208201905081810360008301526120a7818461197f565b905092915050565b600060208201905081810360008301526120c8816119b8565b9050919050565b600060208201905081810360008301526120e881611a5e565b9050919050565b6000602082019050818103600083015261210881611a9e565b9050919050565b6000602082019050818103600083015261212881611b04565b9050919050565b6000602082019050818103600083015261214881611b6a565b9050919050565b6000602082019050818103600083015261216881611bd0565b9050919050565b6000602082019050818103600083015261218881611c10565b9050919050565b600060208201905081810360008301526121a881611c76565b9050919050565b600060208201905081810360008301526121c881611cdc565b9050919050565b600060208201905081810360008301526121e881611d1c565b9050919050565b60006020820190506122046000830184611e42565b92915050565b6000604051905081810181811067ffffffffffffffff8211171561222d57600080fd5b8060405250919050565b600067ffffffffffffffff82111561224e57600080fd5b602082029050602081019050919050565b600067ffffffffffffffff82111561227657600080fd5b601f19601f8301169050602081019050919050565b600081519050919050565b600081519050919050565b600082825260208201905092915050565b600081905092915050565b60006122c8826122f8565b9050919050565b60008115159050919050565b6000819050919050565b60008190506122f382612436565b919050565b600073ffffffffffffffffffffffffffffffffffffffff82169050919050565b6000819050919050565b600060ff82169050919050565b600061233a82612353565b9050919050565b600061234c826122e5565b9050919050565b600061235e82612365565b9050919050565b6000612370826122f8565b9050919050565b82818337600083830152505050565b60005b838110156123a4578082015181840152602081019050612389565b838111156123b3576000848401525b50505050565b60006123c4826123e7565b9050919050565b60006123d6826123f9565b9050919050565b6000819050919050565b60006123f282612429565b9050919050565b60006124048261241c565b9050919050565b6000601f19601f8301169050919050565b60008160f81b9050919050565b60008160601b9050919050565b6003811061244057fe5b50565b61244c816122bd565b811461245757600080fd5b50565b612463816122cf565b811461246e57600080fd5b50565b61247a816122db565b811461248557600080fd5b50565b6003811061249557600080fd5b50565b6124a181612318565b81146124ac57600080fd5b50565b6124b881612322565b81146124c357600080fd5b5056fea365627a7a72315820fe789e3c22341d5fec8cd48e1ed7299f3c4715a947b22fc4b32775ebd7ab1e0a6c6578706572696d656e74616cf564736f6c63430005100040",
  "source": "pragma solidity 0.5.16;\npragma experimental ABIEncoderV2;\n\nimport \"@openzeppelin/contracts-ethereum-package/contracts/ownership/Ownable.sol\";\nimport \"@openzeppelin/contracts-ethereum-package/contracts/cryptography/MerkleProof.sol\";\nimport \"@openzeppelin/contracts-ethereum-package/contracts/cryptography/ECDSA.sol\";\nimport \"@openzeppelin/upgrades/contracts/Initializable.sol\";\n\nimport \"../../rootLogic/contracts/RootLogic.sol\";\nimport \"../../licensedUser/contracts/LicensedUserWalletFactory.sol\";\nimport \"../../licensedUser/contracts/LicensedUserLogic.sol\";\nimport \"../../licensedUser/contracts/IdentityUserType.sol\";\nimport \"../../name/contracts/Contracts.sol\";\n\ncontract BulkIssue is IdentityUserType, Contracts, Initializable, Ownable {\n  using ECDSA for bytes32;\n  /*\n   * Structs\n   */\n  struct Batch {\n    bool prepared;\n    address issuer;\n    uint8 processedCount;\n    mapping(bytes32 => bool) processedLeaves;\n  }\n\n  /*\n   * Events\n   */\n  event BatchPrepared(bytes32 indexed merkleRoot);\n\n  event CreateSRRWithProof(bytes32 indexed merkleRoot, bytes32 srrHash);\n\n  /*\n   * Storages\n   */\n  mapping(bytes32 => Batch) public batches;\n  address private _nameRegistryAddress;\n\n  /*\n   * Modifiers\n   */\n  modifier isNewBatch(bytes32 merkleRoot) {\n    require(\n      !batches[merkleRoot].prepared,\n      \"Batch already exists for the given merkle root\"\n    );\n    _;\n  }\n\n  modifier batchExists(bytes32 merkleRoot) {\n    require(\n      batches[merkleRoot].prepared,\n      \"Batch doesn't exist for the given merkle root\"\n    );\n    _;\n  }\n\n  modifier srrNotAlreadyProcessed(bytes32 merkleRoot, bytes32 srrHash) {\n    require(\n      !batches[merkleRoot].processedLeaves[srrHash],\n      \"SRR already processed.\"\n    );\n    _;\n  }\n\n  modifier onlyLicensedUser() {\n    require(\n      _userFactory().instantiation(msg.sender) || _isAdmin(),\n      \"The sender is neither the licensed user contract nor the admin\"\n    );\n    _;\n  }\n\n  /*\n   * Public functions\n   */\n\n  /**\n   * @dev Initializes the BulkIssue contract\n   */\n  function initialize(address nameRegistry) public initializer {\n    _nameRegistryAddress = nameRegistry;\n    Ownable.initialize(msg.sender);\n  }\n\n  /**\n   * @dev Reserves a batch request before excuting\n   * @param merkleRoot bytes32 of merkle root\n   */\n  function prepareBatch(bytes32 merkleRoot)\n    public\n    isNewBatch(merkleRoot)\n    onlyOwner\n  {\n    _prepareBatch(merkleRoot);\n  }\n\n  /**\n   * @dev Reserves a batch request before excuting\n   * @param merkleRoot bytes32 of merkle root\n   * @param v uint8 of sig.v\n   * @param r bytes32 of sig.r\n   * @param s bytes32 of sig.s\n   */\n  function prepareBatchFromLicensedUser(\n    bytes32 merkleRoot,\n    uint8 v,\n    bytes32 r,\n    bytes32 s\n  ) public isNewBatch(merkleRoot) onlyLicensedUser {\n    bytes32 messageHash = merkleRoot.toEthSignedMessageHash();\n    address signer = ecrecover(messageHash, v, r, s);\n    require(\n      LicensedUserLogic(msg.sender).isOwnerAddress(signer),\n      \"Signer must be an owner on the calling LicensedUserWallet\"\n    );\n    _prepareBatch(merkleRoot);\n  }\n\n  /**\n   * @dev Creates SRR with merkle proof\n   * @param merkleProof bytes32 of merkle proof value\n   * @param merkleRoot bytes32 of merkle root value\n   * @param srrHash bytes32 of merkle tree leaf\n   * @param isPrimaryIssuer boolean whether the user is a primary issuer\n   * @param artistAddress address of the artist contract\n   * @param metadataDigest bytes32 of metadata hash\n   * @return uint256 tokenId\n   */\n  function createSRRWithProof(\n    bytes32[] memory merkleProof,\n    bytes32 merkleRoot,\n    bytes32 srrHash,\n    bool isPrimaryIssuer,\n    address artistAddress,\n    bytes32 metadataDigest\n  )\n    public\n    batchExists(merkleRoot)\n    srrNotAlreadyProcessed(merkleRoot, srrHash)\n    returns (uint256 tokenId)\n  {\n    require(\n      verifySRRHash(srrHash, isPrimaryIssuer, artistAddress, metadataDigest),\n      \"srrHash does not match the srr details\"\n    );\n\n    require(\n      MerkleProof.verify(merkleProof, merkleRoot, srrHash),\n      \"Merkle proof verification failed\"\n    );\n\n    batches[merkleRoot].processedLeaves[srrHash] = true;\n    batches[merkleRoot].processedCount++;\n\n    tokenId = _rootLogic().createSRRFromBulk(\n      isPrimaryIssuer,\n      artistAddress,\n      metadataDigest,\n      batches[merkleRoot].issuer // LUW address - issuer\n    );\n    emit CreateSRRWithProof(merkleRoot, srrHash);\n  }\n\n  /**\n   * @dev Verify the hash of the params when creating SRR\n   * @param srrHash bytes32 of hash value of all other params\n   * @param isPrimaryIssuer boolean whether the user is a primary issuer\n   * @param artistAddress address of the artist contract\n   * @param metadataDigest bytes32 of metadata hash\n   * @return whether the hash matches or not\n   */\n  function verifySRRHash(\n    bytes32 srrHash,\n    bool isPrimaryIssuer,\n    address artistAddress,\n    bytes32 metadataDigest\n  ) public pure returns (bool hashMatches) {\n    hashMatches =\n      srrHash ==\n      keccak256(\n        abi.encodePacked(isPrimaryIssuer, artistAddress, metadataDigest)\n      );\n  }\n\n  /**\n   * @dev Gets the endpoint address of NameRegistry\n   * @return NameRegistry proxy address\n   */\n  function getNameRegistryAddress() public view returns (address) {\n    return _nameRegistryAddress;\n  }\n\n  /**\n   * Private functions\n   */\n\n  function _prepareBatch(bytes32 merkleRoot) private {\n    batches[merkleRoot] = Batch({\n      prepared: true,\n      issuer: msg.sender,\n      processedCount: 0\n    });\n    emit BatchPrepared(merkleRoot);\n  }\n\n  function _isAdmin() private view returns (bool) {\n    address proxy = msg.sender;\n    LicensedUserLogic logic = LicensedUserLogic(proxy);\n    return logic.getUserType() == UserType.ADMIN;\n  }\n\n  function _nameRegistry() private view returns (NameRegistry) {\n    return NameRegistry(_nameRegistryAddress);\n  }\n\n  function _rootLogic() private view returns (RootLogic) {\n    address rootLogicAddress = _nameRegistry().get(ROOT_LOGIC);\n    RootLogic rootLogic = RootLogic(rootLogicAddress);\n    return rootLogic;\n  }\n\n  function _userFactory() private view returns (LicensedUserWalletFactory) {\n    address licensedUserWalletFactoryAddress = _nameRegistry().get(\n      LICENSED_USER_WALLET_FACTORY\n    );\n    LicensedUserWalletFactory factory = LicensedUserWalletFactory(\n      licensedUserWalletFactoryAddress\n    );\n    return factory;\n  }\n}\n",
  "sourcePath": "/root/project/app/batch/contracts/BulkIssue.sol",
  "compiler": {
    "name": "solc",
    "version": "0.5.16+commit.9c3226ce.Emscripten.clang"
  },
  "schemaVersion": "3.0.23",
  "updatedAt": "2020-08-03T06:33:50.299Z",
  "networkType": "ethereum",
  "devdoc": {
    "methods": {
      "createSRRWithProof(bytes32[],bytes32,bytes32,bool,address,bytes32)": {
        "details": "Creates SRR with merkle proof",
        "params": {
          "artistAddress": "address of the artist contract",
          "isPrimaryIssuer": "boolean whether the user is a primary issuer",
          "merkleProof": "bytes32 of merkle proof value",
          "merkleRoot": "bytes32 of merkle root value",
          "metadataDigest": "bytes32 of metadata hash",
          "srrHash": "bytes32 of merkle tree leaf"
        },
        "return": "uint256 tokenId"
      },
      "getNameRegistryAddress()": {
        "details": "Gets the endpoint address of NameRegistry",
        "return": "NameRegistry proxy address"
      },
      "getUserType(string)": {
        "details": "Gets user type",
        "params": {
          "_type": "string of the user type"
        },
        "return": "UserType"
      },
      "initialize(address)": {
        "details": "Initializes the BulkIssue contract"
      },
      "isOwner()": {
        "details": "Returns true if the caller is the current owner."
      },
      "owner()": {
        "details": "Returns the address of the current owner."
      },
      "prepareBatch(bytes32)": {
        "details": "Reserves a batch request before excuting",
        "params": {
          "merkleRoot": "bytes32 of merkle root"
        }
      },
      "prepareBatchFromLicensedUser(bytes32,uint8,bytes32,bytes32)": {
        "details": "Reserves a batch request before excuting",
        "params": {
          "merkleRoot": "bytes32 of merkle root",
          "r": "bytes32 of sig.r",
          "s": "bytes32 of sig.s",
          "v": "uint8 of sig.v"
        }
      },
      "renounceOwnership()": {
        "details": "Leaves the contract without owner. It will not be possible to call `onlyOwner` functions anymore. Can only be called by the current owner.     * > Note: Renouncing ownership will leave the contract without an owner, thereby removing any functionality that is only available to the owner."
      },
      "transferOwnership(address)": {
        "details": "Transfers ownership of the contract to a new account (`newOwner`). Can only be called by the current owner."
      },
      "verifySRRHash(bytes32,bool,address,bytes32)": {
        "details": "Verify the hash of the params when creating SRR",
        "params": {
          "artistAddress": "address of the artist contract",
          "isPrimaryIssuer": "boolean whether the user is a primary issuer",
          "metadataDigest": "bytes32 of metadata hash",
          "srrHash": "bytes32 of hash value of all other params"
        },
        "return": "whether the hash matches or not"
      }
    }
  },
  "userdoc": {
    "methods": {}
  }
}