{
  "contractName": "BulkIssue",
  "abi": [
    {
      "anonymous": false,
      "inputs": [
        {
          "indexed": true,
          "internalType": "bytes32",
          "name": "merkleRoot",
          "type": "bytes32"
        }
      ],
      "name": "BatchPrepared",
      "type": "event"
    },
    {
      "anonymous": false,
      "inputs": [
        {
          "indexed": true,
          "internalType": "bytes32",
          "name": "merkleRoot",
          "type": "bytes32"
        },
        {
          "indexed": false,
          "internalType": "bytes32",
          "name": "srrHash",
          "type": "bytes32"
        }
      ],
      "name": "CreateSRRWithProof",
      "type": "event"
    },
    {
      "anonymous": false,
      "inputs": [
        {
          "indexed": true,
          "internalType": "address",
          "name": "previousOwner",
          "type": "address"
        },
        {
          "indexed": true,
          "internalType": "address",
          "name": "newOwner",
          "type": "address"
        }
      ],
      "name": "OwnershipTransferred",
      "type": "event"
    },
    {
      "inputs": [],
      "name": "ADMIN_PROXY",
      "outputs": [
        {
          "internalType": "string",
          "name": "",
          "type": "string"
        }
      ],
      "stateMutability": "view",
      "type": "function",
      "constant": true
    },
    {
      "inputs": [],
      "name": "BULK_ISSUE",
      "outputs": [
        {
          "internalType": "string",
          "name": "",
          "type": "string"
        }
      ],
      "stateMutability": "view",
      "type": "function",
      "constant": true
    },
    {
      "inputs": [],
      "name": "LICENSED_USER_EVENT",
      "outputs": [
        {
          "internalType": "string",
          "name": "",
          "type": "string"
        }
      ],
      "stateMutability": "view",
      "type": "function",
      "constant": true
    },
    {
      "inputs": [],
      "name": "LICENSED_USER_LOGIC",
      "outputs": [
        {
          "internalType": "string",
          "name": "",
          "type": "string"
        }
      ],
      "stateMutability": "view",
      "type": "function",
      "constant": true
    },
    {
      "inputs": [],
      "name": "LICENSED_USER_WALLET_FACTORY",
      "outputs": [
        {
          "internalType": "string",
          "name": "",
          "type": "string"
        }
      ],
      "stateMutability": "view",
      "type": "function",
      "constant": true
    },
    {
      "inputs": [],
      "name": "ROOT_LOGIC",
      "outputs": [
        {
          "internalType": "string",
          "name": "",
          "type": "string"
        }
      ],
      "stateMutability": "view",
      "type": "function",
      "constant": true
    },
    {
      "inputs": [],
      "name": "STARTRAIL_REGISTRY",
      "outputs": [
        {
          "internalType": "string",
          "name": "",
          "type": "string"
        }
      ],
      "stateMutability": "view",
      "type": "function",
      "constant": true
    },
    {
      "inputs": [
        {
          "internalType": "bytes32",
          "name": "",
          "type": "bytes32"
        }
      ],
      "name": "batches",
      "outputs": [
        {
          "internalType": "bool",
          "name": "prepared",
          "type": "bool"
        },
        {
          "internalType": "address",
          "name": "issuer",
          "type": "address"
        },
        {
          "internalType": "uint8",
          "name": "processedCount",
          "type": "uint8"
        }
      ],
      "stateMutability": "view",
      "type": "function",
      "constant": true
    },
    {
      "inputs": [
        {
          "internalType": "string",
          "name": "_type",
          "type": "string"
        }
      ],
      "name": "getUserType",
      "outputs": [
        {
          "internalType": "enum IdentityUserType.UserType",
          "name": "",
          "type": "uint8"
        }
      ],
      "stateMutability": "pure",
      "type": "function",
      "constant": true
    },
    {
      "inputs": [],
      "name": "owner",
      "outputs": [
        {
          "internalType": "address",
          "name": "",
          "type": "address"
        }
      ],
      "stateMutability": "view",
      "type": "function",
      "constant": true
    },
    {
      "inputs": [],
      "name": "renounceOwnership",
      "outputs": [],
      "stateMutability": "nonpayable",
      "type": "function"
    },
    {
      "inputs": [
        {
          "internalType": "address",
          "name": "newOwner",
          "type": "address"
        }
      ],
      "name": "transferOwnership",
      "outputs": [],
      "stateMutability": "nonpayable",
      "type": "function"
    },
    {
      "inputs": [
        {
          "internalType": "address",
          "name": "nameRegistry",
          "type": "address"
        }
      ],
      "name": "initialize",
      "outputs": [],
      "stateMutability": "nonpayable",
      "type": "function"
    },
    {
      "inputs": [
        {
          "internalType": "bytes32",
          "name": "merkleRoot",
          "type": "bytes32"
        }
      ],
      "name": "prepareBatch",
      "outputs": [],
      "stateMutability": "nonpayable",
      "type": "function"
    },
    {
      "inputs": [
        {
          "internalType": "bytes32",
          "name": "merkleRoot",
          "type": "bytes32"
        },
        {
          "internalType": "uint8",
          "name": "v",
          "type": "uint8"
        },
        {
          "internalType": "bytes32",
          "name": "r",
          "type": "bytes32"
        },
        {
          "internalType": "bytes32",
          "name": "s",
          "type": "bytes32"
        }
      ],
      "name": "prepareBatchFromLicensedUser",
      "outputs": [],
      "stateMutability": "nonpayable",
      "type": "function"
    },
    {
      "inputs": [
        {
          "internalType": "bytes32[]",
          "name": "merkleProof",
          "type": "bytes32[]"
        },
        {
          "internalType": "bytes32",
          "name": "merkleRoot",
          "type": "bytes32"
        },
        {
          "internalType": "bytes32",
          "name": "srrHash",
          "type": "bytes32"
        },
        {
          "internalType": "bool",
          "name": "isPrimaryIssuer",
          "type": "bool"
        },
        {
          "internalType": "address",
          "name": "artistAddress",
          "type": "address"
        },
        {
          "internalType": "bytes32",
          "name": "metadataDigest",
          "type": "bytes32"
        }
      ],
      "name": "createSRRWithProof",
      "outputs": [
        {
          "internalType": "uint256",
          "name": "tokenId",
          "type": "uint256"
        }
      ],
      "stateMutability": "nonpayable",
      "type": "function"
    },
    {
      "inputs": [
        {
          "internalType": "bytes32",
          "name": "srrHash",
          "type": "bytes32"
        },
        {
          "internalType": "bool",
          "name": "isPrimaryIssuer",
          "type": "bool"
        },
        {
          "internalType": "address",
          "name": "artistAddress",
          "type": "address"
        },
        {
          "internalType": "bytes32",
          "name": "metadataDigest",
          "type": "bytes32"
        }
      ],
      "name": "verifySRRHash",
      "outputs": [
        {
          "internalType": "bool",
          "name": "hashMatches",
          "type": "bool"
        }
      ],
      "stateMutability": "pure",
      "type": "function",
      "constant": true
    },
    {
      "inputs": [],
      "name": "getNameRegistryAddress",
      "outputs": [
        {
          "internalType": "address",
          "name": "",
          "type": "address"
        }
      ],
      "stateMutability": "view",
      "type": "function",
      "constant": true
    }
  ],
  "bytecode": "0x608060405234801561001057600080fd5b5061290e806100206000396000f3fe608060405234801561001057600080fd5b50600436106101165760003560e01c80636d3cb692116100a2578063bf1095b411610071578063bf1095b4146102af578063c4d66de8146102df578063c81e25ab146102fb578063e867ab781461032d578063f2fde38b1461034957610116565b80636d3cb69214610239578063715018a6146102575780637ba20a4d146102615780638da5cb5b1461029157610116565b8063338023e9116100e9578063338023e9146101915780634ef996d4146101af578063566d6896146101df578063616412f8146101fd57806362b9bdc21461021b57610116565b806309f271b01461011b5780631c21bab014610139578063308014f514610157578063326f594814610173575b600080fd5b610123610365565b60405161013091906124aa565b60405180910390f35b61014161039e565b60405161014e91906124aa565b60405180910390f35b610171600480360381019061016c9190611b59565b6103d7565b005b61017b6104e0565b60405161018891906124aa565b60405180910390f35b610199610519565b6040516101a691906124aa565b60405180910390f35b6101c960048036038101906101c49190611b82565b610552565b6040516101d69190612398565b60405180910390f35b6101e761058b565b6040516101f491906124aa565b60405180910390f35b6102056105c4565b60405161021291906124aa565b60405180910390f35b6102236105fd565b6040516102309190612362565b60405180910390f35b610241610627565b60405161024e91906124aa565b60405180910390f35b61025f610660565b005b61027b60048036038101906102769190611c71565b6107b8565b604051610288919061248f565b60405180910390f35b61029961088d565b6040516102a69190612362565b60405180910390f35b6102c960048036038101906102c49190611a8f565b6108b7565b6040516102d6919061260c565b60405180910390f35b6102f960048036038101906102f49190611a3d565b610bc4565b005b61031560048036038101906103109190611b59565b610cf7565b604051610324939291906123f8565b60405180910390f35b61034760048036038101906103429190611be5565b610d5b565b005b610363600480360381019061035e9190611a3d565b610fd8565b005b6040518060400160405280601281526020017f53544152545241494c5f5245474953545259000000000000000000000000000081525081565b6040518060400160405280601c81526020017f4c4943454e5345445f555345525f57414c4c45545f464143544f52590000000081525081565b806097600082815260200190815260200160002060000160009054906101000a900460ff161561043c576040517f08c379a00000000000000000000000000000000000000000000000000000000081526004016104339061254c565b60405180910390fd5b61044461119f565b73ffffffffffffffffffffffffffffffffffffffff16606560009054906101000a900473ffffffffffffffffffffffffffffffffffffffff1673ffffffffffffffffffffffffffffffffffffffff16146104d3576040517f08c379a00000000000000000000000000000000000000000000000000000000081526004016104ca9061256c565b60405180910390fd5b6104dc826111a7565b5050565b6040518060400160405280600b81526020017f41444d494e5f50524f585900000000000000000000000000000000000000000081525081565b6040518060400160405280600a81526020017f524f4f545f4c4f4749430000000000000000000000000000000000000000000081525081565b60008383836040516020016105699392919061227d565b6040516020818303038152906040528051906020012085149050949350505050565b6040518060400160405280601381526020017f4c4943454e5345445f555345525f4556454e540000000000000000000000000081525081565b6040518060400160405280600a81526020017f42554c4b5f49535355450000000000000000000000000000000000000000000081525081565b6000609860009054906101000a900473ffffffffffffffffffffffffffffffffffffffff16905090565b6040518060400160405280601381526020017f4c4943454e5345445f555345525f4c4f4749430000000000000000000000000081525081565b61066861119f565b73ffffffffffffffffffffffffffffffffffffffff16606560009054906101000a900473ffffffffffffffffffffffffffffffffffffffff1673ffffffffffffffffffffffffffffffffffffffff16146106f7576040517f08c379a00000000000000000000000000000000000000000000000000000000081526004016106ee9061256c565b60405180910390fd5b600073ffffffffffffffffffffffffffffffffffffffff16606560009054906101000a900473ffffffffffffffffffffffffffffffffffffffff1673ffffffffffffffffffffffffffffffffffffffff167f8be0079c531659141344cd1fd0a4f28419497f9722a3daafe3b4186f6b6457e060405160405180910390a36000606560006101000a81548173ffffffffffffffffffffffffffffffffffffffff021916908373ffffffffffffffffffffffffffffffffffffffff160217905550565b600080826040516020016107cc91906122e6565b6040516020818303038152906040528051906020012090506040516020016107f390612338565b6040516020818303038152906040528051906020012081141561081a576000915050610888565b60405160200161082990612323565b60405160208183030381529060405280519060200120811415610850576001915050610888565b60405160200161085f9061234d565b60405160208183030381529060405280519060200120811415610886576002915050610888565b505b919050565b6000606560009054906101000a900473ffffffffffffffffffffffffffffffffffffffff16905090565b6000856097600082815260200190815260200160002060000160009054906101000a900460ff1661091d576040517f08c379a00000000000000000000000000000000000000000000000000000000081526004016109149061250c565b60405180910390fd5b868660976000838152602001908152602001600020600101600082815260200190815260200160002060009054906101000a900460ff1615610994576040517f08c379a000000000000000000000000000000000000000000000000000000000815260040161098b906125cc565b60405180910390fd5b6109a088888888610552565b6109df576040517f08c379a00000000000000000000000000000000000000000000000000000000081526004016109d6906125ec565b60405180910390fd5b6109ea8a8a8a6112ad565b610a29576040517f08c379a0000000000000000000000000000000000000000000000000000000008152600401610a20906124ec565b60405180910390fd5b6001609760008b815260200190815260200160002060010160008a815260200190815260200160002060006101000a81548160ff021916908315150217905550609760008a8152602001908152602001600020600001601581819054906101000a900460ff168092919060010191906101000a81548160ff021916908360ff16021790555050610ab7611359565b73ffffffffffffffffffffffffffffffffffffffff16639db171a0888888609760008f815260200190815260200160002060000160019054906101000a900473ffffffffffffffffffffffffffffffffffffffff166040518563ffffffff1660e01b8152600401610b2b94939291906123b3565b602060405180830381600087803b158015610b4557600080fd5b505af1158015610b59573d6000803e3d6000fd5b505050506040513d601f19601f82011682018060405250810190610b7d9190611cb2565b9350887fdfaa618c92ac2a063b19734f3cc41d29ff6d2f0cfa172f99f22c7e5660f3e4c789604051610baf919061242f565b60405180910390a25050509695505050505050565b600060019054906101000a900460ff1680610be35750610be2611430565b5b80610bfa57506000809054906101000a900460ff16155b610c39576040517f08c379a0000000000000000000000000000000000000000000000000000000008152600401610c30906125ac565b60405180910390fd5b60008060019054906101000a900460ff161590508015610c89576001600060016101000a81548160ff02191690831515021790555060016000806101000a81548160ff0219169083151502179055505b81609860006101000a81548173ffffffffffffffffffffffffffffffffffffffff021916908373ffffffffffffffffffffffffffffffffffffffff160217905550610cd2611447565b8015610cf35760008060016101000a81548160ff0219169083151502179055505b5050565b60976020528060005260406000206000915090508060000160009054906101000a900460ff16908060000160019054906101000a900473ffffffffffffffffffffffffffffffffffffffff16908060000160159054906101000a900460ff16905083565b836097600082815260200190815260200160002060000160009054906101000a900460ff1615610dc0576040517f08c379a0000000000000000000000000000000000000000000000000000000008152600401610db79061254c565b60405180910390fd5b610dc8611540565b73ffffffffffffffffffffffffffffffffffffffff1663938509d3336040518263ffffffff1660e01b8152600401610e00919061237d565b60206040518083038186803b158015610e1857600080fd5b505afa158015610e2c573d6000803e3d6000fd5b505050506040513d601f19601f82011682018060405250810190610e509190611b30565b80610e5f5750610e5e61156a565b5b610e9e576040517f08c379a0000000000000000000000000000000000000000000000000000000008152600401610e95906124cc565b60405180910390fd5b6000610ea986611613565b9050600060018287878760405160008152602001604052604051610ed0949392919061244a565b6020604051602081039080840390855afa158015610ef2573d6000803e3d6000fd5b5050506020604051035190503373ffffffffffffffffffffffffffffffffffffffff1663a2e1a8d8826040518263ffffffff1660e01b8152600401610f379190612362565b60206040518083038186803b158015610f4f57600080fd5b505afa158015610f63573d6000803e3d6000fd5b505050506040513d601f19601f82011682018060405250810190610f879190611b30565b610fc6576040517f08c379a0000000000000000000000000000000000000000000000000000000008152600401610fbd9061258c565b60405180910390fd5b610fcf876111a7565b50505050505050565b610fe061119f565b73ffffffffffffffffffffffffffffffffffffffff16606560009054906101000a900473ffffffffffffffffffffffffffffffffffffffff1673ffffffffffffffffffffffffffffffffffffffff161461106f576040517f08c379a00000000000000000000000000000000000000000000000000000000081526004016110669061256c565b60405180910390fd5b600073ffffffffffffffffffffffffffffffffffffffff168173ffffffffffffffffffffffffffffffffffffffff1614156110df576040517f08c379a00000000000000000000000000000000000000000000000000000000081526004016110d69061252c565b60405180910390fd5b8073ffffffffffffffffffffffffffffffffffffffff16606560009054906101000a900473ffffffffffffffffffffffffffffffffffffffff1673ffffffffffffffffffffffffffffffffffffffff167f8be0079c531659141344cd1fd0a4f28419497f9722a3daafe3b4186f6b6457e060405160405180910390a380606560006101000a81548173ffffffffffffffffffffffffffffffffffffffff021916908373ffffffffffffffffffffffffffffffffffffffff16021790555050565b600033905090565b60405180606001604052806001151581526020013373ffffffffffffffffffffffffffffffffffffffff168152602001600060ff168152506097600083815260200190815260200160002060008201518160000160006101000a81548160ff02191690831515021790555060208201518160000160016101000a81548173ffffffffffffffffffffffffffffffffffffffff021916908373ffffffffffffffffffffffffffffffffffffffff16021790555060408201518160000160156101000a81548160ff021916908360ff160217905550905050807fe4dd69b1474d45a85a99c7e40eac6c4da1d71b0fba50511c992c03d08fe329d860405160405180910390a250565b60008082905060008090505b855181101561134b5760008682815181106112d057fe5b602002602001015190508083116113115782816040516020016112f49291906122ba565b60405160208183030381529060405280519060200120925061133d565b80836040516020016113249291906122ba565b6040516020818303038152906040528051906020012092505b5080806001019150506112b9565b508381149150509392505050565b600080611364611540565b73ffffffffffffffffffffffffffffffffffffffff1663693ec85e6040518060400160405280600a81526020017f524f4f545f4c4f474943000000000000000000000000000000000000000000008152506040518263ffffffff1660e01b81526004016113d191906124aa565b60206040518083038186803b1580156113e957600080fd5b505afa1580156113fd573d6000803e3d6000fd5b505050506040513d601f19601f820116820180604052508101906114219190611a66565b90506000819050809250505090565b6000803090506000813b9050600081149250505090565b600060019054906101000a900460ff16806114665750611465611430565b5b8061147d57506000809054906101000a900460ff16155b6114bc576040517f08c379a00000000000000000000000000000000000000000000000000000000081526004016114b3906125ac565b60405180910390fd5b60008060019054906101000a900460ff16159050801561150c576001600060016101000a81548160ff02191690831515021790555060016000806101000a81548160ff0219169083151502179055505b611514611643565b61151c61172c565b801561153d5760008060016101000a81548160ff0219169083151502179055505b50565b6000609860009054906101000a900473ffffffffffffffffffffffffffffffffffffffff16905090565b60008033905060008190506000600281111561158257fe5b8173ffffffffffffffffffffffffffffffffffffffff1663419900776040518163ffffffff1660e01b815260040160206040518083038186803b1580156115c857600080fd5b505afa1580156115dc573d6000803e3d6000fd5b505050506040513d601f19601f820116820180604052508101906116009190611c48565b600281111561160b57fe5b149250505090565b60008160405160200161162691906122fd565b604051602081830303815290604052805190602001209050919050565b600060019054906101000a900460ff16806116625750611661611430565b5b8061167957506000809054906101000a900460ff16155b6116b8576040517f08c379a00000000000000000000000000000000000000000000000000000000081526004016116af906125ac565b60405180910390fd5b60008060019054906101000a900460ff161590508015611708576001600060016101000a81548160ff02191690831515021790555060016000806101000a81548160ff0219169083151502179055505b80156117295760008060016101000a81548160ff0219169083151502179055505b50565b600060019054906101000a900460ff168061174b575061174a611430565b5b8061176257506000809054906101000a900460ff16155b6117a1576040517f08c379a0000000000000000000000000000000000000000000000000000000008152600401611798906125ac565b60405180910390fd5b60008060019054906101000a900460ff1615905080156117f1576001600060016101000a81548160ff02191690831515021790555060016000806101000a81548160ff0219169083151502179055505b60006117fb61119f565b905080606560006101000a81548173ffffffffffffffffffffffffffffffffffffffff021916908373ffffffffffffffffffffffffffffffffffffffff1602179055508073ffffffffffffffffffffffffffffffffffffffff16600073ffffffffffffffffffffffffffffffffffffffff167f8be0079c531659141344cd1fd0a4f28419497f9722a3daafe3b4186f6b6457e060405160405180910390a35080156118bb5760008060016101000a81548160ff0219169083151502179055505b50565b6000813590506118cd81612855565b92915050565b6000815190506118e281612855565b92915050565b600082601f8301126118f957600080fd5b813561190c61190782612654565b612627565b9150818183526020840193506020810190508385602084028201111561193157600080fd5b60005b8381101561196157816119478882611995565b845260208401935060208301925050600181019050611934565b5050505092915050565b60008135905061197a8161286c565b92915050565b60008151905061198f8161286c565b92915050565b6000813590506119a481612883565b92915050565b6000815190506119b98161289a565b92915050565b600082601f8301126119d057600080fd5b81356119e36119de8261267c565b612627565b915080825260208301602083018583830111156119ff57600080fd5b611a0a838284612789565b50505092915050565b600081519050611a22816128aa565b92915050565b600081359050611a37816128c1565b92915050565b600060208284031215611a4f57600080fd5b6000611a5d848285016118be565b91505092915050565b600060208284031215611a7857600080fd5b6000611a86848285016118d3565b91505092915050565b60008060008060008060c08789031215611aa857600080fd5b600087013567ffffffffffffffff811115611ac257600080fd5b611ace89828a016118e8565b9650506020611adf89828a01611995565b9550506040611af089828a01611995565b9450506060611b0189828a0161196b565b9350506080611b1289828a016118be565b92505060a0611b2389828a01611995565b9150509295509295509295565b600060208284031215611b4257600080fd5b6000611b5084828501611980565b91505092915050565b600060208284031215611b6b57600080fd5b6000611b7984828501611995565b91505092915050565b60008060008060808587031215611b9857600080fd5b6000611ba687828801611995565b9450506020611bb78782880161196b565b9350506040611bc8878288016118be565b9250506060611bd987828801611995565b91505092959194509250565b60008060008060808587031215611bfb57600080fd5b6000611c0987828801611995565b9450506020611c1a87828801611a28565b9350506040611c2b87828801611995565b9250506060611c3c87828801611995565b91505092959194509250565b600060208284031215611c5a57600080fd5b6000611c68848285016119aa565b91505092915050565b600060208284031215611c8357600080fd5b600082013567ffffffffffffffff811115611c9d57600080fd5b611ca9848285016119bf565b91505092915050565b600060208284031215611cc457600080fd5b6000611cd284828501611a13565b91505092915050565b611ce481612741565b82525050565b611cf3816126cf565b82525050565b611d0a611d05826126cf565b6127cb565b82525050565b611d19816126e1565b82525050565b611d30611d2b826126e1565b6127dd565b82525050565b611d3f816126ed565b82525050565b611d56611d51826126ed565b6127ef565b82525050565b611d6581612753565b82525050565b6000611d76826126a8565b611d8081856126b3565b9350611d90818560208601612798565b611d998161281d565b840191505092915050565b6000611daf826126a8565b611db981856126c4565b9350611dc9818560208601612798565b80840191505092915050565b6000611de2603e836126b3565b91507f5468652073656e646572206973206e65697468657220746865206c6963656e7360008301527f6564207573657220636f6e7472616374206e6f72207468652061646d696e00006020830152604082019050919050565b6000611e48601c836126c4565b91507f19457468657265756d205369676e6564204d6573736167653a0a3332000000006000830152601c82019050919050565b6000611e886020836126b3565b91507f4d65726b6c652070726f6f6620766572696669636174696f6e206661696c65646000830152602082019050919050565b6000611ec8602d836126b3565b91507f426174636820646f65736e277420657869737420666f7220746865206769766560008301527f6e206d65726b6c6520726f6f74000000000000000000000000000000000000006020830152604082019050919050565b6000611f2e6026836126b3565b91507f4f776e61626c653a206e6577206f776e657220697320746865207a65726f206160008301527f64647265737300000000000000000000000000000000000000000000000000006020830152604082019050919050565b6000611f94602e836126b3565b91507f426174636820616c72656164792065786973747320666f72207468652067697660008301527f656e206d65726b6c6520726f6f740000000000000000000000000000000000006020830152604082019050919050565b6000611ffa6020836126b3565b91507f4f776e61626c653a2063616c6c6572206973206e6f7420746865206f776e65726000830152602082019050919050565b600061203a6039836126b3565b91507f5369676e6572206d75737420626520616e206f776e6572206f6e20746865206360008301527f616c6c696e67204c6963656e7365645573657257616c6c6574000000000000006020830152604082019050919050565b60006120a0602e836126b3565b91507f436f6e747261637420696e7374616e63652068617320616c726561647920626560008301527f656e20696e697469616c697a65640000000000000000000000000000000000006020830152604082019050919050565b60006121066016836126b3565b91507f53525220616c72656164792070726f6365737365642e000000000000000000006000830152602082019050919050565b60006121466026836126b3565b91507f7372724861736820646f6573206e6f74206d617463682074686520737272206460008301527f657461696c7300000000000000000000000000000000000000000000000000006020830152604082019050919050565b60006121ac6007836126c4565b91507f68616e646c6572000000000000000000000000000000000000000000000000006000830152600782019050919050565b60006121ec6005836126c4565b91507f61646d696e0000000000000000000000000000000000000000000000000000006000830152600582019050919050565b600061222c6006836126c4565b91507f61727469737400000000000000000000000000000000000000000000000000006000830152600682019050919050565b6122688161272a565b82525050565b61227781612734565b82525050565b60006122898286611d1f565b6001820191506122998285611cf9565b6014820191506122a98284611d45565b602082019150819050949350505050565b60006122c68285611d45565b6020820191506122d68284611d45565b6020820191508190509392505050565b60006122f28284611da4565b915081905092915050565b600061230882611e3b565b91506123148284611d45565b60208201915081905092915050565b600061232e8261219f565b9150819050919050565b6000612343826121df565b9150819050919050565b60006123588261221f565b9150819050919050565b60006020820190506123776000830184611cea565b92915050565b60006020820190506123926000830184611cdb565b92915050565b60006020820190506123ad6000830184611d10565b92915050565b60006080820190506123c86000830187611d10565b6123d56020830186611cea565b6123e26040830185611d36565b6123ef6060830184611cea565b95945050505050565b600060608201905061240d6000830186611d10565b61241a6020830185611cea565b612427604083018461226e565b949350505050565b60006020820190506124446000830184611d36565b92915050565b600060808201905061245f6000830187611d36565b61246c602083018661226e565b6124796040830185611d36565b6124866060830184611d36565b95945050505050565b60006020820190506124a46000830184611d5c565b92915050565b600060208201905081810360008301526124c48184611d6b565b905092915050565b600060208201905081810360008301526124e581611dd5565b9050919050565b6000602082019050818103600083015261250581611e7b565b9050919050565b6000602082019050818103600083015261252581611ebb565b9050919050565b6000602082019050818103600083015261254581611f21565b9050919050565b6000602082019050818103600083015261256581611f87565b9050919050565b6000602082019050818103600083015261258581611fed565b9050919050565b600060208201905081810360008301526125a58161202d565b9050919050565b600060208201905081810360008301526125c581612093565b9050919050565b600060208201905081810360008301526125e5816120f9565b9050919050565b6000602082019050818103600083015261260581612139565b9050919050565b6000602082019050612621600083018461225f565b92915050565b6000604051905081810181811067ffffffffffffffff8211171561264a57600080fd5b8060405250919050565b600067ffffffffffffffff82111561266b57600080fd5b602082029050602081019050919050565b600067ffffffffffffffff82111561269357600080fd5b601f19601f8301169050602081019050919050565b600081519050919050565b600082825260208201905092915050565b600081905092915050565b60006126da8261270a565b9050919050565b60008115159050919050565b6000819050919050565b600081905061270582612848565b919050565b600073ffffffffffffffffffffffffffffffffffffffff82169050919050565b6000819050919050565b600060ff82169050919050565b600061274c82612765565b9050919050565b600061275e826126f7565b9050919050565b600061277082612777565b9050919050565b60006127828261270a565b9050919050565b82818337600083830152505050565b60005b838110156127b657808201518184015260208101905061279b565b838111156127c5576000848401525b50505050565b60006127d6826127f9565b9050919050565b60006127e88261280b565b9050919050565b6000819050919050565b60006128048261283b565b9050919050565b60006128168261282e565b9050919050565b6000601f19601f8301169050919050565b60008160f81b9050919050565b60008160601b9050919050565b6003811061285257fe5b50565b61285e816126cf565b811461286957600080fd5b50565b612875816126e1565b811461288057600080fd5b50565b61288c816126ed565b811461289757600080fd5b50565b600381106128a757600080fd5b50565b6128b38161272a565b81146128be57600080fd5b50565b6128ca81612734565b81146128d557600080fd5b5056fea26469706673582212204d8d6b07101f7fbeb9209044ebc769b6ab888ac820cf2e12ecbbfaa0eddab9e564736f6c634300060b0033",
  "source": "pragma solidity 0.6.11;\npragma experimental ABIEncoderV2;\n\nimport \"@openzeppelin/contracts/cryptography/MerkleProof.sol\";\nimport \"@openzeppelin/contracts/cryptography/ECDSA.sol\";\nimport \"@openzeppelin/contracts-ethereum-package/contracts/access/Ownable.sol\";\n\nimport \"../../rootLogic/contracts/RootLogic.sol\";\nimport \"../../licensedUser/contracts/LicensedUserLogic.sol\";\nimport \"../../licensedUser/contracts/IdentityUserType.sol\";\nimport \"../../name/contracts/Contracts.sol\";\n\ncontract BulkIssue is IdentityUserType, Contracts, OwnableUpgradeSafe {\n  using ECDSA for bytes32;\n  /*\n   * Structs\n   */\n  struct Batch {\n    bool prepared;\n    address issuer;\n    uint8 processedCount;\n    mapping(bytes32 => bool) processedLeaves;\n  }\n\n  /*\n   * Events\n   */\n  event BatchPrepared(bytes32 indexed merkleRoot);\n\n  event CreateSRRWithProof(bytes32 indexed merkleRoot, bytes32 srrHash);\n\n  /*\n   * Storages\n   */\n  mapping(bytes32 => Batch) public batches;\n  address private _nameRegistryAddress;\n\n  /*\n   * Modifiers\n   */\n  modifier isNewBatch(bytes32 merkleRoot) {\n    require(\n      !batches[merkleRoot].prepared,\n      \"Batch already exists for the given merkle root\"\n    );\n    _;\n  }\n\n  modifier batchExists(bytes32 merkleRoot) {\n    require(\n      batches[merkleRoot].prepared,\n      \"Batch doesn't exist for the given merkle root\"\n    );\n    _;\n  }\n\n  modifier srrNotAlreadyProcessed(bytes32 merkleRoot, bytes32 srrHash) {\n    require(\n      !batches[merkleRoot].processedLeaves[srrHash],\n      \"SRR already processed.\"\n    );\n    _;\n  }\n\n  modifier onlyLicensedUser() {\n    require(\n      _nameRegistry().instantiation(msg.sender) || _isAdmin(),\n      \"The sender is neither the licensed user contract nor the admin\"\n    );\n    _;\n  }\n\n  /*\n   * Public functions\n   */\n\n  /**\n   * @dev Initializes the BulkIssue contract\n   */\n  function initialize(address nameRegistry) public initializer {\n    _nameRegistryAddress = nameRegistry;\n    OwnableUpgradeSafe.__Ownable_init();\n  }\n\n  /**\n   * @dev Reserves a batch request before excuting\n   * @param merkleRoot bytes32 of merkle root\n   */\n  function prepareBatch(bytes32 merkleRoot)\n    public\n    isNewBatch(merkleRoot)\n    onlyOwner\n  {\n    _prepareBatch(merkleRoot);\n  }\n\n  /**\n   * @dev Reserves a batch request before excuting\n   * @param merkleRoot bytes32 of merkle root\n   * @param v uint8 of sig.v\n   * @param r bytes32 of sig.r\n   * @param s bytes32 of sig.s\n   */\n  function prepareBatchFromLicensedUser(\n    bytes32 merkleRoot,\n    uint8 v,\n    bytes32 r,\n    bytes32 s\n  ) public isNewBatch(merkleRoot) onlyLicensedUser {\n    bytes32 messageHash = merkleRoot.toEthSignedMessageHash();\n    address signer = ecrecover(messageHash, v, r, s);\n    require(\n      LicensedUserLogic(msg.sender).isOwnerAddress(signer),\n      \"Signer must be an owner on the calling LicensedUserWallet\"\n    );\n    _prepareBatch(merkleRoot);\n  }\n\n  /**\n   * @dev Creates SRR with merkle proof\n   * @param merkleProof bytes32 of merkle proof value\n   * @param merkleRoot bytes32 of merkle root value\n   * @param srrHash bytes32 of merkle tree leaf\n   * @param isPrimaryIssuer boolean whether the user is a primary issuer\n   * @param artistAddress address of the artist contract\n   * @param metadataDigest bytes32 of metadata hash\n   */\n  function createSRRWithProof(\n    bytes32[] memory merkleProof,\n    bytes32 merkleRoot,\n    bytes32 srrHash,\n    bool isPrimaryIssuer,\n    address artistAddress,\n    bytes32 metadataDigest\n  )\n    public\n    batchExists(merkleRoot)\n    srrNotAlreadyProcessed(merkleRoot, srrHash)\n    returns (uint256 tokenId)\n  {\n    require(\n      verifySRRHash(srrHash, isPrimaryIssuer, artistAddress, metadataDigest),\n      \"srrHash does not match the srr details\"\n    );\n\n    require(\n      MerkleProof.verify(merkleProof, merkleRoot, srrHash),\n      \"Merkle proof verification failed\"\n    );\n\n    batches[merkleRoot].processedLeaves[srrHash] = true;\n    batches[merkleRoot].processedCount++;\n\n    tokenId = _rootLogic().createSRRFromBulk(\n      isPrimaryIssuer,\n      artistAddress,\n      metadataDigest,\n      batches[merkleRoot].issuer // LUW address - issuer\n    );\n    emit CreateSRRWithProof(merkleRoot, srrHash);\n  }\n\n  /**\n   * @dev Verify the hash of the params when creating SRR\n   * @param srrHash bytes32 of hash value of all other params\n   * @param isPrimaryIssuer boolean whether the user is a primary issuer\n   * @param artistAddress address of the artist contract\n   * @param metadataDigest bytes32 of metadata hash\n   */\n  function verifySRRHash(\n    bytes32 srrHash,\n    bool isPrimaryIssuer,\n    address artistAddress,\n    bytes32 metadataDigest\n  ) public pure returns (bool hashMatches) {\n    hashMatches =\n      srrHash ==\n      keccak256(\n        abi.encodePacked(isPrimaryIssuer, artistAddress, metadataDigest)\n      );\n  }\n\n  /**\n   * @dev Gets the endpoint address of NameRegistry\n   * @return NameRegistry proxy address\n   */\n  function getNameRegistryAddress() public view returns (address) {\n    return _nameRegistryAddress;\n  }\n\n  /**\n   * Private functions\n   */\n\n  function _prepareBatch(bytes32 merkleRoot) private {\n    batches[merkleRoot] = Batch({\n      prepared: true,\n      issuer: msg.sender,\n      processedCount: 0\n    });\n    emit BatchPrepared(merkleRoot);\n  }\n\n  function _isAdmin() private view returns (bool) {\n    address proxy = msg.sender;\n    LicensedUserLogic logic = LicensedUserLogic(proxy);\n    return logic.getUserType() == UserType.ADMIN;\n  }\n\n  function _nameRegistry() private view returns (NameRegistry) {\n    return NameRegistry(_nameRegistryAddress);\n  }\n\n  function _rootLogic() private view returns (RootLogic) {\n    address rootLogicAddress = _nameRegistry().get(ROOT_LOGIC);\n    RootLogic rootLogic = RootLogic(rootLogicAddress);\n    return rootLogic;\n  }\n}\n",
  "sourcePath": "/Users/hasnaeen/startbahn/dev/startrail/app/batch/contracts/BulkIssue.sol",
  "compiler": {
    "name": "solc",
    "version": "0.6.11+commit.5ef660b1.Emscripten.clang"
  },
  "schemaVersion": "3.0.23",
  "updatedAt": "2020-08-19T06:33:04.137Z",
  "networkType": "ethereum",
  "devdoc": {
    "kind": "dev",
    "methods": {
      "createSRRWithProof(bytes32[],bytes32,bytes32,bool,address,bytes32)": {
        "details": "Creates SRR with merkle proof",
        "params": {
          "artistAddress": "address of the artist contract",
          "isPrimaryIssuer": "boolean whether the user is a primary issuer",
          "merkleProof": "bytes32 of merkle proof value",
          "merkleRoot": "bytes32 of merkle root value",
          "metadataDigest": "bytes32 of metadata hash",
          "srrHash": "bytes32 of merkle tree leaf"
        }
      },
      "getNameRegistryAddress()": {
        "details": "Gets the endpoint address of NameRegistry",
        "returns": {
          "_0": "NameRegistry proxy address"
        }
      },
      "getUserType(string)": {
        "details": "Gets user type",
        "params": {
          "_type": "string of the user type"
        },
        "returns": {
          "_0": "UserType"
        }
      },
      "initialize(address)": {
        "details": "Initializes the BulkIssue contract"
      },
      "owner()": {
        "details": "Returns the address of the current owner."
      },
      "prepareBatch(bytes32)": {
        "details": "Reserves a batch request before excuting",
        "params": {
          "merkleRoot": "bytes32 of merkle root"
        }
      },
      "prepareBatchFromLicensedUser(bytes32,uint8,bytes32,bytes32)": {
        "details": "Reserves a batch request before excuting",
        "params": {
          "merkleRoot": "bytes32 of merkle root",
          "r": "bytes32 of sig.r",
          "s": "bytes32 of sig.s",
          "v": "uint8 of sig.v"
        }
      },
      "renounceOwnership()": {
        "details": "Leaves the contract without owner. It will not be possible to call `onlyOwner` functions anymore. Can only be called by the current owner. NOTE: Renouncing ownership will leave the contract without an owner, thereby removing any functionality that is only available to the owner."
      },
      "transferOwnership(address)": {
        "details": "Transfers ownership of the contract to a new account (`newOwner`). Can only be called by the current owner."
      },
      "verifySRRHash(bytes32,bool,address,bytes32)": {
        "details": "Verify the hash of the params when creating SRR",
        "params": {
          "artistAddress": "address of the artist contract",
          "isPrimaryIssuer": "boolean whether the user is a primary issuer",
          "metadataDigest": "bytes32 of metadata hash",
          "srrHash": "bytes32 of hash value of all other params"
        }
      }
    },
    "version": 1
  },
  "userdoc": {
    "kind": "user",
    "methods": {},
    "version": 1
  }
}