{
  "contractName": "LicensedUserEvent",
  "abi": [
    {
      "anonymous": false,
      "inputs": [
        {
          "indexed": true,
          "internalType": "address",
          "name": "sender",
          "type": "address"
        },
        {
          "indexed": true,
          "internalType": "address",
          "name": "instantiation",
          "type": "address"
        }
      ],
      "name": "ContractInstantiation",
      "type": "event"
    },
    {
      "anonymous": false,
      "inputs": [
        {
          "indexed": true,
          "internalType": "address",
          "name": "contractAddress",
          "type": "address"
        },
        {
          "indexed": false,
          "internalType": "address[]",
          "name": "owners",
          "type": "address[]"
        },
        {
          "indexed": false,
          "internalType": "uint256",
          "name": "requiredConfirmation",
          "type": "uint256"
        },
        {
          "indexed": false,
          "internalType": "string",
          "name": "englishName",
          "type": "string"
        },
        {
          "indexed": false,
          "internalType": "string",
          "name": "originalName",
          "type": "string"
        },
        {
          "indexed": false,
          "internalType": "string",
          "name": "userType",
          "type": "string"
        }
      ],
      "name": "CreateLicensedUserWallet",
      "type": "event"
    },
    {
      "anonymous": false,
      "inputs": [
        {
          "indexed": true,
          "internalType": "address",
          "name": "proxyContractAddr",
          "type": "address"
        },
        {
          "indexed": true,
          "internalType": "address",
          "name": "sender",
          "type": "address"
        },
        {
          "indexed": true,
          "internalType": "uint256",
          "name": "transactionId",
          "type": "uint256"
        }
      ],
      "name": "MultiSigConfirmation",
      "type": "event"
    },
    {
      "anonymous": false,
      "inputs": [
        {
          "indexed": true,
          "internalType": "address",
          "name": "proxyContractAddr",
          "type": "address"
        },
        {
          "indexed": true,
          "internalType": "uint256",
          "name": "transactionId",
          "type": "uint256"
        }
      ],
      "name": "MultiSigExecution",
      "type": "event"
    },
    {
      "anonymous": false,
      "inputs": [
        {
          "indexed": true,
          "internalType": "address",
          "name": "proxyContractAddr",
          "type": "address"
        },
        {
          "indexed": true,
          "internalType": "uint256",
          "name": "transactionId",
          "type": "uint256"
        }
      ],
      "name": "MultiSigExecutionFailure",
      "type": "event"
    },
    {
      "anonymous": false,
      "inputs": [
        {
          "indexed": true,
          "internalType": "address",
          "name": "proxyContractAddr",
          "type": "address"
        },
        {
          "indexed": true,
          "internalType": "address",
          "name": "owner",
          "type": "address"
        }
      ],
      "name": "MultiSigOwnerAddition",
      "type": "event"
    },
    {
      "anonymous": false,
      "inputs": [
        {
          "indexed": true,
          "internalType": "address",
          "name": "proxyContractAddr",
          "type": "address"
        },
        {
          "indexed": true,
          "internalType": "address",
          "name": "owner",
          "type": "address"
        }
      ],
      "name": "MultiSigOwnerRemoval",
      "type": "event"
    },
    {
      "anonymous": false,
      "inputs": [
        {
          "indexed": true,
          "internalType": "address",
          "name": "proxyContractAddr",
          "type": "address"
        },
        {
          "indexed": false,
          "internalType": "uint256",
          "name": "required",
          "type": "uint256"
        }
      ],
      "name": "MultiSigRequirementChange",
      "type": "event"
    },
    {
      "anonymous": false,
      "inputs": [
        {
          "indexed": true,
          "internalType": "address",
          "name": "proxyContractAddr",
          "type": "address"
        },
        {
          "indexed": true,
          "internalType": "address",
          "name": "sender",
          "type": "address"
        },
        {
          "indexed": true,
          "internalType": "uint256",
          "name": "transactionId",
          "type": "uint256"
        }
      ],
      "name": "MultiSigRevocation",
      "type": "event"
    },
    {
      "anonymous": false,
      "inputs": [
        {
          "indexed": true,
          "internalType": "address",
          "name": "proxyContractAddr",
          "type": "address"
        },
        {
          "indexed": true,
          "internalType": "uint256",
          "name": "transactionId",
          "type": "uint256"
        }
      ],
      "name": "MultiSigSubmission",
      "type": "event"
    },
    {
      "anonymous": false,
      "inputs": [
        {
          "indexed": true,
          "internalType": "address",
          "name": "previousOwner",
          "type": "address"
        },
        {
          "indexed": true,
          "internalType": "address",
          "name": "newOwner",
          "type": "address"
        }
      ],
      "name": "OwnershipTransferred",
      "type": "event"
    },
    {
      "inputs": [],
      "name": "ADMIN_PROXY",
      "outputs": [
        {
          "internalType": "string",
          "name": "",
          "type": "string"
        }
      ],
      "stateMutability": "view",
      "type": "function",
      "constant": true
    },
    {
      "inputs": [],
      "name": "BULK_ISSUE",
      "outputs": [
        {
          "internalType": "string",
          "name": "",
          "type": "string"
        }
      ],
      "stateMutability": "view",
      "type": "function",
      "constant": true
    },
    {
      "inputs": [],
      "name": "LICENSED_USER_EVENT",
      "outputs": [
        {
          "internalType": "string",
          "name": "",
          "type": "string"
        }
      ],
      "stateMutability": "view",
      "type": "function",
      "constant": true
    },
    {
      "inputs": [],
      "name": "LICENSED_USER_LOGIC",
      "outputs": [
        {
          "internalType": "string",
          "name": "",
          "type": "string"
        }
      ],
      "stateMutability": "view",
      "type": "function",
      "constant": true
    },
    {
      "inputs": [],
      "name": "LICENSED_USER_WALLET_FACTORY",
      "outputs": [
        {
          "internalType": "string",
          "name": "",
          "type": "string"
        }
      ],
      "stateMutability": "view",
      "type": "function",
      "constant": true
    },
    {
      "inputs": [],
      "name": "ROOT_LOGIC",
      "outputs": [
        {
          "internalType": "string",
          "name": "",
          "type": "string"
        }
      ],
      "stateMutability": "view",
      "type": "function",
      "constant": true
    },
    {
      "inputs": [],
      "name": "STARTRAIL_REGISTRY",
      "outputs": [
        {
          "internalType": "string",
          "name": "",
          "type": "string"
        }
      ],
      "stateMutability": "view",
      "type": "function",
      "constant": true
    },
    {
      "inputs": [
        {
          "internalType": "string",
          "name": "_type",
          "type": "string"
        }
      ],
      "name": "getUserType",
      "outputs": [
        {
          "internalType": "enum IdentityUserType.UserType",
          "name": "",
          "type": "uint8"
        }
      ],
      "stateMutability": "pure",
      "type": "function",
      "constant": true
    },
    {
      "inputs": [],
      "name": "owner",
      "outputs": [
        {
          "internalType": "address",
          "name": "",
          "type": "address"
        }
      ],
      "stateMutability": "view",
      "type": "function",
      "constant": true
    },
    {
      "inputs": [],
      "name": "renounceOwnership",
      "outputs": [],
      "stateMutability": "nonpayable",
      "type": "function"
    },
    {
      "inputs": [
        {
          "internalType": "address",
          "name": "newOwner",
          "type": "address"
        }
      ],
      "name": "transferOwnership",
      "outputs": [],
      "stateMutability": "nonpayable",
      "type": "function"
    },
    {
      "inputs": [
        {
          "internalType": "address",
          "name": "registryAddress",
          "type": "address"
        }
      ],
      "name": "initialize",
      "outputs": [],
      "stateMutability": "nonpayable",
      "type": "function"
    },
    {
      "inputs": [
        {
          "internalType": "address",
          "name": "registry",
          "type": "address"
        }
      ],
      "name": "setRegistry",
      "outputs": [],
      "stateMutability": "nonpayable",
      "type": "function"
    },
    {
      "inputs": [],
      "name": "getNameRegistry",
      "outputs": [
        {
          "internalType": "contract NameRegistry",
          "name": "",
          "type": "address"
        }
      ],
      "stateMutability": "view",
      "type": "function",
      "constant": true
    },
    {
      "inputs": [
        {
          "internalType": "address",
          "name": "instantiation",
          "type": "address"
        }
      ],
      "name": "logContractInstantiation",
      "outputs": [],
      "stateMutability": "nonpayable",
      "type": "function"
    },
    {
      "inputs": [
        {
          "internalType": "address",
          "name": "contractAddress",
          "type": "address"
        },
        {
          "internalType": "address[]",
          "name": "owners",
          "type": "address[]"
        },
        {
          "internalType": "uint256",
          "name": "requiredConfirmation",
          "type": "uint256"
        },
        {
          "internalType": "string",
          "name": "englishName",
          "type": "string"
        },
        {
          "internalType": "string",
          "name": "originalName",
          "type": "string"
        },
        {
          "internalType": "string",
          "name": "userType",
          "type": "string"
        }
      ],
      "name": "logCreateLicensedUserWallet",
      "outputs": [],
      "stateMutability": "nonpayable",
      "type": "function"
    },
    {
      "inputs": [
        {
          "internalType": "address",
          "name": "sender",
          "type": "address"
        },
        {
          "internalType": "uint256",
          "name": "transactionId",
          "type": "uint256"
        }
      ],
      "name": "logConfirmation",
      "outputs": [],
      "stateMutability": "nonpayable",
      "type": "function"
    },
    {
      "inputs": [
        {
          "internalType": "address",
          "name": "sender",
          "type": "address"
        },
        {
          "internalType": "uint256",
          "name": "transactionId",
          "type": "uint256"
        }
      ],
      "name": "logRevocation",
      "outputs": [],
      "stateMutability": "nonpayable",
      "type": "function"
    },
    {
      "inputs": [
        {
          "internalType": "uint256",
          "name": "transactionId",
          "type": "uint256"
        }
      ],
      "name": "logSubmission",
      "outputs": [],
      "stateMutability": "nonpayable",
      "type": "function"
    },
    {
      "inputs": [
        {
          "internalType": "uint256",
          "name": "transactionId",
          "type": "uint256"
        }
      ],
      "name": "logExecution",
      "outputs": [],
      "stateMutability": "nonpayable",
      "type": "function"
    },
    {
      "inputs": [
        {
          "internalType": "uint256",
          "name": "transactionId",
          "type": "uint256"
        }
      ],
      "name": "logExecutionFailure",
      "outputs": [],
      "stateMutability": "nonpayable",
      "type": "function"
    },
    {
      "inputs": [
        {
          "internalType": "address",
          "name": "owner",
          "type": "address"
        }
      ],
      "name": "logOwnerAddition",
      "outputs": [],
      "stateMutability": "nonpayable",
      "type": "function"
    },
    {
      "inputs": [
        {
          "internalType": "address",
          "name": "owner",
          "type": "address"
        }
      ],
      "name": "logOwnerRemoval",
      "outputs": [],
      "stateMutability": "nonpayable",
      "type": "function"
    },
    {
      "inputs": [
        {
          "internalType": "uint256",
          "name": "required",
          "type": "uint256"
        }
      ],
      "name": "logRequirementChange",
      "outputs": [],
      "stateMutability": "nonpayable",
      "type": "function"
    }
  ],
  "bytecode": "0x608060405234801561001057600080fd5b506122f0806100206000396000f3fe608060405234801561001057600080fd5b50600436106101585760003560e01c80635ca52393116100c35780637ba20a4d1161007c5780637ba20a4d146103535780638da5cb5b14610383578063a91ee0dc146103a1578063c4d66de8146103bd578063cc93c02a146103d9578063f2fde38b146103f557610158565b80635ca52393146102b95780635fa9cb75146102d5578063616412f8146102f1578063620ee6361461030f5780636d3cb6921461032b578063715018a61461034957610158565b8063338023e911610115578063338023e91461020b578063342e08d0146102295780633b897546146102475780633d77cabc14610263578063498586c21461027f578063566d68961461029b57610158565b8063046df94e1461015d57806309f271b0146101795780630a8cc42a146101975780631c21bab0146101b357806325232a33146101d1578063326f5948146101ed575b600080fd5b61017760048036038101906101729190611a8a565b610411565b005b61018161049f565b60405161018e9190611f90565b60405180910390f35b6101b160048036038101906101ac91906118a9565b6104d8565b005b6101bb61057c565b6040516101c89190611f90565b60405180910390f35b6101eb60048036038101906101e69190611a8a565b6105b5565b005b6101f561064d565b6040516102029190611f90565b60405180910390f35b610213610686565b6040516102209190611f90565b60405180910390f35b6102316106bf565b60405161023e9190611f5a565b60405180910390f35b610261600480360381019061025c91906118a9565b6106e9565b005b61027d60048036038101906102789190611a8a565b61078d565b005b610299600480360381019061029491906118fb565b61081b565b005b6102a36108c0565b6040516102b09190611f90565b60405180910390f35b6102d360048036038101906102ce91906119e4565b6108f9565b005b6102ef60048036038101906102ea91906118a9565b61099f565b005b6102f9610a43565b6040516103069190611f90565b60405180910390f35b61032960048036038101906103249190611a8a565b610a7c565b005b610333610b0a565b6040516103409190611f90565b60405180910390f35b610351610b43565b005b61036d60048036038101906103689190611a49565b610c9b565b60405161037a9190611f75565b60405180910390f35b61038b610d70565b6040516103989190611eb5565b60405180910390f35b6103bb60048036038101906103b691906118a9565b610d9a565b005b6103d760048036038101906103d291906118a9565b610e75565b005b6103f360048036038101906103ee91906119e4565b610fa8565b005b61040f600480360381019061040a91906118a9565b61104e565b005b610419611215565b610458576040517f08c379a000000000000000000000000000000000000000000000000000000000815260040161044f90611fd2565b60405180910390fd5b803373ffffffffffffffffffffffffffffffffffffffff167fa02599e73766b76852cf005ba83f740c6af9b6e26db9335054e3c9097ed3e0eb60405160405180910390a350565b6040518060400160405280601281526020017f53544152545241494c5f5245474953545259000000000000000000000000000081525081565b6104e0611215565b61051f576040517f08c379a000000000000000000000000000000000000000000000000000000000815260040161051690611fd2565b60405180910390fd5b8073ffffffffffffffffffffffffffffffffffffffff163373ffffffffffffffffffffffffffffffffffffffff167f5a89e44cea7ace68f75164b54a4b11c9bdc65c96f213dc2fac95ec00035f3e2a60405160405180910390a350565b6040518060400160405280601c81526020017f4c4943454e5345445f555345525f57414c4c45545f464143544f52590000000081525081565b6105bd611215565b6105fc576040517f08c379a00000000000000000000000000000000000000000000000000000000081526004016105f390611fd2565b60405180910390fd5b3373ffffffffffffffffffffffffffffffffffffffff167fd07fe6bd34bcd24f883b97337dbebc30fa5204756ebe4a823c7b86bb321b43e0826040516106429190612052565b60405180910390a250565b6040518060400160405280600b81526020017f41444d494e5f50524f585900000000000000000000000000000000000000000081525081565b6040518060400160405280600a81526020017f524f4f545f4c4f4749430000000000000000000000000000000000000000000081525081565b6000609760009054906101000a900473ffffffffffffffffffffffffffffffffffffffff16905090565b6106f1611215565b610730576040517f08c379a000000000000000000000000000000000000000000000000000000000815260040161072790611fd2565b60405180910390fd5b8073ffffffffffffffffffffffffffffffffffffffff163373ffffffffffffffffffffffffffffffffffffffff167f6dda67ea74fde8ae702522d8fb09acd8e790d4a8ac87cd4e12217b2dd316e12460405160405180910390a350565b610795611215565b6107d4576040517f08c379a00000000000000000000000000000000000000000000000000000000081526004016107cb90611fd2565b60405180910390fd5b803373ffffffffffffffffffffffffffffffffffffffff167f11dd68eeac29773a69a86bc6e8a18801cd046b534f6b56b62a67dee08e1eed2260405160405180910390a350565b6108236112c7565b610862576040517f08c379a000000000000000000000000000000000000000000000000000000000815260040161085990611ff2565b60405180910390fd5b8573ffffffffffffffffffffffffffffffffffffffff167f131869768d537d8606405a036793a3c3b84b5481c0f6626e34c4544977405d0e86868686866040516108b0959493929190611eeb565b60405180910390a2505050505050565b6040518060400160405280601381526020017f4c4943454e5345445f555345525f4556454e540000000000000000000000000081525081565b610901611215565b610940576040517f08c379a000000000000000000000000000000000000000000000000000000000815260040161093790611fd2565b60405180910390fd5b808273ffffffffffffffffffffffffffffffffffffffff163373ffffffffffffffffffffffffffffffffffffffff167fca219580730b38cf32828597dec7c356c5c64bc45acd6937aff49c8bf4a4eeb560405160405180910390a45050565b6109a76112c7565b6109e6576040517f08c379a00000000000000000000000000000000000000000000000000000000081526004016109dd90611ff2565b60405180910390fd5b8073ffffffffffffffffffffffffffffffffffffffff163373ffffffffffffffffffffffffffffffffffffffff167f4fb057ad4a26ed17a57957fa69c306f11987596069b89521c511fc9a894e616160405160405180910390a350565b6040518060400160405280600a81526020017f42554c4b5f49535355450000000000000000000000000000000000000000000081525081565b610a84611215565b610ac3576040517f08c379a0000000000000000000000000000000000000000000000000000000008152600401610aba90611fd2565b60405180910390fd5b803373ffffffffffffffffffffffffffffffffffffffff167ffbe1baba46c2fff39c189a5f582f8ecb7c6faa9663066f3d4754f33e13a3936860405160405180910390a350565b6040518060400160405280601381526020017f4c4943454e5345445f555345525f4c4f4749430000000000000000000000000081525081565b610b4b611304565b73ffffffffffffffffffffffffffffffffffffffff16606560009054906101000a900473ffffffffffffffffffffffffffffffffffffffff1673ffffffffffffffffffffffffffffffffffffffff1614610bda576040517f08c379a0000000000000000000000000000000000000000000000000000000008152600401610bd190612012565b60405180910390fd5b600073ffffffffffffffffffffffffffffffffffffffff16606560009054906101000a900473ffffffffffffffffffffffffffffffffffffffff1673ffffffffffffffffffffffffffffffffffffffff167f8be0079c531659141344cd1fd0a4f28419497f9722a3daafe3b4186f6b6457e060405160405180910390a36000606560006101000a81548173ffffffffffffffffffffffffffffffffffffffff021916908373ffffffffffffffffffffffffffffffffffffffff160217905550565b60008082604051602001610caf9190611e5f565b604051602081830303815290604052805190602001209050604051602001610cd690611e8b565b60405160208183030381529060405280519060200120811415610cfd576000915050610d6b565b604051602001610d0c90611e76565b60405160208183030381529060405280519060200120811415610d33576001915050610d6b565b604051602001610d4290611ea0565b60405160208183030381529060405280519060200120811415610d69576002915050610d6b565b505b919050565b6000606560009054906101000a900473ffffffffffffffffffffffffffffffffffffffff16905090565b610da2611304565b73ffffffffffffffffffffffffffffffffffffffff16606560009054906101000a900473ffffffffffffffffffffffffffffffffffffffff1673ffffffffffffffffffffffffffffffffffffffff1614610e31576040517f08c379a0000000000000000000000000000000000000000000000000000000008152600401610e2890612012565b60405180910390fd5b80609760006101000a81548173ffffffffffffffffffffffffffffffffffffffff021916908373ffffffffffffffffffffffffffffffffffffffff16021790555050565b600060019054906101000a900460ff1680610e945750610e9361130c565b5b80610eab57506000809054906101000a900460ff16155b610eea576040517f08c379a0000000000000000000000000000000000000000000000000000000008152600401610ee190612032565b60405180910390fd5b60008060019054906101000a900460ff161590508015610f3a576001600060016101000a81548160ff02191690831515021790555060016000806101000a81548160ff0219169083151502179055505b81609760006101000a81548173ffffffffffffffffffffffffffffffffffffffff021916908373ffffffffffffffffffffffffffffffffffffffff160217905550610f83611323565b8015610fa45760008060016101000a81548160ff0219169083151502179055505b5050565b610fb0611215565b610fef576040517f08c379a0000000000000000000000000000000000000000000000000000000008152600401610fe690611fd2565b60405180910390fd5b808273ffffffffffffffffffffffffffffffffffffffff163373ffffffffffffffffffffffffffffffffffffffff167fc6cef0463c75ed91d7a33e578d09d746770509b64be7ac627e23aa09b05cb20e60405160405180910390a45050565b611056611304565b73ffffffffffffffffffffffffffffffffffffffff16606560009054906101000a900473ffffffffffffffffffffffffffffffffffffffff1673ffffffffffffffffffffffffffffffffffffffff16146110e5576040517f08c379a00000000000000000000000000000000000000000000000000000000081526004016110dc90612012565b60405180910390fd5b600073ffffffffffffffffffffffffffffffffffffffff168173ffffffffffffffffffffffffffffffffffffffff161415611155576040517f08c379a000000000000000000000000000000000000000000000000000000000815260040161114c90611fb2565b60405180910390fd5b8073ffffffffffffffffffffffffffffffffffffffff16606560009054906101000a900473ffffffffffffffffffffffffffffffffffffffff1673ffffffffffffffffffffffffffffffffffffffff167f8be0079c531659141344cd1fd0a4f28419497f9722a3daafe3b4186f6b6457e060405160405180910390a380606560006101000a81548173ffffffffffffffffffffffffffffffffffffffff021916908373ffffffffffffffffffffffffffffffffffffffff16021790555050565b6000609760009054906101000a900473ffffffffffffffffffffffffffffffffffffffff1673ffffffffffffffffffffffffffffffffffffffff1663938509d3336040518263ffffffff1660e01b81526004016112729190611ed0565b60206040518083038186803b15801561128a57600080fd5b505afa15801561129e573d6000803e3d6000fd5b505050506040513d601f19601f820116820180604052508101906112c29190611a20565b905090565b60003373ffffffffffffffffffffffffffffffffffffffff166112e861141c565b73ffffffffffffffffffffffffffffffffffffffff1614905090565b600033905090565b6000803090506000813b9050600081149250505090565b600060019054906101000a900460ff1680611342575061134161130c565b5b8061135957506000809054906101000a900460ff16155b611398576040517f08c379a000000000000000000000000000000000000000000000000000000000815260040161138f90612032565b60405180910390fd5b60008060019054906101000a900460ff1615905080156113e8576001600060016101000a81548160ff02191690831515021790555060016000806101000a81548160ff0219169083151502179055505b6113f0611503565b6113f86115ec565b80156114195760008060016101000a81548160ff0219169083151502179055505b50565b6000609760009054906101000a900473ffffffffffffffffffffffffffffffffffffffff1673ffffffffffffffffffffffffffffffffffffffff1663693ec85e6040518060400160405280601c81526020017f4c4943454e5345445f555345525f57414c4c45545f464143544f5259000000008152506040518263ffffffff1660e01b81526004016114ae9190611f90565b60206040518083038186803b1580156114c657600080fd5b505afa1580156114da573d6000803e3d6000fd5b505050506040513d601f19601f820116820180604052508101906114fe91906118d2565b905090565b600060019054906101000a900460ff1680611522575061152161130c565b5b8061153957506000809054906101000a900460ff16155b611578576040517f08c379a000000000000000000000000000000000000000000000000000000000815260040161156f90612032565b60405180910390fd5b60008060019054906101000a900460ff1615905080156115c8576001600060016101000a81548160ff02191690831515021790555060016000806101000a81548160ff0219169083151502179055505b80156115e95760008060016101000a81548160ff0219169083151502179055505b50565b600060019054906101000a900460ff168061160b575061160a61130c565b5b8061162257506000809054906101000a900460ff16155b611661576040517f08c379a000000000000000000000000000000000000000000000000000000000815260040161165890612032565b60405180910390fd5b60008060019054906101000a900460ff1615905080156116b1576001600060016101000a81548160ff02191690831515021790555060016000806101000a81548160ff0219169083151502179055505b60006116bb611304565b905080606560006101000a81548173ffffffffffffffffffffffffffffffffffffffff021916908373ffffffffffffffffffffffffffffffffffffffff1602179055508073ffffffffffffffffffffffffffffffffffffffff16600073ffffffffffffffffffffffffffffffffffffffff167f8be0079c531659141344cd1fd0a4f28419497f9722a3daafe3b4186f6b6457e060405160405180910390a350801561177b5760008060016101000a81548160ff0219169083151502179055505b50565b60008135905061178d81612275565b92915050565b6000815190506117a281612275565b92915050565b600082601f8301126117b957600080fd5b81356117cc6117c78261209a565b61206d565b915081818352602084019350602081019050838560208402820111156117f157600080fd5b60005b838110156118215781611807888261177e565b8452602084019350602083019250506001810190506117f4565b5050505092915050565b60008151905061183a8161228c565b92915050565b600082601f83011261185157600080fd5b813561186461185f826120c2565b61206d565b9150808252602083016020830185838301111561188057600080fd5b61188b838284612215565b50505092915050565b6000813590506118a3816122a3565b92915050565b6000602082840312156118bb57600080fd5b60006118c98482850161177e565b91505092915050565b6000602082840312156118e457600080fd5b60006118f284828501611793565b91505092915050565b60008060008060008060c0878903121561191457600080fd5b600061192289828a0161177e565b965050602087013567ffffffffffffffff81111561193f57600080fd5b61194b89828a016117a8565b955050604061195c89828a01611894565b945050606087013567ffffffffffffffff81111561197957600080fd5b61198589828a01611840565b935050608087013567ffffffffffffffff8111156119a257600080fd5b6119ae89828a01611840565b92505060a087013567ffffffffffffffff8111156119cb57600080fd5b6119d789828a01611840565b9150509295509295509295565b600080604083850312156119f757600080fd5b6000611a058582860161177e565b9250506020611a1685828601611894565b9150509250929050565b600060208284031215611a3257600080fd5b6000611a408482850161182b565b91505092915050565b600060208284031215611a5b57600080fd5b600082013567ffffffffffffffff811115611a7557600080fd5b611a8184828501611840565b91505092915050565b600060208284031215611a9c57600080fd5b6000611aaa84828501611894565b91505092915050565b6000611abf8383611ada565b60208301905092915050565b611ad4816121a9565b82525050565b611ae38161214e565b82525050565b611af28161214e565b82525050565b6000611b03826120fe565b611b0d8185612121565b9350611b18836120ee565b8060005b83811015611b49578151611b308882611ab3565b9750611b3b83612114565b925050600181019050611b1c565b5085935050505092915050565b611b5f816121bb565b82525050565b611b6e816121df565b82525050565b6000611b7f82612109565b611b898185612132565b9350611b99818560208601612224565b611ba281612257565b840191505092915050565b6000611bb882612109565b611bc28185612143565b9350611bd2818560208601612224565b80840191505092915050565b6000611beb602683612132565b91507f4f776e61626c653a206e6577206f776e657220697320746865207a65726f206160008301527f64647265737300000000000000000000000000000000000000000000000000006020830152604082019050919050565b6000611c51601983612132565b91507f5468652073656e646572206973206e6f7420746865204c5557000000000000006000830152602082019050919050565b6000611c91602983612132565b91507f5468652073656e646572206973206e6f7420746865204c6963656e736564557360008301527f6572466163746f727900000000000000000000000000000000000000000000006020830152604082019050919050565b6000611cf7602083612132565b91507f4f776e61626c653a2063616c6c6572206973206e6f7420746865206f776e65726000830152602082019050919050565b6000611d37602e83612132565b91507f436f6e747261637420696e7374616e63652068617320616c726561647920626560008301527f656e20696e697469616c697a65640000000000000000000000000000000000006020830152604082019050919050565b6000611d9d600783612143565b91507f68616e646c6572000000000000000000000000000000000000000000000000006000830152600782019050919050565b6000611ddd600583612143565b91507f61646d696e0000000000000000000000000000000000000000000000000000006000830152600582019050919050565b6000611e1d600683612143565b91507f61727469737400000000000000000000000000000000000000000000000000006000830152600682019050919050565b611e598161219f565b82525050565b6000611e6b8284611bad565b915081905092915050565b6000611e8182611d90565b9150819050919050565b6000611e9682611dd0565b9150819050919050565b6000611eab82611e10565b9150819050919050565b6000602082019050611eca6000830184611ae9565b92915050565b6000602082019050611ee56000830184611acb565b92915050565b600060a0820190508181036000830152611f058188611af8565b9050611f146020830187611e50565b8181036040830152611f268186611b74565b90508181036060830152611f3a8185611b74565b90508181036080830152611f4e8184611b74565b90509695505050505050565b6000602082019050611f6f6000830184611b56565b92915050565b6000602082019050611f8a6000830184611b65565b92915050565b60006020820190508181036000830152611faa8184611b74565b905092915050565b60006020820190508181036000830152611fcb81611bde565b9050919050565b60006020820190508181036000830152611feb81611c44565b9050919050565b6000602082019050818103600083015261200b81611c84565b9050919050565b6000602082019050818103600083015261202b81611cea565b9050919050565b6000602082019050818103600083015261204b81611d2a565b9050919050565b60006020820190506120676000830184611e50565b92915050565b6000604051905081810181811067ffffffffffffffff8211171561209057600080fd5b8060405250919050565b600067ffffffffffffffff8211156120b157600080fd5b602082029050602081019050919050565b600067ffffffffffffffff8211156120d957600080fd5b601f19601f8301169050602081019050919050565b6000819050602082019050919050565b600081519050919050565b600081519050919050565b6000602082019050919050565b600082825260208201905092915050565b600082825260208201905092915050565b600081905092915050565b60006121598261217f565b9050919050565b60008115159050919050565b600081905061217a82612268565b919050565b600073ffffffffffffffffffffffffffffffffffffffff82169050919050565b6000819050919050565b60006121b4826121f1565b9050919050565b60006121c6826121cd565b9050919050565b60006121d88261217f565b9050919050565b60006121ea8261216c565b9050919050565b60006121fc82612203565b9050919050565b600061220e8261217f565b9050919050565b82818337600083830152505050565b60005b83811015612242578082015181840152602081019050612227565b83811115612251576000848401525b50505050565b6000601f19601f8301169050919050565b6003811061227257fe5b50565b61227e8161214e565b811461228957600080fd5b50565b61229581612160565b81146122a057600080fd5b50565b6122ac8161219f565b81146122b757600080fd5b5056fea26469706673582212202d393976ea56239442beedf519ad4a7f8393b7354289d1b3e556cf3b0ee5f5e764736f6c634300060b0033",
  "source": "pragma solidity 0.6.11;\npragma experimental ABIEncoderV2;\n\nimport \"@openzeppelin/contracts-ethereum-package/contracts/access/Ownable.sol\";\nimport \"./IdentityUserType.sol\";\nimport \"../../name/contracts/NameRegistry.sol\";\nimport \"../../name/contracts/Contracts.sol\";\n\ncontract LicensedUserEvent is IdentityUserType, Contracts, OwnableUpgradeSafe {\n  /*\n   * Modifiers\n   */\n  modifier onlyLicensedUser() {\n    require(_isLicensedUser(), \"The sender is not the LUW\");\n    _;\n  }\n\n  modifier onlyFactory() {\n    require(_isFactory(), \"The sender is not the LicensedUserFactory\");\n    _;\n  }\n\n  /*\n   * Events\n   */\n\n  /*\n   * Events for Factory wallet contract\n   */\n  event ContractInstantiation(\n    address indexed sender,\n    address indexed instantiation\n  );\n  event CreateLicensedUserWallet(\n    address indexed contractAddress,\n    address[] owners,\n    uint256 requiredConfirmation,\n    string englishName,\n    string originalName,\n    string userType\n  );\n\n  /*\n   * Events for licensed user proxy wallet contract\n   */\n  event MultiSigConfirmation(\n    address indexed proxyContractAddr,\n    address indexed sender,\n    uint256 indexed transactionId\n  );\n  event MultiSigRevocation(\n    address indexed proxyContractAddr,\n    address indexed sender,\n    uint256 indexed transactionId\n  );\n  event MultiSigSubmission(\n    address indexed proxyContractAddr,\n    uint256 indexed transactionId\n  );\n  event MultiSigExecution(\n    address indexed proxyContractAddr,\n    uint256 indexed transactionId\n  );\n  event MultiSigExecutionFailure(\n    address indexed proxyContractAddr,\n    uint256 indexed transactionId\n  );\n  event MultiSigOwnerAddition(\n    address indexed proxyContractAddr,\n    address indexed owner\n  );\n  event MultiSigOwnerRemoval(\n    address indexed proxyContractAddr,\n    address indexed owner\n  );\n  event MultiSigRequirementChange(\n    address indexed proxyContractAddr,\n    uint256 required\n  );\n\n  /*\n   * NameRegistry\n   */\n\n  NameRegistry private _nameRegistry;\n\n  /**\n   * @dev Initializes this contract\n   * @param registryAddress address of the NameRegistry\n   */\n  function initialize(address registryAddress) public initializer {\n    _nameRegistry = NameRegistry(registryAddress);\n    OwnableUpgradeSafe.__Ownable_init();\n  }\n\n  /**\n   * @dev Sets the NameRegistry proxy address\n   * @param registry proxy address\n   */\n  function setRegistry(address registry) public onlyOwner {\n    _nameRegistry = NameRegistry(registry);\n  }\n\n  /**\n   * @dev Gets the endpoint address of NameRegistry\n   * @return NameRegistry proxy address\n   */\n  function getNameRegistry() public view returns (NameRegistry) {\n    return _nameRegistry;\n  }\n\n  function _userFactoryAddress() private view returns (address) {\n    return _nameRegistry.get(LICENSED_USER_WALLET_FACTORY);\n  }\n\n  function _isFactory() private view returns (bool) {\n    return _userFactoryAddress() == msg.sender;\n  }\n\n  function _isLicensedUser() private view returns (bool) {\n    return _nameRegistry.instantiation(msg.sender);\n  }\n\n  /*\n   * Log functions to emit events\n   */\n\n  /*\n   * Log functions for Factory wallet contract\n   */\n  function logContractInstantiation(address instantiation) public onlyFactory {\n    emit ContractInstantiation(msg.sender, instantiation);\n  }\n\n  function logCreateLicensedUserWallet(\n    address contractAddress,\n    address[] memory owners,\n    uint256 requiredConfirmation,\n    string memory englishName,\n    string memory originalName,\n    string memory userType\n  ) public onlyFactory {\n    emit CreateLicensedUserWallet(\n      contractAddress,\n      owners,\n      requiredConfirmation,\n      englishName,\n      originalName,\n      userType\n    );\n  }\n\n  /*\n   * Log functions for Factory wallet contract\n   */\n  function logConfirmation(address sender, uint256 transactionId)\n    public\n    onlyLicensedUser\n  {\n    emit MultiSigConfirmation(msg.sender, sender, transactionId);\n  }\n\n  function logRevocation(address sender, uint256 transactionId)\n    public\n    onlyLicensedUser\n  {\n    emit MultiSigRevocation(msg.sender, sender, transactionId);\n  }\n\n  function logSubmission(uint256 transactionId) public onlyLicensedUser {\n    emit MultiSigSubmission(msg.sender, transactionId);\n  }\n\n  function logExecution(uint256 transactionId) public onlyLicensedUser {\n    emit MultiSigExecution(msg.sender, transactionId);\n  }\n\n  function logExecutionFailure(uint256 transactionId) public onlyLicensedUser {\n    emit MultiSigExecutionFailure(msg.sender, transactionId);\n  }\n\n  function logOwnerAddition(address owner) public onlyLicensedUser {\n    emit MultiSigOwnerAddition(msg.sender, owner);\n  }\n\n  function logOwnerRemoval(address owner) public onlyLicensedUser {\n    emit MultiSigOwnerRemoval(msg.sender, owner);\n  }\n\n  function logRequirementChange(uint256 required) public onlyLicensedUser {\n    emit MultiSigRequirementChange(msg.sender, required);\n  }\n}\n",
  "sourcePath": "/Users/hasnaeen/startbahn/dev/startrail/app/licensedUser/contracts/LicensedUserEvent.sol",
  "compiler": {
    "name": "solc",
    "version": "0.6.11+commit.5ef660b1.Emscripten.clang"
  },
  "schemaVersion": "3.0.23",
  "updatedAt": "2020-08-19T06:31:53.453Z",
  "networkType": "ethereum",
  "devdoc": {
    "kind": "dev",
    "methods": {
      "getNameRegistry()": {
        "details": "Gets the endpoint address of NameRegistry",
        "returns": {
          "_0": "NameRegistry proxy address"
        }
      },
      "getUserType(string)": {
        "details": "Gets user type",
        "params": {
          "_type": "string of the user type"
        },
        "returns": {
          "_0": "UserType"
        }
      },
      "initialize(address)": {
        "details": "Initializes this contract",
        "params": {
          "registryAddress": "address of the NameRegistry"
        }
      },
      "owner()": {
        "details": "Returns the address of the current owner."
      },
      "renounceOwnership()": {
        "details": "Leaves the contract without owner. It will not be possible to call `onlyOwner` functions anymore. Can only be called by the current owner. NOTE: Renouncing ownership will leave the contract without an owner, thereby removing any functionality that is only available to the owner."
      },
      "setRegistry(address)": {
        "details": "Sets the NameRegistry proxy address",
        "params": {
          "registry": "proxy address"
        }
      },
      "transferOwnership(address)": {
        "details": "Transfers ownership of the contract to a new account (`newOwner`). Can only be called by the current owner."
      }
    },
    "version": 1
  },
  "userdoc": {
    "kind": "user",
    "methods": {},
    "version": 1
  }
}