{
  "contractName": "LicensedUserEvent",
  "abi": [
    {
      "anonymous": false,
      "inputs": [
        {
          "indexed": true,
          "internalType": "address",
          "name": "sender",
          "type": "address"
        },
        {
          "indexed": true,
          "internalType": "address",
          "name": "instantiation",
          "type": "address"
        }
      ],
      "name": "ContractInstantiation",
      "type": "event"
    },
    {
      "anonymous": false,
      "inputs": [
        {
          "indexed": true,
          "internalType": "address",
          "name": "contractAddress",
          "type": "address"
        },
        {
          "indexed": false,
          "internalType": "address[]",
          "name": "owners",
          "type": "address[]"
        },
        {
          "indexed": false,
          "internalType": "uint256",
          "name": "requiredConfirmation",
          "type": "uint256"
        },
        {
          "indexed": false,
          "internalType": "string",
          "name": "englishName",
          "type": "string"
        },
        {
          "indexed": false,
          "internalType": "string",
          "name": "originalName",
          "type": "string"
        },
        {
          "indexed": false,
          "internalType": "enum IdentityUserType.UserType",
          "name": "userType",
          "type": "uint8"
        }
      ],
      "name": "CreateLicensedUserWallet",
      "type": "event"
    },
    {
      "anonymous": false,
      "inputs": [
        {
          "indexed": true,
          "internalType": "address",
          "name": "proxyContractAddr",
          "type": "address"
        },
        {
          "indexed": true,
          "internalType": "address",
          "name": "sender",
          "type": "address"
        },
        {
          "indexed": true,
          "internalType": "uint256",
          "name": "transactionId",
          "type": "uint256"
        }
      ],
      "name": "MultiSigConfirmation",
      "type": "event"
    },
    {
      "anonymous": false,
      "inputs": [
        {
          "indexed": true,
          "internalType": "address",
          "name": "proxyContractAddr",
          "type": "address"
        },
        {
          "indexed": true,
          "internalType": "uint256",
          "name": "transactionId",
          "type": "uint256"
        }
      ],
      "name": "MultiSigExecution",
      "type": "event"
    },
    {
      "anonymous": false,
      "inputs": [
        {
          "indexed": true,
          "internalType": "address",
          "name": "proxyContractAddr",
          "type": "address"
        },
        {
          "indexed": true,
          "internalType": "uint256",
          "name": "transactionId",
          "type": "uint256"
        }
      ],
      "name": "MultiSigExecutionFailure",
      "type": "event"
    },
    {
      "anonymous": false,
      "inputs": [
        {
          "indexed": true,
          "internalType": "address",
          "name": "proxyContractAddr",
          "type": "address"
        },
        {
          "indexed": true,
          "internalType": "address",
          "name": "owner",
          "type": "address"
        }
      ],
      "name": "MultiSigOwnerAddition",
      "type": "event"
    },
    {
      "anonymous": false,
      "inputs": [
        {
          "indexed": true,
          "internalType": "address",
          "name": "proxyContractAddr",
          "type": "address"
        },
        {
          "indexed": true,
          "internalType": "address",
          "name": "owner",
          "type": "address"
        }
      ],
      "name": "MultiSigOwnerRemoval",
      "type": "event"
    },
    {
      "anonymous": false,
      "inputs": [
        {
          "indexed": true,
          "internalType": "address",
          "name": "proxyContractAddr",
          "type": "address"
        },
        {
          "indexed": false,
          "internalType": "uint256",
          "name": "required",
          "type": "uint256"
        }
      ],
      "name": "MultiSigRequirementChange",
      "type": "event"
    },
    {
      "anonymous": false,
      "inputs": [
        {
          "indexed": true,
          "internalType": "address",
          "name": "proxyContractAddr",
          "type": "address"
        },
        {
          "indexed": true,
          "internalType": "address",
          "name": "sender",
          "type": "address"
        },
        {
          "indexed": true,
          "internalType": "uint256",
          "name": "transactionId",
          "type": "uint256"
        }
      ],
      "name": "MultiSigRevocation",
      "type": "event"
    },
    {
      "anonymous": false,
      "inputs": [
        {
          "indexed": true,
          "internalType": "address",
          "name": "proxyContractAddr",
          "type": "address"
        },
        {
          "indexed": true,
          "internalType": "uint256",
          "name": "transactionId",
          "type": "uint256"
        }
      ],
      "name": "MultiSigSubmission",
      "type": "event"
    },
    {
      "anonymous": false,
      "inputs": [
        {
          "indexed": true,
          "internalType": "address",
          "name": "previousOwner",
          "type": "address"
        },
        {
          "indexed": true,
          "internalType": "address",
          "name": "newOwner",
          "type": "address"
        }
      ],
      "name": "OwnershipTransferred",
      "type": "event"
    },
    {
      "inputs": [],
      "name": "owner",
      "outputs": [
        {
          "internalType": "address",
          "name": "",
          "type": "address"
        }
      ],
      "stateMutability": "view",
      "type": "function",
      "constant": true
    },
    {
      "inputs": [],
      "name": "renounceOwnership",
      "outputs": [],
      "stateMutability": "nonpayable",
      "type": "function"
    },
    {
      "inputs": [
        {
          "internalType": "address",
          "name": "newOwner",
          "type": "address"
        }
      ],
      "name": "transferOwnership",
      "outputs": [],
      "stateMutability": "nonpayable",
      "type": "function"
    },
    {
      "inputs": [
        {
          "internalType": "address",
          "name": "registryAddress",
          "type": "address"
        }
      ],
      "name": "initialize",
      "outputs": [],
      "stateMutability": "nonpayable",
      "type": "function"
    },
    {
      "inputs": [
        {
          "internalType": "address",
          "name": "registry",
          "type": "address"
        }
      ],
      "name": "setRegistry",
      "outputs": [],
      "stateMutability": "nonpayable",
      "type": "function"
    },
    {
      "inputs": [],
      "name": "getNameRegistry",
      "outputs": [
        {
          "internalType": "contract NameRegistry",
          "name": "",
          "type": "address"
        }
      ],
      "stateMutability": "view",
      "type": "function",
      "constant": true
    },
    {
      "inputs": [
        {
          "internalType": "address",
          "name": "instantiation",
          "type": "address"
        }
      ],
      "name": "logContractInstantiation",
      "outputs": [],
      "stateMutability": "nonpayable",
      "type": "function"
    },
    {
      "inputs": [
        {
          "internalType": "address",
          "name": "contractAddress",
          "type": "address"
        },
        {
          "internalType": "address[]",
          "name": "owners",
          "type": "address[]"
        },
        {
          "internalType": "uint256",
          "name": "requiredConfirmation",
          "type": "uint256"
        },
        {
          "internalType": "string",
          "name": "englishName",
          "type": "string"
        },
        {
          "internalType": "string",
          "name": "originalName",
          "type": "string"
        },
        {
          "internalType": "enum IdentityUserType.UserType",
          "name": "userType",
          "type": "uint8"
        }
      ],
      "name": "logCreateLicensedUserWallet",
      "outputs": [],
      "stateMutability": "nonpayable",
      "type": "function"
    },
    {
      "inputs": [
        {
          "internalType": "address",
          "name": "sender",
          "type": "address"
        },
        {
          "internalType": "uint256",
          "name": "transactionId",
          "type": "uint256"
        }
      ],
      "name": "logConfirmation",
      "outputs": [],
      "stateMutability": "nonpayable",
      "type": "function"
    },
    {
      "inputs": [
        {
          "internalType": "address",
          "name": "sender",
          "type": "address"
        },
        {
          "internalType": "uint256",
          "name": "transactionId",
          "type": "uint256"
        }
      ],
      "name": "logRevocation",
      "outputs": [],
      "stateMutability": "nonpayable",
      "type": "function"
    },
    {
      "inputs": [
        {
          "internalType": "uint256",
          "name": "transactionId",
          "type": "uint256"
        }
      ],
      "name": "logSubmission",
      "outputs": [],
      "stateMutability": "nonpayable",
      "type": "function"
    },
    {
      "inputs": [
        {
          "internalType": "uint256",
          "name": "transactionId",
          "type": "uint256"
        }
      ],
      "name": "logExecution",
      "outputs": [],
      "stateMutability": "nonpayable",
      "type": "function"
    },
    {
      "inputs": [
        {
          "internalType": "uint256",
          "name": "transactionId",
          "type": "uint256"
        }
      ],
      "name": "logExecutionFailure",
      "outputs": [],
      "stateMutability": "nonpayable",
      "type": "function"
    },
    {
      "inputs": [
        {
          "internalType": "address",
          "name": "owner",
          "type": "address"
        }
      ],
      "name": "logOwnerAddition",
      "outputs": [],
      "stateMutability": "nonpayable",
      "type": "function"
    },
    {
      "inputs": [
        {
          "internalType": "address",
          "name": "owner",
          "type": "address"
        }
      ],
      "name": "logOwnerRemoval",
      "outputs": [],
      "stateMutability": "nonpayable",
      "type": "function"
    },
    {
      "inputs": [
        {
          "internalType": "uint256",
          "name": "required",
          "type": "uint256"
        }
      ],
      "name": "logRequirementChange",
      "outputs": [],
      "stateMutability": "nonpayable",
      "type": "function"
    }
  ],
  "bytecode": "0x608060405234801561001057600080fd5b50611071806100206000396000f3fe608060405234801561001057600080fd5b50600436106101005760003560e01c8063620ee63611610097578063a91ee0dc11610066578063a91ee0dc146101e0578063c4d66de8146101f3578063cc93c02a14610206578063f2fde38b1461021957610100565b8063620ee636146101aa578063715018a6146101bd5780638da5cb5b146101c55780639242793c146101cd57610100565b80633b897546116100d35780633b8975461461015e5780633d77cabc146101715780635ca52393146101845780635fa9cb751461019757610100565b8063046df94e146101055780630a8cc42a1461011a57806325232a331461012d578063342e08d014610140575b600080fd5b610118610113366004610d7a565b61022c565b005b610118610128366004610bda565b610289565b61011861013b366004610d7a565b6102e6565b61014861034e565b6040516101559190610ddd565b60405180910390f35b61011861016c366004610bda565b61035d565b61011861017f366004610d7a565b6103ba565b610118610192366004610d2f565b61040e565b6101186101a5366004610bda565b61046e565b6101186101b8366004610d7a565b6104cb565b61011861051f565b61014861059e565b6101186101db366004610c19565b6105ad565b6101186101ee366004610bda565b610622565b610118610201366004610bda565b610679565b610118610214366004610d2f565b610720565b610118610227366004610bda565b610780565b610234610837565b6102595760405162461bcd60e51b815260040161025090610ec5565b60405180910390fd5b604051819033907fa02599e73766b76852cf005ba83f740c6af9b6e26db9335054e3c9097ed3e0eb90600090a350565b610291610837565b6102ad5760405162461bcd60e51b815260040161025090610ec5565b6040516001600160a01b0382169033907f5a89e44cea7ace68f75164b54a4b11c9bdc65c96f213dc2fac95ec00035f3e2a90600090a350565b6102ee610837565b61030a5760405162461bcd60e51b815260040161025090610ec5565b336001600160a01b03167fd07fe6bd34bcd24f883b97337dbebc30fa5204756ebe4a823c7b86bb321b43e0826040516103439190610fc8565b60405180910390a250565b6097546001600160a01b031690565b610365610837565b6103815760405162461bcd60e51b815260040161025090610ec5565b6040516001600160a01b0382169033907f6dda67ea74fde8ae702522d8fb09acd8e790d4a8ac87cd4e12217b2dd316e12490600090a350565b6103c2610837565b6103de5760405162461bcd60e51b815260040161025090610ec5565b604051819033907f11dd68eeac29773a69a86bc6e8a18801cd046b534f6b56b62a67dee08e1eed2290600090a350565b610416610837565b6104325760405162461bcd60e51b815260040161025090610ec5565b60405181906001600160a01b0384169033907fca219580730b38cf32828597dec7c356c5c64bc45acd6937aff49c8bf4a4eeb590600090a45050565b6104766108bd565b6104925760405162461bcd60e51b815260040161025090610efc565b6040516001600160a01b0382169033907f4fb057ad4a26ed17a57957fa69c306f11987596069b89521c511fc9a894e616190600090a350565b6104d3610837565b6104ef5760405162461bcd60e51b815260040161025090610ec5565b604051819033907ffbe1baba46c2fff39c189a5f582f8ecb7c6faa9663066f3d4754f33e13a3936890600090a350565b6105276108d7565b6065546001600160a01b039081169116146105545760405162461bcd60e51b815260040161025090610f45565b6065546040516000916001600160a01b0316907f8be0079c531659141344cd1fd0a4f28419497f9722a3daafe3b4186f6b6457e0908390a3606580546001600160a01b0319169055565b6065546001600160a01b031690565b6105b56108bd565b6105d15760405162461bcd60e51b815260040161025090610efc565b856001600160a01b03167f8f7de836135871245dd9c04f295aef602311da1591d262ecb4d2f45c7a88003d8686868686604051610612959493929190610df1565b60405180910390a2505050505050565b61062a6108d7565b6065546001600160a01b039081169116146106575760405162461bcd60e51b815260040161025090610f45565b609780546001600160a01b0319166001600160a01b0392909216919091179055565b600054610100900460ff168061069257506106926108db565b806106a0575060005460ff16155b6106bc5760405162461bcd60e51b815260040161025090610f7a565b600054610100900460ff161580156106e7576000805460ff1961ff0019909116610100171660011790555b609780546001600160a01b0319166001600160a01b03841617905561070a6108e1565b801561071c576000805461ff00191690555b5050565b610728610837565b6107445760405162461bcd60e51b815260040161025090610ec5565b60405181906001600160a01b0384169033907fc6cef0463c75ed91d7a33e578d09d746770509b64be7ac627e23aa09b05cb20e90600090a45050565b6107886108d7565b6065546001600160a01b039081169116146107b55760405162461bcd60e51b815260040161025090610f45565b6001600160a01b0381166107db5760405162461bcd60e51b815260040161025090610e7f565b6065546040516001600160a01b038084169216907f8be0079c531659141344cd1fd0a4f28419497f9722a3daafe3b4186f6b6457e090600090a3606580546001600160a01b0319166001600160a01b0392909216919091179055565b60975460405163938509d360e01b81526000916001600160a01b03169063938509d390610868903390600401610ddd565b60206040518083038186803b15801561088057600080fd5b505afa158015610894573d6000803e3d6000fd5b505050506040513d601f19601f820116820180604052508101906108b89190610d5a565b905090565b6000336108c8610974565b6001600160a01b031614905090565b3390565b303b1590565b600054610100900460ff16806108fa57506108fa6108db565b80610908575060005460ff16155b6109245760405162461bcd60e51b815260040161025090610f7a565b600054610100900460ff1615801561094f576000805460ff1961ff0019909116610100171660011790555b6109576109f6565b61095f610a77565b8015610971576000805461ff00191690555b50565b60975460405163f72d0b3b60e01b81526000916001600160a01b03169063f72d0b3b906109a690600690600401610fd1565b60206040518083038186803b1580156109be57600080fd5b505afa1580156109d2573d6000803e3d6000fd5b505050506040513d601f19601f820116820180604052508101906108b89190610bfd565b600054610100900460ff1680610a0f5750610a0f6108db565b80610a1d575060005460ff16155b610a395760405162461bcd60e51b815260040161025090610f7a565b600054610100900460ff1615801561095f576000805460ff1961ff0019909116610100171660011790558015610971576000805461ff001916905550565b600054610100900460ff1680610a905750610a906108db565b80610a9e575060005460ff16155b610aba5760405162461bcd60e51b815260040161025090610f7a565b600054610100900460ff16158015610ae5576000805460ff1961ff0019909116610100171660011790555b6000610aef6108d7565b606580546001600160a01b0319166001600160a01b038316908117909155604051919250906000907f8be0079c531659141344cd1fd0a4f28419497f9722a3daafe3b4186f6b6457e0908290a3508015610971576000805461ff001916905550565b8035610b5c81611026565b92915050565b803560038110610b5c57600080fd5b600082601f830112610b81578081fd5b813567ffffffffffffffff811115610b97578182fd5b610baa601f8201601f1916602001610fdf565b9150808252836020828501011115610bc157600080fd5b8060208401602084013760009082016020015292915050565b600060208284031215610beb578081fd5b8135610bf681611026565b9392505050565b600060208284031215610c0e578081fd5b8151610bf681611026565b60008060008060008060c08789031215610c31578182fd5b8635610c3c81611026565b955060208781013567ffffffffffffffff80821115610c59578485fd5b818a018b601f820112610c6a578586fd5b80359250610c7f610c7a84611006565b610fdf565b83815284810190828601868602840187018f1015610c9b578889fd5b8893505b85841015610cc557610cb18f82610b51565b835260019390930192918601918601610c9f565b509950505060408a0135965060608a0135925080831115610ce4578485fd5b610cf08b848c01610b71565b955060808a0135925080831115610d05578485fd5b5050610d1389828a01610b71565b925050610d238860a08901610b62565b90509295509295509295565b60008060408385031215610d41578182fd5b8235610d4c81611026565b946020939093013593505050565b600060208284031215610d6b578081fd5b81518015158114610bf6578182fd5b600060208284031215610d8b578081fd5b5035919050565b60008151808452815b81811015610db757602081850181015186830182015201610d9b565b81811115610dc85782602083870101525b50601f01601f19169290920160200192915050565b6001600160a01b0391909116815260200190565b60a0808252865190820181905260009060209060c0840190828a01845b82811015610e335781516001600160a01b031684529284019290840190600101610e0e565b50505087828501528381036040850152610e4d8188610d92565b9150508281036060840152610e628186610d92565b91505060038310610e6f57fe5b8260808301529695505050505050565b60208082526026908201527f4f776e61626c653a206e6577206f776e657220697320746865207a65726f206160408201526564647265737360d01b606082015260800190565b60208082526019908201527f5468652073656e646572206973206e6f7420746865204c555700000000000000604082015260600190565b60208082526029908201527f5468652073656e646572206973206e6f7420746865204c6963656e73656455736040820152686572466163746f727960b81b606082015260800190565b6020808252818101527f4f776e61626c653a2063616c6c6572206973206e6f7420746865206f776e6572604082015260600190565b6020808252602e908201527f436f6e747261637420696e7374616e63652068617320616c726561647920626560408201526d195b881a5b9a5d1a585b1a5e995960921b606082015260800190565b90815260200190565b60ff91909116815260200190565b60405181810167ffffffffffffffff81118282101715610ffe57600080fd5b604052919050565b600067ffffffffffffffff82111561101c578081fd5b5060209081020190565b6001600160a01b038116811461097157600080fdfea2646970667358221220ae14a3d77e39b7b8851e32299b5265f72cc56bff91ef3aaa4ed4e2abbfa334ba64736f6c634300060b0033",
  "source": "pragma solidity 0.6.11;\npragma experimental ABIEncoderV2;\n\nimport \"@openzeppelin/contracts-ethereum-package/contracts/access/Ownable.sol\";\nimport \"./IdentityUserType.sol\";\nimport \"../../name/contracts/NameRegistry.sol\";\nimport \"../../name/contracts/Contracts.sol\";\n\ncontract LicensedUserEvent is IdentityUserType, Contracts, OwnableUpgradeSafe {\n  /*\n   * Modifiers\n   */\n  modifier onlyLicensedUser() {\n    require(_isLicensedUser(), \"The sender is not the LUW\");\n    _;\n  }\n\n  modifier onlyFactory() {\n    require(_isFactory(), \"The sender is not the LicensedUserFactory\");\n    _;\n  }\n\n  /*\n   * Events\n   */\n\n  /*\n   * Events for Factory wallet contract\n   */\n  event ContractInstantiation(\n    address indexed sender,\n    address indexed instantiation\n  );\n  event CreateLicensedUserWallet(\n    address indexed contractAddress,\n    address[] owners,\n    uint256 requiredConfirmation,\n    string englishName,\n    string originalName,\n    UserType userType\n  );\n\n  /*\n   * Events for licensed user proxy wallet contract\n   */\n  event MultiSigConfirmation(\n    address indexed proxyContractAddr,\n    address indexed sender,\n    uint256 indexed transactionId\n  );\n  event MultiSigRevocation(\n    address indexed proxyContractAddr,\n    address indexed sender,\n    uint256 indexed transactionId\n  );\n  event MultiSigSubmission(\n    address indexed proxyContractAddr,\n    uint256 indexed transactionId\n  );\n  event MultiSigExecution(\n    address indexed proxyContractAddr,\n    uint256 indexed transactionId\n  );\n  event MultiSigExecutionFailure(\n    address indexed proxyContractAddr,\n    uint256 indexed transactionId\n  );\n  event MultiSigOwnerAddition(\n    address indexed proxyContractAddr,\n    address indexed owner\n  );\n  event MultiSigOwnerRemoval(\n    address indexed proxyContractAddr,\n    address indexed owner\n  );\n  event MultiSigRequirementChange(\n    address indexed proxyContractAddr,\n    uint256 required\n  );\n\n  /*\n   * NameRegistry\n   */\n\n  NameRegistry private _nameRegistry;\n\n  /**\n   * @dev Initializes this contract\n   * @param registryAddress address of the NameRegistry\n   */\n  function initialize(address registryAddress) public initializer {\n    _nameRegistry = NameRegistry(registryAddress);\n    OwnableUpgradeSafe.__Ownable_init();\n  }\n\n  /**\n   * @dev Sets the NameRegistry proxy address\n   * @param registry proxy address\n   */\n  function setRegistry(address registry) public onlyOwner {\n    _nameRegistry = NameRegistry(registry);\n  }\n\n  /**\n   * @dev Gets the endpoint address of NameRegistry\n   * @return NameRegistry proxy address\n   */\n  function getNameRegistry() public view returns (NameRegistry) {\n    return _nameRegistry;\n  }\n\n  function _userFactoryAddress() private view returns (address) {\n    return _nameRegistry.get(LICENSED_USER_WALLET_FACTORY);\n  }\n\n  function _isFactory() private view returns (bool) {\n    return _userFactoryAddress() == msg.sender;\n  }\n\n  function _isLicensedUser() private view returns (bool) {\n    return _nameRegistry.instantiation(msg.sender);\n  }\n\n  /*\n   * Log functions to emit events\n   */\n\n  /*\n   * Log functions for Factory wallet contract\n   */\n  function logContractInstantiation(address instantiation) public onlyFactory {\n    emit ContractInstantiation(msg.sender, instantiation);\n  }\n\n  function logCreateLicensedUserWallet(\n    address contractAddress,\n    address[] memory owners,\n    uint256 requiredConfirmation,\n    string memory englishName,\n    string memory originalName,\n    UserType userType\n  ) public onlyFactory {\n    emit CreateLicensedUserWallet(\n      contractAddress,\n      owners,\n      requiredConfirmation,\n      englishName,\n      originalName,\n      userType\n    );\n  }\n\n  /*\n   * Log functions for Factory wallet contract\n   */\n  function logConfirmation(address sender, uint256 transactionId)\n    public\n    onlyLicensedUser\n  {\n    emit MultiSigConfirmation(msg.sender, sender, transactionId);\n  }\n\n  function logRevocation(address sender, uint256 transactionId)\n    public\n    onlyLicensedUser\n  {\n    emit MultiSigRevocation(msg.sender, sender, transactionId);\n  }\n\n  function logSubmission(uint256 transactionId) public onlyLicensedUser {\n    emit MultiSigSubmission(msg.sender, transactionId);\n  }\n\n  function logExecution(uint256 transactionId) public onlyLicensedUser {\n    emit MultiSigExecution(msg.sender, transactionId);\n  }\n\n  function logExecutionFailure(uint256 transactionId) public onlyLicensedUser {\n    emit MultiSigExecutionFailure(msg.sender, transactionId);\n  }\n\n  function logOwnerAddition(address owner) public onlyLicensedUser {\n    emit MultiSigOwnerAddition(msg.sender, owner);\n  }\n\n  function logOwnerRemoval(address owner) public onlyLicensedUser {\n    emit MultiSigOwnerRemoval(msg.sender, owner);\n  }\n\n  function logRequirementChange(uint256 required) public onlyLicensedUser {\n    emit MultiSigRequirementChange(msg.sender, required);\n  }\n}\n",
  "sourcePath": "/root/rinkeby/startrail/app/licensedUser/contracts/LicensedUserEvent.sol",
  "compiler": {
    "name": "solc",
    "version": "0.6.11+commit.5ef660b1.Emscripten.clang"
  },
  "schemaVersion": "3.0.23",
  "updatedAt": "2020-08-23T04:51:34.974Z",
  "networkType": "ethereum",
  "devdoc": {
    "kind": "dev",
    "methods": {
      "getNameRegistry()": {
        "details": "Gets the endpoint address of NameRegistry",
        "returns": {
          "_0": "NameRegistry proxy address"
        }
      },
      "initialize(address)": {
        "details": "Initializes this contract",
        "params": {
          "registryAddress": "address of the NameRegistry"
        }
      },
      "owner()": {
        "details": "Returns the address of the current owner."
      },
      "renounceOwnership()": {
        "details": "Leaves the contract without owner. It will not be possible to call `onlyOwner` functions anymore. Can only be called by the current owner. NOTE: Renouncing ownership will leave the contract without an owner, thereby removing any functionality that is only available to the owner."
      },
      "setRegistry(address)": {
        "details": "Sets the NameRegistry proxy address",
        "params": {
          "registry": "proxy address"
        }
      },
      "transferOwnership(address)": {
        "details": "Transfers ownership of the contract to a new account (`newOwner`). Can only be called by the current owner."
      }
    },
    "version": 1
  },
  "userdoc": {
    "kind": "user",
    "methods": {},
    "version": 1
  }
}