{
  "contractName": "LicensedUserEvent",
  "abi": [
    {
      "anonymous": false,
      "inputs": [
        {
          "indexed": true,
          "internalType": "address",
          "name": "sender",
          "type": "address"
        },
        {
          "indexed": true,
          "internalType": "address",
          "name": "instantiation",
          "type": "address"
        }
      ],
      "name": "ContractInstantiation",
      "type": "event"
    },
    {
      "anonymous": false,
      "inputs": [
        {
          "indexed": true,
          "internalType": "address",
          "name": "contractAddress",
          "type": "address"
        },
        {
          "indexed": false,
          "internalType": "address[]",
          "name": "owners",
          "type": "address[]"
        },
        {
          "indexed": false,
          "internalType": "uint256",
          "name": "requiredConfirmation",
          "type": "uint256"
        },
        {
          "indexed": false,
          "internalType": "string",
          "name": "englishName",
          "type": "string"
        },
        {
          "indexed": false,
          "internalType": "string",
          "name": "originalName",
          "type": "string"
        },
        {
          "indexed": false,
          "internalType": "string",
          "name": "userType",
          "type": "string"
        }
      ],
      "name": "CreateLicensedUserWallet",
      "type": "event"
    },
    {
      "anonymous": false,
      "inputs": [
        {
          "indexed": true,
          "internalType": "address",
          "name": "proxyContractAddr",
          "type": "address"
        },
        {
          "indexed": true,
          "internalType": "address",
          "name": "sender",
          "type": "address"
        },
        {
          "indexed": true,
          "internalType": "uint256",
          "name": "transactionId",
          "type": "uint256"
        }
      ],
      "name": "MultiSigConfirmation",
      "type": "event"
    },
    {
      "anonymous": false,
      "inputs": [
        {
          "indexed": true,
          "internalType": "address",
          "name": "proxyContractAddr",
          "type": "address"
        },
        {
          "indexed": true,
          "internalType": "uint256",
          "name": "transactionId",
          "type": "uint256"
        }
      ],
      "name": "MultiSigExecution",
      "type": "event"
    },
    {
      "anonymous": false,
      "inputs": [
        {
          "indexed": true,
          "internalType": "address",
          "name": "proxyContractAddr",
          "type": "address"
        },
        {
          "indexed": true,
          "internalType": "uint256",
          "name": "transactionId",
          "type": "uint256"
        }
      ],
      "name": "MultiSigExecutionFailure",
      "type": "event"
    },
    {
      "anonymous": false,
      "inputs": [
        {
          "indexed": true,
          "internalType": "address",
          "name": "proxyContractAddr",
          "type": "address"
        },
        {
          "indexed": true,
          "internalType": "address",
          "name": "owner",
          "type": "address"
        }
      ],
      "name": "MultiSigOwnerAddition",
      "type": "event"
    },
    {
      "anonymous": false,
      "inputs": [
        {
          "indexed": true,
          "internalType": "address",
          "name": "proxyContractAddr",
          "type": "address"
        },
        {
          "indexed": true,
          "internalType": "address",
          "name": "owner",
          "type": "address"
        }
      ],
      "name": "MultiSigOwnerRemoval",
      "type": "event"
    },
    {
      "anonymous": false,
      "inputs": [
        {
          "indexed": true,
          "internalType": "address",
          "name": "proxyContractAddr",
          "type": "address"
        },
        {
          "indexed": false,
          "internalType": "uint256",
          "name": "required",
          "type": "uint256"
        }
      ],
      "name": "MultiSigRequirementChange",
      "type": "event"
    },
    {
      "anonymous": false,
      "inputs": [
        {
          "indexed": true,
          "internalType": "address",
          "name": "proxyContractAddr",
          "type": "address"
        },
        {
          "indexed": true,
          "internalType": "address",
          "name": "sender",
          "type": "address"
        },
        {
          "indexed": true,
          "internalType": "uint256",
          "name": "transactionId",
          "type": "uint256"
        }
      ],
      "name": "MultiSigRevocation",
      "type": "event"
    },
    {
      "anonymous": false,
      "inputs": [
        {
          "indexed": true,
          "internalType": "address",
          "name": "proxyContractAddr",
          "type": "address"
        },
        {
          "indexed": true,
          "internalType": "uint256",
          "name": "transactionId",
          "type": "uint256"
        }
      ],
      "name": "MultiSigSubmission",
      "type": "event"
    },
    {
      "constant": true,
      "inputs": [
        {
          "internalType": "string",
          "name": "_type",
          "type": "string"
        }
      ],
      "name": "getUserType",
      "outputs": [
        {
          "internalType": "enum IdentityUserType.UserType",
          "name": "",
          "type": "uint8"
        }
      ],
      "payable": false,
      "stateMutability": "pure",
      "type": "function"
    },
    {
      "constant": false,
      "inputs": [
        {
          "internalType": "address",
          "name": "instantiation",
          "type": "address"
        }
      ],
      "name": "logContractInstantiation",
      "outputs": [],
      "payable": false,
      "stateMutability": "nonpayable",
      "type": "function"
    },
    {
      "constant": false,
      "inputs": [
        {
          "internalType": "address",
          "name": "contractAddress",
          "type": "address"
        },
        {
          "internalType": "address[]",
          "name": "owners",
          "type": "address[]"
        },
        {
          "internalType": "uint256",
          "name": "requiredConfirmation",
          "type": "uint256"
        },
        {
          "internalType": "string",
          "name": "englishName",
          "type": "string"
        },
        {
          "internalType": "string",
          "name": "originalName",
          "type": "string"
        },
        {
          "internalType": "string",
          "name": "userType",
          "type": "string"
        }
      ],
      "name": "logCreateLicensedUserWallet",
      "outputs": [],
      "payable": false,
      "stateMutability": "nonpayable",
      "type": "function"
    },
    {
      "constant": false,
      "inputs": [
        {
          "internalType": "address",
          "name": "sender",
          "type": "address"
        },
        {
          "internalType": "uint256",
          "name": "transactionId",
          "type": "uint256"
        }
      ],
      "name": "logConfirmation",
      "outputs": [],
      "payable": false,
      "stateMutability": "nonpayable",
      "type": "function"
    },
    {
      "constant": false,
      "inputs": [
        {
          "internalType": "address",
          "name": "sender",
          "type": "address"
        },
        {
          "internalType": "uint256",
          "name": "transactionId",
          "type": "uint256"
        }
      ],
      "name": "logRevocation",
      "outputs": [],
      "payable": false,
      "stateMutability": "nonpayable",
      "type": "function"
    },
    {
      "constant": false,
      "inputs": [
        {
          "internalType": "uint256",
          "name": "transactionId",
          "type": "uint256"
        }
      ],
      "name": "logSubmission",
      "outputs": [],
      "payable": false,
      "stateMutability": "nonpayable",
      "type": "function"
    },
    {
      "constant": false,
      "inputs": [
        {
          "internalType": "uint256",
          "name": "transactionId",
          "type": "uint256"
        }
      ],
      "name": "logExecution",
      "outputs": [],
      "payable": false,
      "stateMutability": "nonpayable",
      "type": "function"
    },
    {
      "constant": false,
      "inputs": [
        {
          "internalType": "uint256",
          "name": "transactionId",
          "type": "uint256"
        }
      ],
      "name": "logExecutionFailure",
      "outputs": [],
      "payable": false,
      "stateMutability": "nonpayable",
      "type": "function"
    },
    {
      "constant": false,
      "inputs": [
        {
          "internalType": "address",
          "name": "owner",
          "type": "address"
        }
      ],
      "name": "logOwnerAddition",
      "outputs": [],
      "payable": false,
      "stateMutability": "nonpayable",
      "type": "function"
    },
    {
      "constant": false,
      "inputs": [
        {
          "internalType": "address",
          "name": "owner",
          "type": "address"
        }
      ],
      "name": "logOwnerRemoval",
      "outputs": [],
      "payable": false,
      "stateMutability": "nonpayable",
      "type": "function"
    },
    {
      "constant": false,
      "inputs": [
        {
          "internalType": "uint256",
          "name": "required",
          "type": "uint256"
        }
      ],
      "name": "logRequirementChange",
      "outputs": [],
      "payable": false,
      "stateMutability": "nonpayable",
      "type": "function"
    }
  ],
  "bytecode": "0x608060405234801561001057600080fd5b50610db8806100206000396000f3fe608060405234801561001057600080fd5b50600436106100a95760003560e01c8063498586c211610071578063498586c21461013a5780635ca52393146101565780635fa9cb7514610172578063620ee6361461018e5780637ba20a4d146101aa578063cc93c02a146101da576100a9565b8063046df94e146100ae5780630a8cc42a146100ca57806325232a33146100e65780633b897546146101025780633d77cabc1461011e575b600080fd5b6100c860048036036100c391908101906108b4565b6101f6565b005b6100e460048036036100df9190810190610725565b61023d565b005b61010060048036036100fb91908101906108b4565b61029a565b005b61011c60048036036101179190810190610725565b6102eb565b005b610138600480360361013391908101906108b4565b610348565b005b610154600480360361014f919081019061074e565b61038f565b005b610170600480360361016b9190810190610837565b6103ed565b005b61018c60048036036101879190810190610725565b61044c565b005b6101a860048036036101a391908101906108b4565b6104a9565b005b6101c460048036036101bf9190810190610873565b6104f0565b6040516101d19190610b6f565b60405180910390f35b6101f460048036036101ef9190810190610837565b6105c5565b005b803373ffffffffffffffffffffffffffffffffffffffff167fa02599e73766b76852cf005ba83f740c6af9b6e26db9335054e3c9097ed3e0eb60405160405180910390a350565b8073ffffffffffffffffffffffffffffffffffffffff163373ffffffffffffffffffffffffffffffffffffffff167f5a89e44cea7ace68f75164b54a4b11c9bdc65c96f213dc2fac95ec00035f3e2a60405160405180910390a350565b3373ffffffffffffffffffffffffffffffffffffffff167fd07fe6bd34bcd24f883b97337dbebc30fa5204756ebe4a823c7b86bb321b43e0826040516102e09190610b8a565b60405180910390a250565b8073ffffffffffffffffffffffffffffffffffffffff163373ffffffffffffffffffffffffffffffffffffffff167f6dda67ea74fde8ae702522d8fb09acd8e790d4a8ac87cd4e12217b2dd316e12460405160405180910390a350565b803373ffffffffffffffffffffffffffffffffffffffff167f11dd68eeac29773a69a86bc6e8a18801cd046b534f6b56b62a67dee08e1eed2260405160405180910390a350565b8573ffffffffffffffffffffffffffffffffffffffff167f131869768d537d8606405a036793a3c3b84b5481c0f6626e34c4544977405d0e86868686866040516103dd959493929190610b00565b60405180910390a2505050505050565b808273ffffffffffffffffffffffffffffffffffffffff163373ffffffffffffffffffffffffffffffffffffffff167fca219580730b38cf32828597dec7c356c5c64bc45acd6937aff49c8bf4a4eeb560405160405180910390a45050565b8073ffffffffffffffffffffffffffffffffffffffff163373ffffffffffffffffffffffffffffffffffffffff167f4fb057ad4a26ed17a57957fa69c306f11987596069b89521c511fc9a894e616160405160405180910390a350565b803373ffffffffffffffffffffffffffffffffffffffff167ffbe1baba46c2fff39c189a5f582f8ecb7c6faa9663066f3d4754f33e13a3936860405160405180910390a350565b600080826040516020016105049190610aaa565b60405160208183030381529060405280519060200120905060405160200161052b90610ad6565b604051602081830303815290604052805190602001208114156105525760009150506105c0565b60405160200161056190610ac1565b604051602081830303815290604052805190602001208114156105885760019150506105c0565b60405160200161059790610aeb565b604051602081830303815290604052805190602001208114156105be5760029150506105c0565b505b919050565b808273ffffffffffffffffffffffffffffffffffffffff163373ffffffffffffffffffffffffffffffffffffffff167fc6cef0463c75ed91d7a33e578d09d746770509b64be7ac627e23aa09b05cb20e60405160405180910390a45050565b60008135905061063381610d47565b92915050565b600082601f83011261064a57600080fd5b813561065d61065882610bd2565b610ba5565b9150818183526020840193506020810190508385602084028201111561068257600080fd5b60005b838110156106b257816106988882610624565b845260208401935060208301925050600181019050610685565b5050505092915050565b600082601f8301126106cd57600080fd5b81356106e06106db82610bfa565b610ba5565b915080825260208301602083018583830111156106fc57600080fd5b610707838284610ce7565b50505092915050565b60008135905061071f81610d5e565b92915050565b60006020828403121561073757600080fd5b600061074584828501610624565b91505092915050565b60008060008060008060c0878903121561076757600080fd5b600061077589828a01610624565b965050602087013567ffffffffffffffff81111561079257600080fd5b61079e89828a01610639565b95505060406107af89828a01610710565b945050606087013567ffffffffffffffff8111156107cc57600080fd5b6107d889828a016106bc565b935050608087013567ffffffffffffffff8111156107f557600080fd5b61080189828a016106bc565b92505060a087013567ffffffffffffffff81111561081e57600080fd5b61082a89828a016106bc565b9150509295509295509295565b6000806040838503121561084a57600080fd5b600061085885828601610624565b925050602061086985828601610710565b9150509250929050565b60006020828403121561088557600080fd5b600082013567ffffffffffffffff81111561089f57600080fd5b6108ab848285016106bc565b91505092915050565b6000602082840312156108c657600080fd5b60006108d484828501610710565b91505092915050565b60006108e983836108f5565b60208301905092915050565b6108fe81610c86565b82525050565b600061090f82610c36565b6109198185610c59565b935061092483610c26565b8060005b8381101561095557815161093c88826108dd565b975061094783610c4c565b925050600181019050610928565b5085935050505092915050565b61096b81610cd5565b82525050565b600061097c82610c41565b6109868185610c6a565b9350610996818560208601610cf6565b61099f81610d29565b840191505092915050565b60006109b582610c41565b6109bf8185610c7b565b93506109cf818560208601610cf6565b80840191505092915050565b60006109e8600783610c7b565b91507f68616e646c6572000000000000000000000000000000000000000000000000006000830152600782019050919050565b6000610a28600583610c7b565b91507f61646d696e0000000000000000000000000000000000000000000000000000006000830152600582019050919050565b6000610a68600683610c7b565b91507f61727469737400000000000000000000000000000000000000000000000000006000830152600682019050919050565b610aa481610ccb565b82525050565b6000610ab682846109aa565b915081905092915050565b6000610acc826109db565b9150819050919050565b6000610ae182610a1b565b9150819050919050565b6000610af682610a5b565b9150819050919050565b600060a0820190508181036000830152610b1a8188610904565b9050610b296020830187610a9b565b8181036040830152610b3b8186610971565b90508181036060830152610b4f8185610971565b90508181036080830152610b638184610971565b90509695505050505050565b6000602082019050610b846000830184610962565b92915050565b6000602082019050610b9f6000830184610a9b565b92915050565b6000604051905081810181811067ffffffffffffffff82111715610bc857600080fd5b8060405250919050565b600067ffffffffffffffff821115610be957600080fd5b602082029050602081019050919050565b600067ffffffffffffffff821115610c1157600080fd5b601f19601f8301169050602081019050919050565b6000819050602082019050919050565b600081519050919050565b600081519050919050565b6000602082019050919050565b600082825260208201905092915050565b600082825260208201905092915050565b600081905092915050565b6000610c9182610cab565b9050919050565b6000819050610ca682610d3a565b919050565b600073ffffffffffffffffffffffffffffffffffffffff82169050919050565b6000819050919050565b6000610ce082610c98565b9050919050565b82818337600083830152505050565b60005b83811015610d14578082015181840152602081019050610cf9565b83811115610d23576000848401525b50505050565b6000601f19601f8301169050919050565b60038110610d4457fe5b50565b610d5081610c86565b8114610d5b57600080fd5b50565b610d6781610ccb565b8114610d7257600080fd5b5056fea365627a7a72315820c0a50a997063f59ace868fe75b3948a5de4fc20eaa92ae244bf293f734c417b46c6578706572696d656e74616cf564736f6c63430005100040",
  "source": "pragma solidity 0.5.16;\npragma experimental ABIEncoderV2;\n\nimport \"./IdentityUserType.sol\";\n\n\ncontract LicensedUserEvent is IdentityUserType {\n  /*\n   * Events\n   */\n\n  /*\n   * Events for Factory wallet contract\n   */\n  event ContractInstantiation(\n    address indexed sender,\n    address indexed instantiation\n  );\n  event CreateLicensedUserWallet(\n    address indexed contractAddress,\n    address[] owners,\n    uint256 requiredConfirmation,\n    string englishName,\n    string originalName,\n    string userType\n  );\n\n  /*\n   * Events for licensed user proxy wallet contract\n   */\n  event MultiSigConfirmation(\n    address indexed proxyContractAddr,\n    address indexed sender,\n    uint256 indexed transactionId\n  );\n  event MultiSigRevocation(\n    address indexed proxyContractAddr,\n    address indexed sender,\n    uint256 indexed transactionId\n  );\n  event MultiSigSubmission(\n    address indexed proxyContractAddr,\n    uint256 indexed transactionId\n  );\n  event MultiSigExecution(\n    address indexed proxyContractAddr,\n    uint256 indexed transactionId\n  );\n  event MultiSigExecutionFailure(\n    address indexed proxyContractAddr,\n    uint256 indexed transactionId\n  );\n  // event MultiSigDeposit(\n  //   address indexed proxyContractAddr,\n  //   address indexed sender,\n  //   uint256 value\n  // );\n  event MultiSigOwnerAddition(\n    address indexed proxyContractAddr,\n    address indexed owner\n  );\n  event MultiSigOwnerRemoval(\n    address indexed proxyContractAddr,\n    address indexed owner\n  );\n  event MultiSigRequirementChange(\n    address indexed proxyContractAddr,\n    uint256 required\n  );\n\n  /*\n   * Log functions to emit events\n   */\n\n  /*\n   * Log functions for Factory wallet contract\n   */\n  function logContractInstantiation(address instantiation)\n    public\n  {\n    emit ContractInstantiation(msg.sender, instantiation);\n  }\n\n  function logCreateLicensedUserWallet(\n    address contractAddress,\n    address[] memory owners,\n    uint256 requiredConfirmation,\n    string memory englishName,\n    string memory originalName,\n    string memory userType\n  ) public {\n    emit CreateLicensedUserWallet(\n      contractAddress,\n      owners,\n      requiredConfirmation,\n      englishName,\n      originalName,\n      userType\n    );\n  }\n\n  /*\n   * Log functions for Factory wallet contract\n   */\n  function logConfirmation(address sender, uint256 transactionId) public {\n    emit MultiSigConfirmation(msg.sender, sender, transactionId);\n  }\n\n  function logRevocation(address sender, uint256 transactionId) public {\n    emit MultiSigRevocation(msg.sender, sender, transactionId);\n  }\n\n  function logSubmission(uint256 transactionId) public {\n    emit MultiSigSubmission(msg.sender, transactionId);\n  }\n\n  function logExecution(uint256 transactionId) public {\n    emit MultiSigExecution(msg.sender, transactionId);\n  }\n\n  function logExecutionFailure(uint256 transactionId) public {\n    emit MultiSigExecutionFailure(msg.sender, transactionId);\n  }\n\n  // function logDeposit(address sender, uint256 value) public {\n  //   emit MultiSigDeposit(msg.sender, sender, value);\n  // }\n\n  function logOwnerAddition(address owner) public {\n    emit MultiSigOwnerAddition(msg.sender, owner);\n  }\n\n  function logOwnerRemoval(address owner) public {\n    emit MultiSigOwnerRemoval(msg.sender, owner);\n  }\n\n  function logRequirementChange(uint256 required) public {\n    emit MultiSigRequirementChange(msg.sender, required);\n  }\n}\n",
  "sourcePath": "/root/project/app/licensedUser/contracts/LicensedUserEvent.sol",
  "compiler": {
    "name": "solc",
    "version": "0.5.16+commit.9c3226ce.Emscripten.clang"
  },
  "schemaVersion": "3.0.23",
  "updatedAt": "2020-08-03T06:33:02.805Z",
  "networkType": "ethereum",
  "devdoc": {
    "methods": {
      "getUserType(string)": {
        "details": "Gets user type",
        "params": {
          "_type": "string of the user type"
        },
        "return": "UserType"
      }
    }
  },
  "userdoc": {
    "methods": {}
  }
}