{
  "contractName": "RootLogic",
  "abi": [
    {
      "anonymous": false,
      "inputs": [
        {
          "indexed": true,
          "internalType": "uint256",
          "name": "tokenId",
          "type": "uint256"
        },
        {
          "components": [
            {
              "internalType": "bool",
              "name": "isPrimaryIssuer",
              "type": "bool"
            },
            {
              "internalType": "address",
              "name": "artistAddress",
              "type": "address"
            },
            {
              "internalType": "address",
              "name": "issuer",
              "type": "address"
            }
          ],
          "indexed": false,
          "internalType": "struct IRootLogic.SRR",
          "name": "registryRecord",
          "type": "tuple"
        },
        {
          "indexed": false,
          "internalType": "bytes32",
          "name": "metadataDigest",
          "type": "bytes32"
        }
      ],
      "name": "CreateSRR",
      "type": "event"
    },
    {
      "anonymous": false,
      "inputs": [
        {
          "indexed": true,
          "internalType": "address",
          "name": "previousOwner",
          "type": "address"
        },
        {
          "indexed": true,
          "internalType": "address",
          "name": "newOwner",
          "type": "address"
        }
      ],
      "name": "OwnershipTransferred",
      "type": "event"
    },
    {
      "anonymous": false,
      "inputs": [
        {
          "indexed": true,
          "internalType": "uint256",
          "name": "tokenId",
          "type": "uint256"
        },
        {
          "indexed": true,
          "internalType": "address",
          "name": "from",
          "type": "address"
        },
        {
          "indexed": true,
          "internalType": "address",
          "name": "to",
          "type": "address"
        },
        {
          "indexed": false,
          "internalType": "uint256",
          "name": "timestamp",
          "type": "uint256"
        },
        {
          "indexed": false,
          "internalType": "string",
          "name": "historyMetadataDigest",
          "type": "string"
        },
        {
          "indexed": false,
          "internalType": "string",
          "name": "historyMetadataURI",
          "type": "string"
        }
      ],
      "name": "Provenance",
      "type": "event"
    },
    {
      "anonymous": false,
      "inputs": [
        {
          "indexed": false,
          "internalType": "address",
          "name": "owner",
          "type": "address"
        },
        {
          "indexed": false,
          "internalType": "bytes32",
          "name": "commitment",
          "type": "bytes32"
        },
        {
          "indexed": false,
          "internalType": "uint256",
          "name": "tokenId",
          "type": "uint256"
        }
      ],
      "name": "SRRCommitment",
      "type": "event"
    },
    {
      "anonymous": false,
      "inputs": [
        {
          "indexed": false,
          "internalType": "uint256",
          "name": "tokenId",
          "type": "uint256"
        }
      ],
      "name": "SRRCommitmentCancelled",
      "type": "event"
    },
    {
      "anonymous": false,
      "inputs": [
        {
          "indexed": true,
          "internalType": "uint256",
          "name": "tokenId",
          "type": "uint256"
        },
        {
          "components": [
            {
              "internalType": "bool",
              "name": "isPrimaryIssuer",
              "type": "bool"
            },
            {
              "internalType": "address",
              "name": "artistAddress",
              "type": "address"
            },
            {
              "internalType": "address",
              "name": "issuer",
              "type": "address"
            }
          ],
          "indexed": false,
          "internalType": "struct IRootLogic.SRR",
          "name": "registryRecord",
          "type": "tuple"
        }
      ],
      "name": "UpdateSRR",
      "type": "event"
    },
    {
      "anonymous": false,
      "inputs": [
        {
          "indexed": true,
          "internalType": "uint256",
          "name": "tokenId",
          "type": "uint256"
        },
        {
          "indexed": false,
          "internalType": "bytes32",
          "name": "tokenURIIntegrityDigest",
          "type": "bytes32"
        }
      ],
      "name": "UpdateTokenURIIntegrityDigest",
      "type": "event"
    },
    {
      "constant": true,
      "inputs": [],
      "name": "HASH_ALGORITHM",
      "outputs": [
        {
          "internalType": "string",
          "name": "",
          "type": "string"
        }
      ],
      "payable": false,
      "stateMutability": "view",
      "type": "function"
    },
    {
      "constant": true,
      "inputs": [
        {
          "internalType": "bytes32",
          "name": "x",
          "type": "bytes32"
        }
      ],
      "name": "bytes32ToString",
      "outputs": [
        {
          "internalType": "string",
          "name": "",
          "type": "string"
        }
      ],
      "payable": false,
      "stateMutability": "pure",
      "type": "function"
    },
    {
      "constant": true,
      "inputs": [
        {
          "internalType": "string",
          "name": "_type",
          "type": "string"
        }
      ],
      "name": "getUserType",
      "outputs": [
        {
          "internalType": "enum IdentityUserType.UserType",
          "name": "",
          "type": "uint8"
        }
      ],
      "payable": false,
      "stateMutability": "pure",
      "type": "function"
    },
    {
      "constant": true,
      "inputs": [],
      "name": "isOwner",
      "outputs": [
        {
          "internalType": "bool",
          "name": "",
          "type": "bool"
        }
      ],
      "payable": false,
      "stateMutability": "view",
      "type": "function"
    },
    {
      "constant": true,
      "inputs": [],
      "name": "owner",
      "outputs": [
        {
          "internalType": "address",
          "name": "",
          "type": "address"
        }
      ],
      "payable": false,
      "stateMutability": "view",
      "type": "function"
    },
    {
      "constant": false,
      "inputs": [],
      "name": "renounceOwnership",
      "outputs": [],
      "payable": false,
      "stateMutability": "nonpayable",
      "type": "function"
    },
    {
      "constant": true,
      "inputs": [
        {
          "internalType": "bytes4",
          "name": "interfaceId",
          "type": "bytes4"
        }
      ],
      "name": "supportsInterface",
      "outputs": [
        {
          "internalType": "bool",
          "name": "",
          "type": "bool"
        }
      ],
      "payable": false,
      "stateMutability": "view",
      "type": "function"
    },
    {
      "constant": false,
      "inputs": [
        {
          "internalType": "address",
          "name": "newOwner",
          "type": "address"
        }
      ],
      "name": "transferOwnership",
      "outputs": [],
      "payable": false,
      "stateMutability": "nonpayable",
      "type": "function"
    },
    {
      "constant": true,
      "inputs": [
        {
          "internalType": "uint256",
          "name": "i",
          "type": "uint256"
        }
      ],
      "name": "uintToStr",
      "outputs": [
        {
          "internalType": "string",
          "name": "",
          "type": "string"
        }
      ],
      "payable": false,
      "stateMutability": "pure",
      "type": "function"
    },
    {
      "constant": false,
      "inputs": [
        {
          "internalType": "address",
          "name": "nameRegistry",
          "type": "address"
        },
        {
          "internalType": "string",
          "name": "URIPrefix",
          "type": "string"
        },
        {
          "internalType": "string",
          "name": "URIPostfix",
          "type": "string"
        },
        {
          "internalType": "bytes32",
          "name": "schemaURIIntegrityDigest",
          "type": "bytes32"
        }
      ],
      "name": "initialize",
      "outputs": [],
      "payable": false,
      "stateMutability": "nonpayable",
      "type": "function"
    },
    {
      "constant": false,
      "inputs": [],
      "name": "initialize",
      "outputs": [],
      "payable": false,
      "stateMutability": "nonpayable",
      "type": "function"
    },
    {
      "constant": false,
      "inputs": [
        {
          "internalType": "address",
          "name": "sender",
          "type": "address"
        }
      ],
      "name": "initialize",
      "outputs": [],
      "payable": false,
      "stateMutability": "nonpayable",
      "type": "function"
    },
    {
      "constant": false,
      "inputs": [
        {
          "internalType": "bool",
          "name": "isPrimaryIssuer",
          "type": "bool"
        },
        {
          "internalType": "address",
          "name": "artistAddress",
          "type": "address"
        },
        {
          "internalType": "bytes32",
          "name": "metadataDigest",
          "type": "bytes32"
        },
        {
          "components": [
            {
              "internalType": "bytes32",
              "name": "hashed",
              "type": "bytes32"
            },
            {
              "internalType": "uint8",
              "name": "v",
              "type": "uint8"
            },
            {
              "internalType": "bytes32",
              "name": "r",
              "type": "bytes32"
            },
            {
              "internalType": "bytes32",
              "name": "s",
              "type": "bytes32"
            },
            {
              "internalType": "address",
              "name": "sender",
              "type": "address"
            }
          ],
          "internalType": "struct Signature.Sig",
          "name": "sig",
          "type": "tuple"
        }
      ],
      "name": "createSRR",
      "outputs": [
        {
          "internalType": "uint256",
          "name": "",
          "type": "uint256"
        }
      ],
      "payable": false,
      "stateMutability": "nonpayable",
      "type": "function"
    },
    {
      "constant": false,
      "inputs": [
        {
          "internalType": "bool",
          "name": "isPrimaryIssuer",
          "type": "bool"
        },
        {
          "internalType": "address",
          "name": "artistAddress",
          "type": "address"
        },
        {
          "internalType": "bytes32",
          "name": "metadataDigest",
          "type": "bytes32"
        }
      ],
      "name": "createSRRFromLicensedUser",
      "outputs": [
        {
          "internalType": "uint256",
          "name": "",
          "type": "uint256"
        }
      ],
      "payable": false,
      "stateMutability": "nonpayable",
      "type": "function"
    },
    {
      "constant": false,
      "inputs": [
        {
          "internalType": "bool",
          "name": "isPrimaryIssuer",
          "type": "bool"
        },
        {
          "internalType": "address",
          "name": "artistAddress",
          "type": "address"
        },
        {
          "internalType": "bytes32",
          "name": "metadataDigest",
          "type": "bytes32"
        },
        {
          "internalType": "address",
          "name": "issuerAddress",
          "type": "address"
        }
      ],
      "name": "createSRRFromBulk",
      "outputs": [
        {
          "internalType": "uint256",
          "name": "",
          "type": "uint256"
        }
      ],
      "payable": false,
      "stateMutability": "nonpayable",
      "type": "function"
    },
    {
      "constant": false,
      "inputs": [
        {
          "internalType": "uint256",
          "name": "tokenId",
          "type": "uint256"
        },
        {
          "internalType": "bool",
          "name": "isPrimaryIssuer",
          "type": "bool"
        },
        {
          "internalType": "address",
          "name": "artistAddress",
          "type": "address"
        }
      ],
      "name": "updateSRRFromLicensedUser",
      "outputs": [
        {
          "internalType": "uint256",
          "name": "",
          "type": "uint256"
        }
      ],
      "payable": false,
      "stateMutability": "nonpayable",
      "type": "function"
    },
    {
      "constant": false,
      "inputs": [
        {
          "internalType": "uint256",
          "name": "tokenId",
          "type": "uint256"
        },
        {
          "internalType": "bytes32",
          "name": "tokenURIIntegrityDigest",
          "type": "bytes32"
        }
      ],
      "name": "updateSRRMetadata",
      "outputs": [],
      "payable": false,
      "stateMutability": "nonpayable",
      "type": "function"
    },
    {
      "constant": false,
      "inputs": [
        {
          "internalType": "uint256",
          "name": "tokenId",
          "type": "uint256"
        },
        {
          "internalType": "bytes32",
          "name": "commitment",
          "type": "bytes32"
        },
        {
          "internalType": "string",
          "name": "historyMetadataDigest",
          "type": "string"
        }
      ],
      "name": "approveSRRByCommitment",
      "outputs": [],
      "payable": false,
      "stateMutability": "nonpayable",
      "type": "function"
    },
    {
      "constant": false,
      "inputs": [
        {
          "internalType": "uint256",
          "name": "tokenId",
          "type": "uint256"
        }
      ],
      "name": "cancelSRRCommitment",
      "outputs": [],
      "payable": false,
      "stateMutability": "nonpayable",
      "type": "function"
    },
    {
      "constant": false,
      "inputs": [
        {
          "internalType": "address",
          "name": "to",
          "type": "address"
        },
        {
          "internalType": "bytes32",
          "name": "reveal",
          "type": "bytes32"
        },
        {
          "internalType": "uint256",
          "name": "tokenId",
          "type": "uint256"
        }
      ],
      "name": "transferSRRByReveal",
      "outputs": [],
      "payable": false,
      "stateMutability": "nonpayable",
      "type": "function"
    },
    {
      "constant": false,
      "inputs": [
        {
          "internalType": "address",
          "name": "nameRegistry",
          "type": "address"
        }
      ],
      "name": "setNameRegistryAddress",
      "outputs": [],
      "payable": false,
      "stateMutability": "nonpayable",
      "type": "function"
    },
    {
      "constant": false,
      "inputs": [
        {
          "internalType": "bytes32",
          "name": "digest",
          "type": "bytes32"
        }
      ],
      "name": "setTokenURISchemaIntegrityDigest",
      "outputs": [],
      "payable": false,
      "stateMutability": "nonpayable",
      "type": "function"
    },
    {
      "constant": false,
      "inputs": [
        {
          "internalType": "string",
          "name": "URIPrefix",
          "type": "string"
        },
        {
          "internalType": "string",
          "name": "URIPostfix",
          "type": "string"
        }
      ],
      "name": "setTokenURIParts",
      "outputs": [],
      "payable": false,
      "stateMutability": "nonpayable",
      "type": "function"
    },
    {
      "constant": true,
      "inputs": [
        {
          "internalType": "uint256",
          "name": "tokenId",
          "type": "uint256"
        }
      ],
      "name": "getSRR",
      "outputs": [
        {
          "components": [
            {
              "internalType": "bool",
              "name": "isPrimaryIssuer",
              "type": "bool"
            },
            {
              "internalType": "address",
              "name": "artistAddress",
              "type": "address"
            },
            {
              "internalType": "address",
              "name": "issuer",
              "type": "address"
            }
          ],
          "internalType": "struct IRootLogic.SRR",
          "name": "registryRecord",
          "type": "tuple"
        },
        {
          "internalType": "bytes32",
          "name": "metadataDigest",
          "type": "bytes32"
        }
      ],
      "payable": false,
      "stateMutability": "view",
      "type": "function"
    },
    {
      "constant": true,
      "inputs": [
        {
          "internalType": "uint256",
          "name": "tokenId",
          "type": "uint256"
        }
      ],
      "name": "getSRROwner",
      "outputs": [
        {
          "internalType": "address",
          "name": "",
          "type": "address"
        }
      ],
      "payable": false,
      "stateMutability": "view",
      "type": "function"
    },
    {
      "constant": true,
      "inputs": [
        {
          "internalType": "uint256",
          "name": "tokenId",
          "type": "uint256"
        }
      ],
      "name": "getSRRCommitment",
      "outputs": [
        {
          "internalType": "bytes32",
          "name": "",
          "type": "bytes32"
        }
      ],
      "payable": false,
      "stateMutability": "view",
      "type": "function"
    },
    {
      "constant": true,
      "inputs": [],
      "name": "getStartrailRegistryAddress",
      "outputs": [
        {
          "internalType": "address",
          "name": "",
          "type": "address"
        }
      ],
      "payable": false,
      "stateMutability": "view",
      "type": "function"
    },
    {
      "constant": true,
      "inputs": [],
      "name": "getLicensedUserWalletFactoryAddress",
      "outputs": [
        {
          "internalType": "address",
          "name": "",
          "type": "address"
        }
      ],
      "payable": false,
      "stateMutability": "view",
      "type": "function"
    },
    {
      "constant": true,
      "inputs": [],
      "name": "getNameRegistryAddress",
      "outputs": [
        {
          "internalType": "address",
          "name": "",
          "type": "address"
        }
      ],
      "payable": false,
      "stateMutability": "view",
      "type": "function"
    },
    {
      "constant": true,
      "inputs": [
        {
          "internalType": "uint256",
          "name": "tokenId",
          "type": "uint256"
        }
      ],
      "name": "tokenURISchemaIntegrity",
      "outputs": [
        {
          "internalType": "bytes",
          "name": "digest",
          "type": "bytes"
        },
        {
          "internalType": "string",
          "name": "hashAlgorithm",
          "type": "string"
        }
      ],
      "payable": false,
      "stateMutability": "view",
      "type": "function"
    },
    {
      "constant": true,
      "inputs": [
        {
          "internalType": "uint256",
          "name": "tokenId",
          "type": "uint256"
        }
      ],
      "name": "tokenURIIntegrity",
      "outputs": [
        {
          "internalType": "bytes",
          "name": "digest",
          "type": "bytes"
        },
        {
          "internalType": "string",
          "name": "hashAlgorithm",
          "type": "string"
        }
      ],
      "payable": false,
      "stateMutability": "view",
      "type": "function"
    },
    {
      "constant": true,
      "inputs": [
        {
          "internalType": "string",
          "name": "metadataDigests",
          "type": "string"
        }
      ],
      "name": "tokenURI",
      "outputs": [
        {
          "internalType": "string",
          "name": "",
          "type": "string"
        }
      ],
      "payable": false,
      "stateMutability": "view",
      "type": "function"
    },
    {
      "constant": true,
      "inputs": [
        {
          "internalType": "uint256",
          "name": "tokenId",
          "type": "uint256"
        }
      ],
      "name": "getHistoryMetadataDigest",
      "outputs": [
        {
          "internalType": "string",
          "name": "",
          "type": "string"
        }
      ],
      "payable": false,
      "stateMutability": "view",
      "type": "function"
    },
    {
      "constant": false,
      "inputs": [
        {
          "internalType": "uint256",
          "name": "tokenId",
          "type": "uint256"
        },
        {
          "internalType": "address",
          "name": "from",
          "type": "address"
        },
        {
          "internalType": "address",
          "name": "to",
          "type": "address"
        },
        {
          "internalType": "string",
          "name": "historyMetadataDigest",
          "type": "string"
        }
      ],
      "name": "_historyProvenance",
      "outputs": [],
      "payable": false,
      "stateMutability": "nonpayable",
      "type": "function"
    }
  ],
  "bytecode": "0x60806040526153ef806100136000396000f3fe608060405234801561001057600080fd5b50600436106102065760003560e01c80638129fc1c1161011a578063ad52ee1d116100ad578063caae188e1161007c578063caae188e14610625578063d3c371a414610656578063ed79ae9b14610672578063f2fde38b1461068e578063fc966d45146106aa57610206565b8063ad52ee1d1461059d578063b9bb3f59146105bb578063c23fff0b146105eb578063c4d66de81461060957610206565b80638da5cb5b116100e95780638da5cb5b146105015780638f32d59b1461051f5780639201de551461053d5780639db171a01461056d57610206565b80638129fc1c1461047b57806381882bd01461048557806386492c3d146104a1578063897ac755146104d157610206565b80634d7ef4721161019d5780636258f93e1161016c5780636258f93e146103d757806362b9bdc214610407578063715018a6146104255780637a40d44f1461042f5780637ba20a4d1461044b57610206565b80634d7ef4721461033f5780634da0ab621461035b57806356f73511146103775780635f915423146103a757610206565b80634247794c116101d95780634247794c146102a6578063491a0de0146102c257806349846680146102de5780634cf12d261461030f57610206565b806301ffc9a71461020b57806319ccf7771461023b5780631fe831001461025957806326e2c0441461028a575b600080fd5b61022560048036036102209190810190613da7565b6106da565b6040516102329190614d68565b60405180910390f35b610243610742565b6040516102509190614cc4565b60405180910390f35b610273600480360361026e9190810190613ea6565b61080e565b604051610281929190615054565b60405180910390f35b6102a4600480360361029f9190810190613b5d565b610aa1565b005b6102c060048036036102bb9190810190613ea6565b610cf2565b005b6102dc60048036036102d79190810190613e3a565b610e0c565b005b6102f860048036036102f39190810190613ea6565b610f37565b604051610306929190614de3565b60405180910390f35b61032960048036036103249190810190613df9565b61103e565b6040516103369190614e57565b60405180910390f35b61035960048036036103549190810190613fc2565b61111f565b005b61037560048036036103709190810190613bac565b6112d4565b005b610391600480360361038c9190810190613ea6565b6115bf565b60405161039e9190614e57565b60405180910390f35b6103c160048036036103bc9190810190613ea6565b611706565b6040516103ce9190614cc4565b60405180910390f35b6103f160048036036103ec9190810190613c68565b61179f565b6040516103fe91906150a6565b60405180910390f35b61040f611885565b60405161041c9190614cc4565b60405180910390f35b61042d611907565b005b61044960048036036104449190810190613d7e565b611a0f565b005b61046560048036036104609190810190613df9565b611ab9565b6040516104729190614e1a565b60405180910390f35b610483611b8e565b005b61049f600480360361049a9190810190613ffe565b611c8b565b005b6104bb60048036036104b69190810190613f73565b611e80565b6040516104c891906150a6565b60405180910390f35b6104eb60048036036104e69190810190613ea6565b612107565b6040516104f89190614d83565b60405180910390f35b6105096121b6565b6040516105169190614cc4565b60405180910390f35b6105276121e0565b6040516105349190614d68565b60405180910390f35b61055760048036036105529190810190613d7e565b61223f565b6040516105649190614e57565b60405180910390f35b61058760048036036105829190810190613cb7565b6123d2565b60405161059491906150a6565b60405180910390f35b6105a5612521565b6040516105b29190614cc4565b60405180910390f35b6105d560048036036105d09190810190613d1a565b6125ed565b6040516105e291906150a6565b60405180910390f35b6105f3612735565b6040516106009190614e35565b60405180910390f35b610623600480360361061e9190810190613b0b565b61276e565b005b61063f600480360361063a9190810190613ea6565b61291a565b60405161064d929190614de3565b60405180910390f35b610670600480360361066b9190810190613b0b565b612b0b565b005b61068c60048036036106879190810190613ef8565b612bee565b005b6106a860048036036106a39190810190613b0b565b612c72565b005b6106c460048036036106bf9190810190613ea6565b612cc5565b6040516106d19190614e57565b60405180910390f35b6000606e6000837bffffffffffffffffffffffffffffffffffffffffffffffffffffffff19167bffffffffffffffffffffffffffffffffffffffffffffffffffffffff1916815260200190815260200160002060009054906101000a900460ff169050919050565b600061074c612df2565b73ffffffffffffffffffffffffffffffffffffffff1663693ec85e6040518060400160405280601281526020017f53544152545241494c5f524547495354525900000000000000000000000000008152506040518263ffffffff1660e01b81526004016107b99190614e35565b60206040518083038186803b1580156107d157600080fd5b505afa1580156107e5573d6000803e3d6000fd5b505050506040513d601f19601f820116820180604052506108099190810190613b34565b905090565b610816613869565b60008261082281612e74565b610861576040517f08c379a000000000000000000000000000000000000000000000000000000000815260040161085890614f19565b60405180910390fd5b60026000858152602001908152602001600020600060405161088290614bdd565b6040518091039020815260200190815260200160002060006040516108a690614b9e565b6040518091039020815260200190815260200160002060009054906101000a900460ff1683600001901515908115158152505060008085815260200190815260200160002060006040516108f990614bdd565b60405180910390208152602001908152602001600020600060405161091d90614bb3565b6040518091039020815260200190815260200160002060009054906101000a900473ffffffffffffffffffffffffffffffffffffffff16836020019073ffffffffffffffffffffffffffffffffffffffff16908173ffffffffffffffffffffffffffffffffffffffff168152505060008085815260200190815260200160002060006040516109ab90614bdd565b6040518091039020815260200190815260200160002060006040516109cf90614c46565b6040518091039020815260200190815260200160002060009054906101000a900473ffffffffffffffffffffffffffffffffffffffff16836040019073ffffffffffffffffffffffffffffffffffffffff16908173ffffffffffffffffffffffffffffffffffffffff1681525050600560008581526020019081526020016000206000604051610a5e90614bdd565b604051809103902081526020019081526020016000206000604051610a8290614bf2565b6040518091039020815260200190815260200160002054915050915091565b80610aab81612e74565b610aea576040517f08c379a0000000000000000000000000000000000000000000000000000000008152600401610ae190614f19565b60405180910390fd5b600083604051602001610afd9190614b15565b604051602081830303815290604052805190602001209050610b1e83612107565b8114610b5f576040517f08c379a0000000000000000000000000000000000000000000000000000000008152600401610b5690614fb9565b60405180910390fd5b6000610b6a84611706565b9050610c6b848288600660008981526020019081526020016000206000604051610b9390614c07565b604051809103902081526020019081526020016000206000604051610bb790614bf2565b604051809103902081526020019081526020016000208054600181600116156101000203166002900480601f016020809104026020016040519081016040528092919081815260200182805460018160011615610100020316600290048015610c615780601f10610c3657610100808354040283529160200191610c61565b820191906000526020600020905b815481529060010190602001808311610c4457829003601f168201915b5050505050612bee565b610c7484612ebb565b610c7c612f9e565b73ffffffffffffffffffffffffffffffffffffffff1663109a037a8288876040518463ffffffff1660e01b8152600401610cb893929190614cfa565b600060405180830381600087803b158015610cd257600080fd5b505af1158015610ce6573d6000803e3d6000fd5b50505050505050505050565b806000610cfe82611706565b90503373ffffffffffffffffffffffffffffffffffffffff168173ffffffffffffffffffffffffffffffffffffffff161480610d3e5750610d3d613075565b5b610d7d576040517f08c379a0000000000000000000000000000000000000000000000000000000008152600401610d7490615019565b60405180910390fd5b82610d8781612e74565b610dc6576040517f08c379a0000000000000000000000000000000000000000000000000000000008152600401610dbd90614f19565b60405180910390fd5b610dcf84612ebb565b7fe4d7874df736cca373c5dd3bdf5df443422997d6c00887fcec2ca658486718e384604051610dfe91906150a6565b60405180910390a150505050565b610e14613075565b610e53576040517f08c379a0000000000000000000000000000000000000000000000000000000008152600401610e4a90614f99565b60405180910390fd5b81600660008081526020019081526020016000206000604051610e7590614bdd565b604051809103902081526020019081526020016000206000604051610e9990614c31565b604051809103902081526020019081526020016000209080519060200190610ec29291906138b8565b5080600660008081526020019081526020016000206000604051610ee590614bdd565b604051809103902081526020019081526020016000206000604051610f0990614bc8565b604051809103902081526020019081526020016000209080519060200190610f329291906138b8565b505050565b60608082610f4481612e74565b610f83576040517f08c379a0000000000000000000000000000000000000000000000000000000008152600401610f7a90614f19565b60405180910390fd5b600560008581526020019081526020016000206000604051610fa490614bdd565b604051809103902081526020019081526020016000206000604051610fc890614bf2565b6040518091039020815260200190815260200160002054604051602001610fef9190614b15565b60405160208183030381529060405292506040518060400160405280600681526020017f7368613235360000000000000000000000000000000000000000000000000000815250915050915091565b606060066000808152602001908152602001600020600060405161106190614bdd565b60405180910390208152602001908152602001600020600060405161108590614c31565b60405180910390208152602001908152602001600020826006600080815260200190815260200160002060006040516110bd90614bdd565b6040518091039020815260200190815260200160002060006040516110e190614bc8565b6040518091039020815260200190815260200160002060405160200161110993929190614b47565b6040516020818303038152906040529050919050565b6111276131be565b73ffffffffffffffffffffffffffffffffffffffff1663938509d3336040518263ffffffff1660e01b815260040161115f9190614cdf565b60206040518083038186803b15801561117757600080fd5b505afa15801561118b573d6000803e3d6000fd5b505050506040513d601f19601f820116820180604052506111af9190810190613c3f565b6111ee576040517f08c379a00000000000000000000000000000000000000000000000000000000081526004016111e590614e79565b60405180910390fd5b816111f881612e74565b611237576040517f08c379a000000000000000000000000000000000000000000000000000000000815260040161122e90614f19565b60405180910390fd5b8160056000858152602001908152602001600020600060405161125990614bdd565b60405180910390208152602001908152602001600020600060405161127d90614bf2565b6040518091039020815260200190815260200160002081905550827f22a55d0f3eb04b046526828c5ed8e094d2a5891faee68c2c2774512befda38b4836040516112c79190614d83565b60405180910390a2505050565b600860019054906101000a900460ff16806112f357506112f2613295565b5b8061130b5750600860009054906101000a900460ff16155b61134a576040517f08c379a000000000000000000000000000000000000000000000000000000000815260040161134190614ff9565b60405180910390fd5b6000600860019054906101000a900460ff16159050801561139c576001600860016101000a81548160ff0219169083151502179055506001600860006101000a81548160ff0219169083151502179055505b8460008080815260200190815260200160002060006040516113bd90614c85565b6040518091039020815260200190815260200160002060006040516113e190614c85565b6040518091039020815260200190815260200160002060006101000a81548173ffffffffffffffffffffffffffffffffffffffff021916908373ffffffffffffffffffffffffffffffffffffffff1602179055508360066000808152602001908152602001600020600060405161145790614bdd565b60405180910390208152602001908152602001600020600060405161147b90614c31565b6040518091039020815260200190815260200160002090805190602001906114a49291906138b8565b50826006600080815260200190815260200160002060006040516114c790614bdd565b6040518091039020815260200190815260200160002060006040516114eb90614bc8565b6040518091039020815260200190815260200160002090805190602001906115149291906138b8565b508160056000808152602001908152602001600020600060405161153790614bdd565b60405180910390208152602001908152602001600020600060405161155b90614c1c565b604051809103902081526020019081526020016000208190555061157e3361276e565b611586611b8e565b61159663832a7e0e60e01b6132ac565b80156115b8576000600860016101000a81548160ff0219169083151502179055505b5050505050565b6060816115cb81612e74565b61160a576040517f08c379a000000000000000000000000000000000000000000000000000000000815260040161160190614f19565b60405180910390fd5b60066000848152602001908152602001600020600060405161162b90614c07565b60405180910390208152602001908152602001600020600060405161164f90614bf2565b604051809103902081526020019081526020016000208054600181600116156101000203166002900480601f0160208091040260200160405190810160405280929190818152602001828054600181600116156101000203166002900480156116f95780601f106116ce576101008083540402835291602001916116f9565b820191906000526020600020905b8154815290600101906020018083116116dc57829003601f168201915b5050505050915050919050565b6000611710612f9e565b73ffffffffffffffffffffffffffffffffffffffff16635f915423836040518263ffffffff1660e01b815260040161174891906150a6565b60206040518083038186803b15801561176057600080fd5b505afa158015611774573d6000803e3d6000fd5b505050506040513d601f19601f820116820180604052506117989190810190613b34565b9050919050565b60006117a96131be565b73ffffffffffffffffffffffffffffffffffffffff1663938509d3336040518263ffffffff1660e01b81526004016117e19190614cdf565b60206040518083038186803b1580156117f957600080fd5b505afa15801561180d573d6000803e3d6000fd5b505050506040513d601f19601f820116820180604052506118319190810190613c3f565b611870576040517f08c379a000000000000000000000000000000000000000000000000000000000815260040161186790614e79565b60405180910390fd5b61187c84848433613382565b90509392505050565b600080600080815260200190815260200160002060006040516118a790614c85565b6040518091039020815260200190815260200160002060006040516118cb90614c85565b6040518091039020815260200190815260200160002060009054906101000a900473ffffffffffffffffffffffffffffffffffffffff16905090565b61190f6121e0565b61194e576040517f08c379a000000000000000000000000000000000000000000000000000000000815260040161194590614fd9565b60405180910390fd5b600073ffffffffffffffffffffffffffffffffffffffff16603b60009054906101000a900473ffffffffffffffffffffffffffffffffffffffff1673ffffffffffffffffffffffffffffffffffffffff167f8be0079c531659141344cd1fd0a4f28419497f9722a3daafe3b4186f6b6457e060405160405180910390a36000603b60006101000a81548173ffffffffffffffffffffffffffffffffffffffff021916908373ffffffffffffffffffffffffffffffffffffffff160217905550565b611a17613075565b611a56576040517f08c379a0000000000000000000000000000000000000000000000000000000008152600401611a4d90614f99565b60405180910390fd5b80600560008081526020019081526020016000206000604051611a7890614bdd565b604051809103902081526020019081526020016000206000604051611a9c90614c1c565b604051809103902081526020019081526020016000208190555050565b60008082604051602001611acd9190614b30565b604051602081830303815290604052805190602001209050604051602001611af490614c70565b60405160208183030381529060405280519060200120811415611b1b576000915050611b89565b604051602001611b2a90614c5b565b60405160208183030381529060405280519060200120811415611b51576001915050611b89565b604051602001611b6090614caf565b60405160208183030381529060405280519060200120811415611b87576002915050611b89565b505b919050565b600860019054906101000a900460ff1680611bad5750611bac613295565b5b80611bc55750600860009054906101000a900460ff16155b611c04576040517f08c379a0000000000000000000000000000000000000000000000000000000008152600401611bfb90614ff9565b60405180910390fd5b6000600860019054906101000a900460ff161590508015611c56576001600860016101000a81548160ff0219169083151502179055506001600860006101000a81548160ff0219169083151502179055505b611c666301ffc9a760e01b6132ac565b8015611c88576000600860016101000a81548160ff0219169083151502179055505b50565b826000611c9782611706565b90503373ffffffffffffffffffffffffffffffffffffffff168173ffffffffffffffffffffffffffffffffffffffff161480611cd75750611cd6613075565b5b611d16576040517f08c379a0000000000000000000000000000000000000000000000000000000008152600401611d0d90615019565b60405180910390fd5b84611d2081612e74565b611d5f576040517f08c379a0000000000000000000000000000000000000000000000000000000008152600401611d5690614f19565b60405180910390fd5b6000611d6a87611706565b905085600560008981526020019081526020016000206000604051611d8e90614bdd565b604051809103902081526020019081526020016000206000604051611db290614c9a565b604051809103902081526020019081526020016000208190555084600660008981526020019081526020016000206000604051611dee90614c07565b604051809103902081526020019081526020016000206000604051611e1290614bf2565b604051809103902081526020019081526020016000209080519060200190611e3b9291906138b8565b507fcdbfdef7607032fffe5ee3842c85173a06cfec881d773a96b04e17fbffc2c69d818789604051611e6f93929190614d31565b60405180910390a150505050505050565b6000611e8a6131be565b73ffffffffffffffffffffffffffffffffffffffff1663938509d3336040518263ffffffff1660e01b8152600401611ec29190614cdf565b60206040518083038186803b158015611eda57600080fd5b505afa158015611eee573d6000803e3d6000fd5b505050506040513d601f19601f82011682018060405250611f129190810190613c3f565b611f51576040517f08c379a0000000000000000000000000000000000000000000000000000000008152600401611f4890614e79565b60405180910390fd5b83611f5b81612e74565b611f9a576040517f08c379a0000000000000000000000000000000000000000000000000000000008152600401611f9190614f19565b60405180910390fd5b826000808781526020019081526020016000206000604051611fbb90614bdd565b604051809103902081526020019081526020016000206000604051611fdf90614bb3565b6040518091039020815260200190815260200160002060006101000a81548173ffffffffffffffffffffffffffffffffffffffff021916908373ffffffffffffffffffffffffffffffffffffffff16021790555061203d8585613682565b61207c576040517f08c379a000000000000000000000000000000000000000000000000000000000815260040161207390614f39565b60405180910390fd5b847fb98f49356fbcbbd9b5095e1fe59804755dd39c72fa41309a59fd2830909a54cf604051806060016040528087151581526020018673ffffffffffffffffffffffffffffffffffffffff1681526020013373ffffffffffffffffffffffffffffffffffffffff168152506040516120f49190615039565b60405180910390a2849150509392505050565b60008161211381612e74565b612152576040517f08c379a000000000000000000000000000000000000000000000000000000000815260040161214990614f19565b60405180910390fd5b60056000848152602001908152602001600020600060405161217390614bdd565b60405180910390208152602001908152602001600020600060405161219790614c9a565b6040518091039020815260200190815260200160002054915050919050565b6000603b60009054906101000a900473ffffffffffffffffffffffffffffffffffffffff16905090565b6000603b60009054906101000a900473ffffffffffffffffffffffffffffffffffffffff1673ffffffffffffffffffffffffffffffffffffffff16612223613701565b73ffffffffffffffffffffffffffffffffffffffff1614905090565b60608060206040519080825280601f01601f1916602001820160405280156122765781602001600182028038833980820191505090505b509050600080905060008090505b60208110156123205760008160080260020a8660001c0260001b9050600060f81b817effffffffffffffffffffffffffffffffffffffffffffffffffffffffffffff19161461231257808484815181106122da57fe5b60200101907effffffffffffffffffffffffffffffffffffffffffffffffffffffffffffff1916908160001a90535082806001019350505b508080600101915050612284565b506060816040519080825280601f01601f1916602001820160405280156123565781602001600182028038833980820191505090505b50905060008090505b828110156123c65783818151811061237357fe5b602001015160f81c60f81b82828151811061238a57fe5b60200101907effffffffffffffffffffffffffffffffffffffffffffffffffffffffffffff1916908160001a905350808060010191505061235f565b50809350505050919050565b6000806123dd612df2565b73ffffffffffffffffffffffffffffffffffffffff1663693ec85e6040518060400160405280600a81526020017f42554c4b5f4953535545000000000000000000000000000000000000000000008152506040518263ffffffff1660e01b815260040161244a9190614e35565b60206040518083038186803b15801561246257600080fd5b505afa158015612476573d6000803e3d6000fd5b505050506040513d601f19601f8201168201806040525061249a9190810190613b34565b90503373ffffffffffffffffffffffffffffffffffffffff168173ffffffffffffffffffffffffffffffffffffffff161461250a576040517f08c379a000000000000000000000000000000000000000000000000000000000815260040161250190614e99565b60405180910390fd5b61251686868686613382565b915050949350505050565b600061252b612df2565b73ffffffffffffffffffffffffffffffffffffffff1663693ec85e6040518060400160405280601c81526020017f4c4943454e5345445f555345525f57414c4c45545f464143544f5259000000008152506040518263ffffffff1660e01b81526004016125989190614e35565b60206040518083038186803b1580156125b057600080fd5b505afa1580156125c4573d6000803e3d6000fd5b505050506040513d601f19601f820116820180604052506125e89190810190613b34565b905090565b60008160006125ff8260000151613709565b90506000600182846020015185604001518660600151604051600081526020016040526040516126329493929190614d9e565b6020604051602081039080840390855afa158015612654573d6000803e3d6000fd5b5050506020604051035190508073ffffffffffffffffffffffffffffffffffffffff16836080015173ffffffffffffffffffffffffffffffffffffffff16146126d2576040517f08c379a00000000000000000000000000000000000000000000000000000000081526004016126c990614f79565b60405180910390fd5b6126da6121e0565b612719576040517f08c379a000000000000000000000000000000000000000000000000000000000815260040161271090614fd9565b60405180910390fd5b6127298888888860800151613382565b50505050949350505050565b6040518060400160405280600681526020017f736861323536000000000000000000000000000000000000000000000000000081525081565b600860019054906101000a900460ff168061278d575061278c613295565b5b806127a55750600860009054906101000a900460ff16155b6127e4576040517f08c379a00000000000000000000000000000000000000000000000000000000081526004016127db90614ff9565b60405180910390fd5b6000600860019054906101000a900460ff161590508015612836576001600860016101000a81548160ff0219169083151502179055506001600860006101000a81548160ff0219169083151502179055505b81603b60006101000a81548173ffffffffffffffffffffffffffffffffffffffff021916908373ffffffffffffffffffffffffffffffffffffffff160217905550603b60009054906101000a900473ffffffffffffffffffffffffffffffffffffffff1673ffffffffffffffffffffffffffffffffffffffff16600073ffffffffffffffffffffffffffffffffffffffff167f8be0079c531659141344cd1fd0a4f28419497f9722a3daafe3b4186f6b6457e060405160405180910390a38015612916576000600860016101000a81548160ff0219169083151502179055505b5050565b6060808261292781612e74565b612966576040517f08c379a000000000000000000000000000000000000000000000000000000000815260040161295d90614f19565b60405180910390fd5b600073ffffffffffffffffffffffffffffffffffffffff16600080868152602001908152602001600020600060405161299e90614bdd565b6040518091039020815260200190815260200160002060006040516129c290614b9e565b6040518091039020815260200190815260200160002060009054906101000a900473ffffffffffffffffffffffffffffffffffffffff1673ffffffffffffffffffffffffffffffffffffffff161415612a50576040517f08c379a0000000000000000000000000000000000000000000000000000000008152600401612a4790614eb9565b60405180910390fd5b600560008081526020019081526020016000206000604051612a7190614bdd565b604051809103902081526020019081526020016000206000604051612a9590614c1c565b6040518091039020815260200190815260200160002054604051602001612abc9190614b15565b60405160208183030381529060405292506040518060400160405280600681526020017f7368613235360000000000000000000000000000000000000000000000000000815250915050915091565b612b136121e0565b612b52576040517f08c379a0000000000000000000000000000000000000000000000000000000008152600401612b4990614fd9565b60405180910390fd5b806000808081526020019081526020016000206000604051612b7390614c85565b604051809103902081526020019081526020016000206000604051612b9790614c85565b6040518091039020815260200190815260200160002060006101000a81548173ffffffffffffffffffffffffffffffffffffffff021916908373ffffffffffffffffffffffffffffffffffffffff16021790555050565b60004290506060612bfe8361103e565b90508373ffffffffffffffffffffffffffffffffffffffff168573ffffffffffffffffffffffffffffffffffffffff16877f7ead3b4ab8784feb4b0e4662f1b1436cbb7ce34397455233d5a99f01707bfb89858786604051612c62939291906150c1565b60405180910390a4505050505050565b612c7a6121e0565b612cb9576040517f08c379a0000000000000000000000000000000000000000000000000000000008152600401612cb090614fd9565b60405180910390fd5b612cc281613739565b50565b60606000821415612d0d576040518060400160405280600181526020017f30000000000000000000000000000000000000000000000000000000000000008152509050612ded565b600082905060005b60008214612d37578080600101915050600a8281612d2f57fe5b049150612d15565b6060816040519080825280601f01601f191660200182016040528015612d6c5781602001600182028038833980820191505090505b50905060006001830390505b60008614612de557600a8681612d8a57fe5b0660300160f81b82828060019003935081518110612da457fe5b60200101907effffffffffffffffffffffffffffffffffffffffffffffffffffffffffffff1916908160001a905350600a8681612ddd57fe5b049550612d78565b819450505050505b919050565b60008060008081526020019081526020016000206000604051612e1490614c85565b604051809103902081526020019081526020016000206000604051612e3890614c85565b6040518091039020815260200190815260200160002060009054906101000a900473ffffffffffffffffffffffffffffffffffffffff16905090565b600080612e8083611706565b9050600073ffffffffffffffffffffffffffffffffffffffff168173ffffffffffffffffffffffffffffffffffffffff161415915050919050565b6000600560008381526020019081526020016000206000604051612ede90614bdd565b604051809103902081526020019081526020016000206000604051612f0290614c9a565b604051809103902081526020019081526020016000208190555060405180602001604052806000815250600660008381526020019081526020016000206000604051612f4d90614c07565b604051809103902081526020019081526020016000206000604051612f7190614bf2565b604051809103902081526020019081526020016000209080519060200190612f9a9291906138b8565b5050565b600080612fa9612df2565b73ffffffffffffffffffffffffffffffffffffffff1663693ec85e6040518060400160405280601281526020017f53544152545241494c5f524547495354525900000000000000000000000000008152506040518263ffffffff1660e01b81526004016130169190614e35565b60206040518083038186803b15801561302e57600080fd5b505afa158015613042573d6000803e3d6000fd5b505050506040513d601f19601f820116820180604052506130669190810190613b34565b90506000819050809250505090565b60008015156130826131be565b73ffffffffffffffffffffffffffffffffffffffff1663938509d3336040518263ffffffff1660e01b81526004016130ba9190614cdf565b60206040518083038186803b1580156130d257600080fd5b505afa1580156130e6573d6000803e3d6000fd5b505050506040513d601f19601f8201168201806040525061310a9190810190613c3f565b1515141561311b57600090506131bb565b60003390506000600281111561312d57fe5b8173ffffffffffffffffffffffffffffffffffffffff1663419900776040518163ffffffff1660e01b815260040160206040518083038186803b15801561317357600080fd5b505afa158015613187573d6000803e3d6000fd5b505050506040513d601f19601f820116820180604052506131ab9190810190613dd0565b60028111156131b657fe5b149150505b90565b6000806131c9612df2565b73ffffffffffffffffffffffffffffffffffffffff1663693ec85e6040518060400160405280601c81526020017f4c4943454e5345445f555345525f57414c4c45545f464143544f5259000000008152506040518263ffffffff1660e01b81526004016132369190614e35565b60206040518083038186803b15801561324e57600080fd5b505afa158015613262573d6000803e3d6000fd5b505050506040513d601f19601f820116820180604052506132869190810190613b34565b90506000819050809250505090565b6000803090506000813b9050600081149250505090565b63ffffffff60e01b817bffffffffffffffffffffffffffffffffffffffffffffffffffffffff19161415613315576040517f08c379a000000000000000000000000000000000000000000000000000000000815260040161330c90614ef9565b60405180910390fd5b6001606e6000837bffffffffffffffffffffffffffffffffffffffffffffffffffffffff19167bffffffffffffffffffffffffffffffffffffffffffffffffffffffff1916815260200190815260200160002060006101000a81548160ff02191690831515021790555050565b60008061338d612f9e565b73ffffffffffffffffffffffffffffffffffffffff16636a627842846040518263ffffffff1660e01b81526004016133c59190614cc4565b602060405180830381600087803b1580156133df57600080fd5b505af11580156133f3573d6000803e3d6000fd5b505050506040513d601f19601f820116820180604052506134179190810190613ecf565b905082600080838152602001908152602001600020600060405161343a90614bdd565b60405180910390208152602001908152602001600020600060405161345e90614c46565b6040518091039020815260200190815260200160002060006101000a81548173ffffffffffffffffffffffffffffffffffffffff021916908373ffffffffffffffffffffffffffffffffffffffff1602179055508460008083815260200190815260200160002060006040516134d390614bdd565b6040518091039020815260200190815260200160002060006040516134f790614bb3565b6040518091039020815260200190815260200160002060006101000a81548173ffffffffffffffffffffffffffffffffffffffff021916908373ffffffffffffffffffffffffffffffffffffffff1602179055508360056000838152602001908152602001600020600060405161356d90614bdd565b60405180910390208152602001908152602001600020600060405161359190614bf2565b60405180910390208152602001908152602001600020819055506135b58187613682565b6135f4576040517f08c379a00000000000000000000000000000000000000000000000000000000081526004016135eb90614f59565b60405180910390fd5b807f8cf4110de18b813ef8193d0617c668b48076f2fc9d1d5767d627d9ec5ffcce1a604051806060016040528089151581526020018873ffffffffffffffffffffffffffffffffffffffff1681526020018673ffffffffffffffffffffffffffffffffffffffff168152508660405161366e92919061507d565b60405180910390a280915050949350505050565b6000816002600085815260200190815260200160002060006040516136a690614bdd565b6040518091039020815260200190815260200160002060006040516136ca90614b9e565b6040518091039020815260200190815260200160002060006101000a81548160ff0219169083151502179055506001905092915050565b600033905090565b60008160405160200161371c9190614b78565b604051602081830303815290604052805190602001209050919050565b600073ffffffffffffffffffffffffffffffffffffffff168173ffffffffffffffffffffffffffffffffffffffff1614156137a9576040517f08c379a00000000000000000000000000000000000000000000000000000000081526004016137a090614ed9565b60405180910390fd5b8073ffffffffffffffffffffffffffffffffffffffff16603b60009054906101000a900473ffffffffffffffffffffffffffffffffffffffff1673ffffffffffffffffffffffffffffffffffffffff167f8be0079c531659141344cd1fd0a4f28419497f9722a3daafe3b4186f6b6457e060405160405180910390a380603b60006101000a81548173ffffffffffffffffffffffffffffffffffffffff021916908373ffffffffffffffffffffffffffffffffffffffff16021790555050565b6040518060600160405280600015158152602001600073ffffffffffffffffffffffffffffffffffffffff168152602001600073ffffffffffffffffffffffffffffffffffffffff1681525090565b828054600181600116156101000203166002900490600052602060002090601f016020900481019282601f106138f957805160ff1916838001178555613927565b82800160010185558215613927579182015b8281111561392657825182559160200191906001019061390b565b5b5090506139349190613938565b5090565b61395a91905b8082111561395657600081600090555060010161393e565b5090565b90565b60008135905061396c81615312565b92915050565b60008151905061398181615312565b92915050565b60008135905061399681615329565b92915050565b6000815190506139ab81615329565b92915050565b6000813590506139c081615340565b92915050565b6000813590506139d581615357565b92915050565b6000815190506139ea8161536e565b92915050565b600082601f830112613a0157600080fd5b8135613a14613a0f82615133565b615106565b91508082526020830160208301858383011115613a3057600080fd5b613a3b8382846152a8565b50505092915050565b600060a08284031215613a5657600080fd5b613a6060a0615106565b90506000613a70848285016139b1565b6000830152506020613a8484828501613af6565b6020830152506040613a98848285016139b1565b6040830152506060613aac848285016139b1565b6060830152506080613ac08482850161395d565b60808301525092915050565b600081359050613adb8161537e565b92915050565b600081519050613af08161537e565b92915050565b600081359050613b0581615395565b92915050565b600060208284031215613b1d57600080fd5b6000613b2b8482850161395d565b91505092915050565b600060208284031215613b4657600080fd5b6000613b5484828501613972565b91505092915050565b600080600060608486031215613b7257600080fd5b6000613b808682870161395d565b9350506020613b91868287016139b1565b9250506040613ba286828701613acc565b9150509250925092565b60008060008060808587031215613bc257600080fd5b6000613bd08782880161395d565b945050602085013567ffffffffffffffff811115613bed57600080fd5b613bf9878288016139f0565b935050604085013567ffffffffffffffff811115613c1657600080fd5b613c22878288016139f0565b9250506060613c33878288016139b1565b91505092959194509250565b600060208284031215613c5157600080fd5b6000613c5f8482850161399c565b91505092915050565b600080600060608486031215613c7d57600080fd5b6000613c8b86828701613987565b9350506020613c9c8682870161395d565b9250506040613cad868287016139b1565b9150509250925092565b60008060008060808587031215613ccd57600080fd5b6000613cdb87828801613987565b9450506020613cec8782880161395d565b9350506040613cfd878288016139b1565b9250506060613d0e8782880161395d565b91505092959194509250565b6000806000806101008587031215613d3157600080fd5b6000613d3f87828801613987565b9450506020613d508782880161395d565b9350506040613d61878288016139b1565b9250506060613d7287828801613a44565b91505092959194509250565b600060208284031215613d9057600080fd5b6000613d9e848285016139b1565b91505092915050565b600060208284031215613db957600080fd5b6000613dc7848285016139c6565b91505092915050565b600060208284031215613de257600080fd5b6000613df0848285016139db565b91505092915050565b600060208284031215613e0b57600080fd5b600082013567ffffffffffffffff811115613e2557600080fd5b613e31848285016139f0565b91505092915050565b60008060408385031215613e4d57600080fd5b600083013567ffffffffffffffff811115613e6757600080fd5b613e73858286016139f0565b925050602083013567ffffffffffffffff811115613e9057600080fd5b613e9c858286016139f0565b9150509250929050565b600060208284031215613eb857600080fd5b6000613ec684828501613acc565b91505092915050565b600060208284031215613ee157600080fd5b6000613eef84828501613ae1565b91505092915050565b60008060008060808587031215613f0e57600080fd5b6000613f1c87828801613acc565b9450506020613f2d8782880161395d565b9350506040613f3e8782880161395d565b925050606085013567ffffffffffffffff811115613f5b57600080fd5b613f67878288016139f0565b91505092959194509250565b600080600060608486031215613f8857600080fd5b6000613f9686828701613acc565b9350506020613fa786828701613987565b9250506040613fb88682870161395d565b9150509250925092565b60008060408385031215613fd557600080fd5b6000613fe385828601613acc565b9250506020613ff4858286016139b1565b9150509250929050565b60008060006060848603121561401357600080fd5b600061402186828701613acc565b9350506020614032868287016139b1565b925050604084013567ffffffffffffffff81111561404f57600080fd5b61405b868287016139f0565b9150509250925092565b61406e81615260565b82525050565b61407d816151c2565b82525050565b61408c816151c2565b82525050565b61409b816151d4565b82525050565b6140aa816151d4565b82525050565b6140b9816151e0565b82525050565b6140d06140cb826151e0565b6152ea565b82525050565b60006140e182615174565b6140eb8185615195565b93506140fb8185602086016152b7565b614104816152f4565b840191505092915050565b61411881615272565b82525050565b60006141298261518a565b61413381856151a6565b93506141438185602086016152b7565b61414c816152f4565b840191505092915050565b60006141628261518a565b61416c81856151b7565b935061417c8185602086016152b7565b80840191505092915050565b60006141938261517f565b61419d81856151a6565b93506141ad8185602086016152b7565b6141b6816152f4565b840191505092915050565b6000815460018116600081146141de576001811461420357614247565b607f60028304166141ef81876151b7565b955060ff1983168652808601935050614247565b6002820461421181876151b7565b955061421c8561515f565b60005b8281101561423e5781548189015260018201915060208101905061421f565b82880195505050505b505092915050565b600061425c603e836151a6565b91507f5468652073656e646572206973206e65697468657220746865206c6963656e7360008301527f6564207573657220636f6e7472616374206e6f72207468652061646d696e00006020830152604082019050919050565b60006142c26028836151a6565b91507f5468652073656e6465722069736e2774207468652062756c6b2069737375652060008301527f636f6e74726163740000000000000000000000000000000000000000000000006020830152604082019050919050565b6000614328601c836151b7565b91507f19457468657265756d205369676e6564204d6573736167653a0a3332000000006000830152601c82019050919050565b6000614368601a836151a6565b91507f74686520746f6b656e496420646f6573206e6f742065786973740000000000006000830152602082019050919050565b60006143a86026836151a6565b91507f4f776e61626c653a206e6577206f776e657220697320746865207a65726f206160008301527f64647265737300000000000000000000000000000000000000000000000000006020830152604082019050919050565b600061440e601c836151a6565b91507f4552433136353a20696e76616c696420696e74657266616365206964000000006000830152602082019050919050565b600061444e600f836151b7565b91507f69735072696d61727949737375657200000000000000000000000000000000006000830152600f82019050919050565b600061448e600d836151b7565b91507f61727469737441646472657373000000000000000000000000000000000000006000830152600d82019050919050565b60006144ce600a836151b7565b91507f555249506f7374666978000000000000000000000000000000000000000000006000830152600a82019050919050565b600061450e601a836151a6565b91507f54686520746f6b656e496420646f6573206e6f742065786973740000000000006000830152602082019050919050565b600061454e6011836151a6565b91507f6661696c20746f207570646174655352520000000000000000000000000000006000830152602082019050919050565b600061458e6026836151a6565b91507f6661696c20746f20736176652053746172747261696c2052656769737472792060008301527f5265636f726400000000000000000000000000000000000000000000000000006020830152604082019050919050565b60006145f4600e836151b7565b91507f72656769737472795265636f72640000000000000000000000000000000000006000830152600e82019050919050565b6000614634600e836151b7565b91507f6d657461646174614469676573740000000000000000000000000000000000006000830152600e82019050919050565b60006146746011836151b7565b91507f686973746f727950726f76656e616e63650000000000000000000000000000006000830152601182019050919050565b60006146b4601e836151a6565b91507f546865207369676e617475726520697320696e617070726f70726961746500006000830152602082019050919050565b60006146f4600f836151b7565b91507f736368656d6155524944696765737400000000000000000000000000000000006000830152600f82019050919050565b60006147346009836151b7565b91507f55524950726566697800000000000000000000000000000000000000000000006000830152600982019050919050565b6000614774601b836151a6565b91507f5468652073656e646572206973206e6f74207468652061646d696e00000000006000830152602082019050919050565b60006147b4601c836151a6565b91507f48617368206f662072657665616c20646f65736e2774206d61746368000000006000830152602082019050919050565b60006147f46020836151a6565b91507f4f776e61626c653a2063616c6c6572206973206e6f7420746865206f776e65726000830152602082019050919050565b6000614834602e836151a6565b91507f436f6e747261637420696e7374616e63652068617320616c726561647920626560008301527f656e20696e697469616c697a65640000000000000000000000000000000000006020830152604082019050919050565b600061489a6006836151b7565b91507f69737375657200000000000000000000000000000000000000000000000000006000830152600682019050919050565b60006148da602b836151a6565b91507f53656e646572206973206e656974686572206120535252206f776e6572206e6f60008301527f72207468652061646d696e0000000000000000000000000000000000000000006020830152604082019050919050565b60006149406007836151b7565b91507f68616e646c6572000000000000000000000000000000000000000000000000006000830152600782019050919050565b60006149806005836151b7565b91507f61646d696e0000000000000000000000000000000000000000000000000000006000830152600582019050919050565b60006149c06013836151b7565b91507f6e616d65526567697374727941646472657373000000000000000000000000006000830152601382019050919050565b6000614a00600a836151b7565b91507f636f6d6d69746d656e74000000000000000000000000000000000000000000006000830152600a82019050919050565b6000614a406006836151b7565b91507f61727469737400000000000000000000000000000000000000000000000000006000830152600682019050919050565b606082016000820151614a896000850182614092565b506020820151614a9c6020850182614074565b506040820151614aaf6040850182614074565b50505050565b606082016000820151614acb6000850182614092565b506020820151614ade6020850182614074565b506040820151614af16040850182614074565b50505050565b614b0081615249565b82525050565b614b0f81615253565b82525050565b6000614b2182846140bf565b60208201915081905092915050565b6000614b3c8284614157565b915081905092915050565b6000614b5382866141c1565b9150614b5f8285614157565b9150614b6b82846141c1565b9150819050949350505050565b6000614b838261431b565b9150614b8f82846140bf565b60208201915081905092915050565b6000614ba982614441565b9150819050919050565b6000614bbe82614481565b9150819050919050565b6000614bd3826144c1565b9150819050919050565b6000614be8826145e7565b9150819050919050565b6000614bfd82614627565b9150819050919050565b6000614c1282614667565b9150819050919050565b6000614c27826146e7565b9150819050919050565b6000614c3c82614727565b9150819050919050565b6000614c518261488d565b9150819050919050565b6000614c6682614933565b9150819050919050565b6000614c7b82614973565b9150819050919050565b6000614c90826149b3565b9150819050919050565b6000614ca5826149f3565b9150819050919050565b6000614cba82614a33565b9150819050919050565b6000602082019050614cd96000830184614083565b92915050565b6000602082019050614cf46000830184614065565b92915050565b6000606082019050614d0f6000830186614083565b614d1c6020830185614083565b614d296040830184614af7565b949350505050565b6000606082019050614d466000830186614083565b614d5360208301856140b0565b614d606040830184614af7565b949350505050565b6000602082019050614d7d60008301846140a1565b92915050565b6000602082019050614d9860008301846140b0565b92915050565b6000608082019050614db360008301876140b0565b614dc06020830186614b06565b614dcd60408301856140b0565b614dda60608301846140b0565b95945050505050565b60006040820190508181036000830152614dfd81856140d6565b90508181036020830152614e11818461411e565b90509392505050565b6000602082019050614e2f600083018461410f565b92915050565b60006020820190508181036000830152614e4f8184614188565b905092915050565b60006020820190508181036000830152614e71818461411e565b905092915050565b60006020820190508181036000830152614e928161424f565b9050919050565b60006020820190508181036000830152614eb2816142b5565b9050919050565b60006020820190508181036000830152614ed28161435b565b9050919050565b60006020820190508181036000830152614ef28161439b565b9050919050565b60006020820190508181036000830152614f1281614401565b9050919050565b60006020820190508181036000830152614f3281614501565b9050919050565b60006020820190508181036000830152614f5281614541565b9050919050565b60006020820190508181036000830152614f7281614581565b9050919050565b60006020820190508181036000830152614f92816146a7565b9050919050565b60006020820190508181036000830152614fb281614767565b9050919050565b60006020820190508181036000830152614fd2816147a7565b9050919050565b60006020820190508181036000830152614ff2816147e7565b9050919050565b6000602082019050818103600083015261501281614827565b9050919050565b60006020820190508181036000830152615032816148cd565b9050919050565b600060608201905061504e6000830184614ab5565b92915050565b60006080820190506150696000830185614a73565b61507660608301846140b0565b9392505050565b60006080820190506150926000830185614ab5565b61509f60608301846140b0565b9392505050565b60006020820190506150bb6000830184614af7565b92915050565b60006060820190506150d66000830186614af7565b81810360208301526150e8818561411e565b905081810360408301526150fc818461411e565b9050949350505050565b6000604051905081810181811067ffffffffffffffff8211171561512957600080fd5b8060405250919050565b600067ffffffffffffffff82111561514a57600080fd5b601f19601f8301169050602081019050919050565b60008190508160005260206000209050919050565b600081519050919050565b600081519050919050565b600081519050919050565b600082825260208201905092915050565b600082825260208201905092915050565b600081905092915050565b60006151cd82615229565b9050919050565b60008115159050919050565b6000819050919050565b60007fffffffff0000000000000000000000000000000000000000000000000000000082169050919050565b600081905061522482615305565b919050565b600073ffffffffffffffffffffffffffffffffffffffff82169050919050565b6000819050919050565b600060ff82169050919050565b600061526b82615284565b9050919050565b600061527d82615216565b9050919050565b600061528f82615296565b9050919050565b60006152a182615229565b9050919050565b82818337600083830152505050565b60005b838110156152d55780820151818401526020810190506152ba565b838111156152e4576000848401525b50505050565b6000819050919050565b6000601f19601f8301169050919050565b6003811061530f57fe5b50565b61531b816151c2565b811461532657600080fd5b50565b615332816151d4565b811461533d57600080fd5b50565b615349816151e0565b811461535457600080fd5b50565b615360816151ea565b811461536b57600080fd5b50565b6003811061537b57600080fd5b50565b61538781615249565b811461539257600080fd5b50565b61539e81615253565b81146153a957600080fd5b5056fea365627a7a72315820540f03db212bddfb9f687d070fbe3f570d45ce84d628974adc004b008c6447736c6578706572696d656e74616cf564736f6c63430005100040",
  "source": "pragma solidity 0.5.16;\npragma experimental ABIEncoderV2;\n\nimport \"@openzeppelin/contracts-ethereum-package/contracts/ownership/Ownable.sol\";\nimport \"@openzeppelin/contracts-ethereum-package/contracts/introspection/ERC165.sol\";\nimport \"../../common/IRootLogic.sol\";\nimport \"../../common/Converter.sol\";\nimport \"../../lib/contracts/Signature.sol\";\nimport \"../../common/IStartrailRegistry.sol\";\nimport \"../../common/IStartrailValidator.sol\";\nimport \"../../licensedUser/contracts/LicensedUserWalletFactory.sol\";\nimport \"../../licensedUser/contracts/LicensedUserLogic.sol\";\nimport \"../../licensedUser/contracts/IdentityUserType.sol\";\nimport \"../../name/contracts/NameRegistry.sol\";\nimport \"../../name/contracts/Contracts.sol\";\nimport \"./Storage.sol\";\nimport \"./ERC2477.sol\";\n\ncontract RootLogic is\n  IRootLogic,\n  IStartrailValidator,\n  IdentityUserType,\n  Contracts,\n  Converter,\n  ERC2477,\n  Storage,\n  Ownable,\n  ERC165\n{\n  /*\n   * Constants\n   */\n  // Static\n  uint256 private constant SRR_GLOBAL_SLOT = 0;\n  // types\n  bytes32 private constant _SRR = keccak256(\"registryRecord\");\n  bytes32 private constant _HISTORY = keccak256(\"historyProvenance\");\n\n  // values\n  bytes32 private constant _IS_PRIMARY_ISSUER = keccak256(\"isPrimaryIssuer\");\n  bytes32 private constant _ISSUER = keccak256(\"issuer\");\n  bytes32 private constant _ARTIST_ADDRESS = keccak256(\"artistAddress\");\n  bytes32 private constant _ROYALTY_RATE = keccak256(\"royaltyRate\");\n  bytes32 private constant _ROYALTY_RATE_DECIMALS = keccak256(\n    \"royaltyRateDecimals\"\n  );\n  bytes32 private constant _COMMITMENT = keccak256(\"commitment\");\n  bytes32 private constant _NAME_REGISTRY = keccak256(\"nameRegistryAddress\");\n\n  // metadata\n  bytes32 private constant _URI_PREFIX = keccak256(\"URIPrefix\");\n  bytes32 private constant _URI_POSTFIX = keccak256(\"URIPostfix\");\n  bytes32 private constant _SCHEMA_URI_DIGEST = keccak256(\"schemaURIDigest\");\n  bytes32 private constant _METADATA_DIGEST = keccak256(\"metadataDigest\");\n  // bytes32 private constant _PLATFORM_EOA = keccak256(\"platformEOA\");\n\n  /*\n   *   bytes4(keccak256('tokenURIIntegrity(uint256)')) == 0x49846680\n   *   bytes4(keccak256('tokenURISchemaIntegrity(uint256)')) == 0xcaae188e\n   *\n   *   => 0x49846680 ^ 0xcaae188e == 0x832a7e0e\n   */\n  bytes4 private constant _INTERFACE_ID_ERC2477 = 0x832a7e0e;\n\n  /*\n   * Hashing function.\n   */\n  string public constant HASH_ALGORITHM = \"sha256\";\n\n  /*\n   * Modifiers\n   */\n  modifier onlyAdmin() {\n    require(_isAdmin(), \"The sender is not the admin\");\n    _;\n  }\n\n  modifier onlyLicensedUser() {\n    require(\n      _userFactory().instantiation(msg.sender),\n      \"The sender is neither the licensed user contract nor the admin\"\n    );\n    _;\n  }\n\n  modifier onlyBulk() {\n    address bulkIssueAddress = _nameRegistry().get(BULK_ISSUE);\n    require(\n      bulkIssueAddress == msg.sender,\n      \"The sender isn't the bulk issue contract\"\n    );\n    _;\n  }\n\n  modifier onlyArtist(uint256 tokenId) {\n    require(\n      msg.sender == _addressStorage[tokenId][_SRR][_ARTIST_ADDRESS] ||\n        _isAdmin(),\n      \"This is neither a artist nor the admin\"\n    );\n    _;\n  }\n\n  modifier onlyPrimaryIssuer(uint256 tokenId) {\n    require(\n      (msg.sender == _addressStorage[tokenId][_SRR][_ISSUER] &&\n        _boolStorage[tokenId][_SRR][_IS_PRIMARY_ISSUER]) || _isAdmin(),\n      \"This is neither a primary issuer nor the admin\"\n    );\n    _;\n  }\n\n  modifier onlySRROwner(uint256 tokenId) {\n    address owner = getSRROwner(tokenId);\n    require(\n      owner == msg.sender || _isAdmin(),\n      \"Sender is neither a SRR owner nor the admin\"\n    );\n    _;\n  }\n\n  modifier tokenExists(uint256 tokenId) {\n    require(_exists(tokenId), \"The tokenId does not exist\");\n    _;\n  }\n\n  /**\n   * @dev Initializes the address of the StartrailRegistry contract\n   * @param nameRegistry address of the NameRegistry\n   * @param URIPrefix string of the URI prefix of the scheme where SRR metadata is saved\n   * @param URIPostfix string of the URI postfix of the scheme\n   * @param schemaURIIntegrityDigest bytes32 of the URI digest of the scheme\n   */\n  function initialize(\n    address nameRegistry,\n    string memory URIPrefix,\n    string memory URIPostfix,\n    bytes32 schemaURIIntegrityDigest\n  ) public initializer {\n    _addressStorage[SRR_GLOBAL_SLOT][_NAME_REGISTRY][_NAME_REGISTRY] = nameRegistry;\n    _stringStorage[SRR_GLOBAL_SLOT][_SRR][_URI_PREFIX] = URIPrefix;\n    _stringStorage[SRR_GLOBAL_SLOT][_SRR][_URI_POSTFIX] = URIPostfix;\n    _bytes32Storage[SRR_GLOBAL_SLOT][_SRR][_SCHEMA_URI_DIGEST] = schemaURIIntegrityDigest;\n    Ownable.initialize(msg.sender);\n    ERC165.initialize();\n    super._registerInterface(_INTERFACE_ID_ERC2477);\n  }\n\n  /**\n   * @dev Creates a registryRecord of an artwork\n   * @param isPrimaryIssuer boolean whether the user is a primary issuer\n   * @param artistAddress address of the artist contract\n   * @param metadataDigest bytes32 of metadata hash\n   * @param sig signature\n   * @return uint256 tokenId\n   */\n  function createSRR(\n    bool isPrimaryIssuer,\n    address artistAddress,\n    bytes32 metadataDigest,\n    Signature.Sig memory sig\n  ) public validSender(sig) onlyOwner returns (uint256) {\n    _createSRR(isPrimaryIssuer, artistAddress, metadataDigest, sig.sender);\n  }\n\n  /**\n   * @dev Creates a registryRecord of an artwork from LicensedUserLogic contract\n   * @param isPrimaryIssuer address of the issuer user contract\n   * @param artistAddress address of the artist contract\n   * @param metadataDigest bytes32 of metadata hash\n   * @return uint256 tokenId\n   */\n  function createSRRFromLicensedUser(\n    bool isPrimaryIssuer,\n    address artistAddress,\n    bytes32 metadataDigest\n  ) public onlyLicensedUser returns (uint256) {\n    return\n      _createSRR(isPrimaryIssuer, artistAddress, metadataDigest, msg.sender);\n  }\n\n  function createSRRFromBulk(\n    bool isPrimaryIssuer,\n    address artistAddress,\n    bytes32 metadataDigest,\n    address issuerAddress\n  ) public onlyBulk returns (uint256) {\n    return\n      _createSRR(isPrimaryIssuer, artistAddress, metadataDigest, issuerAddress);\n  }\n\n  /**\n   * @dev Updates the registryRecord\n   * @param tokenId uint256 of StartrailRegistryRecordID\n   * @param isPrimaryIssuer boolean whether the user is a primary issuer\n   * @return uint256 tokenId\n   */\n  function updateSRRFromLicensedUser(\n    uint256 tokenId,\n    bool isPrimaryIssuer,\n    address artistAddress\n  ) public onlyLicensedUser tokenExists(tokenId) returns (uint256) {\n    _addressStorage[tokenId][_SRR][_ARTIST_ADDRESS] = artistAddress;\n    require(_saveSRR(tokenId, isPrimaryIssuer), \"fail to updateSRR\");\n    emit UpdateSRR(tokenId, SRR(isPrimaryIssuer, artistAddress, msg.sender));\n    return tokenId;\n  }\n\n  /**\n   * @dev Updates the SRR metadata\n   * @param tokenId uint256 of StartrailRegistryRecordID\n   * @param tokenURIIntegrityDigest bytes32 of the metadata hash\n   */\n  function updateSRRMetadata(uint256 tokenId, bytes32 tokenURIIntegrityDigest)\n    external\n    onlyLicensedUser\n    tokenExists(tokenId)\n  {\n    _bytes32Storage[tokenId][_SRR][_METADATA_DIGEST] = tokenURIIntegrityDigest;\n    emit UpdateTokenURIIntegrityDigest(tokenId, tokenURIIntegrityDigest);\n  }\n\n  /**\n   * @dev Approves the given commitment hash to transfer the SRR\n   * @param tokenId uint256 ID of the SRR\n   * @param commitment bytes32 of the commitment hash\n   * @param historyMetadataDigest string of the history metadata digest\n   */\n  function approveSRRByCommitment(\n    uint256 tokenId,\n    bytes32 commitment,\n    string memory historyMetadataDigest\n  ) public onlySRROwner(tokenId) tokenExists(tokenId) {\n    address owner = getSRROwner(tokenId);\n    _bytes32Storage[tokenId][_SRR][_COMMITMENT] = commitment;\n    _stringStorage[tokenId][_HISTORY][_METADATA_DIGEST] = historyMetadataDigest;\n    emit SRRCommitment(owner, commitment, tokenId);\n  }\n\n  /**\n   * @dev Cancels the current commitment of a given SRR\n   * @param tokenId uint256 ID of the SRR\n   */\n  function cancelSRRCommitment(uint256 tokenId)\n    public\n    onlySRROwner(tokenId)\n    tokenExists(tokenId)\n  {\n    _clearSRRCommitment(tokenId);\n    emit SRRCommitmentCancelled(tokenId);\n  }\n\n  /**\n   * @dev Transfers the ownership of a given SRR ID to another address.\n   * @param to address to receive the ownership\n   * @param reveal bytes32 of the reveal hash value to restore the commitment value\n   * @param tokenId uint256 ID of the SRR to be transferred\n   */\n  function transferSRRByReveal(\n    address to,\n    bytes32 reveal,\n    uint256 tokenId\n  ) public tokenExists(tokenId) {\n    bytes32 commitment = keccak256(abi.encodePacked(reveal));\n    require(\n      commitment == getSRRCommitment(tokenId),\n      \"Hash of reveal doesn't match\"\n    );\n\n    address from = getSRROwner(tokenId);\n    _historyProvenance(\n      tokenId,\n      from,\n      to,\n      _stringStorage[tokenId][_HISTORY][_METADATA_DIGEST]\n    );\n    _clearSRRCommitment(tokenId);\n    _startrailRegistry().transferSRRFrom(from, to, tokenId);\n  }\n\n  /**\n   * @dev Sets the addresses of the reference\n   * @param nameRegistry address of the NameRegistry\n   */\n  function setNameRegistryAddress(address nameRegistry) public onlyOwner {\n    _addressStorage[SRR_GLOBAL_SLOT][_NAME_REGISTRY][_NAME_REGISTRY] = nameRegistry;\n  }\n\n  /**\n   * @dev Sets the scheme URI digests of SRR metadata\n   * @param digest bytes32 of the scheme URI digests\n   */\n  function setTokenURISchemaIntegrityDigest(bytes32 digest) public onlyAdmin {\n    _bytes32Storage[SRR_GLOBAL_SLOT][_SRR][_SCHEMA_URI_DIGEST] = digest;\n  }\n\n  /**\n   * @dev Sets the URI info of the scheme where SRR metadata is saved\n   * @param URIPrefix string of the URI prefix of the scheme\n   * @param URIPostfix string of the URI postfix of the scheme\n   */\n  function setTokenURIParts(string memory URIPrefix, string memory URIPostfix)\n    public\n    onlyAdmin\n  {\n    _stringStorage[SRR_GLOBAL_SLOT][_SRR][_URI_PREFIX] = URIPrefix;\n    _stringStorage[SRR_GLOBAL_SLOT][_SRR][_URI_POSTFIX] = URIPostfix;\n  }\n\n  /**\n   * @dev Gets the registryRecord related with the tokenId\n   * @param tokenId uint256 ID of StartrailRegistry\n   * @return registryRecord dataset\n   * @return issuerContract Address\n   * @return metadataDigest\n   */\n  function getSRR(uint256 tokenId)\n    public\n    view\n    tokenExists(tokenId)\n    returns (SRR memory registryRecord, bytes32 metadataDigest)\n  {\n    registryRecord\n      .isPrimaryIssuer = _boolStorage[tokenId][_SRR][_IS_PRIMARY_ISSUER];\n    registryRecord\n      .artistAddress = _addressStorage[tokenId][_SRR][_ARTIST_ADDRESS];\n    registryRecord.issuer = _addressStorage[tokenId][_SRR][_ISSUER];\n    metadataDigest = _bytes32Storage[tokenId][_SRR][_METADATA_DIGEST];\n  }\n\n  /**\n   * @dev Gets the current owner address given the token ID\n   * @param tokenId uint256 ID of StartrailRegistry\n   * @return owner address\n   */\n  function getSRROwner(uint256 tokenId) public view returns (address) {\n    return _startrailRegistry().getSRROwner(tokenId);\n  }\n\n  /**\n   * @dev Gets the given commitment hash to transfer the SRR\n   * @param tokenId uint256 ID of StartrailRegistry\n   * @return commitment hash\n   */\n  function getSRRCommitment(uint256 tokenId)\n    public\n    view\n    tokenExists(tokenId)\n    returns (bytes32)\n  {\n    return _bytes32Storage[tokenId][_SRR][_COMMITMENT];\n  }\n\n  /**\n   * @dev Gets the endpoint address of StartrailRegistry\n   * @return StartrailRegistry proxy address\n   */\n  function getStartrailRegistryAddress() public view returns (address) {\n    return _nameRegistry().get(STARTRAIL_REGISTRY);\n  }\n\n  /**\n   * @dev Gets the endpoint address of LicensedUserWalletFactory\n   * @return LicensedUserWalletFactory proxy address\n   */\n  function getLicensedUserWalletFactoryAddress() public view returns (address) {\n    return _nameRegistry().get(LICENSED_USER_WALLET_FACTORY);\n  }\n\n  /**\n   * @dev Gets the endpoint address of NameRegistry\n   * @return NameRegistry proxy address\n   */\n  function getNameRegistryAddress() public view returns (address) {\n    return\n      _addressStorage[SRR_GLOBAL_SLOT][_NAME_REGISTRY][_NAME_REGISTRY];\n  }\n\n  /**\n   * @dev Gets the scheme digests and hash\n   * @param tokenId uint256 ID of StartrailRegistry\n   */\n  function tokenURISchemaIntegrity(uint256 tokenId)\n    external\n    view\n    tokenExists(tokenId)\n    returns (bytes memory digest, string memory hashAlgorithm)\n  {\n    require(\n      _addressStorage[tokenId][_SRR][_IS_PRIMARY_ISSUER] != address(0),\n      \"the tokenId does not exist\"\n    );\n    digest = abi.encodePacked(\n      _bytes32Storage[SRR_GLOBAL_SLOT][_SRR][_SCHEMA_URI_DIGEST]\n    );\n    hashAlgorithm = HASH_ALGORITHM;\n  }\n\n  /**\n   * @dev Gets the metadata digests of SRR and hash\n   * @param tokenId uint256 ID of StartrailRegistry\n   */\n  function tokenURIIntegrity(uint256 tokenId)\n    external\n    view\n    tokenExists(tokenId)\n    returns (bytes memory digest, string memory hashAlgorithm)\n  {\n    digest = abi.encodePacked(_bytes32Storage[tokenId][_SRR][_METADATA_DIGEST]);\n    hashAlgorithm = HASH_ALGORITHM;\n  }\n\n  /**\n   * @dev Gets URI where the matadata is saved\n   * @param metadataDigests string of metadata digests\n   * @return URI\n   */\n  function tokenURI(string memory metadataDigests)\n    public\n    view\n    returns (string memory)\n  {\n    return\n      string(\n        abi.encodePacked(\n          _stringStorage[SRR_GLOBAL_SLOT][_SRR][_URI_PREFIX],\n          metadataDigests,\n          _stringStorage[SRR_GLOBAL_SLOT][_SRR][_URI_POSTFIX]\n        )\n      );\n  }\n\n  /**\n   * @dev Gets metadata digests\n   * @param tokenId uint256 of StartrailRegistryRecordID\n   * @return history metadata digest\n   */\n  function getHistoryMetadataDigest(uint256 tokenId)\n    public\n    view\n    tokenExists(tokenId)\n    returns (string memory)\n  {\n    return _stringStorage[tokenId][_HISTORY][_METADATA_DIGEST];\n  }\n\n  /*\n   * private functions\n   */\n\n  function _createSRR(\n    bool isPrimaryIssuer,\n    address artistAddress,\n    // address platformEOA, // scope out for Day1\n    bytes32 metadataDigest,\n    address sender\n  ) private returns (uint256) {\n    uint256 tokenId = _startrailRegistry().mint(sender);\n    //_addressStorage[tokenId][_SRR][_PLATFORM_EOA] = platformEOA;\n    _addressStorage[tokenId][_SRR][_ISSUER] = sender;\n    _addressStorage[tokenId][_SRR][_ARTIST_ADDRESS] = artistAddress;\n    _bytes32Storage[tokenId][_SRR][_METADATA_DIGEST] = metadataDigest;\n    require(\n      _saveSRR(tokenId, isPrimaryIssuer),\n      \"fail to save Startrail Registry Record\"\n    );\n    emit CreateSRR(\n      tokenId,\n      SRR(isPrimaryIssuer, artistAddress, sender),\n      metadataDigest\n    );\n    return tokenId;\n  }\n\n  /**\n   * @dev Saves the registryRecord\n   * @param tokenId uint256 of StartrailRegistryRecordID\n   * @param isPrimaryIssuer boolean whether the user is a primary issuer\n   * @return bool whether the process is successful\n   */\n  function _saveSRR(uint256 tokenId, bool isPrimaryIssuer)\n    private\n    returns (bool)\n  {\n    _boolStorage[tokenId][_SRR][_IS_PRIMARY_ISSUER] = isPrimaryIssuer;\n    return true;\n  }\n\n  function _isAdmin() private view returns (bool) {\n    if (_userFactory().instantiation(msg.sender) == false) return false;\n    LicensedUserLogic logic = LicensedUserLogic(msg.sender);\n    return logic.getUserType() == UserType.ADMIN;\n  }\n\n  function _exists(uint256 tokenId) private view returns (bool) {\n    address owner = getSRROwner(tokenId);\n    return owner != address(0);\n  }\n\n  function _historyProvenance(\n    uint256 tokenId,\n    address from,\n    address to,\n    string memory historyMetadataDigest\n  ) public {\n    uint256 timestamp = block.timestamp;\n    string memory historyMetadataURI = tokenURI(historyMetadataDigest);\n    emit Provenance(\n      tokenId,\n      from,\n      to,\n      timestamp,\n      historyMetadataDigest,\n      historyMetadataURI\n    );\n  }\n\n  function _clearSRRCommitment(uint256 tokenId) private {\n    _bytes32Storage[tokenId][_SRR][_COMMITMENT] = \"\";\n    _stringStorage[tokenId][_HISTORY][_METADATA_DIGEST] = \"\";\n  }\n\n  function _startrailRegistry() private view returns (IStartrailRegistry) {\n    address startrailRegistryAddress = _nameRegistry().get(STARTRAIL_REGISTRY);\n    IStartrailRegistry startrailRegistry = IStartrailRegistry(\n      startrailRegistryAddress\n    );\n    return startrailRegistry;\n  }\n\n  function _userFactory() private view returns (LicensedUserWalletFactory) {\n    address licensedUserWalletFactoryAddress = _nameRegistry().get(\n      LICENSED_USER_WALLET_FACTORY\n    );\n    LicensedUserWalletFactory factory = LicensedUserWalletFactory(\n      licensedUserWalletFactoryAddress\n    );\n    return factory;\n  }\n\n  function _nameRegistry() private view returns (NameRegistry) {\n    return\n      NameRegistry(\n        _addressStorage[SRR_GLOBAL_SLOT][_NAME_REGISTRY][_NAME_REGISTRY]\n      );\n  }\n\n  // **************************\n  // scope out for Day1\n  // **************************\n\n  // /**\n  //  * @dev Updates the contract terms (others can be stored as metadata)\n  //  * @param tokenId uint256 of StartrailRegistryRecordID\n  //  * @param royaltyRate uint8 of the royalty rate\n  //  * @param royaltyRateDecimals uint8 of the royalty rate decimals\n  //  */\n  // function updateContractTerms(\n  //   uint256 tokenId,\n  //   uint8 royaltyRate,\n  //   uint8 royaltyRateDecimals\n  // ) external onlyPrimaryIssuer(tokenId) {\n  //   _uint8Storage[tokenId][_SRR][_ROYALTY_RATE] = royaltyRate;\n  //   _uint8Storage[tokenId][_SRR][_ROYALTY_RATE_DECIMALS] = royaltyRateDecimals;\n  //   emit UpdateContractTerms(tokenId, royaltyRate, royaltyRateDecimals);\n  // }\n}\n",
  "sourcePath": "/root/project/app/rootLogic/contracts/RootLogic.sol",
  "compiler": {
    "name": "solc",
    "version": "0.5.16+commit.9c3226ce.Emscripten.clang"
  },
  "schemaVersion": "3.0.23",
  "updatedAt": "2020-07-28T09:26:58.701Z",
  "networkType": "ethereum",
  "devdoc": {
    "methods": {
      "approveSRRByCommitment(uint256,bytes32,string)": {
        "details": "Approves the given commitment hash to transfer the SRR",
        "params": {
          "commitment": "bytes32 of the commitment hash",
          "historyMetadataDigest": "string of the history metadata digest",
          "tokenId": "uint256 ID of the SRR"
        }
      },
      "bytes32ToString(bytes32)": {
        "details": "Convertes bytes32 value to string",
        "params": {
          "x": "bytes32"
        },
        "return": "string value"
      },
      "cancelSRRCommitment(uint256)": {
        "details": "Cancels the current commitment of a given SRR",
        "params": {
          "tokenId": "uint256 ID of the SRR"
        }
      },
      "createSRR(bool,address,bytes32,(bytes32,uint8,bytes32,bytes32,address))": {
        "details": "Creates a registryRecord of an artwork",
        "params": {
          "artistAddress": "address of the artist contract",
          "isPrimaryIssuer": "boolean whether the user is a primary issuer",
          "metadataDigest": "bytes32 of metadata hash",
          "sig": "signature"
        },
        "return": "uint256 tokenId"
      },
      "createSRRFromLicensedUser(bool,address,bytes32)": {
        "details": "Creates a registryRecord of an artwork from LicensedUserLogic contract",
        "params": {
          "artistAddress": "address of the artist contract",
          "isPrimaryIssuer": "address of the issuer user contract",
          "metadataDigest": "bytes32 of metadata hash"
        },
        "return": "uint256 tokenId"
      },
      "getHistoryMetadataDigest(uint256)": {
        "details": "Gets metadata digests",
        "params": {
          "tokenId": "uint256 of StartrailRegistryRecordID"
        },
        "return": "history metadata digest"
      },
      "getLicensedUserWalletFactoryAddress()": {
        "details": "Gets the endpoint address of LicensedUserWalletFactory",
        "return": "LicensedUserWalletFactory proxy address"
      },
      "getNameRegistryAddress()": {
        "details": "Gets the endpoint address of NameRegistry",
        "return": "NameRegistry proxy address"
      },
      "getSRR(uint256)": {
        "details": "Gets the registryRecord related with the tokenId",
        "params": {
          "tokenId": "uint256 ID of StartrailRegistry"
        },
        "return": "registryRecord datasetissuerContract AddressmetadataDigest"
      },
      "getSRRCommitment(uint256)": {
        "details": "Gets the given commitment hash to transfer the SRR",
        "params": {
          "tokenId": "uint256 ID of StartrailRegistry"
        },
        "return": "commitment hash"
      },
      "getSRROwner(uint256)": {
        "details": "Gets the current owner address given the token ID",
        "params": {
          "tokenId": "uint256 ID of StartrailRegistry"
        },
        "return": "owner address"
      },
      "getStartrailRegistryAddress()": {
        "details": "Gets the endpoint address of StartrailRegistry",
        "return": "StartrailRegistry proxy address"
      },
      "getUserType(string)": {
        "details": "Gets user type",
        "params": {
          "_type": "string of the user type"
        },
        "return": "UserType"
      },
      "initialize(address)": {
        "details": "Initializes the contract setting the deployer as the initial owner."
      },
      "initialize(address,string,string,bytes32)": {
        "details": "Initializes the address of the StartrailRegistry contract",
        "params": {
          "URIPostfix": "string of the URI postfix of the scheme",
          "URIPrefix": "string of the URI prefix of the scheme where SRR metadata is saved",
          "nameRegistry": "address of the NameRegistry",
          "schemaURIIntegrityDigest": "bytes32 of the URI digest of the scheme"
        }
      },
      "isOwner()": {
        "details": "Returns true if the caller is the current owner."
      },
      "owner()": {
        "details": "Returns the address of the current owner."
      },
      "renounceOwnership()": {
        "details": "Leaves the contract without owner. It will not be possible to call `onlyOwner` functions anymore. Can only be called by the current owner.     * > Note: Renouncing ownership will leave the contract without an owner, thereby removing any functionality that is only available to the owner."
      },
      "setNameRegistryAddress(address)": {
        "details": "Sets the addresses of the reference",
        "params": {
          "nameRegistry": "address of the NameRegistry"
        }
      },
      "setTokenURIParts(string,string)": {
        "details": "Sets the URI info of the scheme where SRR metadata is saved",
        "params": {
          "URIPostfix": "string of the URI postfix of the scheme",
          "URIPrefix": "string of the URI prefix of the scheme"
        }
      },
      "setTokenURISchemaIntegrityDigest(bytes32)": {
        "details": "Sets the scheme URI digests of SRR metadata",
        "params": {
          "digest": "bytes32 of the scheme URI digests"
        }
      },
      "supportsInterface(bytes4)": {
        "details": "See {IERC165-supportsInterface}.     * Time complexity O(1), guaranteed to always use less than 30 000 gas."
      },
      "tokenURI(string)": {
        "details": "Gets URI where the matadata is saved",
        "params": {
          "metadataDigests": "string of metadata digests"
        },
        "return": "URI"
      },
      "tokenURIIntegrity(uint256)": {
        "details": "Gets the metadata digests of SRR and hash",
        "params": {
          "tokenId": "uint256 ID of StartrailRegistry"
        }
      },
      "tokenURISchemaIntegrity(uint256)": {
        "details": "Gets the scheme digests and hash",
        "params": {
          "tokenId": "uint256 ID of StartrailRegistry"
        }
      },
      "transferOwnership(address)": {
        "details": "Transfers ownership of the contract to a new account (`newOwner`). Can only be called by the current owner."
      },
      "transferSRRByReveal(address,bytes32,uint256)": {
        "details": "Transfers the ownership of a given SRR ID to another address.",
        "params": {
          "reveal": "bytes32 of the reveal hash value to restore the commitment value",
          "to": "address to receive the ownership",
          "tokenId": "uint256 ID of the SRR to be transferred"
        }
      },
      "uintToStr(uint256)": {
        "details": "Convertes uint value to string",
        "params": {
          "i": "uint256"
        },
        "return": "string value"
      },
      "updateSRRFromLicensedUser(uint256,bool,address)": {
        "details": "Updates the registryRecord",
        "params": {
          "isPrimaryIssuer": "boolean whether the user is a primary issuer",
          "tokenId": "uint256 of StartrailRegistryRecordID"
        },
        "return": "uint256 tokenId"
      },
      "updateSRRMetadata(uint256,bytes32)": {
        "details": "Updates the SRR metadata",
        "params": {
          "tokenId": "uint256 of StartrailRegistryRecordID",
          "tokenURIIntegrityDigest": "bytes32 of the metadata hash"
        }
      }
    }
  },
  "userdoc": {
    "methods": {}
  }
}