{
  "contractName": "RootLogic",
  "abi": [
    {
      "anonymous": false,
      "inputs": [
        {
          "indexed": true,
          "internalType": "uint256",
          "name": "tokenId",
          "type": "uint256"
        },
        {
          "components": [
            {
              "internalType": "bool",
              "name": "isPrimaryIssuer",
              "type": "bool"
            },
            {
              "internalType": "address",
              "name": "artistAddress",
              "type": "address"
            },
            {
              "internalType": "address",
              "name": "issuer",
              "type": "address"
            }
          ],
          "indexed": false,
          "internalType": "struct IRootLogic.SRR",
          "name": "registryRecord",
          "type": "tuple"
        },
        {
          "indexed": false,
          "internalType": "bytes32",
          "name": "metadataDigest",
          "type": "bytes32"
        }
      ],
      "name": "CreateSRR",
      "type": "event"
    },
    {
      "anonymous": false,
      "inputs": [
        {
          "indexed": true,
          "internalType": "address",
          "name": "previousOwner",
          "type": "address"
        },
        {
          "indexed": true,
          "internalType": "address",
          "name": "newOwner",
          "type": "address"
        }
      ],
      "name": "OwnershipTransferred",
      "type": "event"
    },
    {
      "anonymous": false,
      "inputs": [
        {
          "indexed": true,
          "internalType": "uint256",
          "name": "tokenId",
          "type": "uint256"
        },
        {
          "indexed": true,
          "internalType": "address",
          "name": "from",
          "type": "address"
        },
        {
          "indexed": true,
          "internalType": "address",
          "name": "to",
          "type": "address"
        },
        {
          "indexed": false,
          "internalType": "uint256",
          "name": "timestamp",
          "type": "uint256"
        },
        {
          "indexed": false,
          "internalType": "string",
          "name": "historyMetadataDigest",
          "type": "string"
        },
        {
          "indexed": false,
          "internalType": "string",
          "name": "historyMetadataURI",
          "type": "string"
        }
      ],
      "name": "Provenance",
      "type": "event"
    },
    {
      "anonymous": false,
      "inputs": [
        {
          "indexed": false,
          "internalType": "address",
          "name": "owner",
          "type": "address"
        },
        {
          "indexed": false,
          "internalType": "bytes32",
          "name": "commitment",
          "type": "bytes32"
        },
        {
          "indexed": false,
          "internalType": "uint256",
          "name": "tokenId",
          "type": "uint256"
        }
      ],
      "name": "SRRCommitment",
      "type": "event"
    },
    {
      "anonymous": false,
      "inputs": [
        {
          "indexed": false,
          "internalType": "uint256",
          "name": "tokenId",
          "type": "uint256"
        }
      ],
      "name": "SRRCommitmentCancelled",
      "type": "event"
    },
    {
      "anonymous": false,
      "inputs": [
        {
          "indexed": true,
          "internalType": "uint256",
          "name": "tokenId",
          "type": "uint256"
        },
        {
          "components": [
            {
              "internalType": "bool",
              "name": "isPrimaryIssuer",
              "type": "bool"
            },
            {
              "internalType": "address",
              "name": "artistAddress",
              "type": "address"
            },
            {
              "internalType": "address",
              "name": "issuer",
              "type": "address"
            }
          ],
          "indexed": false,
          "internalType": "struct IRootLogic.SRR",
          "name": "registryRecord",
          "type": "tuple"
        }
      ],
      "name": "UpdateSRR",
      "type": "event"
    },
    {
      "anonymous": false,
      "inputs": [
        {
          "indexed": true,
          "internalType": "uint256",
          "name": "tokenId",
          "type": "uint256"
        },
        {
          "indexed": false,
          "internalType": "bytes32",
          "name": "metadataDigest",
          "type": "bytes32"
        }
      ],
      "name": "UpdateSRRMetadataDigest",
      "type": "event"
    },
    {
      "inputs": [],
      "name": "ADMIN_PROXY",
      "outputs": [
        {
          "internalType": "string",
          "name": "",
          "type": "string"
        }
      ],
      "stateMutability": "view",
      "type": "function",
      "constant": true
    },
    {
      "inputs": [],
      "name": "BULK_ISSUE",
      "outputs": [
        {
          "internalType": "string",
          "name": "",
          "type": "string"
        }
      ],
      "stateMutability": "view",
      "type": "function",
      "constant": true
    },
    {
      "inputs": [],
      "name": "HASH_ALGORITHM",
      "outputs": [
        {
          "internalType": "string",
          "name": "",
          "type": "string"
        }
      ],
      "stateMutability": "view",
      "type": "function",
      "constant": true
    },
    {
      "inputs": [],
      "name": "LICENSED_USER_EVENT",
      "outputs": [
        {
          "internalType": "string",
          "name": "",
          "type": "string"
        }
      ],
      "stateMutability": "view",
      "type": "function",
      "constant": true
    },
    {
      "inputs": [],
      "name": "LICENSED_USER_LOGIC",
      "outputs": [
        {
          "internalType": "string",
          "name": "",
          "type": "string"
        }
      ],
      "stateMutability": "view",
      "type": "function",
      "constant": true
    },
    {
      "inputs": [],
      "name": "LICENSED_USER_WALLET_FACTORY",
      "outputs": [
        {
          "internalType": "string",
          "name": "",
          "type": "string"
        }
      ],
      "stateMutability": "view",
      "type": "function",
      "constant": true
    },
    {
      "inputs": [],
      "name": "ROOT_LOGIC",
      "outputs": [
        {
          "internalType": "string",
          "name": "",
          "type": "string"
        }
      ],
      "stateMutability": "view",
      "type": "function",
      "constant": true
    },
    {
      "inputs": [],
      "name": "STARTRAIL_REGISTRY",
      "outputs": [
        {
          "internalType": "string",
          "name": "",
          "type": "string"
        }
      ],
      "stateMutability": "view",
      "type": "function",
      "constant": true
    },
    {
      "inputs": [
        {
          "internalType": "bytes32",
          "name": "x",
          "type": "bytes32"
        }
      ],
      "name": "bytes32ToString",
      "outputs": [
        {
          "internalType": "string",
          "name": "",
          "type": "string"
        }
      ],
      "stateMutability": "pure",
      "type": "function",
      "constant": true
    },
    {
      "inputs": [
        {
          "internalType": "string",
          "name": "_type",
          "type": "string"
        }
      ],
      "name": "getUserType",
      "outputs": [
        {
          "internalType": "enum IdentityUserType.UserType",
          "name": "",
          "type": "uint8"
        }
      ],
      "stateMutability": "pure",
      "type": "function",
      "constant": true
    },
    {
      "inputs": [],
      "name": "owner",
      "outputs": [
        {
          "internalType": "address",
          "name": "",
          "type": "address"
        }
      ],
      "stateMutability": "view",
      "type": "function",
      "constant": true
    },
    {
      "inputs": [],
      "name": "renounceOwnership",
      "outputs": [],
      "stateMutability": "nonpayable",
      "type": "function"
    },
    {
      "inputs": [
        {
          "internalType": "bytes4",
          "name": "interfaceId",
          "type": "bytes4"
        }
      ],
      "name": "supportsInterface",
      "outputs": [
        {
          "internalType": "bool",
          "name": "",
          "type": "bool"
        }
      ],
      "stateMutability": "view",
      "type": "function",
      "constant": true
    },
    {
      "inputs": [
        {
          "internalType": "address",
          "name": "newOwner",
          "type": "address"
        }
      ],
      "name": "transferOwnership",
      "outputs": [],
      "stateMutability": "nonpayable",
      "type": "function"
    },
    {
      "inputs": [
        {
          "internalType": "uint256",
          "name": "i",
          "type": "uint256"
        }
      ],
      "name": "uintToStr",
      "outputs": [
        {
          "internalType": "string",
          "name": "",
          "type": "string"
        }
      ],
      "stateMutability": "pure",
      "type": "function",
      "constant": true
    },
    {
      "inputs": [
        {
          "internalType": "address",
          "name": "nameRegistry",
          "type": "address"
        },
        {
          "internalType": "string",
          "name": "URIPrefix",
          "type": "string"
        },
        {
          "internalType": "string",
          "name": "URIPostfix",
          "type": "string"
        },
        {
          "internalType": "bytes32",
          "name": "schemaURIIntegrityDigest",
          "type": "bytes32"
        }
      ],
      "name": "initialize",
      "outputs": [],
      "stateMutability": "nonpayable",
      "type": "function"
    },
    {
      "inputs": [
        {
          "internalType": "bool",
          "name": "isPrimaryIssuer",
          "type": "bool"
        },
        {
          "internalType": "address",
          "name": "artistAddress",
          "type": "address"
        },
        {
          "internalType": "bytes32",
          "name": "metadataDigest",
          "type": "bytes32"
        },
        {
          "components": [
            {
              "internalType": "bytes32",
              "name": "hashed",
              "type": "bytes32"
            },
            {
              "internalType": "uint8",
              "name": "v",
              "type": "uint8"
            },
            {
              "internalType": "bytes32",
              "name": "r",
              "type": "bytes32"
            },
            {
              "internalType": "bytes32",
              "name": "s",
              "type": "bytes32"
            },
            {
              "internalType": "address",
              "name": "sender",
              "type": "address"
            }
          ],
          "internalType": "struct Signature.Sig",
          "name": "sig",
          "type": "tuple"
        }
      ],
      "name": "createSRR",
      "outputs": [
        {
          "internalType": "uint256",
          "name": "",
          "type": "uint256"
        }
      ],
      "stateMutability": "nonpayable",
      "type": "function"
    },
    {
      "inputs": [
        {
          "internalType": "bool",
          "name": "isPrimaryIssuer",
          "type": "bool"
        },
        {
          "internalType": "address",
          "name": "artistAddress",
          "type": "address"
        },
        {
          "internalType": "bytes32",
          "name": "metadataDigest",
          "type": "bytes32"
        }
      ],
      "name": "createSRRFromLicensedUser",
      "outputs": [
        {
          "internalType": "uint256",
          "name": "",
          "type": "uint256"
        }
      ],
      "stateMutability": "nonpayable",
      "type": "function"
    },
    {
      "inputs": [
        {
          "internalType": "bool",
          "name": "isPrimaryIssuer",
          "type": "bool"
        },
        {
          "internalType": "address",
          "name": "artistAddress",
          "type": "address"
        },
        {
          "internalType": "bytes32",
          "name": "metadataDigest",
          "type": "bytes32"
        },
        {
          "internalType": "address",
          "name": "issuerAddress",
          "type": "address"
        }
      ],
      "name": "createSRRFromBulk",
      "outputs": [
        {
          "internalType": "uint256",
          "name": "",
          "type": "uint256"
        }
      ],
      "stateMutability": "nonpayable",
      "type": "function"
    },
    {
      "inputs": [
        {
          "internalType": "uint256",
          "name": "tokenId",
          "type": "uint256"
        },
        {
          "internalType": "bool",
          "name": "isPrimaryIssuer",
          "type": "bool"
        },
        {
          "internalType": "address",
          "name": "artistAddress",
          "type": "address"
        }
      ],
      "name": "updateSRRFromLicensedUser",
      "outputs": [
        {
          "internalType": "uint256",
          "name": "",
          "type": "uint256"
        }
      ],
      "stateMutability": "nonpayable",
      "type": "function"
    },
    {
      "inputs": [
        {
          "internalType": "uint256",
          "name": "tokenId",
          "type": "uint256"
        },
        {
          "internalType": "bytes32",
          "name": "metadataDigest",
          "type": "bytes32"
        }
      ],
      "name": "updateSRRMetadata",
      "outputs": [],
      "stateMutability": "nonpayable",
      "type": "function"
    },
    {
      "inputs": [
        {
          "internalType": "uint256",
          "name": "tokenId",
          "type": "uint256"
        },
        {
          "internalType": "bytes32",
          "name": "commitment",
          "type": "bytes32"
        },
        {
          "internalType": "string",
          "name": "historyMetadataDigest",
          "type": "string"
        }
      ],
      "name": "approveSRRByCommitment",
      "outputs": [],
      "stateMutability": "nonpayable",
      "type": "function"
    },
    {
      "inputs": [
        {
          "internalType": "uint256",
          "name": "tokenId",
          "type": "uint256"
        }
      ],
      "name": "cancelSRRCommitment",
      "outputs": [],
      "stateMutability": "nonpayable",
      "type": "function"
    },
    {
      "inputs": [
        {
          "internalType": "address",
          "name": "to",
          "type": "address"
        },
        {
          "internalType": "bytes32",
          "name": "reveal",
          "type": "bytes32"
        },
        {
          "internalType": "uint256",
          "name": "tokenId",
          "type": "uint256"
        }
      ],
      "name": "transferSRRByReveal",
      "outputs": [],
      "stateMutability": "nonpayable",
      "type": "function"
    },
    {
      "inputs": [
        {
          "internalType": "address",
          "name": "nameRegistry",
          "type": "address"
        }
      ],
      "name": "setNameRegistryAddress",
      "outputs": [],
      "stateMutability": "nonpayable",
      "type": "function"
    },
    {
      "inputs": [
        {
          "internalType": "bytes32",
          "name": "digest",
          "type": "bytes32"
        }
      ],
      "name": "setTokenURISchemaIntegrityDigest",
      "outputs": [],
      "stateMutability": "nonpayable",
      "type": "function"
    },
    {
      "inputs": [
        {
          "internalType": "string",
          "name": "URIPrefix",
          "type": "string"
        },
        {
          "internalType": "string",
          "name": "URIPostfix",
          "type": "string"
        }
      ],
      "name": "setTokenURIParts",
      "outputs": [],
      "stateMutability": "nonpayable",
      "type": "function"
    },
    {
      "inputs": [
        {
          "internalType": "uint256",
          "name": "tokenId",
          "type": "uint256"
        }
      ],
      "name": "getSRR",
      "outputs": [
        {
          "components": [
            {
              "internalType": "bool",
              "name": "isPrimaryIssuer",
              "type": "bool"
            },
            {
              "internalType": "address",
              "name": "artistAddress",
              "type": "address"
            },
            {
              "internalType": "address",
              "name": "issuer",
              "type": "address"
            }
          ],
          "internalType": "struct IRootLogic.SRR",
          "name": "registryRecord",
          "type": "tuple"
        },
        {
          "internalType": "bytes32",
          "name": "metadataDigest",
          "type": "bytes32"
        }
      ],
      "stateMutability": "view",
      "type": "function",
      "constant": true
    },
    {
      "inputs": [
        {
          "internalType": "uint256",
          "name": "tokenId",
          "type": "uint256"
        }
      ],
      "name": "getSRROwner",
      "outputs": [
        {
          "internalType": "address",
          "name": "",
          "type": "address"
        }
      ],
      "stateMutability": "view",
      "type": "function",
      "constant": true
    },
    {
      "inputs": [
        {
          "internalType": "uint256",
          "name": "tokenId",
          "type": "uint256"
        }
      ],
      "name": "getSRRCommitment",
      "outputs": [
        {
          "internalType": "bytes32",
          "name": "",
          "type": "bytes32"
        }
      ],
      "stateMutability": "view",
      "type": "function",
      "constant": true
    },
    {
      "inputs": [],
      "name": "getStartrailRegistryAddress",
      "outputs": [
        {
          "internalType": "address",
          "name": "",
          "type": "address"
        }
      ],
      "stateMutability": "view",
      "type": "function",
      "constant": true
    },
    {
      "inputs": [],
      "name": "getLicensedUserWalletFactoryAddress",
      "outputs": [
        {
          "internalType": "address",
          "name": "",
          "type": "address"
        }
      ],
      "stateMutability": "view",
      "type": "function",
      "constant": true
    },
    {
      "inputs": [],
      "name": "getNameRegistryAddress",
      "outputs": [
        {
          "internalType": "address",
          "name": "",
          "type": "address"
        }
      ],
      "stateMutability": "view",
      "type": "function",
      "constant": true
    },
    {
      "inputs": [
        {
          "internalType": "uint256",
          "name": "tokenId",
          "type": "uint256"
        }
      ],
      "name": "tokenURISchemaIntegrity",
      "outputs": [
        {
          "internalType": "bytes",
          "name": "digest",
          "type": "bytes"
        },
        {
          "internalType": "string",
          "name": "hashAlgorithm",
          "type": "string"
        }
      ],
      "stateMutability": "view",
      "type": "function",
      "constant": true
    },
    {
      "inputs": [
        {
          "internalType": "uint256",
          "name": "tokenId",
          "type": "uint256"
        }
      ],
      "name": "tokenURIIntegrity",
      "outputs": [
        {
          "internalType": "bytes",
          "name": "digest",
          "type": "bytes"
        },
        {
          "internalType": "string",
          "name": "hashAlgorithm",
          "type": "string"
        }
      ],
      "stateMutability": "view",
      "type": "function",
      "constant": true
    },
    {
      "inputs": [
        {
          "internalType": "string",
          "name": "metadataDigests",
          "type": "string"
        }
      ],
      "name": "tokenURI",
      "outputs": [
        {
          "internalType": "string",
          "name": "",
          "type": "string"
        }
      ],
      "stateMutability": "view",
      "type": "function",
      "constant": true
    },
    {
      "inputs": [
        {
          "internalType": "uint256",
          "name": "tokenId",
          "type": "uint256"
        }
      ],
      "name": "getHistoryMetadataDigest",
      "outputs": [
        {
          "internalType": "string",
          "name": "",
          "type": "string"
        }
      ],
      "stateMutability": "view",
      "type": "function",
      "constant": true
    }
  ],
  "bytecode": "0x608060405234801561001057600080fd5b506157bc80620000216000396000f3fe608060405234801561001057600080fd5b50600436106102275760003560e01c80636258f93e116101305780638da5cb5b116100b8578063c23fff0b1161007c578063c23fff0b146106b6578063caae188e146106d4578063d3c371a414610705578063f2fde38b14610721578063fc966d451461073d57610227565b80638da5cb5b146105ea5780639201de55146106085780639db171a014610638578063ad52ee1d14610668578063b9bb3f591461068657610227565b80637a40d44f116100ff5780637a40d44f146105225780637ba20a4d1461053e57806381882bd01461056e57806386492c3d1461058a578063897ac755146105ba57610227565b80636258f93e146104ac57806362b9bdc2146104dc5780636d3cb692146104fa578063715018a61461051857610227565b8063491a0de0116101b35780634da0ab62116101825780634da0ab62146103f4578063566d68961461041057806356f735111461042e5780635f9154231461045e578063616412f81461048e57610227565b8063491a0de01461035b57806349846680146103775780634cf12d26146103a85780634d7ef472146103d857610227565b80631fe83100116101fa5780631fe83100146102b657806326e2c044146102e7578063326f594814610303578063338023e9146103215780634247794c1461033f57610227565b806301ffc9a71461022c57806309f271b01461025c57806319ccf7771461027a5780631c21bab014610298575b600080fd5b610246600480360381019061024191906142cd565b61076d565b6040516102539190615198565b60405180910390f35b6102646107d5565b6040516102719190615265565b60405180910390f35b61028261080e565b60405161028f91906150f4565b60405180910390f35b6102a06108da565b6040516102ad9190615265565b60405180910390f35b6102d060048036038101906102cb91906143cc565b610913565b6040516102de929190615462565b60405180910390f35b61030160048036038101906102fc9190614083565b610ba6565b005b61030b610df7565b6040516103189190615265565b60405180910390f35b610329610e30565b6040516103369190615265565b60405180910390f35b610359600480360381019061035491906143cc565b610e69565b005b61037560048036038101906103709190614360565b610f83565b005b610391600480360381019061038c91906143cc565b6110ae565b60405161039f929190615213565b60405180910390f35b6103c260048036038101906103bd919061431f565b6111b5565b6040516103cf9190615265565b60405180910390f35b6103f260048036038101906103ed919061446d565b611296565b005b61040e600480360381019061040991906140d2565b61144b565b005b610418611735565b6040516104259190615265565b60405180910390f35b610448600480360381019061044391906143cc565b61176e565b6040516104559190615265565b60405180910390f35b610478600480360381019061047391906143cc565b6118b5565b60405161048591906150f4565b60405180910390f35b61049661194e565b6040516104a39190615265565b60405180910390f35b6104c660048036038101906104c1919061418e565b611987565b6040516104d3919061548b565b60405180910390f35b6104e4611a6d565b6040516104f191906150f4565b60405180910390f35b610502611aef565b60405161050f9190615265565b60405180910390f35b610520611b28565b005b61053c600480360381019061053791906142a4565b611c80565b005b6105586004803603810190610553919061431f565b611d2a565b604051610565919061524a565b60405180910390f35b610588600480360381019061058391906144a9565b611dff565b005b6105a4600480360381019061059f919061441e565b611ff4565b6040516105b1919061548b565b60405180910390f35b6105d460048036038101906105cf91906143cc565b61227b565b6040516105e191906151b3565b60405180910390f35b6105f261232a565b6040516105ff91906150f4565b60405180910390f35b610622600480360381019061061d91906142a4565b612354565b60405161062f9190615265565b60405180910390f35b610652600480360381019061064d91906141dd565b612515565b60405161065f919061548b565b60405180910390f35b610670612664565b60405161067d91906150f4565b60405180910390f35b6106a0600480360381019061069b9190614240565b612730565b6040516106ad919061548b565b60405180910390f35b6106be6128c8565b6040516106cb9190615265565b60405180910390f35b6106ee60048036038101906106e991906143cc565b612901565b6040516106fc929190615213565b60405180910390f35b61071f600480360381019061071a9190614031565b612af2565b005b61073b60048036038101906107369190614031565b612c25565b005b610757600480360381019061075291906143cc565b612dec565b6040516107649190615265565b60405180910390f35b6000609f6000837bffffffffffffffffffffffffffffffffffffffffffffffffffffffff19167bffffffffffffffffffffffffffffffffffffffffffffffffffffffff1916815260200190815260200160002060009054906101000a900460ff169050919050565b6040518060400160405280601281526020017f53544152545241494c5f5245474953545259000000000000000000000000000081525081565b6000610818612f30565b73ffffffffffffffffffffffffffffffffffffffff1663693ec85e6040518060400160405280601281526020017f53544152545241494c5f524547495354525900000000000000000000000000008152506040518263ffffffff1660e01b81526004016108859190615265565b60206040518083038186803b15801561089d57600080fd5b505afa1580156108b1573d6000803e3d6000fd5b505050506040513d601f19601f820116820180604052508101906108d5919061405a565b905090565b6040518060400160405280601c81526020017f4c4943454e5345445f555345525f57414c4c45545f464143544f52590000000081525081565b61091b613d8f565b60008261092781612fb2565b610966576040517f08c379a000000000000000000000000000000000000000000000000000000000815260040161095d90615327565b60405180910390fd5b6002600085815260200190815260200160002060006040516109879061500d565b6040518091039020815260200190815260200160002060006040516109ab90614fce565b6040518091039020815260200190815260200160002060009054906101000a900460ff1683600001901515908115158152505060008085815260200190815260200160002060006040516109fe9061500d565b604051809103902081526020019081526020016000206000604051610a2290614fe3565b6040518091039020815260200190815260200160002060009054906101000a900473ffffffffffffffffffffffffffffffffffffffff16836020019073ffffffffffffffffffffffffffffffffffffffff16908173ffffffffffffffffffffffffffffffffffffffff16815250506000808581526020019081526020016000206000604051610ab09061500d565b604051809103902081526020019081526020016000206000604051610ad490615076565b6040518091039020815260200190815260200160002060009054906101000a900473ffffffffffffffffffffffffffffffffffffffff16836040019073ffffffffffffffffffffffffffffffffffffffff16908173ffffffffffffffffffffffffffffffffffffffff1681525050600560008581526020019081526020016000206000604051610b639061500d565b604051809103902081526020019081526020016000206000604051610b8790615022565b6040518091039020815260200190815260200160002054915050915091565b80610bb081612fb2565b610bef576040517f08c379a0000000000000000000000000000000000000000000000000000000008152600401610be690615327565b60405180910390fd5b600083604051602001610c029190614f45565b604051602081830303815290604052805190602001209050610c238361227b565b8114610c64576040517f08c379a0000000000000000000000000000000000000000000000000000000008152600401610c5b906153c7565b60405180910390fd5b6000610c6f846118b5565b9050610d70848288600660008981526020019081526020016000206000604051610c9890615037565b604051809103902081526020019081526020016000206000604051610cbc90615022565b604051809103902081526020019081526020016000208054600181600116156101000203166002900480601f016020809104026020016040519081016040528092919081815260200182805460018160011615610100020316600290048015610d665780601f10610d3b57610100808354040283529160200191610d66565b820191906000526020600020905b815481529060010190602001808311610d4957829003601f168201915b5050505050612ff9565b610d798461307d565b610d81613160565b73ffffffffffffffffffffffffffffffffffffffff1663109a037a8288876040518463ffffffff1660e01b8152600401610dbd9392919061512a565b600060405180830381600087803b158015610dd757600080fd5b505af1158015610deb573d6000803e3d6000fd5b50505050505050505050565b6040518060400160405280600b81526020017f41444d494e5f50524f585900000000000000000000000000000000000000000081525081565b6040518060400160405280600a81526020017f524f4f545f4c4f4749430000000000000000000000000000000000000000000081525081565b806000610e75826118b5565b90503373ffffffffffffffffffffffffffffffffffffffff168173ffffffffffffffffffffffffffffffffffffffff161480610eb55750610eb4613237565b5b610ef4576040517f08c379a0000000000000000000000000000000000000000000000000000000008152600401610eeb90615427565b60405180910390fd5b82610efe81612fb2565b610f3d576040517f08c379a0000000000000000000000000000000000000000000000000000000008152600401610f3490615327565b60405180910390fd5b610f468461307d565b7fe4d7874df736cca373c5dd3bdf5df443422997d6c00887fcec2ca658486718e384604051610f75919061548b565b60405180910390a150505050565b610f8b613237565b610fca576040517f08c379a0000000000000000000000000000000000000000000000000000000008152600401610fc1906153a7565b60405180910390fd5b81600660008081526020019081526020016000206000604051610fec9061500d565b60405180910390208152602001908152602001600020600060405161101090615061565b604051809103902081526020019081526020016000209080519060200190611039929190613dde565b508060066000808152602001908152602001600020600060405161105c9061500d565b60405180910390208152602001908152602001600020600060405161108090614ff8565b6040518091039020815260200190815260200160002090805190602001906110a9929190613dde565b505050565b606080826110bb81612fb2565b6110fa576040517f08c379a00000000000000000000000000000000000000000000000000000000081526004016110f190615327565b60405180910390fd5b60056000858152602001908152602001600020600060405161111b9061500d565b60405180910390208152602001908152602001600020600060405161113f90615022565b60405180910390208152602001908152602001600020546040516020016111669190614f45565b60405160208183030381529060405292506040518060400160405280600681526020017f7368613235360000000000000000000000000000000000000000000000000000815250915050915091565b60606006600080815260200190815260200160002060006040516111d89061500d565b6040518091039020815260200190815260200160002060006040516111fc90615061565b60405180910390208152602001908152602001600020826006600080815260200190815260200160002060006040516112349061500d565b60405180910390208152602001908152602001600020600060405161125890614ff8565b6040518091039020815260200190815260200160002060405160200161128093929190614f77565b6040516020818303038152906040529050919050565b61129e612f30565b73ffffffffffffffffffffffffffffffffffffffff1663938509d3336040518263ffffffff1660e01b81526004016112d6919061510f565b60206040518083038186803b1580156112ee57600080fd5b505afa158015611302573d6000803e3d6000fd5b505050506040513d601f19601f820116820180604052508101906113269190614165565b611365576040517f08c379a000000000000000000000000000000000000000000000000000000000815260040161135c90615287565b60405180910390fd5b8161136f81612fb2565b6113ae576040517f08c379a00000000000000000000000000000000000000000000000000000000081526004016113a590615327565b60405180910390fd5b816005600085815260200190815260200160002060006040516113d09061500d565b6040518091039020815260200190815260200160002060006040516113f490615022565b6040518091039020815260200190815260200160002081905550827f066fee88cab40947b280fc684b91be9189e54fec4ea099ad23d9ba420d113d4b8360405161143e91906151b3565b60405180910390a2505050565b600860019054906101000a900460ff168061146a5750611469613379565b5b806114825750600860009054906101000a900460ff16155b6114c1576040517f08c379a00000000000000000000000000000000000000000000000000000000081526004016114b890615407565b60405180910390fd5b6000600860019054906101000a900460ff161590508015611513576001600860016101000a81548160ff0219169083151502179055506001600860006101000a81548160ff0219169083151502179055505b846000808081526020019081526020016000206000604051611534906150b5565b604051809103902081526020019081526020016000206000604051611558906150b5565b6040518091039020815260200190815260200160002060006101000a81548173ffffffffffffffffffffffffffffffffffffffff021916908373ffffffffffffffffffffffffffffffffffffffff160217905550836006600080815260200190815260200160002060006040516115ce9061500d565b6040518091039020815260200190815260200160002060006040516115f290615061565b60405180910390208152602001908152602001600020908051906020019061161b929190613dde565b508260066000808152602001908152602001600020600060405161163e9061500d565b60405180910390208152602001908152602001600020600060405161166290614ff8565b60405180910390208152602001908152602001600020908051906020019061168b929190613dde565b50816005600080815260200190815260200160002060006040516116ae9061500d565b6040518091039020815260200190815260200160002060006040516116d29061504c565b60405180910390208152602001908152602001600020819055506116f4613390565b6116fc61348d565b61170c63832a7e0e60e01b613582565b801561172e576000600860016101000a81548160ff0219169083151502179055505b5050505050565b6040518060400160405280601381526020017f4c4943454e5345445f555345525f4556454e540000000000000000000000000081525081565b60608161177a81612fb2565b6117b9576040517f08c379a00000000000000000000000000000000000000000000000000000000081526004016117b090615327565b60405180910390fd5b6006600084815260200190815260200160002060006040516117da90615037565b6040518091039020815260200190815260200160002060006040516117fe90615022565b604051809103902081526020019081526020016000208054600181600116156101000203166002900480601f0160208091040260200160405190810160405280929190818152602001828054600181600116156101000203166002900480156118a85780601f1061187d576101008083540402835291602001916118a8565b820191906000526020600020905b81548152906001019060200180831161188b57829003601f168201915b5050505050915050919050565b60006118bf613160565b73ffffffffffffffffffffffffffffffffffffffff16635f915423836040518263ffffffff1660e01b81526004016118f7919061548b565b60206040518083038186803b15801561190f57600080fd5b505afa158015611923573d6000803e3d6000fd5b505050506040513d601f19601f82011682018060405250810190611947919061405a565b9050919050565b6040518060400160405280600a81526020017f42554c4b5f49535355450000000000000000000000000000000000000000000081525081565b6000611991612f30565b73ffffffffffffffffffffffffffffffffffffffff1663938509d3336040518263ffffffff1660e01b81526004016119c9919061510f565b60206040518083038186803b1580156119e157600080fd5b505afa1580156119f5573d6000803e3d6000fd5b505050506040513d601f19601f82011682018060405250810190611a199190614165565b611a58576040517f08c379a0000000000000000000000000000000000000000000000000000000008152600401611a4f90615287565b60405180910390fd5b611a6484848433613658565b90509392505050565b60008060008081526020019081526020016000206000604051611a8f906150b5565b604051809103902081526020019081526020016000206000604051611ab3906150b5565b6040518091039020815260200190815260200160002060009054906101000a900473ffffffffffffffffffffffffffffffffffffffff16905090565b6040518060400160405280601381526020017f4c4943454e5345445f555345525f4c4f4749430000000000000000000000000081525081565b611b30613958565b73ffffffffffffffffffffffffffffffffffffffff16606d60009054906101000a900473ffffffffffffffffffffffffffffffffffffffff1673ffffffffffffffffffffffffffffffffffffffff1614611bbf576040517f08c379a0000000000000000000000000000000000000000000000000000000008152600401611bb6906153e7565b60405180910390fd5b600073ffffffffffffffffffffffffffffffffffffffff16606d60009054906101000a900473ffffffffffffffffffffffffffffffffffffffff1673ffffffffffffffffffffffffffffffffffffffff167f8be0079c531659141344cd1fd0a4f28419497f9722a3daafe3b4186f6b6457e060405160405180910390a36000606d60006101000a81548173ffffffffffffffffffffffffffffffffffffffff021916908373ffffffffffffffffffffffffffffffffffffffff160217905550565b611c88613237565b611cc7576040517f08c379a0000000000000000000000000000000000000000000000000000000008152600401611cbe906153a7565b60405180910390fd5b80600560008081526020019081526020016000206000604051611ce99061500d565b604051809103902081526020019081526020016000206000604051611d0d9061504c565b604051809103902081526020019081526020016000208190555050565b60008082604051602001611d3e9190614f60565b604051602081830303815290604052805190602001209050604051602001611d65906150a0565b60405160208183030381529060405280519060200120811415611d8c576000915050611dfa565b604051602001611d9b9061508b565b60405160208183030381529060405280519060200120811415611dc2576001915050611dfa565b604051602001611dd1906150df565b60405160208183030381529060405280519060200120811415611df8576002915050611dfa565b505b919050565b826000611e0b826118b5565b90503373ffffffffffffffffffffffffffffffffffffffff168173ffffffffffffffffffffffffffffffffffffffff161480611e4b5750611e4a613237565b5b611e8a576040517f08c379a0000000000000000000000000000000000000000000000000000000008152600401611e8190615427565b60405180910390fd5b84611e9481612fb2565b611ed3576040517f08c379a0000000000000000000000000000000000000000000000000000000008152600401611eca90615327565b60405180910390fd5b6000611ede876118b5565b905085600560008981526020019081526020016000206000604051611f029061500d565b604051809103902081526020019081526020016000206000604051611f26906150ca565b604051809103902081526020019081526020016000208190555084600660008981526020019081526020016000206000604051611f6290615037565b604051809103902081526020019081526020016000206000604051611f8690615022565b604051809103902081526020019081526020016000209080519060200190611faf929190613dde565b507fcdbfdef7607032fffe5ee3842c85173a06cfec881d773a96b04e17fbffc2c69d818789604051611fe393929190615161565b60405180910390a150505050505050565b6000611ffe612f30565b73ffffffffffffffffffffffffffffffffffffffff1663938509d3336040518263ffffffff1660e01b8152600401612036919061510f565b60206040518083038186803b15801561204e57600080fd5b505afa158015612062573d6000803e3d6000fd5b505050506040513d601f19601f820116820180604052508101906120869190614165565b6120c5576040517f08c379a00000000000000000000000000000000000000000000000000000000081526004016120bc90615287565b60405180910390fd5b836120cf81612fb2565b61210e576040517f08c379a000000000000000000000000000000000000000000000000000000000815260040161210590615327565b60405180910390fd5b82600080878152602001908152602001600020600060405161212f9061500d565b60405180910390208152602001908152602001600020600060405161215390614fe3565b6040518091039020815260200190815260200160002060006101000a81548173ffffffffffffffffffffffffffffffffffffffff021916908373ffffffffffffffffffffffffffffffffffffffff1602179055506121b18585613960565b6121f0576040517f08c379a00000000000000000000000000000000000000000000000000000000081526004016121e790615347565b60405180910390fd5b847fb98f49356fbcbbd9b5095e1fe59804755dd39c72fa41309a59fd2830909a54cf604051806060016040528087151581526020018673ffffffffffffffffffffffffffffffffffffffff1681526020013373ffffffffffffffffffffffffffffffffffffffff168152506040516122689190615447565b60405180910390a2849150509392505050565b60008161228781612fb2565b6122c6576040517f08c379a00000000000000000000000000000000000000000000000000000000081526004016122bd90615327565b60405180910390fd5b6005600084815260200190815260200160002060006040516122e79061500d565b60405180910390208152602001908152602001600020600060405161230b906150ca565b6040518091039020815260200190815260200160002054915050919050565b6000606d60009054906101000a900473ffffffffffffffffffffffffffffffffffffffff16905090565b606080602067ffffffffffffffff8111801561236f57600080fd5b506040519080825280601f01601f1916602001820160405280156123a25781602001600182028036833780820191505090505b509050600080905060008090505b602081101561244c5760008160080260020a8660001c0260001b9050600060f81b817effffffffffffffffffffffffffffffffffffffffffffffffffffffffffffff19161461243e578084848151811061240657fe5b60200101907effffffffffffffffffffffffffffffffffffffffffffffffffffffffffffff1916908160001a90535082806001019350505b5080806001019150506123b0565b5060608167ffffffffffffffff8111801561246657600080fd5b506040519080825280601f01601f1916602001820160405280156124995781602001600182028036833780820191505090505b50905060008090505b82811015612509578381815181106124b657fe5b602001015160f81c60f81b8282815181106124cd57fe5b60200101907effffffffffffffffffffffffffffffffffffffffffffffffffffffffffffff1916908160001a90535080806001019150506124a2565b50809350505050919050565b600080612520612f30565b73ffffffffffffffffffffffffffffffffffffffff1663693ec85e6040518060400160405280600a81526020017f42554c4b5f4953535545000000000000000000000000000000000000000000008152506040518263ffffffff1660e01b815260040161258d9190615265565b60206040518083038186803b1580156125a557600080fd5b505afa1580156125b9573d6000803e3d6000fd5b505050506040513d601f19601f820116820180604052508101906125dd919061405a565b90503373ffffffffffffffffffffffffffffffffffffffff168173ffffffffffffffffffffffffffffffffffffffff161461264d576040517f08c379a0000000000000000000000000000000000000000000000000000000008152600401612644906152a7565b60405180910390fd5b61265986868686613658565b915050949350505050565b600061266e612f30565b73ffffffffffffffffffffffffffffffffffffffff1663693ec85e6040518060400160405280601c81526020017f4c4943454e5345445f555345525f57414c4c45545f464143544f5259000000008152506040518263ffffffff1660e01b81526004016126db9190615265565b60206040518083038186803b1580156126f357600080fd5b505afa158015612707573d6000803e3d6000fd5b505050506040513d601f19601f8201168201806040525081019061272b919061405a565b905090565b600081600061274282600001516139df565b905060006001828460200151856040015186606001516040516000815260200160405260405161277594939291906151ce565b6020604051602081039080840390855afa158015612797573d6000803e3d6000fd5b5050506020604051035190508073ffffffffffffffffffffffffffffffffffffffff16836080015173ffffffffffffffffffffffffffffffffffffffff1614612815576040517f08c379a000000000000000000000000000000000000000000000000000000000815260040161280c90615387565b60405180910390fd5b61281d613958565b73ffffffffffffffffffffffffffffffffffffffff16606d60009054906101000a900473ffffffffffffffffffffffffffffffffffffffff1673ffffffffffffffffffffffffffffffffffffffff16146128ac576040517f08c379a00000000000000000000000000000000000000000000000000000000081526004016128a3906153e7565b60405180910390fd5b6128bc8888888860800151613658565b50505050949350505050565b6040518060400160405280600681526020017f736861323536000000000000000000000000000000000000000000000000000081525081565b6060808261290e81612fb2565b61294d576040517f08c379a000000000000000000000000000000000000000000000000000000000815260040161294490615327565b60405180910390fd5b600073ffffffffffffffffffffffffffffffffffffffff1660008086815260200190815260200160002060006040516129859061500d565b6040518091039020815260200190815260200160002060006040516129a990614fce565b6040518091039020815260200190815260200160002060009054906101000a900473ffffffffffffffffffffffffffffffffffffffff1673ffffffffffffffffffffffffffffffffffffffff161415612a37576040517f08c379a0000000000000000000000000000000000000000000000000000000008152600401612a2e906152c7565b60405180910390fd5b600560008081526020019081526020016000206000604051612a589061500d565b604051809103902081526020019081526020016000206000604051612a7c9061504c565b6040518091039020815260200190815260200160002054604051602001612aa39190614f45565b60405160208183030381529060405292506040518060400160405280600681526020017f7368613235360000000000000000000000000000000000000000000000000000815250915050915091565b612afa613958565b73ffffffffffffffffffffffffffffffffffffffff16606d60009054906101000a900473ffffffffffffffffffffffffffffffffffffffff1673ffffffffffffffffffffffffffffffffffffffff1614612b89576040517f08c379a0000000000000000000000000000000000000000000000000000000008152600401612b80906153e7565b60405180910390fd5b806000808081526020019081526020016000206000604051612baa906150b5565b604051809103902081526020019081526020016000206000604051612bce906150b5565b6040518091039020815260200190815260200160002060006101000a81548173ffffffffffffffffffffffffffffffffffffffff021916908373ffffffffffffffffffffffffffffffffffffffff16021790555050565b612c2d613958565b73ffffffffffffffffffffffffffffffffffffffff16606d60009054906101000a900473ffffffffffffffffffffffffffffffffffffffff1673ffffffffffffffffffffffffffffffffffffffff1614612cbc576040517f08c379a0000000000000000000000000000000000000000000000000000000008152600401612cb3906153e7565b60405180910390fd5b600073ffffffffffffffffffffffffffffffffffffffff168173ffffffffffffffffffffffffffffffffffffffff161415612d2c576040517f08c379a0000000000000000000000000000000000000000000000000000000008152600401612d23906152e7565b60405180910390fd5b8073ffffffffffffffffffffffffffffffffffffffff16606d60009054906101000a900473ffffffffffffffffffffffffffffffffffffffff1673ffffffffffffffffffffffffffffffffffffffff167f8be0079c531659141344cd1fd0a4f28419497f9722a3daafe3b4186f6b6457e060405160405180910390a380606d60006101000a81548173ffffffffffffffffffffffffffffffffffffffff021916908373ffffffffffffffffffffffffffffffffffffffff16021790555050565b60606000821415612e34576040518060400160405280600181526020017f30000000000000000000000000000000000000000000000000000000000000008152509050612f2b565b600082905060005b60008214612e5e578080600101915050600a8281612e5657fe5b049150612e3c565b60608167ffffffffffffffff81118015612e7757600080fd5b506040519080825280601f01601f191660200182016040528015612eaa5781602001600182028036833780820191505090505b50905060006001830390505b60008614612f2357600a8681612ec857fe5b0660300160f81b82828060019003935081518110612ee257fe5b60200101907effffffffffffffffffffffffffffffffffffffffffffffffffffffffffffff1916908160001a905350600a8681612f1b57fe5b049550612eb6565b819450505050505b919050565b60008060008081526020019081526020016000206000604051612f52906150b5565b604051809103902081526020019081526020016000206000604051612f76906150b5565b6040518091039020815260200190815260200160002060009054906101000a900473ffffffffffffffffffffffffffffffffffffffff16905090565b600080612fbe836118b5565b9050600073ffffffffffffffffffffffffffffffffffffffff168173ffffffffffffffffffffffffffffffffffffffff161415915050919050565b60004290506060613009836111b5565b90508373ffffffffffffffffffffffffffffffffffffffff168573ffffffffffffffffffffffffffffffffffffffff16877f7ead3b4ab8784feb4b0e4662f1b1436cbb7ce34397455233d5a99f01707bfb8985878660405161306d939291906154a6565b60405180910390a4505050505050565b60006005600083815260200190815260200160002060006040516130a09061500d565b6040518091039020815260200190815260200160002060006040516130c4906150ca565b60405180910390208152602001908152602001600020819055506040518060200160405280600081525060066000838152602001908152602001600020600060405161310f90615037565b60405180910390208152602001908152602001600020600060405161313390615022565b60405180910390208152602001908152602001600020908051906020019061315c929190613dde565b5050565b60008061316b612f30565b73ffffffffffffffffffffffffffffffffffffffff1663693ec85e6040518060400160405280601281526020017f53544152545241494c5f524547495354525900000000000000000000000000008152506040518263ffffffff1660e01b81526004016131d89190615265565b60206040518083038186803b1580156131f057600080fd5b505afa158015613204573d6000803e3d6000fd5b505050506040513d601f19601f82011682018060405250810190613228919061405a565b90506000819050809250505090565b6000613241612f30565b73ffffffffffffffffffffffffffffffffffffffff1663938509d3336040518263ffffffff1660e01b8152600401613279919061510f565b60206040518083038186803b15801561329157600080fd5b505afa1580156132a5573d6000803e3d6000fd5b505050506040513d601f19601f820116820180604052508101906132c99190614165565b6132d65760009050613376565b6000339050600060028111156132e857fe5b8173ffffffffffffffffffffffffffffffffffffffff1663419900776040518163ffffffff1660e01b815260040160206040518083038186803b15801561332e57600080fd5b505afa158015613342573d6000803e3d6000fd5b505050506040513d601f19601f8201168201806040525081019061336691906142f6565b600281111561337157fe5b149150505b90565b6000803090506000813b9050600081149250505090565b600860019054906101000a900460ff16806133af57506133ae613379565b5b806133c75750600860009054906101000a900460ff16155b613406576040517f08c379a00000000000000000000000000000000000000000000000000000000081526004016133fd90615407565b60405180910390fd5b6000600860019054906101000a900460ff161590508015613458576001600860016101000a81548160ff0219169083151502179055506001600860006101000a81548160ff0219169083151502179055505b613460613a0f565b613468613afc565b801561348a576000600860016101000a81548160ff0219169083151502179055505b50565b600860019054906101000a900460ff16806134ac57506134ab613379565b5b806134c45750600860009054906101000a900460ff16155b613503576040517f08c379a00000000000000000000000000000000000000000000000000000000081526004016134fa90615407565b60405180910390fd5b6000600860019054906101000a900460ff161590508015613555576001600860016101000a81548160ff0219169083151502179055506001600860006101000a81548160ff0219169083151502179055505b61355d613c92565b801561357f576000600860016101000a81548160ff0219169083151502179055505b50565b63ffffffff60e01b817bffffffffffffffffffffffffffffffffffffffffffffffffffffffff191614156135eb576040517f08c379a00000000000000000000000000000000000000000000000000000000081526004016135e290615307565b60405180910390fd5b6001609f6000837bffffffffffffffffffffffffffffffffffffffffffffffffffffffff19167bffffffffffffffffffffffffffffffffffffffffffffffffffffffff1916815260200190815260200160002060006101000a81548160ff02191690831515021790555050565b600080613663613160565b73ffffffffffffffffffffffffffffffffffffffff16636a627842846040518263ffffffff1660e01b815260040161369b91906150f4565b602060405180830381600087803b1580156136b557600080fd5b505af11580156136c9573d6000803e3d6000fd5b505050506040513d601f19601f820116820180604052508101906136ed91906143f5565b90508260008083815260200190815260200160002060006040516137109061500d565b60405180910390208152602001908152602001600020600060405161373490615076565b6040518091039020815260200190815260200160002060006101000a81548173ffffffffffffffffffffffffffffffffffffffff021916908373ffffffffffffffffffffffffffffffffffffffff1602179055508460008083815260200190815260200160002060006040516137a99061500d565b6040518091039020815260200190815260200160002060006040516137cd90614fe3565b6040518091039020815260200190815260200160002060006101000a81548173ffffffffffffffffffffffffffffffffffffffff021916908373ffffffffffffffffffffffffffffffffffffffff160217905550836005600083815260200190815260200160002060006040516138439061500d565b60405180910390208152602001908152602001600020600060405161386790615022565b604051809103902081526020019081526020016000208190555061388b8187613960565b6138ca576040517f08c379a00000000000000000000000000000000000000000000000000000000081526004016138c190615367565b60405180910390fd5b807f8cf4110de18b813ef8193d0617c668b48076f2fc9d1d5767d627d9ec5ffcce1a604051806060016040528089151581526020018873ffffffffffffffffffffffffffffffffffffffff1681526020018673ffffffffffffffffffffffffffffffffffffffff1681525086604051613944929190615462565b60405180910390a280915050949350505050565b600033905090565b6000816002600085815260200190815260200160002060006040516139849061500d565b6040518091039020815260200190815260200160002060006040516139a890614fce565b6040518091039020815260200190815260200160002060006101000a81548160ff0219169083151502179055506001905092915050565b6000816040516020016139f29190614fa8565b604051602081830303815290604052805190602001209050919050565b600860019054906101000a900460ff1680613a2e5750613a2d613379565b5b80613a465750600860009054906101000a900460ff16155b613a85576040517f08c379a0000000000000000000000000000000000000000000000000000000008152600401613a7c90615407565b60405180910390fd5b6000600860019054906101000a900460ff161590508015613ad7576001600860016101000a81548160ff0219169083151502179055506001600860006101000a81548160ff0219169083151502179055505b8015613af9576000600860016101000a81548160ff0219169083151502179055505b50565b600860019054906101000a900460ff1680613b1b5750613b1a613379565b5b80613b335750600860009054906101000a900460ff16155b613b72576040517f08c379a0000000000000000000000000000000000000000000000000000000008152600401613b6990615407565b60405180910390fd5b6000600860019054906101000a900460ff161590508015613bc4576001600860016101000a81548160ff0219169083151502179055506001600860006101000a81548160ff0219169083151502179055505b6000613bce613958565b905080606d60006101000a81548173ffffffffffffffffffffffffffffffffffffffff021916908373ffffffffffffffffffffffffffffffffffffffff1602179055508073ffffffffffffffffffffffffffffffffffffffff16600073ffffffffffffffffffffffffffffffffffffffff167f8be0079c531659141344cd1fd0a4f28419497f9722a3daafe3b4186f6b6457e060405160405180910390a3508015613c8f576000600860016101000a81548160ff0219169083151502179055505b50565b600860019054906101000a900460ff1680613cb15750613cb0613379565b5b80613cc95750600860009054906101000a900460ff16155b613d08576040517f08c379a0000000000000000000000000000000000000000000000000000000008152600401613cff90615407565b60405180910390fd5b6000600860019054906101000a900460ff161590508015613d5a576001600860016101000a81548160ff0219169083151502179055506001600860006101000a81548160ff0219169083151502179055505b613d6a6301ffc9a760e01b613582565b8015613d8c576000600860016101000a81548160ff0219169083151502179055505b50565b6040518060600160405280600015158152602001600073ffffffffffffffffffffffffffffffffffffffff168152602001600073ffffffffffffffffffffffffffffffffffffffff1681525090565b828054600181600116156101000203166002900490600052602060002090601f016020900481019282601f10613e1f57805160ff1916838001178555613e4d565b82800160010185558215613e4d579182015b82811115613e4c578251825591602001919060010190613e31565b5b509050613e5a9190613e5e565b5090565b613e8091905b80821115613e7c576000816000905550600101613e64565b5090565b90565b600081359050613e92816156ec565b92915050565b600081519050613ea7816156ec565b92915050565b600081359050613ebc81615703565b92915050565b600081519050613ed181615703565b92915050565b600081359050613ee68161571a565b92915050565b600081359050613efb81615731565b92915050565b600081519050613f1081615748565b92915050565b600082601f830112613f2757600080fd5b8135613f3a613f3582615518565b6154eb565b91508082526020830160208301858383011115613f5657600080fd5b613f61838284615682565b50505092915050565b600060a08284031215613f7c57600080fd5b613f8660a06154eb565b90506000613f9684828501613ed7565b6000830152506020613faa8482850161401c565b6020830152506040613fbe84828501613ed7565b6040830152506060613fd284828501613ed7565b6060830152506080613fe684828501613e83565b60808301525092915050565b60008135905061400181615758565b92915050565b60008151905061401681615758565b92915050565b60008135905061402b8161576f565b92915050565b60006020828403121561404357600080fd5b600061405184828501613e83565b91505092915050565b60006020828403121561406c57600080fd5b600061407a84828501613e98565b91505092915050565b60008060006060848603121561409857600080fd5b60006140a686828701613e83565b93505060206140b786828701613ed7565b92505060406140c886828701613ff2565b9150509250925092565b600080600080608085870312156140e857600080fd5b60006140f687828801613e83565b945050602085013567ffffffffffffffff81111561411357600080fd5b61411f87828801613f16565b935050604085013567ffffffffffffffff81111561413c57600080fd5b61414887828801613f16565b925050606061415987828801613ed7565b91505092959194509250565b60006020828403121561417757600080fd5b600061418584828501613ec2565b91505092915050565b6000806000606084860312156141a357600080fd5b60006141b186828701613ead565b93505060206141c286828701613e83565b92505060406141d386828701613ed7565b9150509250925092565b600080600080608085870312156141f357600080fd5b600061420187828801613ead565b945050602061421287828801613e83565b935050604061422387828801613ed7565b925050606061423487828801613e83565b91505092959194509250565b600080600080610100858703121561425757600080fd5b600061426587828801613ead565b945050602061427687828801613e83565b935050604061428787828801613ed7565b925050606061429887828801613f6a565b91505092959194509250565b6000602082840312156142b657600080fd5b60006142c484828501613ed7565b91505092915050565b6000602082840312156142df57600080fd5b60006142ed84828501613eec565b91505092915050565b60006020828403121561430857600080fd5b600061431684828501613f01565b91505092915050565b60006020828403121561433157600080fd5b600082013567ffffffffffffffff81111561434b57600080fd5b61435784828501613f16565b91505092915050565b6000806040838503121561437357600080fd5b600083013567ffffffffffffffff81111561438d57600080fd5b61439985828601613f16565b925050602083013567ffffffffffffffff8111156143b657600080fd5b6143c285828601613f16565b9150509250929050565b6000602082840312156143de57600080fd5b60006143ec84828501613ff2565b91505092915050565b60006020828403121561440757600080fd5b600061441584828501614007565b91505092915050565b60008060006060848603121561443357600080fd5b600061444186828701613ff2565b935050602061445286828701613ead565b925050604061446386828701613e83565b9150509250925092565b6000806040838503121561448057600080fd5b600061448e85828601613ff2565b925050602061449f85828601613ed7565b9150509250929050565b6000806000606084860312156144be57600080fd5b60006144cc86828701613ff2565b93505060206144dd86828701613ed7565b925050604084013567ffffffffffffffff8111156144fa57600080fd5b61450686828701613f16565b9150509250925092565b6145198161563a565b82525050565b6145288161559c565b82525050565b6145378161559c565b82525050565b614546816155ae565b82525050565b614555816155ae565b82525050565b614564816155ba565b82525050565b61457b614576826155ba565b6156c4565b82525050565b600061458c82615559565b614596818561556f565b93506145a6818560208601615691565b6145af816156ce565b840191505092915050565b6145c38161564c565b82525050565b60006145d482615564565b6145de8185615580565b93506145ee818560208601615691565b6145f7816156ce565b840191505092915050565b600061460d82615564565b6146178185615591565b9350614627818560208601615691565b80840191505092915050565b6000815460018116600081146146505760018114614675576146b9565b607f60028304166146618187615591565b955060ff19831686528086019350506146b9565b600282046146838187615591565b955061468e85615544565b60005b828110156146b057815481890152600182019150602081019050614691565b82880195505050505b505092915050565b60006146ce603e83615580565b91507f5468652073656e646572206973206e65697468657220746865206c6963656e7360008301527f6564207573657220636f6e7472616374206e6f72207468652061646d696e00006020830152604082019050919050565b6000614734602883615580565b91507f5468652073656e6465722069736e2774207468652062756c6b2069737375652060008301527f636f6e74726163740000000000000000000000000000000000000000000000006020830152604082019050919050565b600061479a601c83615591565b91507f19457468657265756d205369676e6564204d6573736167653a0a3332000000006000830152601c82019050919050565b60006147da601a83615580565b91507f74686520746f6b656e496420646f6573206e6f742065786973740000000000006000830152602082019050919050565b600061481a602683615580565b91507f4f776e61626c653a206e6577206f776e657220697320746865207a65726f206160008301527f64647265737300000000000000000000000000000000000000000000000000006020830152604082019050919050565b6000614880601c83615580565b91507f4552433136353a20696e76616c696420696e74657266616365206964000000006000830152602082019050919050565b60006148c0600f83615591565b91507f69735072696d61727949737375657200000000000000000000000000000000006000830152600f82019050919050565b6000614900600d83615591565b91507f61727469737441646472657373000000000000000000000000000000000000006000830152600d82019050919050565b6000614940600a83615591565b91507f555249506f7374666978000000000000000000000000000000000000000000006000830152600a82019050919050565b6000614980601a83615580565b91507f54686520746f6b656e496420646f6573206e6f742065786973740000000000006000830152602082019050919050565b60006149c0601183615580565b91507f6661696c20746f207570646174655352520000000000000000000000000000006000830152602082019050919050565b6000614a00602683615580565b91507f6661696c20746f20736176652053746172747261696c2052656769737472792060008301527f5265636f726400000000000000000000000000000000000000000000000000006020830152604082019050919050565b6000614a66600e83615591565b91507f72656769737472795265636f72640000000000000000000000000000000000006000830152600e82019050919050565b6000614aa6600e83615591565b91507f6d657461646174614469676573740000000000000000000000000000000000006000830152600e82019050919050565b6000614ae6601183615591565b91507f686973746f727950726f76656e616e63650000000000000000000000000000006000830152601182019050919050565b6000614b26601e83615580565b91507f546865207369676e617475726520697320696e617070726f70726961746500006000830152602082019050919050565b6000614b66600f83615591565b91507f736368656d6155524944696765737400000000000000000000000000000000006000830152600f82019050919050565b6000614ba6600983615591565b91507f55524950726566697800000000000000000000000000000000000000000000006000830152600982019050919050565b6000614be6601b83615580565b91507f5468652073656e646572206973206e6f74207468652061646d696e00000000006000830152602082019050919050565b6000614c26601c83615580565b91507f48617368206f662072657665616c20646f65736e2774206d61746368000000006000830152602082019050919050565b6000614c66602083615580565b91507f4f776e61626c653a2063616c6c6572206973206e6f7420746865206f776e65726000830152602082019050919050565b6000614ca6602e83615580565b91507f436f6e747261637420696e7374616e63652068617320616c726561647920626560008301527f656e20696e697469616c697a65640000000000000000000000000000000000006020830152604082019050919050565b6000614d0c600683615591565b91507f69737375657200000000000000000000000000000000000000000000000000006000830152600682019050919050565b6000614d4c602b83615580565b91507f53656e646572206973206e656974686572206120535252206f776e6572206e6f60008301527f72207468652061646d696e0000000000000000000000000000000000000000006020830152604082019050919050565b6000614db2600783615591565b91507f68616e646c6572000000000000000000000000000000000000000000000000006000830152600782019050919050565b6000614df2600583615591565b91507f61646d696e0000000000000000000000000000000000000000000000000000006000830152600582019050919050565b6000614e32601383615591565b91507f6e616d65526567697374727941646472657373000000000000000000000000006000830152601382019050919050565b6000614e72600a83615591565b91507f636f6d6d69746d656e74000000000000000000000000000000000000000000006000830152600a82019050919050565b6000614eb2600683615591565b91507f61727469737400000000000000000000000000000000000000000000000000006000830152600682019050919050565b606082016000820151614efb600085018261453d565b506020820151614f0e602085018261451f565b506040820151614f21604085018261451f565b50505050565b614f3081615623565b82525050565b614f3f8161562d565b82525050565b6000614f51828461456a565b60208201915081905092915050565b6000614f6c8284614602565b915081905092915050565b6000614f838286614633565b9150614f8f8285614602565b9150614f9b8284614633565b9150819050949350505050565b6000614fb38261478d565b9150614fbf828461456a565b60208201915081905092915050565b6000614fd9826148b3565b9150819050919050565b6000614fee826148f3565b9150819050919050565b600061500382614933565b9150819050919050565b600061501882614a59565b9150819050919050565b600061502d82614a99565b9150819050919050565b600061504282614ad9565b9150819050919050565b600061505782614b59565b9150819050919050565b600061506c82614b99565b9150819050919050565b600061508182614cff565b9150819050919050565b600061509682614da5565b9150819050919050565b60006150ab82614de5565b9150819050919050565b60006150c082614e25565b9150819050919050565b60006150d582614e65565b9150819050919050565b60006150ea82614ea5565b9150819050919050565b6000602082019050615109600083018461452e565b92915050565b60006020820190506151246000830184614510565b92915050565b600060608201905061513f600083018661452e565b61514c602083018561452e565b6151596040830184614f27565b949350505050565b6000606082019050615176600083018661452e565b615183602083018561455b565b6151906040830184614f27565b949350505050565b60006020820190506151ad600083018461454c565b92915050565b60006020820190506151c8600083018461455b565b92915050565b60006080820190506151e3600083018761455b565b6151f06020830186614f36565b6151fd604083018561455b565b61520a606083018461455b565b95945050505050565b6000604082019050818103600083015261522d8185614581565b9050818103602083015261524181846145c9565b90509392505050565b600060208201905061525f60008301846145ba565b92915050565b6000602082019050818103600083015261527f81846145c9565b905092915050565b600060208201905081810360008301526152a0816146c1565b9050919050565b600060208201905081810360008301526152c081614727565b9050919050565b600060208201905081810360008301526152e0816147cd565b9050919050565b600060208201905081810360008301526153008161480d565b9050919050565b6000602082019050818103600083015261532081614873565b9050919050565b6000602082019050818103600083015261534081614973565b9050919050565b60006020820190508181036000830152615360816149b3565b9050919050565b60006020820190508181036000830152615380816149f3565b9050919050565b600060208201905081810360008301526153a081614b19565b9050919050565b600060208201905081810360008301526153c081614bd9565b9050919050565b600060208201905081810360008301526153e081614c19565b9050919050565b6000602082019050818103600083015261540081614c59565b9050919050565b6000602082019050818103600083015261542081614c99565b9050919050565b6000602082019050818103600083015261544081614d3f565b9050919050565b600060608201905061545c6000830184614ee5565b92915050565b60006080820190506154776000830185614ee5565b615484606083018461455b565b9392505050565b60006020820190506154a06000830184614f27565b92915050565b60006060820190506154bb6000830186614f27565b81810360208301526154cd81856145c9565b905081810360408301526154e181846145c9565b9050949350505050565b6000604051905081810181811067ffffffffffffffff8211171561550e57600080fd5b8060405250919050565b600067ffffffffffffffff82111561552f57600080fd5b601f19601f8301169050602081019050919050565b60008190508160005260206000209050919050565b600081519050919050565b600081519050919050565b600082825260208201905092915050565b600082825260208201905092915050565b600081905092915050565b60006155a782615603565b9050919050565b60008115159050919050565b6000819050919050565b60007fffffffff0000000000000000000000000000000000000000000000000000000082169050919050565b60008190506155fe826156df565b919050565b600073ffffffffffffffffffffffffffffffffffffffff82169050919050565b6000819050919050565b600060ff82169050919050565b60006156458261565e565b9050919050565b6000615657826155f0565b9050919050565b600061566982615670565b9050919050565b600061567b82615603565b9050919050565b82818337600083830152505050565b60005b838110156156af578082015181840152602081019050615694565b838111156156be576000848401525b50505050565b6000819050919050565b6000601f19601f8301169050919050565b600381106156e957fe5b50565b6156f58161559c565b811461570057600080fd5b50565b61570c816155ae565b811461571757600080fd5b50565b615723816155ba565b811461572e57600080fd5b50565b61573a816155c4565b811461574557600080fd5b50565b6003811061575557600080fd5b50565b61576181615623565b811461576c57600080fd5b50565b6157788161562d565b811461578357600080fd5b5056fea2646970667358221220baf803b78a16271a6e9740f65355c77a436c4400d40052bc91a110831a135e4464736f6c634300060b0033",
  "source": "pragma solidity 0.6.11;\npragma experimental ABIEncoderV2;\n\nimport \"@openzeppelin/contracts-ethereum-package/contracts/access/Ownable.sol\";\nimport \"@openzeppelin/contracts-ethereum-package/contracts/introspection/ERC165.sol\";\nimport \"../../common/IRootLogic.sol\";\nimport \"../../common/Converter.sol\";\nimport \"../../lib/contracts/Signature.sol\";\nimport \"../../common/IStartrailRegistry.sol\";\nimport \"../../common/IStartrailValidator.sol\";\nimport \"../../licensedUser/contracts/LicensedUserLogic.sol\";\nimport \"../../licensedUser/contracts/IdentityUserType.sol\";\nimport \"../../name/contracts/NameRegistry.sol\";\nimport \"../../name/contracts/Contracts.sol\";\nimport \"./Storage.sol\";\nimport \"./ERC2477.sol\";\n\ncontract RootLogic is\n  IRootLogic,\n  IStartrailValidator,\n  IdentityUserType,\n  Contracts,\n  Converter,\n  ERC2477,\n  Storage,\n  OwnableUpgradeSafe,\n  ERC165UpgradeSafe\n{\n  /*\n   * Constants\n   */\n  // Static\n  uint256 private constant SRR_GLOBAL_SLOT = 0;\n  // types\n  bytes32 private constant _SRR = keccak256(\"registryRecord\");\n  bytes32 private constant _HISTORY = keccak256(\"historyProvenance\");\n\n  // values\n  bytes32 private constant _IS_PRIMARY_ISSUER = keccak256(\"isPrimaryIssuer\");\n  bytes32 private constant _ISSUER = keccak256(\"issuer\");\n  bytes32 private constant _ARTIST_ADDRESS = keccak256(\"artistAddress\");\n  bytes32 private constant _ROYALTY_RATE = keccak256(\"royaltyRate\");\n  bytes32 private constant _ROYALTY_RATE_DECIMALS = keccak256(\n    \"royaltyRateDecimals\"\n  );\n  bytes32 private constant _COMMITMENT = keccak256(\"commitment\");\n  bytes32 private constant _NAME_REGISTRY = keccak256(\"nameRegistryAddress\");\n\n  // metadata\n  bytes32 private constant _URI_PREFIX = keccak256(\"URIPrefix\");\n  bytes32 private constant _URI_POSTFIX = keccak256(\"URIPostfix\");\n  bytes32 private constant _SCHEMA_URI_DIGEST = keccak256(\"schemaURIDigest\");\n  bytes32 private constant _METADATA_DIGEST = keccak256(\"metadataDigest\");\n  // bytes32 private constant _PLATFORM_EOA = keccak256(\"platformEOA\");\n\n  /*\n   *   bytes4(keccak256('tokenURIIntegrity(uint256)')) == 0x49846680\n   *   bytes4(keccak256('tokenURISchemaIntegrity(uint256)')) == 0xcaae188e\n   *\n   *   => 0x49846680 ^ 0xcaae188e == 0x832a7e0e\n   */\n  bytes4 private constant _INTERFACE_ID_ERC2477 = 0x832a7e0e;\n\n  /*\n   * Hashing function.\n   */\n  string public constant HASH_ALGORITHM = \"sha256\";\n\n  /*\n   * Modifiers\n   */\n  modifier onlyAdmin() {\n    require(_isAdmin(), \"The sender is not the admin\");\n    _;\n  }\n\n  modifier onlyLicensedUser() {\n    require(\n      _nameRegistry().instantiation(msg.sender),\n      \"The sender is neither the licensed user contract nor the admin\"\n    );\n    _;\n  }\n\n  modifier onlyBulk() {\n    address bulkIssueAddress = _nameRegistry().get(BULK_ISSUE);\n    require(\n      bulkIssueAddress == msg.sender,\n      \"The sender isn't the bulk issue contract\"\n    );\n    _;\n  }\n\n  modifier onlyArtist(uint256 tokenId) {\n    require(\n      msg.sender == _addressStorage[tokenId][_SRR][_ARTIST_ADDRESS] ||\n        _isAdmin(),\n      \"This is neither a artist nor the admin\"\n    );\n    _;\n  }\n\n  modifier onlyPrimaryIssuer(uint256 tokenId) {\n    require(\n      (msg.sender == _addressStorage[tokenId][_SRR][_ISSUER] &&\n        _boolStorage[tokenId][_SRR][_IS_PRIMARY_ISSUER]) || _isAdmin(),\n      \"This is neither a primary issuer nor the admin\"\n    );\n    _;\n  }\n\n  modifier onlySRROwner(uint256 tokenId) {\n    address owner = getSRROwner(tokenId);\n    require(\n      owner == msg.sender || _isAdmin(),\n      \"Sender is neither a SRR owner nor the admin\"\n    );\n    _;\n  }\n\n  modifier tokenExists(uint256 tokenId) {\n    require(_exists(tokenId), \"The tokenId does not exist\");\n    _;\n  }\n\n  /**\n   * @dev Initializes the address of the StartrailRegistry contract\n   * @param nameRegistry address of the NameRegistry\n   * @param URIPrefix string of the URI prefix of the scheme where SRR metadata is saved\n   * @param URIPostfix string of the URI postfix of the scheme\n   * @param schemaURIIntegrityDigest bytes32 of the URI digest of the scheme\n   */\n  function initialize(\n    address nameRegistry,\n    string memory URIPrefix,\n    string memory URIPostfix,\n    bytes32 schemaURIIntegrityDigest\n  ) public initializer {\n    _addressStorage[SRR_GLOBAL_SLOT][_NAME_REGISTRY][_NAME_REGISTRY] = nameRegistry;\n    _stringStorage[SRR_GLOBAL_SLOT][_SRR][_URI_PREFIX] = URIPrefix;\n    _stringStorage[SRR_GLOBAL_SLOT][_SRR][_URI_POSTFIX] = URIPostfix;\n    _bytes32Storage[SRR_GLOBAL_SLOT][_SRR][_SCHEMA_URI_DIGEST] = schemaURIIntegrityDigest;\n    OwnableUpgradeSafe.__Ownable_init();\n    ERC165UpgradeSafe.__ERC165_init();\n    super._registerInterface(_INTERFACE_ID_ERC2477);\n  }\n\n  /**\n   * @dev Creates a registryRecord of an artwork\n   * @param isPrimaryIssuer boolean whether the user is a primary issuer\n   * @param artistAddress address of the artist contract\n   * @param metadataDigest bytes32 of metadata hash\n   * @param sig signature\n   * @return uint256 tokenId\n   */\n  function createSRR(\n    bool isPrimaryIssuer,\n    address artistAddress,\n    bytes32 metadataDigest,\n    Signature.Sig memory sig\n  ) public override validSender(sig) onlyOwner returns (uint256) {\n    _createSRR(isPrimaryIssuer, artistAddress, metadataDigest, sig.sender);\n  }\n\n  /**\n   * @dev Creates a registryRecord of an artwork from LicensedUserLogic contract\n   * @param isPrimaryIssuer address of the issuer user contract\n   * @param artistAddress address of the artist contract\n   * @param metadataDigest bytes32 of metadata hash\n   * @return uint256 tokenId\n   */\n  function createSRRFromLicensedUser(\n    bool isPrimaryIssuer,\n    address artistAddress,\n    bytes32 metadataDigest\n  ) public override onlyLicensedUser returns (uint256) {\n    return\n      _createSRR(isPrimaryIssuer, artistAddress, metadataDigest, msg.sender);\n  }\n\n  function createSRRFromBulk(\n    bool isPrimaryIssuer,\n    address artistAddress,\n    bytes32 metadataDigest,\n    address issuerAddress\n  ) public override onlyBulk returns (uint256) {\n    return\n      _createSRR(isPrimaryIssuer, artistAddress, metadataDigest, issuerAddress);\n  }\n\n  /**\n   * @dev Updates the registryRecord\n   * @param tokenId uint256 of StartrailRegistryRecordID\n   * @param isPrimaryIssuer boolean whether the user is a primary issuer\n   * @return uint256 tokenId\n   */\n  function updateSRRFromLicensedUser(\n    uint256 tokenId,\n    bool isPrimaryIssuer,\n    address artistAddress\n  ) public override onlyLicensedUser tokenExists(tokenId) returns (uint256) {\n    _addressStorage[tokenId][_SRR][_ARTIST_ADDRESS] = artistAddress;\n    require(_saveSRR(tokenId, isPrimaryIssuer), \"fail to updateSRR\");\n    emit UpdateSRR(tokenId, SRR(isPrimaryIssuer, artistAddress, msg.sender));\n    return tokenId;\n  }\n\n  /**\n   * @dev Updates the SRR metadata\n   * @param tokenId uint256 of StartrailRegistryRecordID\n   * @param metadataDigest bytes32 of the metadata hash\n   */\n  function updateSRRMetadata(uint256 tokenId, bytes32 metadataDigest)\n    external\n    override\n    onlyLicensedUser\n    tokenExists(tokenId)\n  {\n    _bytes32Storage[tokenId][_SRR][_METADATA_DIGEST] = metadataDigest;\n    emit UpdateSRRMetadataDigest(tokenId, metadataDigest);\n  }\n\n  /**\n   * @dev Approves the given commitment hash to transfer the SRR\n   * @param tokenId uint256 ID of the SRR\n   * @param commitment bytes32 of the commitment hash\n   * @param historyMetadataDigest string of the history metadata digest\n   */\n  function approveSRRByCommitment(\n    uint256 tokenId,\n    bytes32 commitment,\n    string memory historyMetadataDigest\n  ) public override onlySRROwner(tokenId) tokenExists(tokenId) {\n    address owner = getSRROwner(tokenId);\n    _bytes32Storage[tokenId][_SRR][_COMMITMENT] = commitment;\n    _stringStorage[tokenId][_HISTORY][_METADATA_DIGEST] = historyMetadataDigest;\n    emit SRRCommitment(owner, commitment, tokenId);\n  }\n\n  /**\n   * @dev Cancels the current commitment of a given SRR\n   * @param tokenId uint256 ID of the SRR\n   */\n  function cancelSRRCommitment(uint256 tokenId)\n    public \n    override\n    onlySRROwner(tokenId)\n    tokenExists(tokenId)\n  {\n    _clearSRRCommitment(tokenId);\n    emit SRRCommitmentCancelled(tokenId);\n  }\n\n  /**\n   * @dev Transfers the ownership of a given SRR ID to another address.\n   * @param to address to receive the ownership\n   * @param reveal bytes32 of the reveal hash value to restore the commitment value\n   * @param tokenId uint256 ID of the SRR to be transferred\n   */\n  function transferSRRByReveal(\n    address to,\n    bytes32 reveal,\n    uint256 tokenId\n  ) public override tokenExists(tokenId) {\n    bytes32 commitment = keccak256(abi.encodePacked(reveal));\n    require(\n      commitment == getSRRCommitment(tokenId),\n      \"Hash of reveal doesn't match\"\n    );\n\n    address from = getSRROwner(tokenId);\n    _historyProvenance(\n      tokenId,\n      from,\n      to,\n      _stringStorage[tokenId][_HISTORY][_METADATA_DIGEST]\n    );\n    _clearSRRCommitment(tokenId);\n    _startrailRegistry().transferSRRFrom(from, to, tokenId);\n  }\n\n  /**\n   * @dev Sets the addresses of the reference\n   * @param nameRegistry address of the NameRegistry\n   */\n  function setNameRegistryAddress(address nameRegistry) public override onlyOwner {\n    _addressStorage[SRR_GLOBAL_SLOT][_NAME_REGISTRY][_NAME_REGISTRY] = nameRegistry;\n  }\n\n  /**\n   * @dev Sets the scheme URI digests of SRR metadata\n   * @param digest bytes32 of the scheme URI digests\n   */\n  function setTokenURISchemaIntegrityDigest(bytes32 digest) public override onlyAdmin {\n    _bytes32Storage[SRR_GLOBAL_SLOT][_SRR][_SCHEMA_URI_DIGEST] = digest;\n  }\n\n  /**\n   * @dev Sets the URI info of the scheme where SRR metadata is saved\n   * @param URIPrefix string of the URI prefix of the scheme\n   * @param URIPostfix string of the URI postfix of the scheme\n   */\n  function setTokenURIParts(string memory URIPrefix, string memory URIPostfix)\n    public\n    override\n    onlyAdmin\n  {\n    _stringStorage[SRR_GLOBAL_SLOT][_SRR][_URI_PREFIX] = URIPrefix;\n    _stringStorage[SRR_GLOBAL_SLOT][_SRR][_URI_POSTFIX] = URIPostfix;\n  }\n\n  /**\n   * @dev Gets the registryRecord related with the tokenId\n   * @param tokenId uint256 ID of StartrailRegistry\n   * @return registryRecord dataset / metadataDigest\n   */\n  function getSRR(uint256 tokenId)\n    public\n    override\n    view\n    tokenExists(tokenId)\n    returns (SRR memory registryRecord, bytes32 metadataDigest)\n  {\n    registryRecord\n      .isPrimaryIssuer = _boolStorage[tokenId][_SRR][_IS_PRIMARY_ISSUER];\n    registryRecord\n      .artistAddress = _addressStorage[tokenId][_SRR][_ARTIST_ADDRESS];\n    registryRecord.issuer = _addressStorage[tokenId][_SRR][_ISSUER];\n    metadataDigest = _bytes32Storage[tokenId][_SRR][_METADATA_DIGEST];\n  }\n\n  /**\n   * @dev Gets the current owner address given the token ID\n   * @param tokenId uint256 ID of StartrailRegistry\n   * @return owner address\n   */\n  function getSRROwner(uint256 tokenId) public override view returns (address) {\n    return _startrailRegistry().getSRROwner(tokenId);\n  }\n\n  /**\n   * @dev Gets the given commitment hash to transfer the SRR\n   * @param tokenId uint256 ID of StartrailRegistry\n   * @return commitment hash\n   */\n  function getSRRCommitment(uint256 tokenId)\n    public\n    override\n    view\n    tokenExists(tokenId)\n    returns (bytes32)\n  {\n    return _bytes32Storage[tokenId][_SRR][_COMMITMENT];\n  }\n\n  /**\n   * @dev Gets the endpoint address of StartrailRegistry\n   * @return StartrailRegistry proxy address\n   */\n  function getStartrailRegistryAddress()\n    public\n    override\n    view\n    returns (address)\n  {\n    return _nameRegistry().get(STARTRAIL_REGISTRY);\n  }\n\n  /**\n   * @dev Gets the endpoint address of LicensedUserWalletFactory\n   * @return LicensedUserWalletFactory proxy address\n   */\n  function getLicensedUserWalletFactoryAddress()\n    public\n    override\n    view\n    returns (address)\n  {\n    return _nameRegistry().get(LICENSED_USER_WALLET_FACTORY);\n  }\n\n  /**\n   * @dev Gets the endpoint address of NameRegistry\n   * @return NameRegistry proxy address\n   */\n  function getNameRegistryAddress() public override view returns (address) {\n    return\n      _addressStorage[SRR_GLOBAL_SLOT][_NAME_REGISTRY][_NAME_REGISTRY];\n  }\n\n  /**\n   * @dev Gets the scheme digests and hash\n   * @param tokenId uint256 ID of StartrailRegistry\n   */\n  function tokenURISchemaIntegrity(uint256 tokenId)\n    external\n    override(IRootLogic, ERC2477)\n    view\n    tokenExists(tokenId)\n    returns (bytes memory digest, string memory hashAlgorithm)\n  {\n    require(\n      _addressStorage[tokenId][_SRR][_IS_PRIMARY_ISSUER] != address(0),\n      \"the tokenId does not exist\"\n    );\n    digest = abi.encodePacked(\n      _bytes32Storage[SRR_GLOBAL_SLOT][_SRR][_SCHEMA_URI_DIGEST]\n    );\n    hashAlgorithm = HASH_ALGORITHM;\n  }\n\n  /**\n   * @dev Gets the metadata digests of SRR and hash\n   * @param tokenId uint256 ID of StartrailRegistry\n   */\n  function tokenURIIntegrity(uint256 tokenId)\n    external\n    override(IRootLogic, ERC2477)\n    view\n    tokenExists(tokenId)\n    returns (bytes memory digest, string memory hashAlgorithm)\n  {\n    digest = abi.encodePacked(_bytes32Storage[tokenId][_SRR][_METADATA_DIGEST]);\n    hashAlgorithm = HASH_ALGORITHM;\n  }\n\n  /**\n   * @dev Gets URI where the matadata is saved\n   * @param metadataDigests string of metadata digests\n   * @return URI\n   */\n  function tokenURI(string memory metadataDigests)\n    public\n    override\n    view\n    returns (string memory)\n  {\n    return\n      string(\n        abi.encodePacked(\n          _stringStorage[SRR_GLOBAL_SLOT][_SRR][_URI_PREFIX],\n          metadataDigests,\n          _stringStorage[SRR_GLOBAL_SLOT][_SRR][_URI_POSTFIX]\n        )\n      );\n  }\n\n  /**\n   * @dev Gets metadata digests\n   * @param tokenId uint256 of StartrailRegistryRecordID\n   * @return history metadata digest\n   */\n  function getHistoryMetadataDigest(uint256 tokenId)\n    public\n    override\n    view\n    tokenExists(tokenId)\n    returns (string memory)\n  {\n    return _stringStorage[tokenId][_HISTORY][_METADATA_DIGEST];\n  }\n\n  /*\n   * private functions\n   */\n\n  function _createSRR(\n    bool isPrimaryIssuer,\n    address artistAddress,\n    // address platformEOA, // scope out for Day1\n    bytes32 metadataDigest,\n    address sender\n  ) private returns (uint256) {\n    uint256 tokenId = _startrailRegistry().mint(sender);\n    //_addressStorage[tokenId][_SRR][_PLATFORM_EOA] = platformEOA;\n    _addressStorage[tokenId][_SRR][_ISSUER] = sender;\n    _addressStorage[tokenId][_SRR][_ARTIST_ADDRESS] = artistAddress;\n    _bytes32Storage[tokenId][_SRR][_METADATA_DIGEST] = metadataDigest;\n    require(\n      _saveSRR(tokenId, isPrimaryIssuer),\n      \"fail to save Startrail Registry Record\"\n    );\n    emit CreateSRR(\n      tokenId,\n      SRR(isPrimaryIssuer, artistAddress, sender),\n      metadataDigest\n    );\n    return tokenId;\n  }\n\n  /**\n   * @dev Saves the registryRecord\n   * @param tokenId uint256 of StartrailRegistryRecordID\n   * @param isPrimaryIssuer boolean whether the user is a primary issuer\n   * @return bool whether the process is successful\n   */\n  function _saveSRR(uint256 tokenId, bool isPrimaryIssuer)\n    private\n    returns (bool)\n  {\n    _boolStorage[tokenId][_SRR][_IS_PRIMARY_ISSUER] = isPrimaryIssuer;\n    return true;\n  }\n\n  function _isAdmin() private view returns (bool) {\n    if(!_nameRegistry().instantiation(msg.sender)) return false;\n    LicensedUserLogic logic = LicensedUserLogic(msg.sender);\n    return logic.getUserType() == UserType.ADMIN;\n  }\n\n  function _exists(uint256 tokenId) private view returns (bool) {\n    address owner = getSRROwner(tokenId);\n    return owner != address(0);\n  }\n\n  function _historyProvenance(\n    uint256 tokenId,\n    address from,\n    address to,\n    string memory historyMetadataDigest\n  ) private {\n    uint256 timestamp = block.timestamp;\n    string memory historyMetadataURI = tokenURI(historyMetadataDigest);\n    emit Provenance(\n      tokenId,\n      from,\n      to,\n      timestamp,\n      historyMetadataDigest,\n      historyMetadataURI\n    );\n  }\n\n  function _clearSRRCommitment(uint256 tokenId) private {\n    _bytes32Storage[tokenId][_SRR][_COMMITMENT] = \"\";\n    _stringStorage[tokenId][_HISTORY][_METADATA_DIGEST] = \"\";\n  }\n\n  function _startrailRegistry() private view returns (IStartrailRegistry) {\n    address startrailRegistryAddress = _nameRegistry().get(STARTRAIL_REGISTRY);\n    IStartrailRegistry startrailRegistry = IStartrailRegistry(\n      startrailRegistryAddress\n    );\n    return startrailRegistry;\n  }\n\n  function _nameRegistry() private view returns (NameRegistry) {\n    return\n      NameRegistry(\n        _addressStorage[SRR_GLOBAL_SLOT][_NAME_REGISTRY][_NAME_REGISTRY]\n      );\n  }\n\n  // **************************\n  // scope out for Day1\n  // **************************\n\n  // /**\n  //  * @dev Updates the contract terms (others can be stored as metadata)\n  //  * @param tokenId uint256 of StartrailRegistryRecordID\n  //  * @param royaltyRate uint8 of the royalty rate\n  //  * @param royaltyRateDecimals uint8 of the royalty rate decimals\n  //  */\n  // function updateContractTerms(\n  //   uint256 tokenId,\n  //   uint8 royaltyRate,\n  //   uint8 royaltyRateDecimals\n  // ) external onlyPrimaryIssuer(tokenId) {\n  //   _uint8Storage[tokenId][_SRR][_ROYALTY_RATE] = royaltyRate;\n  //   _uint8Storage[tokenId][_SRR][_ROYALTY_RATE_DECIMALS] = royaltyRateDecimals;\n  //   emit UpdateContractTerms(tokenId, royaltyRate, royaltyRateDecimals);\n  // }\n}\n",
  "sourcePath": "/Users/hasnaeen/startbahn/dev/startrail/app/rootLogic/contracts/RootLogic.sol",
  "compiler": {
    "name": "solc",
    "version": "0.6.11+commit.5ef660b1.Emscripten.clang"
  },
  "schemaVersion": "3.0.23",
  "updatedAt": "2020-08-19T06:33:20.758Z",
  "networkType": "ethereum",
  "devdoc": {
    "kind": "dev",
    "methods": {
      "approveSRRByCommitment(uint256,bytes32,string)": {
        "details": "Approves the given commitment hash to transfer the SRR",
        "params": {
          "commitment": "bytes32 of the commitment hash",
          "historyMetadataDigest": "string of the history metadata digest",
          "tokenId": "uint256 ID of the SRR"
        }
      },
      "bytes32ToString(bytes32)": {
        "details": "Convertes bytes32 value to string",
        "params": {
          "x": "bytes32"
        },
        "returns": {
          "_0": "string value"
        }
      },
      "cancelSRRCommitment(uint256)": {
        "details": "Cancels the current commitment of a given SRR",
        "params": {
          "tokenId": "uint256 ID of the SRR"
        }
      },
      "createSRR(bool,address,bytes32,(bytes32,uint8,bytes32,bytes32,address))": {
        "details": "Creates a registryRecord of an artwork",
        "params": {
          "artistAddress": "address of the artist contract",
          "isPrimaryIssuer": "boolean whether the user is a primary issuer",
          "metadataDigest": "bytes32 of metadata hash",
          "sig": "signature"
        },
        "returns": {
          "_0": "uint256 tokenId"
        }
      },
      "createSRRFromLicensedUser(bool,address,bytes32)": {
        "details": "Creates a registryRecord of an artwork from LicensedUserLogic contract",
        "params": {
          "artistAddress": "address of the artist contract",
          "isPrimaryIssuer": "address of the issuer user contract",
          "metadataDigest": "bytes32 of metadata hash"
        },
        "returns": {
          "_0": "uint256 tokenId"
        }
      },
      "getHistoryMetadataDigest(uint256)": {
        "details": "Gets metadata digests",
        "params": {
          "tokenId": "uint256 of StartrailRegistryRecordID"
        },
        "returns": {
          "_0": "history metadata digest"
        }
      },
      "getLicensedUserWalletFactoryAddress()": {
        "details": "Gets the endpoint address of LicensedUserWalletFactory",
        "returns": {
          "_0": "LicensedUserWalletFactory proxy address"
        }
      },
      "getNameRegistryAddress()": {
        "details": "Gets the endpoint address of NameRegistry",
        "returns": {
          "_0": "NameRegistry proxy address"
        }
      },
      "getSRR(uint256)": {
        "details": "Gets the registryRecord related with the tokenId",
        "params": {
          "tokenId": "uint256 ID of StartrailRegistry"
        },
        "returns": {
          "registryRecord": "dataset / metadataDigest"
        }
      },
      "getSRRCommitment(uint256)": {
        "details": "Gets the given commitment hash to transfer the SRR",
        "params": {
          "tokenId": "uint256 ID of StartrailRegistry"
        },
        "returns": {
          "_0": "commitment hash"
        }
      },
      "getSRROwner(uint256)": {
        "details": "Gets the current owner address given the token ID",
        "params": {
          "tokenId": "uint256 ID of StartrailRegistry"
        },
        "returns": {
          "_0": "owner address"
        }
      },
      "getStartrailRegistryAddress()": {
        "details": "Gets the endpoint address of StartrailRegistry",
        "returns": {
          "_0": "StartrailRegistry proxy address"
        }
      },
      "getUserType(string)": {
        "details": "Gets user type",
        "params": {
          "_type": "string of the user type"
        },
        "returns": {
          "_0": "UserType"
        }
      },
      "initialize(address,string,string,bytes32)": {
        "details": "Initializes the address of the StartrailRegistry contract",
        "params": {
          "URIPostfix": "string of the URI postfix of the scheme",
          "URIPrefix": "string of the URI prefix of the scheme where SRR metadata is saved",
          "nameRegistry": "address of the NameRegistry",
          "schemaURIIntegrityDigest": "bytes32 of the URI digest of the scheme"
        }
      },
      "owner()": {
        "details": "Returns the address of the current owner."
      },
      "renounceOwnership()": {
        "details": "Leaves the contract without owner. It will not be possible to call `onlyOwner` functions anymore. Can only be called by the current owner. NOTE: Renouncing ownership will leave the contract without an owner, thereby removing any functionality that is only available to the owner."
      },
      "setNameRegistryAddress(address)": {
        "details": "Sets the addresses of the reference",
        "params": {
          "nameRegistry": "address of the NameRegistry"
        }
      },
      "setTokenURIParts(string,string)": {
        "details": "Sets the URI info of the scheme where SRR metadata is saved",
        "params": {
          "URIPostfix": "string of the URI postfix of the scheme",
          "URIPrefix": "string of the URI prefix of the scheme"
        }
      },
      "setTokenURISchemaIntegrityDigest(bytes32)": {
        "details": "Sets the scheme URI digests of SRR metadata",
        "params": {
          "digest": "bytes32 of the scheme URI digests"
        }
      },
      "supportsInterface(bytes4)": {
        "details": "See {IERC165-supportsInterface}. Time complexity O(1), guaranteed to always use less than 30 000 gas."
      },
      "tokenURI(string)": {
        "details": "Gets URI where the matadata is saved",
        "params": {
          "metadataDigests": "string of metadata digests"
        },
        "returns": {
          "_0": "URI"
        }
      },
      "tokenURIIntegrity(uint256)": {
        "details": "Gets the metadata digests of SRR and hash",
        "params": {
          "tokenId": "uint256 ID of StartrailRegistry"
        }
      },
      "tokenURISchemaIntegrity(uint256)": {
        "details": "Gets the scheme digests and hash",
        "params": {
          "tokenId": "uint256 ID of StartrailRegistry"
        }
      },
      "transferOwnership(address)": {
        "details": "Transfers ownership of the contract to a new account (`newOwner`). Can only be called by the current owner."
      },
      "transferSRRByReveal(address,bytes32,uint256)": {
        "details": "Transfers the ownership of a given SRR ID to another address.",
        "params": {
          "reveal": "bytes32 of the reveal hash value to restore the commitment value",
          "to": "address to receive the ownership",
          "tokenId": "uint256 ID of the SRR to be transferred"
        }
      },
      "uintToStr(uint256)": {
        "details": "Convertes uint value to string",
        "params": {
          "i": "uint256"
        },
        "returns": {
          "_0": "string value"
        }
      },
      "updateSRRFromLicensedUser(uint256,bool,address)": {
        "details": "Updates the registryRecord",
        "params": {
          "isPrimaryIssuer": "boolean whether the user is a primary issuer",
          "tokenId": "uint256 of StartrailRegistryRecordID"
        },
        "returns": {
          "_0": "uint256 tokenId"
        }
      },
      "updateSRRMetadata(uint256,bytes32)": {
        "details": "Updates the SRR metadata",
        "params": {
          "metadataDigest": "bytes32 of the metadata hash",
          "tokenId": "uint256 of StartrailRegistryRecordID"
        }
      }
    },
    "version": 1
  },
  "userdoc": {
    "kind": "user",
    "methods": {},
    "version": 1
  }
}