{
  "contractName": "RootLogic",
  "abi": [
    {
      "anonymous": false,
      "inputs": [
        {
          "indexed": true,
          "internalType": "uint256",
          "name": "tokenId",
          "type": "uint256"
        },
        {
          "components": [
            {
              "internalType": "bool",
              "name": "isPrimaryIssuer",
              "type": "bool"
            },
            {
              "internalType": "address",
              "name": "artistAddress",
              "type": "address"
            },
            {
              "internalType": "address",
              "name": "issuer",
              "type": "address"
            }
          ],
          "indexed": false,
          "internalType": "struct IRootLogic.SRR",
          "name": "registryRecord",
          "type": "tuple"
        },
        {
          "indexed": false,
          "internalType": "bytes32",
          "name": "metadataDigest",
          "type": "bytes32"
        }
      ],
      "name": "CreateSRR",
      "type": "event"
    },
    {
      "anonymous": false,
      "inputs": [
        {
          "indexed": true,
          "internalType": "address",
          "name": "previousOwner",
          "type": "address"
        },
        {
          "indexed": true,
          "internalType": "address",
          "name": "newOwner",
          "type": "address"
        }
      ],
      "name": "OwnershipTransferred",
      "type": "event"
    },
    {
      "anonymous": false,
      "inputs": [
        {
          "indexed": true,
          "internalType": "uint256",
          "name": "tokenId",
          "type": "uint256"
        },
        {
          "indexed": true,
          "internalType": "address",
          "name": "from",
          "type": "address"
        },
        {
          "indexed": true,
          "internalType": "address",
          "name": "to",
          "type": "address"
        },
        {
          "indexed": false,
          "internalType": "uint256",
          "name": "timestamp",
          "type": "uint256"
        },
        {
          "indexed": false,
          "internalType": "string",
          "name": "historyMetadataDigest",
          "type": "string"
        },
        {
          "indexed": false,
          "internalType": "string",
          "name": "historyMetadataURI",
          "type": "string"
        }
      ],
      "name": "Provenance",
      "type": "event"
    },
    {
      "anonymous": false,
      "inputs": [
        {
          "indexed": false,
          "internalType": "address",
          "name": "owner",
          "type": "address"
        },
        {
          "indexed": false,
          "internalType": "bytes32",
          "name": "commitment",
          "type": "bytes32"
        },
        {
          "indexed": false,
          "internalType": "uint256",
          "name": "tokenId",
          "type": "uint256"
        }
      ],
      "name": "SRRCommitment",
      "type": "event"
    },
    {
      "anonymous": false,
      "inputs": [
        {
          "indexed": false,
          "internalType": "uint256",
          "name": "tokenId",
          "type": "uint256"
        }
      ],
      "name": "SRRCommitmentCancelled",
      "type": "event"
    },
    {
      "anonymous": false,
      "inputs": [
        {
          "indexed": true,
          "internalType": "uint256",
          "name": "tokenId",
          "type": "uint256"
        },
        {
          "components": [
            {
              "internalType": "bool",
              "name": "isPrimaryIssuer",
              "type": "bool"
            },
            {
              "internalType": "address",
              "name": "artistAddress",
              "type": "address"
            },
            {
              "internalType": "address",
              "name": "issuer",
              "type": "address"
            }
          ],
          "indexed": false,
          "internalType": "struct IRootLogic.SRR",
          "name": "registryRecord",
          "type": "tuple"
        }
      ],
      "name": "UpdateSRR",
      "type": "event"
    },
    {
      "anonymous": false,
      "inputs": [
        {
          "indexed": true,
          "internalType": "uint256",
          "name": "tokenId",
          "type": "uint256"
        },
        {
          "indexed": false,
          "internalType": "bytes32",
          "name": "metadataDigest",
          "type": "bytes32"
        }
      ],
      "name": "UpdateSRRMetadataDigest",
      "type": "event"
    },
    {
      "inputs": [],
      "name": "HASH_ALGORITHM",
      "outputs": [
        {
          "internalType": "string",
          "name": "",
          "type": "string"
        }
      ],
      "stateMutability": "view",
      "type": "function",
      "constant": true
    },
    {
      "inputs": [],
      "name": "owner",
      "outputs": [
        {
          "internalType": "address",
          "name": "",
          "type": "address"
        }
      ],
      "stateMutability": "view",
      "type": "function",
      "constant": true
    },
    {
      "inputs": [],
      "name": "renounceOwnership",
      "outputs": [],
      "stateMutability": "nonpayable",
      "type": "function"
    },
    {
      "inputs": [
        {
          "internalType": "address",
          "name": "newOwner",
          "type": "address"
        }
      ],
      "name": "transferOwnership",
      "outputs": [],
      "stateMutability": "nonpayable",
      "type": "function"
    },
    {
      "inputs": [
        {
          "internalType": "address",
          "name": "nameRegistry",
          "type": "address"
        },
        {
          "internalType": "string",
          "name": "URIPrefix",
          "type": "string"
        },
        {
          "internalType": "string",
          "name": "URIPostfix",
          "type": "string"
        },
        {
          "internalType": "bytes32",
          "name": "schemaURIIntegrityDigest",
          "type": "bytes32"
        }
      ],
      "name": "initialize",
      "outputs": [],
      "stateMutability": "nonpayable",
      "type": "function"
    },
    {
      "inputs": [
        {
          "internalType": "bytes4",
          "name": "interfaceID",
          "type": "bytes4"
        }
      ],
      "name": "supportsInterface",
      "outputs": [
        {
          "internalType": "bool",
          "name": "",
          "type": "bool"
        }
      ],
      "stateMutability": "pure",
      "type": "function",
      "constant": true
    },
    {
      "inputs": [
        {
          "internalType": "bool",
          "name": "isPrimaryIssuer",
          "type": "bool"
        },
        {
          "internalType": "address",
          "name": "artistAddress",
          "type": "address"
        },
        {
          "internalType": "bytes32",
          "name": "metadataDigest",
          "type": "bytes32"
        },
        {
          "components": [
            {
              "internalType": "bytes32",
              "name": "hashed",
              "type": "bytes32"
            },
            {
              "internalType": "uint8",
              "name": "v",
              "type": "uint8"
            },
            {
              "internalType": "bytes32",
              "name": "r",
              "type": "bytes32"
            },
            {
              "internalType": "bytes32",
              "name": "s",
              "type": "bytes32"
            },
            {
              "internalType": "address",
              "name": "sender",
              "type": "address"
            }
          ],
          "internalType": "struct Signature.Sig",
          "name": "sig",
          "type": "tuple"
        }
      ],
      "name": "createSRR",
      "outputs": [
        {
          "internalType": "uint256",
          "name": "",
          "type": "uint256"
        }
      ],
      "stateMutability": "nonpayable",
      "type": "function"
    },
    {
      "inputs": [
        {
          "internalType": "bool",
          "name": "isPrimaryIssuer",
          "type": "bool"
        },
        {
          "internalType": "address",
          "name": "artistAddress",
          "type": "address"
        },
        {
          "internalType": "bytes32",
          "name": "metadataDigest",
          "type": "bytes32"
        }
      ],
      "name": "createSRRFromLicensedUser",
      "outputs": [
        {
          "internalType": "uint256",
          "name": "",
          "type": "uint256"
        }
      ],
      "stateMutability": "nonpayable",
      "type": "function"
    },
    {
      "inputs": [
        {
          "internalType": "bool",
          "name": "isPrimaryIssuer",
          "type": "bool"
        },
        {
          "internalType": "address",
          "name": "artistAddress",
          "type": "address"
        },
        {
          "internalType": "bytes32",
          "name": "metadataDigest",
          "type": "bytes32"
        },
        {
          "internalType": "address",
          "name": "issuerAddress",
          "type": "address"
        }
      ],
      "name": "createSRRFromBulk",
      "outputs": [
        {
          "internalType": "uint256",
          "name": "",
          "type": "uint256"
        }
      ],
      "stateMutability": "nonpayable",
      "type": "function"
    },
    {
      "inputs": [
        {
          "internalType": "uint256",
          "name": "tokenId",
          "type": "uint256"
        },
        {
          "internalType": "bool",
          "name": "isPrimaryIssuer",
          "type": "bool"
        },
        {
          "internalType": "address",
          "name": "artistAddress",
          "type": "address"
        }
      ],
      "name": "updateSRRFromLicensedUser",
      "outputs": [
        {
          "internalType": "uint256",
          "name": "",
          "type": "uint256"
        }
      ],
      "stateMutability": "nonpayable",
      "type": "function"
    },
    {
      "inputs": [
        {
          "internalType": "uint256",
          "name": "tokenId",
          "type": "uint256"
        },
        {
          "internalType": "bytes32",
          "name": "metadataDigest",
          "type": "bytes32"
        }
      ],
      "name": "updateSRRMetadata",
      "outputs": [],
      "stateMutability": "nonpayable",
      "type": "function"
    },
    {
      "inputs": [
        {
          "internalType": "uint256",
          "name": "tokenId",
          "type": "uint256"
        },
        {
          "internalType": "bytes32",
          "name": "commitment",
          "type": "bytes32"
        },
        {
          "internalType": "string",
          "name": "historyMetadataDigest",
          "type": "string"
        }
      ],
      "name": "approveSRRByCommitment",
      "outputs": [],
      "stateMutability": "nonpayable",
      "type": "function"
    },
    {
      "inputs": [
        {
          "internalType": "uint256",
          "name": "tokenId",
          "type": "uint256"
        }
      ],
      "name": "cancelSRRCommitment",
      "outputs": [],
      "stateMutability": "nonpayable",
      "type": "function"
    },
    {
      "inputs": [
        {
          "internalType": "address",
          "name": "to",
          "type": "address"
        },
        {
          "internalType": "bytes32",
          "name": "reveal",
          "type": "bytes32"
        },
        {
          "internalType": "uint256",
          "name": "tokenId",
          "type": "uint256"
        }
      ],
      "name": "transferSRRByReveal",
      "outputs": [],
      "stateMutability": "nonpayable",
      "type": "function"
    },
    {
      "inputs": [
        {
          "internalType": "address",
          "name": "nameRegistry",
          "type": "address"
        }
      ],
      "name": "setNameRegistryAddress",
      "outputs": [],
      "stateMutability": "nonpayable",
      "type": "function"
    },
    {
      "inputs": [
        {
          "internalType": "bytes32",
          "name": "digest",
          "type": "bytes32"
        }
      ],
      "name": "setTokenURISchemaIntegrityDigest",
      "outputs": [],
      "stateMutability": "nonpayable",
      "type": "function"
    },
    {
      "inputs": [
        {
          "internalType": "string",
          "name": "URIPrefix",
          "type": "string"
        },
        {
          "internalType": "string",
          "name": "URIPostfix",
          "type": "string"
        }
      ],
      "name": "setTokenURIParts",
      "outputs": [],
      "stateMutability": "nonpayable",
      "type": "function"
    },
    {
      "inputs": [
        {
          "internalType": "uint256",
          "name": "tokenId",
          "type": "uint256"
        }
      ],
      "name": "getSRR",
      "outputs": [
        {
          "components": [
            {
              "internalType": "bool",
              "name": "isPrimaryIssuer",
              "type": "bool"
            },
            {
              "internalType": "address",
              "name": "artistAddress",
              "type": "address"
            },
            {
              "internalType": "address",
              "name": "issuer",
              "type": "address"
            }
          ],
          "internalType": "struct IRootLogic.SRR",
          "name": "registryRecord",
          "type": "tuple"
        },
        {
          "internalType": "bytes32",
          "name": "metadataDigest",
          "type": "bytes32"
        }
      ],
      "stateMutability": "view",
      "type": "function",
      "constant": true
    },
    {
      "inputs": [
        {
          "internalType": "uint256",
          "name": "tokenId",
          "type": "uint256"
        }
      ],
      "name": "getSRROwner",
      "outputs": [
        {
          "internalType": "address",
          "name": "",
          "type": "address"
        }
      ],
      "stateMutability": "view",
      "type": "function",
      "constant": true
    },
    {
      "inputs": [
        {
          "internalType": "uint256",
          "name": "tokenId",
          "type": "uint256"
        }
      ],
      "name": "getSRRCommitment",
      "outputs": [
        {
          "internalType": "bytes32",
          "name": "",
          "type": "bytes32"
        }
      ],
      "stateMutability": "view",
      "type": "function",
      "constant": true
    },
    {
      "inputs": [],
      "name": "getStartrailRegistryAddress",
      "outputs": [
        {
          "internalType": "address",
          "name": "",
          "type": "address"
        }
      ],
      "stateMutability": "view",
      "type": "function",
      "constant": true
    },
    {
      "inputs": [],
      "name": "getLicensedUserWalletFactoryAddress",
      "outputs": [
        {
          "internalType": "address",
          "name": "",
          "type": "address"
        }
      ],
      "stateMutability": "view",
      "type": "function",
      "constant": true
    },
    {
      "inputs": [],
      "name": "getNameRegistryAddress",
      "outputs": [
        {
          "internalType": "address",
          "name": "",
          "type": "address"
        }
      ],
      "stateMutability": "view",
      "type": "function",
      "constant": true
    },
    {
      "inputs": [
        {
          "internalType": "uint256",
          "name": "tokenId",
          "type": "uint256"
        }
      ],
      "name": "tokenURISchemaIntegrity",
      "outputs": [
        {
          "internalType": "bytes",
          "name": "digest",
          "type": "bytes"
        },
        {
          "internalType": "string",
          "name": "hashAlgorithm",
          "type": "string"
        }
      ],
      "stateMutability": "view",
      "type": "function",
      "constant": true
    },
    {
      "inputs": [
        {
          "internalType": "uint256",
          "name": "tokenId",
          "type": "uint256"
        }
      ],
      "name": "tokenURIIntegrity",
      "outputs": [
        {
          "internalType": "bytes",
          "name": "digest",
          "type": "bytes"
        },
        {
          "internalType": "string",
          "name": "hashAlgorithm",
          "type": "string"
        }
      ],
      "stateMutability": "view",
      "type": "function",
      "constant": true
    },
    {
      "inputs": [
        {
          "internalType": "string",
          "name": "metadataDigests",
          "type": "string"
        }
      ],
      "name": "tokenURI",
      "outputs": [
        {
          "internalType": "string",
          "name": "",
          "type": "string"
        }
      ],
      "stateMutability": "view",
      "type": "function",
      "constant": true
    },
    {
      "inputs": [
        {
          "internalType": "uint256",
          "name": "tokenId",
          "type": "uint256"
        }
      ],
      "name": "getHistoryMetadataDigest",
      "outputs": [
        {
          "internalType": "string",
          "name": "",
          "type": "string"
        }
      ],
      "stateMutability": "view",
      "type": "function",
      "constant": true
    }
  ],
  "bytecode": "0x608060405234801561001057600080fd5b50613100806100206000396000f3fe608060405234801561001057600080fd5b50600436106101a95760003560e01c806362b9bdc2116100f95780639db171a011610097578063c23fff0b11610071578063c23fff0b14610387578063caae188e1461038f578063d3c371a4146103a2578063f2fde38b146103b5576101a9565b80639db171a014610359578063ad52ee1d1461036c578063b9bb3f5914610374576101a9565b806381882bd0116100d357806381882bd01461031857806386492c3d1461032b578063897ac7551461033e5780638da5cb5b14610351576101a9565b806362b9bdc2146102f5578063715018a6146102fd5780637a40d44f14610305576101a9565b806349846680116101665780634da0ab62116101405780634da0ab621461029c57806356f73511146102af5780635f915423146102c25780636258f93e146102d5576101a9565b806349846680146102485780634cf12d26146102695780634d7ef47214610289576101a9565b806301ffc9a7146101ae57806319ccf777146101d75780631fe83100146101ec57806326e2c0441461020d5780634247794c14610222578063491a0de014610235575b600080fd5b6101c16101bc3660046127e6565b6103c8565b6040516101ce9190612c27565b60405180910390f35b6101df6103ff565b6040516101ce9190612bce565b6101ff6101fa3660046127ce565b61048b565b6040516101ce929190612fdc565b61022061021b3660046125d0565b610657565b005b6102206102303660046127ce565b610855565b610220610243366004612860565b610905565b61025b6102563660046127ce565b610a19565b6040516101ce929190612c50565b61027c61027736600461282d565b610ada565b6040516101ce9190612c7e565b61022061029736600461291a565b610bc1565b6102206102aa366004612604565b610d1e565b61027c6102bd3660046127ce565b610fa3565b6101df6102d03660046127ce565b6110c3565b6102e86102e336600461269b565b611148565b6040516101ce9190612a4f565b6101df6111fd565b610220611283565b6102206103133660046127ce565b611302565b61022061032636600461293b565b6113a1565b6102e86103393660046128d9565b61152c565b6102e861034c3660046127ce565b6116f8565b6101df611780565b6102e86103673660046126db565b61178f565b6101df611856565b6102e861038236600461272d565b61188c565b61027c611985565b61025b61039d3660046127ce565b6119a7565b6102206103b0366004612591565b611aae565b6102206103c3366004612591565b611b7e565b60006301ffc9a760e01b6001600160e01b0319831614806103f957506341953f0760e11b6001600160e01b03198316145b92915050565b60006104096111fd565b6001600160a01b031663f72d0b3b60036040518263ffffffff1660e01b81526004016104359190613022565b60206040518083038186803b15801561044d57600080fd5b505afa158015610461573d6000803e3d6000fd5b505050506040513d601f19601f8201168201806040525081019061048591906125b4565b90505b90565b610493612454565b60008261049f81611c35565b6104c45760405162461bcd60e51b81526004016104bb90612db3565b60405180910390fd5b60008481526002602052604080822090519091906104e190612b06565b60405180910390208152602001908152602001600020600060405161050590612abc565b6040805191829003909120825260208083019390935290810160009081205460ff161515865286815291829052808220905190919061054390612b06565b60405180910390208152602001908152602001600020600060405161056790612ad7565b604080519182900390912082526020808301939093529081016000908120546001600160a01b0316868401528681529182905280822090519091906105ab90612b06565b6040518091039020815260200190815260200160002060006040516105cf90612b87565b604080519182900390912082526020808301939093529081016000908120546001600160a01b0316868301528681526005909252808220905190919061061490612b06565b60405180910390208152602001908152602001600020600060405161063890612b20565b6040518091039020815260200190815260200160002054915050915091565b8061066181611c35565b61067d5760405162461bcd60e51b81526004016104bb90612db3565b6000836040516020016106909190612a4f565b6040516020818303038152906040528051906020012090506106b1836116f8565b81146106cf5760405162461bcd60e51b81526004016104bb90612ec9565b60006106da846110c3565b90506107db84828860066000898152602001908152602001600020600060405161070390612b3a565b60405180910390208152602001908152602001600020600060405161072790612b20565b604051809103902081526020019081526020016000208054600181600116156101000203166002900480601f0160208091040260200160405190810160405280929190818152602001828054600181600116156101000203166002900480156107d15780601f106107a6576101008083540402835291602001916107d1565b820191906000526020600020905b8154815290600101906020018083116107b457829003601f168201915b5050505050611c53565b6107e484611cb9565b6107ec611d95565b6001600160a01b031663109a037a8288876040518463ffffffff1660e01b815260040161081b93929190612be2565b600060405180830381600087803b15801561083557600080fd5b505af1158015610849573d6000803e3d6000fd5b50505050505050505050565b806000610861826110c3565b90506001600160a01b03811633148061087d575061087d611e22565b6108995760405162461bcd60e51b81526004016104bb90612f83565b826108a381611c35565b6108bf5760405162461bcd60e51b81526004016104bb90612db3565b6108c884611cb9565b7fe4d7874df736cca373c5dd3bdf5df443422997d6c00887fcec2ca658486718e3846040516108f79190612a4f565b60405180910390a150505050565b61090d611e22565b6109295760405162461bcd60e51b81526004016104bb90612e92565b6000808052600660205260405183916000805160206130ab8339815191529161095190612b06565b60405180910390208152602001908152602001600020600060405161097590612b72565b60405180910390208152602001908152602001600020908051906020019061099e929190612474565b506000808052600660205260405182916000805160206130ab833981519152916109c790612b06565b6040518091039020815260200190815260200160002060006040516109eb90612af0565b604051809103902081526020019081526020016000209080519060200190610a14929190612474565b505050565b60608082610a2681611c35565b610a425760405162461bcd60e51b81526004016104bb90612db3565b6000848152600560205260408082209051909190610a5f90612b06565b604051809103902081526020019081526020016000206000604051610a8390612b20565b6040518091039020815260200190815260200160002054604051602001610aaa9190612a4f565b60408051601f19818403018152828201909152600682526539b430991a9b60d11b60208301529590945092505050565b600080805260066020526040516060916000805160206130ab83398151915291610b0390612b06565b604051809103902081526020019081526020016000206000604051610b2790612b72565b6040518091039020815260200190815260200160002082600660008081526020019081526020016000206000604051610b5f90612b06565b604051809103902081526020019081526020016000206000604051610b8390612af0565b60405180910390208152602001908152602001600020604051602001610bab93929190612a58565b6040516020818303038152906040529050919050565b610bc96111fd565b6001600160a01b031663938509d3336040518263ffffffff1660e01b8152600401610bf49190612bce565b60206040518083038186803b158015610c0c57600080fd5b505afa158015610c20573d6000803e3d6000fd5b505050506040513d601f19601f82011682018060405250810190610c44919061267f565b610c605760405162461bcd60e51b81526004016104bb90612c91565b81610c6a81611c35565b610c865760405162461bcd60e51b81526004016104bb90612db3565b6000838152600560205260408082209051849290610ca390612b06565b604051809103902081526020019081526020016000206000604051610cc790612b20565b6040518091039020815260200190815260200160002081905550827f066fee88cab40947b280fc684b91be9189e54fec4ea099ad23d9ba420d113d4b83604051610d119190612a4f565b60405180910390a2505050565b600854610100900460ff1680610d375750610d37611f39565b80610d45575060085460ff16155b610d615760405162461bcd60e51b81526004016104bb90612f35565b600854610100900460ff16158015610d8c576008805460ff1961ff0019909116610100171660011790555b6000808052602081905260405186917fad3228b676f7d3cd4284a5443f17f1962b36e491b30a40b2405849e597ba5fb591610dc690612b99565b604051809103902081526020019081526020016000206000604051610dea90612b99565b6040518091039020815260200190815260200160002060006101000a8154816001600160a01b0302191690836001600160a01b0316021790555083600660008081526020019081526020016000206000604051610e4690612b06565b604051809103902081526020019081526020016000206000604051610e6a90612b72565b604051809103902081526020019081526020016000209080519060200190610e93929190612474565b506000808052600660205260405184916000805160206130ab83398151915291610ebc90612b06565b604051809103902081526020019081526020016000206000604051610ee090612af0565b604051809103902081526020019081526020016000209080519060200190610f09929190612474565b506000808052600560205260405183917f05b8ccbb9d4d8fb16ea74ce3c29a41f1b461fbdaff4714a0d9a8eb05499746bc91610f4490612b06565b604051809103902081526020019081526020016000206000604051610f6890612b57565b6040518091039020815260200190815260200160002081905550610f8a611f3f565b8015610f9c576008805461ff00191690555b5050505050565b606081610faf81611c35565b610fcb5760405162461bcd60e51b81526004016104bb90612db3565b6000838152600660205260408082209051909190610fe890612b3a565b60405180910390208152602001908152602001600020600060405161100c90612b20565b604051809103902081526020019081526020016000208054600181600116156101000203166002900480601f0160208091040260200160405190810160405280929190818152602001828054600181600116156101000203166002900480156110b65780601f1061108b576101008083540402835291602001916110b6565b820191906000526020600020905b81548152906001019060200180831161109957829003601f168201915b5050505050915050919050565b60006110cd611d95565b6001600160a01b0316635f915423836040518263ffffffff1660e01b81526004016110f89190612a4f565b60206040518083038186803b15801561111057600080fd5b505afa158015611124573d6000803e3d6000fd5b505050506040513d601f19601f820116820180604052508101906103f991906125b4565b60006111526111fd565b6001600160a01b031663938509d3336040518263ffffffff1660e01b815260040161117d9190612bce565b60206040518083038186803b15801561119557600080fd5b505afa1580156111a9573d6000803e3d6000fd5b505050506040513d601f19601f820116820180604052508101906111cd919061267f565b6111e95760405162461bcd60e51b81526004016104bb90612c91565b6111f584848433611fd2565b949350505050565b600080805260208190526040517fad3228b676f7d3cd4284a5443f17f1962b36e491b30a40b2405849e597ba5fb590829061123790612b99565b60405180910390208152602001908152602001600020600060405161125b90612b99565b60408051918290039091208252602082019290925201600020546001600160a01b0316905090565b61128b612251565b606d546001600160a01b039081169116146112b85760405162461bcd60e51b81526004016104bb90612f00565b606d546040516000916001600160a01b0316907f8be0079c531659141344cd1fd0a4f28419497f9722a3daafe3b4186f6b6457e0908390a3606d80546001600160a01b0319169055565b61130a611e22565b6113265760405162461bcd60e51b81526004016104bb90612e92565b6000808052600560205260405182917f05b8ccbb9d4d8fb16ea74ce3c29a41f1b461fbdaff4714a0d9a8eb05499746bc9161136090612b06565b60405180910390208152602001908152602001600020600060405161138490612b57565b604051809103902081526020019081526020016000208190555050565b8260006113ad826110c3565b90506001600160a01b0381163314806113c957506113c9611e22565b6113e55760405162461bcd60e51b81526004016104bb90612f83565b846113ef81611c35565b61140b5760405162461bcd60e51b81526004016104bb90612db3565b6000611416876110c3565b90508560056000898152602001908152602001600020600060405161143a90612b06565b60405180910390208152602001908152602001600020600060405161145e90612bb8565b60405180910390208152602001908152602001600020819055508460066000898152602001908152602001600020600060405161149a90612b3a565b6040518091039020815260200190815260200160002060006040516114be90612b20565b6040518091039020815260200190815260200160002090805190602001906114e7929190612474565b507fcdbfdef7607032fffe5ee3842c85173a06cfec881d773a96b04e17fbffc2c69d81878960405161151b93929190612c06565b60405180910390a150505050505050565b60006115366111fd565b6001600160a01b031663938509d3336040518263ffffffff1660e01b81526004016115619190612bce565b60206040518083038186803b15801561157957600080fd5b505afa15801561158d573d6000803e3d6000fd5b505050506040513d601f19601f820116820180604052508101906115b1919061267f565b6115cd5760405162461bcd60e51b81526004016104bb90612c91565b836115d781611c35565b6115f35760405162461bcd60e51b81526004016104bb90612db3565b600085815260208190526040808220905185929061161090612b06565b60405180910390208152602001908152602001600020600060405161163490612ad7565b6040518091039020815260200190815260200160002060006101000a8154816001600160a01b0302191690836001600160a01b031602179055506116788585612255565b6116945760405162461bcd60e51b81526004016104bb90612dea565b6040805160608101825285151581526001600160a01b03851660208201523381830152905186917fb98f49356fbcbbd9b5095e1fe59804755dd39c72fa41309a59fd2830909a54cf916116e79190612fce565b60405180910390a250929392505050565b60008161170481611c35565b6117205760405162461bcd60e51b81526004016104bb90612db3565b600083815260056020526040808220905190919061173d90612b06565b60405180910390208152602001908152602001600020600060405161176190612bb8565b6040518091039020815260200190815260200160002054915050919050565b606d546001600160a01b031690565b60008061179a6111fd565b6001600160a01b031663f72d0b3b60026040518263ffffffff1660e01b81526004016117c69190613022565b60206040518083038186803b1580156117de57600080fd5b505afa1580156117f2573d6000803e3d6000fd5b505050506040513d601f19601f8201168201806040525081019061181691906125b4565b90506001600160a01b03811633146118405760405162461bcd60e51b81526004016104bb90612cee565b61184c86868686611fd2565b9695505050505050565b60006118606111fd565b6001600160a01b031663f72d0b3b60066040518263ffffffff1660e01b81526004016104359190613022565b600081600061189e82600001516122c9565b90506000600182846020015185604001518660600151604051600081526020016040526040516118d19493929190612c32565b6020604051602081039080840390855afa1580156118f3573d6000803e3d6000fd5b505050602060405103519050806001600160a01b031683608001516001600160a01b0316146119345760405162461bcd60e51b81526004016104bb90612e5b565b61193c612251565b606d546001600160a01b039081169116146119695760405162461bcd60e51b81526004016104bb90612f00565b6119798888888860800151611fd2565b50505050949350505050565b6040518060400160405280600681526020016539b430991a9b60d11b81525081565b606080826119b481611c35565b6119d05760405162461bcd60e51b81526004016104bb90612db3565b600084815260208190526040808220905182906119ec90612b06565b604051809103902081526020019081526020016000206000604051611a1090612abc565b60408051918290039091208252602082019290925201600020546001600160a01b03161415611a515760405162461bcd60e51b81526004016104bb90612d36565b600080805260056020526040517f05b8ccbb9d4d8fb16ea74ce3c29a41f1b461fbdaff4714a0d9a8eb05499746bc9190611a8a90612b06565b604051809103902081526020019081526020016000206000604051610a8390612b57565b611ab6612251565b606d546001600160a01b03908116911614611ae35760405162461bcd60e51b81526004016104bb90612f00565b6000808052602081905260405182917fad3228b676f7d3cd4284a5443f17f1962b36e491b30a40b2405849e597ba5fb591611b1d90612b99565b604051809103902081526020019081526020016000206000604051611b4190612b99565b6040518091039020815260200190815260200160002060006101000a8154816001600160a01b0302191690836001600160a01b0316021790555050565b611b86612251565b606d546001600160a01b03908116911614611bb35760405162461bcd60e51b81526004016104bb90612f00565b6001600160a01b038116611bd95760405162461bcd60e51b81526004016104bb90612d6d565b606d546040516001600160a01b038084169216907f8be0079c531659141344cd1fd0a4f28419497f9722a3daafe3b4186f6b6457e090600090a3606d80546001600160a01b0319166001600160a01b0392909216919091179055565b600080611c41836110c3565b6001600160a01b031615159392505050565b426060611c5f83610ada565b9050836001600160a01b0316856001600160a01b0316877f7ead3b4ab8784feb4b0e4662f1b1436cbb7ce34397455233d5a99f01707bfb89858786604051611ca993929190612ff7565b60405180910390a4505050505050565b60008181526005602052604080822090518290611cd590612b06565b604051809103902081526020019081526020016000206000604051611cf990612bb8565b604051809103902081526020019081526020016000208190555060405180602001604052806000815250600660008381526020019081526020016000206000604051611d4490612b3a565b604051809103902081526020019081526020016000206000604051611d6890612b20565b604051809103902081526020019081526020016000209080519060200190611d91929190612474565b5050565b600080611da06111fd565b6001600160a01b031663f72d0b3b60036040518263ffffffff1660e01b8152600401611dcc9190613022565b60206040518083038186803b158015611de457600080fd5b505afa158015611df8573d6000803e3d6000fd5b505050506040513d601f19601f82011682018060405250810190611e1c91906125b4565b91505090565b6000611e2c6111fd565b6001600160a01b031663938509d3336040518263ffffffff1660e01b8152600401611e579190612bce565b60206040518083038186803b158015611e6f57600080fd5b505afa158015611e83573d6000803e3d6000fd5b505050506040513d601f19601f82011682018060405250810190611ea7919061267f565b611eb357506000610488565b336000816001600160a01b031663419900776040518163ffffffff1660e01b815260040160206040518083038186803b158015611eef57600080fd5b505afa158015611f03573d6000803e3d6000fd5b505050506040513d601f19601f82011682018060405250810190611f27919061280e565b6002811115611f3257fe5b1491505090565b303b1590565b600854610100900460ff1680611f585750611f58611f39565b80611f66575060085460ff16155b611f825760405162461bcd60e51b81526004016104bb90612f35565b600854610100900460ff16158015611fad576008805460ff1961ff0019909116610100171660011790555b611fb56122f9565b611fbd61237a565b8015611fcf576008805461ff00191690555b50565b600080611fdd611d95565b6001600160a01b0316636a627842846040518263ffffffff1660e01b81526004016120089190612bce565b602060405180830381600087803b15801561202257600080fd5b505af1158015612036573d6000803e3d6000fd5b505050506040513d601f19601f8201168201806040525081019061205a91906128c1565b905082600080838152602001908152602001600020600060405161207d90612b06565b6040518091039020815260200190815260200160002060006040516120a190612b87565b6040518091039020815260200190815260200160002060006101000a8154816001600160a01b0302191690836001600160a01b031602179055508460008083815260200190815260200160002060006040516120fc90612b06565b60405180910390208152602001908152602001600020600060405161212090612ad7565b6040518091039020815260200190815260200160002060006101000a8154816001600160a01b0302191690836001600160a01b031602179055508360056000838152602001908152602001600020600060405161217c90612b06565b6040518091039020815260200190815260200160002060006040516121a090612b20565b60405180910390208152602001908152602001600020819055506121c48187612255565b6121e05760405162461bcd60e51b81526004016104bb90612e15565b807f8cf4110de18b813ef8193d0617c668b48076f2fc9d1d5767d627d9ec5ffcce1a60405180606001604052808915158152602001886001600160a01b03168152602001866001600160a01b031681525086604051612240929190612fdc565b60405180910390a295945050505050565b3390565b6000828152600260205260408082209051839190839061227490612b06565b60405180910390208152602001908152602001600020600060405161229890612abc565b60408051918290039091208252602082019290925201600020805460ff191691151591909117905550600192915050565b6000816040516020016122dc9190612a8b565b604051602081830303815290604052805190602001209050919050565b600854610100900460ff16806123125750612312611f39565b80612320575060085460ff16155b61233c5760405162461bcd60e51b81526004016104bb90612f35565b600854610100900460ff16158015611fbd576008805460ff1961ff0019909116610100171660011790558015611fcf576008805461ff001916905550565b600854610100900460ff16806123935750612393611f39565b806123a1575060085460ff16155b6123bd5760405162461bcd60e51b81526004016104bb90612f35565b600854610100900460ff161580156123e8576008805460ff1961ff0019909116610100171660011790555b60006123f2612251565b606d80546001600160a01b0319166001600160a01b038316908117909155604051919250906000907f8be0079c531659141344cd1fd0a4f28419497f9722a3daafe3b4186f6b6457e0908290a3508015611fcf576008805461ff001916905550565b604080516060810182526000808252602082018190529181019190915290565b828054600181600116156101000203166002900490600052602060002090601f016020900481019282601f106124b557805160ff19168380011785556124e2565b828001600101855582156124e2579182015b828111156124e25782518255916020019190600101906124c7565b506124ee9291506124f2565b5090565b61048891905b808211156124ee57600081556001016124f8565b80356103f981613087565b600082601f830112612527578081fd5b813567ffffffffffffffff81111561253d578182fd5b612550601f8201601f1916602001613030565b915080825283602082850101111561256757600080fd5b8060208401602084013760009082016020015292915050565b803560ff811681146103f957600080fd5b6000602082840312156125a2578081fd5b81356125ad81613087565b9392505050565b6000602082840312156125c5578081fd5b81516125ad81613087565b6000806000606084860312156125e4578182fd5b83356125ef81613087565b95602085013595506040909401359392505050565b60008060008060808587031215612619578081fd5b843561262481613087565b9350602085013567ffffffffffffffff80821115612640578283fd5b61264c88838901612517565b94506040870135915080821115612661578283fd5b5061266e87828801612517565b949793965093946060013593505050565b600060208284031215612690578081fd5b81516125ad8161309c565b6000806000606084860312156126af578283fd5b83356126ba8161309c565b925060208401356126ca81613087565b929592945050506040919091013590565b600080600080608085870312156126f0578384fd5b84356126fb8161309c565b9350602085013561270b81613087565b925060408501359150606085013561272281613087565b939692955090935050565b600080600080848603610100811215612744578485fd5b853561274f8161309c565b9450602086013561275f81613087565b93506040860135925060a0605f1982011215612779578182fd5b5061278460a0613030565b606086013581526127988760808801612580565b602082015260a0860135604082015260c086013560608201526127be8760e0880161250c565b6080820152939692955090935050565b6000602082840312156127df578081fd5b5035919050565b6000602082840312156127f7578081fd5b81356001600160e01b0319811681146125ad578182fd5b60006020828403121561281f578081fd5b8151600381106125ad578182fd5b60006020828403121561283e578081fd5b813567ffffffffffffffff811115612854578182fd5b6111f584828501612517565b60008060408385031215612872578182fd5b823567ffffffffffffffff80821115612889578384fd5b61289586838701612517565b935060208501359150808211156128aa578283fd5b506128b785828601612517565b9150509250929050565b6000602082840312156128d2578081fd5b5051919050565b6000806000606084860312156128ed578081fd5b8335925060208401356128ff8161309c565b9150604084013561290f81613087565b809150509250925092565b6000806040838503121561292c578182fd5b50508035926020909101359150565b60008060006060848603121561294f578081fd5b8335925060208401359150604084013567ffffffffffffffff811115612973578182fd5b61297f86828701612517565b9150509250925092565b600081518084526129a1816020860160208601613057565b601f01601f19169290920160200192915050565b600081546001808216600081146129d357600181146129ea57612a1c565b60ff198316865260028304607f1686019350612a1c565b600283048560005260208060002060005b83811015612a145781548a8201529085019082016129fb565b505050860193505b50505092915050565b8051151582526020808201516001600160a01b039081169184019190915260409182015116910152565b90815260200190565b6000612a6482866129b5565b8451612a74818360208901613057565b612a80818301866129b5565b979650505050505050565b7f19457468657265756d205369676e6564204d6573736167653a0a3332000000008152601c810191909152603c0190565b6e34b9a83934b6b0b93ca4b9b9bab2b960891b8152600f0190565b6c6172746973744164647265737360981b8152600d0190565b690aaa492a0dee6e8ccd2f60b31b8152600a0190565b6d1c9959da5cdd1c9e549958dbdc9960921b8152600e0190565b6d1b595d1859185d18511a59d95cdd60921b8152600e0190565b70686973746f727950726f76656e616e636560781b815260110190565b6e1cd8da195b58555492511a59d95cdd608a1b8152600f0190565b680aaa492a0e4caccd2f60bb1b815260090190565b6534b9b9bab2b960d11b815260060190565b726e616d6552656769737472794164647265737360681b815260130190565b6918dbdb5b5a5d1b595b9d60b21b8152600a0190565b6001600160a01b0391909116815260200190565b6001600160a01b039384168152919092166020820152604081019190915260600190565b6001600160a01b039390931683526020830191909152604082015260600190565b901515815260200190565b93845260ff9290921660208401526040830152606082015260800190565b600060408252612c636040830185612989565b8281036020840152612c758185612989565b95945050505050565b6000602082526125ad6020830184612989565b6020808252603e908201527f5468652073656e646572206973206e65697468657220746865206c6963656e7360408201527f6564207573657220636f6e7472616374206e6f72207468652061646d696e0000606082015260800190565b60208082526028908201527f5468652073656e6465722069736e2774207468652062756c6b2069737375652060408201526718dbdb9d1c9858dd60c21b606082015260800190565b6020808252601a908201527f74686520746f6b656e496420646f6573206e6f74206578697374000000000000604082015260600190565b60208082526026908201527f4f776e61626c653a206e6577206f776e657220697320746865207a65726f206160408201526564647265737360d01b606082015260800190565b6020808252601a908201527f54686520746f6b656e496420646f6573206e6f74206578697374000000000000604082015260600190565b6020808252601190820152703330b4b6103a37903ab83230ba32a9a92960791b604082015260600190565b60208082526026908201527f6661696c20746f20736176652053746172747261696c20526567697374727920604082015265149958dbdc9960d21b606082015260800190565b6020808252601e908201527f546865207369676e617475726520697320696e617070726f7072696174650000604082015260600190565b6020808252601b908201527f5468652073656e646572206973206e6f74207468652061646d696e0000000000604082015260600190565b6020808252601c908201527f48617368206f662072657665616c20646f65736e2774206d6174636800000000604082015260600190565b6020808252818101527f4f776e61626c653a2063616c6c6572206973206e6f7420746865206f776e6572604082015260600190565b6020808252602e908201527f436f6e747261637420696e7374616e63652068617320616c726561647920626560408201526d195b881a5b9a5d1a585b1a5e995960921b606082015260800190565b6020808252602b908201527f53656e646572206973206e656974686572206120535252206f776e6572206e6f60408201526a39103a34329030b236b4b760a91b606082015260800190565b606081016103f98284612a25565b60808101612fea8285612a25565b8260608301529392505050565b6000848252606060208301526130106060830185612989565b828103604084015261184c8185612989565b60ff91909116815260200190565b60405181810167ffffffffffffffff8111828210171561304f57600080fd5b604052919050565b60005b8381101561307257818101518382015260200161305a565b83811115613081576000848401525b50505050565b6001600160a01b0381168114611fcf57600080fd5b8015158114611fcf57600080fdfe54cdd369e4e8a8515e52ca72ec816c2101831ad1f18bf44102ed171459c9b4f8a2646970667358221220deda276be0d3089c05b320e06431b44ebae53a48768040dc7f70dc59686385ca64736f6c634300060b0033",
  "source": "pragma solidity 0.6.11;\npragma experimental ABIEncoderV2;\n\nimport \"@openzeppelin/contracts-ethereum-package/contracts/access/Ownable.sol\";\nimport \"../../common/IRootLogic.sol\";\nimport \"../../lib/contracts/Signature.sol\";\nimport \"../../common/IStartrailRegistry.sol\";\nimport \"../../common/IStartrailValidator.sol\";\nimport \"../../licensedUser/contracts/LicensedUserLogic.sol\";\nimport \"../../licensedUser/contracts/IdentityUserType.sol\";\nimport \"../../name/contracts/NameRegistry.sol\";\nimport \"../../name/contracts/Contracts.sol\";\nimport \"./Storage.sol\";\nimport \"./ERC2477.sol\";\n\ncontract RootLogic is\n  IRootLogic,\n  IStartrailValidator,\n  IdentityUserType,\n  Contracts,\n  ERC2477,\n  Storage,\n  OwnableUpgradeSafe\n{\n  /*\n   * Constants\n   */\n  // Static\n  uint256 private constant SRR_GLOBAL_SLOT = 0;\n  // types\n  bytes32 private constant _SRR = keccak256(\"registryRecord\");\n  bytes32 private constant _HISTORY = keccak256(\"historyProvenance\");\n\n  // values\n  bytes32 private constant _IS_PRIMARY_ISSUER = keccak256(\"isPrimaryIssuer\");\n  bytes32 private constant _ISSUER = keccak256(\"issuer\");\n  bytes32 private constant _ARTIST_ADDRESS = keccak256(\"artistAddress\");\n  bytes32 private constant _ROYALTY_RATE = keccak256(\"royaltyRate\");\n  bytes32 private constant _ROYALTY_RATE_DECIMALS = keccak256(\n    \"royaltyRateDecimals\"\n  );\n  bytes32 private constant _COMMITMENT = keccak256(\"commitment\");\n  bytes32 private constant _NAME_REGISTRY = keccak256(\"nameRegistryAddress\");\n\n  // metadata\n  bytes32 private constant _URI_PREFIX = keccak256(\"URIPrefix\");\n  bytes32 private constant _URI_POSTFIX = keccak256(\"URIPostfix\");\n  bytes32 private constant _SCHEMA_URI_DIGEST = keccak256(\"schemaURIDigest\");\n  bytes32 private constant _METADATA_DIGEST = keccak256(\"metadataDigest\");\n  // bytes32 private constant _PLATFORM_EOA = keccak256(\"platformEOA\");\n\n  /*\n   * Hashing function.\n   */\n  string public constant HASH_ALGORITHM = \"sha256\";\n\n  /*\n   * Modifiers\n   */\n  modifier onlyAdmin() {\n    require(_isAdmin(), \"The sender is not the admin\");\n    _;\n  }\n\n  modifier onlyLicensedUser() {\n    require(\n      _nameRegistry().instantiation(msg.sender),\n      \"The sender is neither the licensed user contract nor the admin\"\n    );\n    _;\n  }\n\n  modifier onlyBulk() {\n    address bulkIssueAddress = _nameRegistry().get(BULK_ISSUE);\n    require(\n      bulkIssueAddress == msg.sender,\n      \"The sender isn't the bulk issue contract\"\n    );\n    _;\n  }\n\n  modifier onlyArtist(uint256 tokenId) {\n    require(\n      msg.sender == _addressStorage[tokenId][_SRR][_ARTIST_ADDRESS] ||\n        _isAdmin(),\n      \"This is neither a artist nor the admin\"\n    );\n    _;\n  }\n\n  modifier onlyPrimaryIssuer(uint256 tokenId) {\n    require(\n      (msg.sender == _addressStorage[tokenId][_SRR][_ISSUER] &&\n        _boolStorage[tokenId][_SRR][_IS_PRIMARY_ISSUER]) || _isAdmin(),\n      \"This is neither a primary issuer nor the admin\"\n    );\n    _;\n  }\n\n  modifier onlySRROwner(uint256 tokenId) {\n    address owner = getSRROwner(tokenId);\n    require(\n      owner == msg.sender || _isAdmin(),\n      \"Sender is neither a SRR owner nor the admin\"\n    );\n    _;\n  }\n\n  modifier tokenExists(uint256 tokenId) {\n    require(_exists(tokenId), \"The tokenId does not exist\");\n    _;\n  }\n\n  /**\n   * @dev Initializes the address of the StartrailRegistry contract\n   * @param nameRegistry address of the NameRegistry\n   * @param URIPrefix string of the URI prefix of the scheme where SRR metadata is saved\n   * @param URIPostfix string of the URI postfix of the scheme\n   * @param schemaURIIntegrityDigest bytes32 of the URI digest of the scheme\n   */\n  function initialize(\n    address nameRegistry,\n    string memory URIPrefix,\n    string memory URIPostfix,\n    bytes32 schemaURIIntegrityDigest\n  ) public initializer {\n    _addressStorage[SRR_GLOBAL_SLOT][_NAME_REGISTRY][_NAME_REGISTRY] = nameRegistry;\n    _stringStorage[SRR_GLOBAL_SLOT][_SRR][_URI_PREFIX] = URIPrefix;\n    _stringStorage[SRR_GLOBAL_SLOT][_SRR][_URI_POSTFIX] = URIPostfix;\n    _bytes32Storage[SRR_GLOBAL_SLOT][_SRR][_SCHEMA_URI_DIGEST] = schemaURIIntegrityDigest;\n    OwnableUpgradeSafe.__Ownable_init();\n  }\n\n  function supportsInterface(bytes4 interfaceID) external pure returns (bool) {\n    return\n      // bytes4(keccak256('supportsInterface(bytes4)')) == 0x01ffc9a7\n      interfaceID == 0x01ffc9a7 || // ERC165\n\n      /*\n        *   bytes4(keccak256('tokenURIIntegrity(uint256)')) == 0x49846680\n        *   bytes4(keccak256('tokenURISchemaIntegrity(uint256)')) == 0xcaae188e\n        *\n        *   => 0x49846680 ^ 0xcaae188e == 0x832a7e0e\n        */\n      interfaceID == 0x832a7e0e;   // ERC2477\n  }\n\n  /**\n   * @dev Creates a registryRecord of an artwork\n   * @param isPrimaryIssuer boolean whether the user is a primary issuer\n   * @param artistAddress address of the artist contract\n   * @param metadataDigest bytes32 of metadata hash\n   * @param sig signature\n   * @return uint256 tokenId\n   */\n  function createSRR(\n    bool isPrimaryIssuer,\n    address artistAddress,\n    bytes32 metadataDigest,\n    Signature.Sig memory sig\n  ) public override validSender(sig) onlyOwner returns (uint256) {\n    _createSRR(isPrimaryIssuer, artistAddress, metadataDigest, sig.sender);\n  }\n\n  /**\n   * @dev Creates a registryRecord of an artwork from LicensedUserLogic contract\n   * @param isPrimaryIssuer address of the issuer user contract\n   * @param artistAddress address of the artist contract\n   * @param metadataDigest bytes32 of metadata hash\n   * @return uint256 tokenId\n   */\n  function createSRRFromLicensedUser(\n    bool isPrimaryIssuer,\n    address artistAddress,\n    bytes32 metadataDigest\n  ) public override onlyLicensedUser returns (uint256) {\n    return\n      _createSRR(isPrimaryIssuer, artistAddress, metadataDigest, msg.sender);\n  }\n\n  function createSRRFromBulk(\n    bool isPrimaryIssuer,\n    address artistAddress,\n    bytes32 metadataDigest,\n    address issuerAddress\n  ) public override onlyBulk returns (uint256) {\n    return\n      _createSRR(isPrimaryIssuer, artistAddress, metadataDigest, issuerAddress);\n  }\n\n  /**\n   * @dev Updates the registryRecord\n   * @param tokenId uint256 of StartrailRegistryRecordID\n   * @param isPrimaryIssuer boolean whether the user is a primary issuer\n   * @return uint256 tokenId\n   */\n  function updateSRRFromLicensedUser(\n    uint256 tokenId,\n    bool isPrimaryIssuer,\n    address artistAddress\n  ) public override onlyLicensedUser tokenExists(tokenId) returns (uint256) {\n    _addressStorage[tokenId][_SRR][_ARTIST_ADDRESS] = artistAddress;\n    require(_saveSRR(tokenId, isPrimaryIssuer), \"fail to updateSRR\");\n    emit UpdateSRR(tokenId, SRR(isPrimaryIssuer, artistAddress, msg.sender));\n    return tokenId;\n  }\n\n  /**\n   * @dev Updates the SRR metadata\n   * @param tokenId uint256 of StartrailRegistryRecordID\n   * @param metadataDigest bytes32 of the metadata hash\n   */\n  function updateSRRMetadata(uint256 tokenId, bytes32 metadataDigest)\n    external\n    override\n    onlyLicensedUser\n    tokenExists(tokenId)\n  {\n    _bytes32Storage[tokenId][_SRR][_METADATA_DIGEST] = metadataDigest;\n    emit UpdateSRRMetadataDigest(tokenId, metadataDigest);\n  }\n\n  /**\n   * @dev Approves the given commitment hash to transfer the SRR\n   * @param tokenId uint256 ID of the SRR\n   * @param commitment bytes32 of the commitment hash\n   * @param historyMetadataDigest string of the history metadata digest\n   */\n  function approveSRRByCommitment(\n    uint256 tokenId,\n    bytes32 commitment,\n    string memory historyMetadataDigest\n  ) public override onlySRROwner(tokenId) tokenExists(tokenId) {\n    address owner = getSRROwner(tokenId);\n    _bytes32Storage[tokenId][_SRR][_COMMITMENT] = commitment;\n    _stringStorage[tokenId][_HISTORY][_METADATA_DIGEST] = historyMetadataDigest;\n    emit SRRCommitment(owner, commitment, tokenId);\n  }\n\n  /**\n   * @dev Cancels the current commitment of a given SRR\n   * @param tokenId uint256 ID of the SRR\n   */\n  function cancelSRRCommitment(uint256 tokenId)\n    public \n    override\n    onlySRROwner(tokenId)\n    tokenExists(tokenId)\n  {\n    _clearSRRCommitment(tokenId);\n    emit SRRCommitmentCancelled(tokenId);\n  }\n\n  /**\n   * @dev Transfers the ownership of a given SRR ID to another address.\n   * @param to address to receive the ownership\n   * @param reveal bytes32 of the reveal hash value to restore the commitment value\n   * @param tokenId uint256 ID of the SRR to be transferred\n   */\n  function transferSRRByReveal(\n    address to,\n    bytes32 reveal,\n    uint256 tokenId\n  ) public override tokenExists(tokenId) {\n    bytes32 commitment = keccak256(abi.encodePacked(reveal));\n    require(\n      commitment == getSRRCommitment(tokenId),\n      \"Hash of reveal doesn't match\"\n    );\n\n    address from = getSRROwner(tokenId);\n    _historyProvenance(\n      tokenId,\n      from,\n      to,\n      _stringStorage[tokenId][_HISTORY][_METADATA_DIGEST]\n    );\n    _clearSRRCommitment(tokenId);\n    _startrailRegistry().transferSRRFrom(from, to, tokenId);\n  }\n\n  /**\n   * @dev Sets the addresses of the reference\n   * @param nameRegistry address of the NameRegistry\n   */\n  function setNameRegistryAddress(address nameRegistry) public override onlyOwner {\n    _addressStorage[SRR_GLOBAL_SLOT][_NAME_REGISTRY][_NAME_REGISTRY] = nameRegistry;\n  }\n\n  /**\n   * @dev Sets the scheme URI digests of SRR metadata\n   * @param digest bytes32 of the scheme URI digests\n   */\n  function setTokenURISchemaIntegrityDigest(bytes32 digest) public override onlyAdmin {\n    _bytes32Storage[SRR_GLOBAL_SLOT][_SRR][_SCHEMA_URI_DIGEST] = digest;\n  }\n\n  /**\n   * @dev Sets the URI info of the scheme where SRR metadata is saved\n   * @param URIPrefix string of the URI prefix of the scheme\n   * @param URIPostfix string of the URI postfix of the scheme\n   */\n  function setTokenURIParts(string memory URIPrefix, string memory URIPostfix)\n    public\n    override\n    onlyAdmin\n  {\n    _stringStorage[SRR_GLOBAL_SLOT][_SRR][_URI_PREFIX] = URIPrefix;\n    _stringStorage[SRR_GLOBAL_SLOT][_SRR][_URI_POSTFIX] = URIPostfix;\n  }\n\n  /**\n   * @dev Gets the registryRecord related with the tokenId\n   * @param tokenId uint256 ID of StartrailRegistry\n   * @return registryRecord dataset / metadataDigest\n   */\n  function getSRR(uint256 tokenId)\n    public\n    override\n    view\n    tokenExists(tokenId)\n    returns (SRR memory registryRecord, bytes32 metadataDigest)\n  {\n    registryRecord\n      .isPrimaryIssuer = _boolStorage[tokenId][_SRR][_IS_PRIMARY_ISSUER];\n    registryRecord\n      .artistAddress = _addressStorage[tokenId][_SRR][_ARTIST_ADDRESS];\n    registryRecord.issuer = _addressStorage[tokenId][_SRR][_ISSUER];\n    metadataDigest = _bytes32Storage[tokenId][_SRR][_METADATA_DIGEST];\n  }\n\n  /**\n   * @dev Gets the current owner address given the token ID\n   * @param tokenId uint256 ID of StartrailRegistry\n   * @return owner address\n   */\n  function getSRROwner(uint256 tokenId) public override view returns (address) {\n    return _startrailRegistry().getSRROwner(tokenId);\n  }\n\n  /**\n   * @dev Gets the given commitment hash to transfer the SRR\n   * @param tokenId uint256 ID of StartrailRegistry\n   * @return commitment hash\n   */\n  function getSRRCommitment(uint256 tokenId)\n    public\n    override\n    view\n    tokenExists(tokenId)\n    returns (bytes32)\n  {\n    return _bytes32Storage[tokenId][_SRR][_COMMITMENT];\n  }\n\n  /**\n   * @dev Gets the endpoint address of StartrailRegistry\n   * @return StartrailRegistry proxy address\n   */\n  function getStartrailRegistryAddress()\n    public\n    override\n    view\n    returns (address)\n  {\n    return _nameRegistry().get(STARTRAIL_REGISTRY);\n  }\n\n  /**\n   * @dev Gets the endpoint address of LicensedUserWalletFactory\n   * @return LicensedUserWalletFactory proxy address\n   */\n  function getLicensedUserWalletFactoryAddress()\n    public\n    override\n    view\n    returns (address)\n  {\n    return _nameRegistry().get(LICENSED_USER_WALLET_FACTORY);\n  }\n\n  /**\n   * @dev Gets the endpoint address of NameRegistry\n   * @return NameRegistry proxy address\n   */\n  function getNameRegistryAddress() public override view returns (address) {\n    return\n      _addressStorage[SRR_GLOBAL_SLOT][_NAME_REGISTRY][_NAME_REGISTRY];\n  }\n\n  /**\n   * @dev Gets the scheme digests and hash\n   * @param tokenId uint256 ID of StartrailRegistry\n   */\n  function tokenURISchemaIntegrity(uint256 tokenId)\n    external\n    override(IRootLogic, ERC2477)\n    view\n    tokenExists(tokenId)\n    returns (bytes memory digest, string memory hashAlgorithm)\n  {\n    require(\n      _addressStorage[tokenId][_SRR][_IS_PRIMARY_ISSUER] != address(0),\n      \"the tokenId does not exist\"\n    );\n    digest = abi.encodePacked(\n      _bytes32Storage[SRR_GLOBAL_SLOT][_SRR][_SCHEMA_URI_DIGEST]\n    );\n    hashAlgorithm = HASH_ALGORITHM;\n  }\n\n  /**\n   * @dev Gets the metadata digests of SRR and hash\n   * @param tokenId uint256 ID of StartrailRegistry\n   */\n  function tokenURIIntegrity(uint256 tokenId)\n    external\n    override(IRootLogic, ERC2477)\n    view\n    tokenExists(tokenId)\n    returns (bytes memory digest, string memory hashAlgorithm)\n  {\n    digest = abi.encodePacked(_bytes32Storage[tokenId][_SRR][_METADATA_DIGEST]);\n    hashAlgorithm = HASH_ALGORITHM;\n  }\n\n  /**\n   * @dev Gets URI where the matadata is saved\n   * @param metadataDigests string of metadata digests\n   * @return URI\n   */\n  function tokenURI(string memory metadataDigests)\n    public\n    override\n    view\n    returns (string memory)\n  {\n    return\n      string(\n        abi.encodePacked(\n          _stringStorage[SRR_GLOBAL_SLOT][_SRR][_URI_PREFIX],\n          metadataDigests,\n          _stringStorage[SRR_GLOBAL_SLOT][_SRR][_URI_POSTFIX]\n        )\n      );\n  }\n\n  /**\n   * @dev Gets metadata digests\n   * @param tokenId uint256 of StartrailRegistryRecordID\n   * @return history metadata digest\n   */\n  function getHistoryMetadataDigest(uint256 tokenId)\n    public\n    override\n    view\n    tokenExists(tokenId)\n    returns (string memory)\n  {\n    return _stringStorage[tokenId][_HISTORY][_METADATA_DIGEST];\n  }\n\n  /*\n   * private functions\n   */\n\n  function _createSRR(\n    bool isPrimaryIssuer,\n    address artistAddress,\n    // address platformEOA, // scope out for Day1\n    bytes32 metadataDigest,\n    address sender\n  ) private returns (uint256) {\n    uint256 tokenId = _startrailRegistry().mint(sender);\n    //_addressStorage[tokenId][_SRR][_PLATFORM_EOA] = platformEOA;\n    _addressStorage[tokenId][_SRR][_ISSUER] = sender;\n    _addressStorage[tokenId][_SRR][_ARTIST_ADDRESS] = artistAddress;\n    _bytes32Storage[tokenId][_SRR][_METADATA_DIGEST] = metadataDigest;\n    require(\n      _saveSRR(tokenId, isPrimaryIssuer),\n      \"fail to save Startrail Registry Record\"\n    );\n    emit CreateSRR(\n      tokenId,\n      SRR(isPrimaryIssuer, artistAddress, sender),\n      metadataDigest\n    );\n    return tokenId;\n  }\n\n  /**\n   * @dev Saves the registryRecord\n   * @param tokenId uint256 of StartrailRegistryRecordID\n   * @param isPrimaryIssuer boolean whether the user is a primary issuer\n   * @return bool whether the process is successful\n   */\n  function _saveSRR(uint256 tokenId, bool isPrimaryIssuer)\n    private\n    returns (bool)\n  {\n    _boolStorage[tokenId][_SRR][_IS_PRIMARY_ISSUER] = isPrimaryIssuer;\n    return true;\n  }\n\n  function _isAdmin() private view returns (bool) {\n    if(!_nameRegistry().instantiation(msg.sender)) return false;\n    LicensedUserLogic logic = LicensedUserLogic(msg.sender);\n    return logic.getUserType() == UserType.ADMIN;\n  }\n\n  function _exists(uint256 tokenId) private view returns (bool) {\n    address owner = getSRROwner(tokenId);\n    return owner != address(0);\n  }\n\n  function _historyProvenance(\n    uint256 tokenId,\n    address from,\n    address to,\n    string memory historyMetadataDigest\n  ) private {\n    uint256 timestamp = block.timestamp;\n    string memory historyMetadataURI = tokenURI(historyMetadataDigest);\n    emit Provenance(\n      tokenId,\n      from,\n      to,\n      timestamp,\n      historyMetadataDigest,\n      historyMetadataURI\n    );\n  }\n\n  function _clearSRRCommitment(uint256 tokenId) private {\n    _bytes32Storage[tokenId][_SRR][_COMMITMENT] = \"\";\n    _stringStorage[tokenId][_HISTORY][_METADATA_DIGEST] = \"\";\n  }\n\n  function _startrailRegistry() private view returns (IStartrailRegistry) {\n    address startrailRegistryAddress = _nameRegistry().get(STARTRAIL_REGISTRY);\n    IStartrailRegistry startrailRegistry = IStartrailRegistry(\n      startrailRegistryAddress\n    );\n    return startrailRegistry;\n  }\n\n  function _nameRegistry() private view returns (NameRegistry) {\n    return\n      NameRegistry(\n        _addressStorage[SRR_GLOBAL_SLOT][_NAME_REGISTRY][_NAME_REGISTRY]\n      );\n  }\n\n  // **************************\n  // scope out for Day1\n  // **************************\n\n  // /**\n  //  * @dev Updates the contract terms (others can be stored as metadata)\n  //  * @param tokenId uint256 of StartrailRegistryRecordID\n  //  * @param royaltyRate uint8 of the royalty rate\n  //  * @param royaltyRateDecimals uint8 of the royalty rate decimals\n  //  */\n  // function updateContractTerms(\n  //   uint256 tokenId,\n  //   uint8 royaltyRate,\n  //   uint8 royaltyRateDecimals\n  // ) external onlyPrimaryIssuer(tokenId) {\n  //   _uint8Storage[tokenId][_SRR][_ROYALTY_RATE] = royaltyRate;\n  //   _uint8Storage[tokenId][_SRR][_ROYALTY_RATE_DECIMALS] = royaltyRateDecimals;\n  //   emit UpdateContractTerms(tokenId, royaltyRate, royaltyRateDecimals);\n  // }\n}\n",
  "sourcePath": "/root/rinkeby/startrail/app/rootLogic/contracts/RootLogic.sol",
  "compiler": {
    "name": "solc",
    "version": "0.6.11+commit.5ef660b1.Emscripten.clang"
  },
  "schemaVersion": "3.0.23",
  "updatedAt": "2020-08-23T04:54:05.966Z",
  "networkType": "ethereum",
  "devdoc": {
    "kind": "dev",
    "methods": {
      "approveSRRByCommitment(uint256,bytes32,string)": {
        "details": "Approves the given commitment hash to transfer the SRR",
        "params": {
          "commitment": "bytes32 of the commitment hash",
          "historyMetadataDigest": "string of the history metadata digest",
          "tokenId": "uint256 ID of the SRR"
        }
      },
      "cancelSRRCommitment(uint256)": {
        "details": "Cancels the current commitment of a given SRR",
        "params": {
          "tokenId": "uint256 ID of the SRR"
        }
      },
      "createSRR(bool,address,bytes32,(bytes32,uint8,bytes32,bytes32,address))": {
        "details": "Creates a registryRecord of an artwork",
        "params": {
          "artistAddress": "address of the artist contract",
          "isPrimaryIssuer": "boolean whether the user is a primary issuer",
          "metadataDigest": "bytes32 of metadata hash",
          "sig": "signature"
        },
        "returns": {
          "_0": "uint256 tokenId"
        }
      },
      "createSRRFromLicensedUser(bool,address,bytes32)": {
        "details": "Creates a registryRecord of an artwork from LicensedUserLogic contract",
        "params": {
          "artistAddress": "address of the artist contract",
          "isPrimaryIssuer": "address of the issuer user contract",
          "metadataDigest": "bytes32 of metadata hash"
        },
        "returns": {
          "_0": "uint256 tokenId"
        }
      },
      "getHistoryMetadataDigest(uint256)": {
        "details": "Gets metadata digests",
        "params": {
          "tokenId": "uint256 of StartrailRegistryRecordID"
        },
        "returns": {
          "_0": "history metadata digest"
        }
      },
      "getLicensedUserWalletFactoryAddress()": {
        "details": "Gets the endpoint address of LicensedUserWalletFactory",
        "returns": {
          "_0": "LicensedUserWalletFactory proxy address"
        }
      },
      "getNameRegistryAddress()": {
        "details": "Gets the endpoint address of NameRegistry",
        "returns": {
          "_0": "NameRegistry proxy address"
        }
      },
      "getSRR(uint256)": {
        "details": "Gets the registryRecord related with the tokenId",
        "params": {
          "tokenId": "uint256 ID of StartrailRegistry"
        },
        "returns": {
          "registryRecord": "dataset / metadataDigest"
        }
      },
      "getSRRCommitment(uint256)": {
        "details": "Gets the given commitment hash to transfer the SRR",
        "params": {
          "tokenId": "uint256 ID of StartrailRegistry"
        },
        "returns": {
          "_0": "commitment hash"
        }
      },
      "getSRROwner(uint256)": {
        "details": "Gets the current owner address given the token ID",
        "params": {
          "tokenId": "uint256 ID of StartrailRegistry"
        },
        "returns": {
          "_0": "owner address"
        }
      },
      "getStartrailRegistryAddress()": {
        "details": "Gets the endpoint address of StartrailRegistry",
        "returns": {
          "_0": "StartrailRegistry proxy address"
        }
      },
      "initialize(address,string,string,bytes32)": {
        "details": "Initializes the address of the StartrailRegistry contract",
        "params": {
          "URIPostfix": "string of the URI postfix of the scheme",
          "URIPrefix": "string of the URI prefix of the scheme where SRR metadata is saved",
          "nameRegistry": "address of the NameRegistry",
          "schemaURIIntegrityDigest": "bytes32 of the URI digest of the scheme"
        }
      },
      "owner()": {
        "details": "Returns the address of the current owner."
      },
      "renounceOwnership()": {
        "details": "Leaves the contract without owner. It will not be possible to call `onlyOwner` functions anymore. Can only be called by the current owner. NOTE: Renouncing ownership will leave the contract without an owner, thereby removing any functionality that is only available to the owner."
      },
      "setNameRegistryAddress(address)": {
        "details": "Sets the addresses of the reference",
        "params": {
          "nameRegistry": "address of the NameRegistry"
        }
      },
      "setTokenURIParts(string,string)": {
        "details": "Sets the URI info of the scheme where SRR metadata is saved",
        "params": {
          "URIPostfix": "string of the URI postfix of the scheme",
          "URIPrefix": "string of the URI prefix of the scheme"
        }
      },
      "setTokenURISchemaIntegrityDigest(bytes32)": {
        "details": "Sets the scheme URI digests of SRR metadata",
        "params": {
          "digest": "bytes32 of the scheme URI digests"
        }
      },
      "tokenURI(string)": {
        "details": "Gets URI where the matadata is saved",
        "params": {
          "metadataDigests": "string of metadata digests"
        },
        "returns": {
          "_0": "URI"
        }
      },
      "tokenURIIntegrity(uint256)": {
        "details": "Gets the metadata digests of SRR and hash",
        "params": {
          "tokenId": "uint256 ID of StartrailRegistry"
        }
      },
      "tokenURISchemaIntegrity(uint256)": {
        "details": "Gets the scheme digests and hash",
        "params": {
          "tokenId": "uint256 ID of StartrailRegistry"
        }
      },
      "transferOwnership(address)": {
        "details": "Transfers ownership of the contract to a new account (`newOwner`). Can only be called by the current owner."
      },
      "transferSRRByReveal(address,bytes32,uint256)": {
        "details": "Transfers the ownership of a given SRR ID to another address.",
        "params": {
          "reveal": "bytes32 of the reveal hash value to restore the commitment value",
          "to": "address to receive the ownership",
          "tokenId": "uint256 ID of the SRR to be transferred"
        }
      },
      "updateSRRFromLicensedUser(uint256,bool,address)": {
        "details": "Updates the registryRecord",
        "params": {
          "isPrimaryIssuer": "boolean whether the user is a primary issuer",
          "tokenId": "uint256 of StartrailRegistryRecordID"
        },
        "returns": {
          "_0": "uint256 tokenId"
        }
      },
      "updateSRRMetadata(uint256,bytes32)": {
        "details": "Updates the SRR metadata",
        "params": {
          "metadataDigest": "bytes32 of the metadata hash",
          "tokenId": "uint256 of StartrailRegistryRecordID"
        }
      }
    },
    "version": 1
  },
  "userdoc": {
    "kind": "user",
    "methods": {},
    "version": 1
  }
}