{
  "contractName": "StartrailRegistry",
  "abi": [
    {
      "anonymous": false,
      "inputs": [
        {
          "indexed": true,
          "internalType": "address",
          "name": "owner",
          "type": "address"
        },
        {
          "indexed": true,
          "internalType": "address",
          "name": "approved",
          "type": "address"
        },
        {
          "indexed": true,
          "internalType": "uint256",
          "name": "tokenId",
          "type": "uint256"
        }
      ],
      "name": "Approval",
      "type": "event"
    },
    {
      "anonymous": false,
      "inputs": [
        {
          "indexed": true,
          "internalType": "address",
          "name": "owner",
          "type": "address"
        },
        {
          "indexed": true,
          "internalType": "address",
          "name": "operator",
          "type": "address"
        },
        {
          "indexed": false,
          "internalType": "bool",
          "name": "approved",
          "type": "bool"
        }
      ],
      "name": "ApprovalForAll",
      "type": "event"
    },
    {
      "anonymous": false,
      "inputs": [
        {
          "indexed": true,
          "internalType": "address",
          "name": "previousOwner",
          "type": "address"
        },
        {
          "indexed": true,
          "internalType": "address",
          "name": "newOwner",
          "type": "address"
        }
      ],
      "name": "OwnershipTransferred",
      "type": "event"
    },
    {
      "anonymous": false,
      "inputs": [
        {
          "indexed": true,
          "internalType": "address",
          "name": "from",
          "type": "address"
        },
        {
          "indexed": true,
          "internalType": "address",
          "name": "to",
          "type": "address"
        },
        {
          "indexed": true,
          "internalType": "uint256",
          "name": "tokenId",
          "type": "uint256"
        }
      ],
      "name": "Transfer",
      "type": "event"
    },
    {
      "inputs": [],
      "name": "ADMIN_PROXY",
      "outputs": [
        {
          "internalType": "string",
          "name": "",
          "type": "string"
        }
      ],
      "stateMutability": "view",
      "type": "function",
      "constant": true
    },
    {
      "inputs": [],
      "name": "BULK_ISSUE",
      "outputs": [
        {
          "internalType": "string",
          "name": "",
          "type": "string"
        }
      ],
      "stateMutability": "view",
      "type": "function",
      "constant": true
    },
    {
      "inputs": [],
      "name": "LICENSED_USER_EVENT",
      "outputs": [
        {
          "internalType": "string",
          "name": "",
          "type": "string"
        }
      ],
      "stateMutability": "view",
      "type": "function",
      "constant": true
    },
    {
      "inputs": [],
      "name": "LICENSED_USER_LOGIC",
      "outputs": [
        {
          "internalType": "string",
          "name": "",
          "type": "string"
        }
      ],
      "stateMutability": "view",
      "type": "function",
      "constant": true
    },
    {
      "inputs": [],
      "name": "LICENSED_USER_WALLET_FACTORY",
      "outputs": [
        {
          "internalType": "string",
          "name": "",
          "type": "string"
        }
      ],
      "stateMutability": "view",
      "type": "function",
      "constant": true
    },
    {
      "inputs": [],
      "name": "ROOT_LOGIC",
      "outputs": [
        {
          "internalType": "string",
          "name": "",
          "type": "string"
        }
      ],
      "stateMutability": "view",
      "type": "function",
      "constant": true
    },
    {
      "inputs": [],
      "name": "STARTRAIL_REGISTRY",
      "outputs": [
        {
          "internalType": "string",
          "name": "",
          "type": "string"
        }
      ],
      "stateMutability": "view",
      "type": "function",
      "constant": true
    },
    {
      "inputs": [
        {
          "internalType": "address",
          "name": "to",
          "type": "address"
        },
        {
          "internalType": "uint256",
          "name": "tokenId",
          "type": "uint256"
        }
      ],
      "name": "approve",
      "outputs": [],
      "stateMutability": "nonpayable",
      "type": "function"
    },
    {
      "inputs": [
        {
          "internalType": "address",
          "name": "owner",
          "type": "address"
        }
      ],
      "name": "balanceOf",
      "outputs": [
        {
          "internalType": "uint256",
          "name": "",
          "type": "uint256"
        }
      ],
      "stateMutability": "view",
      "type": "function",
      "constant": true
    },
    {
      "inputs": [],
      "name": "baseURI",
      "outputs": [
        {
          "internalType": "string",
          "name": "",
          "type": "string"
        }
      ],
      "stateMutability": "view",
      "type": "function",
      "constant": true
    },
    {
      "inputs": [
        {
          "internalType": "uint256",
          "name": "tokenId",
          "type": "uint256"
        }
      ],
      "name": "getApproved",
      "outputs": [
        {
          "internalType": "address",
          "name": "",
          "type": "address"
        }
      ],
      "stateMutability": "view",
      "type": "function",
      "constant": true
    },
    {
      "inputs": [
        {
          "internalType": "address",
          "name": "owner",
          "type": "address"
        },
        {
          "internalType": "address",
          "name": "operator",
          "type": "address"
        }
      ],
      "name": "isApprovedForAll",
      "outputs": [
        {
          "internalType": "bool",
          "name": "",
          "type": "bool"
        }
      ],
      "stateMutability": "view",
      "type": "function",
      "constant": true
    },
    {
      "inputs": [],
      "name": "name",
      "outputs": [
        {
          "internalType": "string",
          "name": "",
          "type": "string"
        }
      ],
      "stateMutability": "view",
      "type": "function",
      "constant": true
    },
    {
      "inputs": [],
      "name": "owner",
      "outputs": [
        {
          "internalType": "address",
          "name": "",
          "type": "address"
        }
      ],
      "stateMutability": "view",
      "type": "function",
      "constant": true
    },
    {
      "inputs": [
        {
          "internalType": "uint256",
          "name": "tokenId",
          "type": "uint256"
        }
      ],
      "name": "ownerOf",
      "outputs": [
        {
          "internalType": "address",
          "name": "",
          "type": "address"
        }
      ],
      "stateMutability": "view",
      "type": "function",
      "constant": true
    },
    {
      "inputs": [],
      "name": "renounceOwnership",
      "outputs": [],
      "stateMutability": "nonpayable",
      "type": "function"
    },
    {
      "inputs": [
        {
          "internalType": "address",
          "name": "from",
          "type": "address"
        },
        {
          "internalType": "address",
          "name": "to",
          "type": "address"
        },
        {
          "internalType": "uint256",
          "name": "tokenId",
          "type": "uint256"
        }
      ],
      "name": "safeTransferFrom",
      "outputs": [],
      "stateMutability": "nonpayable",
      "type": "function"
    },
    {
      "inputs": [
        {
          "internalType": "address",
          "name": "from",
          "type": "address"
        },
        {
          "internalType": "address",
          "name": "to",
          "type": "address"
        },
        {
          "internalType": "uint256",
          "name": "tokenId",
          "type": "uint256"
        },
        {
          "internalType": "bytes",
          "name": "_data",
          "type": "bytes"
        }
      ],
      "name": "safeTransferFrom",
      "outputs": [],
      "stateMutability": "nonpayable",
      "type": "function"
    },
    {
      "inputs": [
        {
          "internalType": "address",
          "name": "operator",
          "type": "address"
        },
        {
          "internalType": "bool",
          "name": "approved",
          "type": "bool"
        }
      ],
      "name": "setApprovalForAll",
      "outputs": [],
      "stateMutability": "nonpayable",
      "type": "function"
    },
    {
      "inputs": [
        {
          "internalType": "bytes4",
          "name": "interfaceId",
          "type": "bytes4"
        }
      ],
      "name": "supportsInterface",
      "outputs": [
        {
          "internalType": "bool",
          "name": "",
          "type": "bool"
        }
      ],
      "stateMutability": "view",
      "type": "function",
      "constant": true
    },
    {
      "inputs": [],
      "name": "symbol",
      "outputs": [
        {
          "internalType": "string",
          "name": "",
          "type": "string"
        }
      ],
      "stateMutability": "view",
      "type": "function",
      "constant": true
    },
    {
      "inputs": [
        {
          "internalType": "uint256",
          "name": "index",
          "type": "uint256"
        }
      ],
      "name": "tokenByIndex",
      "outputs": [
        {
          "internalType": "uint256",
          "name": "",
          "type": "uint256"
        }
      ],
      "stateMutability": "view",
      "type": "function",
      "constant": true
    },
    {
      "inputs": [
        {
          "internalType": "address",
          "name": "owner",
          "type": "address"
        },
        {
          "internalType": "uint256",
          "name": "index",
          "type": "uint256"
        }
      ],
      "name": "tokenOfOwnerByIndex",
      "outputs": [
        {
          "internalType": "uint256",
          "name": "",
          "type": "uint256"
        }
      ],
      "stateMutability": "view",
      "type": "function",
      "constant": true
    },
    {
      "inputs": [
        {
          "internalType": "uint256",
          "name": "tokenId",
          "type": "uint256"
        }
      ],
      "name": "tokenURI",
      "outputs": [
        {
          "internalType": "string",
          "name": "",
          "type": "string"
        }
      ],
      "stateMutability": "view",
      "type": "function",
      "constant": true
    },
    {
      "inputs": [],
      "name": "totalSupply",
      "outputs": [
        {
          "internalType": "uint256",
          "name": "",
          "type": "uint256"
        }
      ],
      "stateMutability": "view",
      "type": "function",
      "constant": true
    },
    {
      "inputs": [
        {
          "internalType": "address",
          "name": "from",
          "type": "address"
        },
        {
          "internalType": "address",
          "name": "to",
          "type": "address"
        },
        {
          "internalType": "uint256",
          "name": "tokenId",
          "type": "uint256"
        }
      ],
      "name": "transferFrom",
      "outputs": [],
      "stateMutability": "nonpayable",
      "type": "function"
    },
    {
      "inputs": [
        {
          "internalType": "address",
          "name": "newOwner",
          "type": "address"
        }
      ],
      "name": "transferOwnership",
      "outputs": [],
      "stateMutability": "nonpayable",
      "type": "function"
    },
    {
      "inputs": [],
      "name": "getMsgSender",
      "outputs": [
        {
          "internalType": "address",
          "name": "",
          "type": "address"
        }
      ],
      "stateMutability": "view",
      "type": "function",
      "constant": true
    },
    {
      "inputs": [
        {
          "internalType": "string",
          "name": "name",
          "type": "string"
        },
        {
          "internalType": "string",
          "name": "symbol",
          "type": "string"
        },
        {
          "internalType": "address",
          "name": "nameRegistry",
          "type": "address"
        }
      ],
      "name": "initialize",
      "outputs": [],
      "stateMutability": "nonpayable",
      "type": "function"
    },
    {
      "inputs": [
        {
          "internalType": "address",
          "name": "sender",
          "type": "address"
        }
      ],
      "name": "mint",
      "outputs": [
        {
          "internalType": "uint256",
          "name": "",
          "type": "uint256"
        }
      ],
      "stateMutability": "nonpayable",
      "type": "function"
    },
    {
      "inputs": [
        {
          "internalType": "address",
          "name": "from",
          "type": "address"
        },
        {
          "internalType": "address",
          "name": "to",
          "type": "address"
        },
        {
          "internalType": "uint256",
          "name": "tokenId",
          "type": "uint256"
        }
      ],
      "name": "transferSRRFrom",
      "outputs": [],
      "stateMutability": "nonpayable",
      "type": "function"
    },
    {
      "inputs": [
        {
          "internalType": "address",
          "name": "nameRegistry",
          "type": "address"
        }
      ],
      "name": "setNameRegistry",
      "outputs": [],
      "stateMutability": "nonpayable",
      "type": "function"
    },
    {
      "inputs": [],
      "name": "getRootLogicAddress",
      "outputs": [
        {
          "internalType": "address",
          "name": "",
          "type": "address"
        }
      ],
      "stateMutability": "view",
      "type": "function",
      "constant": true
    },
    {
      "inputs": [],
      "name": "getNameRegistryAddress",
      "outputs": [
        {
          "internalType": "address",
          "name": "",
          "type": "address"
        }
      ],
      "stateMutability": "view",
      "type": "function",
      "constant": true
    },
    {
      "inputs": [
        {
          "internalType": "uint256",
          "name": "tokenId",
          "type": "uint256"
        }
      ],
      "name": "getSRROwner",
      "outputs": [
        {
          "internalType": "address",
          "name": "",
          "type": "address"
        }
      ],
      "stateMutability": "view",
      "type": "function",
      "constant": true
    },
    {
      "inputs": [],
      "name": "getIdNonce",
      "outputs": [
        {
          "internalType": "uint256",
          "name": "",
          "type": "uint256"
        }
      ],
      "stateMutability": "view",
      "type": "function",
      "constant": true
    }
  ],
  "bytecode": "0x608060405234801561001057600080fd5b50614615806100206000396000f3fe608060405234801561001057600080fd5b506004361061021c5760003560e01c8063616412f8116101255780638da5cb5b116100ad578063c87b56dd1161007c578063c87b56dd14610631578063ddb8e35014610661578063e36a35091461067d578063e985e9c51461069b578063f2fde38b146106cb5761021c565b80638da5cb5b146105bd57806395d89b41146105db578063a22cb465146105f9578063b88d4fde146106155761021c565b80636c0360eb116100f45780636c0360eb146105295780636d3cb6921461054757806370a0823114610565578063715018a6146105955780637a6ce2e11461059f5761021c565b8063616412f81461048d57806362b9bdc2146104ab5780636352211e146104c95780636a627842146104f95761021c565b80631c21bab0116101a8578063338023e911610177578063338023e9146103d557806342842e0e146103f35780634f6ccce71461040f578063566d68961461043f5780635f9154231461045d5761021c565b80631c21bab01461034d57806323b872dd1461036b5780632f745c5914610387578063326f5948146103b75761021c565b8063095ea7b3116101ef578063095ea7b3146102bb57806309f271b0146102d75780630bdd4f50146102f5578063109a037a1461031357806318160ddd1461032f5761021c565b806301ffc9a71461022157806306fdde0314610251578063077f224a1461026f578063081812fc1461028b575b600080fd5b61023b60048036038101906102369190613574565b6106e7565b6040516102489190614086565b60405180910390f35b61025961074f565b60405161026691906140a1565b60405180910390f35b610289600480360381019061028491906135c6565b6107f1565b005b6102a560048036038101906102a09190613645565b610938565b6040516102b2919061401f565b60405180910390f35b6102d560048036038101906102d09190613538565b6109bd565b005b6102df610ad5565b6040516102ec91906140a1565b60405180910390f35b6102fd610b0e565b60405161030a919061401f565b60405180910390f35b61032d60048036038101906103289190613432565b610b1d565b005b610337610c68565b604051610344919061437e565b60405180910390f35b610355610c79565b60405161036291906140a1565b60405180910390f35b61038560048036038101906103809190613432565b610cb2565b005b6103a1600480360381019061039c9190613538565b610d12565b6040516103ae919061437e565b60405180910390f35b6103bf610d6d565b6040516103cc91906140a1565b60405180910390f35b6103dd610da6565b6040516103ea91906140a1565b60405180910390f35b61040d60048036038101906104089190613432565b610ddf565b005b61042960048036038101906104249190613645565b610dff565b604051610436919061437e565b60405180910390f35b610447610e22565b60405161045491906140a1565b60405180910390f35b61047760048036038101906104729190613645565b610e5b565b604051610484919061401f565b60405180910390f35b610495610e6d565b6040516104a291906140a1565b60405180910390f35b6104b3610ea6565b6040516104c0919061401f565b60405180910390f35b6104e360048036038101906104de9190613645565b610ed0565b6040516104f0919061401f565b60405180910390f35b610513600480360381019061050e91906133a4565b610f07565b604051610520919061437e565b60405180910390f35b61053161103f565b60405161053e91906140a1565b60405180910390f35b61054f6110e1565b60405161055c91906140a1565b60405180910390f35b61057f600480360381019061057a91906133a4565b61111a565b60405161058c919061437e565b60405180910390f35b61059d6111d9565b005b6105a7611331565b6040516105b4919061401f565b60405180910390f35b6105c5611340565b6040516105d2919061401f565b60405180910390f35b6105e361136a565b6040516105f091906140a1565b60405180910390f35b610613600480360381019061060e91906134fc565b61140c565b005b61062f600480360381019061062a9190613481565b61158d565b005b61064b60048036038101906106469190613645565b6115ef565b60405161065891906140a1565b60405180910390f35b61067b600480360381019061067691906133a4565b61177a565b005b610685611855565b604051610692919061437e565b60405180910390f35b6106b560048036038101906106b091906133f6565b61185f565b6040516106c29190614086565b60405180910390f35b6106e560048036038101906106e091906133a4565b6118f3565b005b600060976000837bffffffffffffffffffffffffffffffffffffffffffffffffffffffff19167bffffffffffffffffffffffffffffffffffffffffffffffffffffffff1916815260200190815260200160002060009054906101000a900460ff169050919050565b606060ce8054600181600116156101000203166002900480601f0160208091040260200160405190810160405280929190818152602001828054600181600116156101000203166002900480156107e75780601f106107bc576101008083540402835291602001916107e7565b820191906000526020600020905b8154815290600101906020018083116107ca57829003601f168201915b5050505050905090565b600060019054906101000a900460ff1680610810575061080f611aba565b5b8061082757506000809054906101000a900460ff16155b610866576040517f08c379a000000000000000000000000000000000000000000000000000000000815260040161085d90614283565b60405180910390fd5b60008060019054906101000a900460ff1615905080156108b6576001600060016101000a81548160ff02191690831515021790555060016000806101000a81548160ff0219169083151502179055505b8160fc60006101000a81548173ffffffffffffffffffffffffffffffffffffffff021916908373ffffffffffffffffffffffffffffffffffffffff160217905550600160fb819055506109098484611ad1565b610911611bd6565b80156109325760008060016101000a81548160ff0219169083151502179055505b50505050565b600061094382611ccf565b610982576040517f08c379a000000000000000000000000000000000000000000000000000000000815260040161097990614243565b60405180910390fd5b60cc600083815260200190815260200160002060009054906101000a900473ffffffffffffffffffffffffffffffffffffffff169050919050565b60006109c882610ed0565b90508073ffffffffffffffffffffffffffffffffffffffff168373ffffffffffffffffffffffffffffffffffffffff161415610a39576040517f08c379a0000000000000000000000000000000000000000000000000000000008152600401610a30906142e3565b60405180910390fd5b8073ffffffffffffffffffffffffffffffffffffffff16610a58611cec565b73ffffffffffffffffffffffffffffffffffffffff161480610a875750610a8681610a81611cec565b61185f565b5b610ac6576040517f08c379a0000000000000000000000000000000000000000000000000000000008152600401610abd906141c3565b60405180910390fd5b610ad08383611cf4565b505050565b6040518060400160405280601281526020017f53544152545241494c5f5245474953545259000000000000000000000000000081525081565b6000610b18611dad565b905090565b610b25611dad565b8073ffffffffffffffffffffffffffffffffffffffff163373ffffffffffffffffffffffffffffffffffffffff1614610b93576040517f08c379a0000000000000000000000000000000000000000000000000000000008152600401610b8a90614343565b60405180910390fd5b610b9c82611ccf565b610bdb576040517f08c379a0000000000000000000000000000000000000000000000000000000008152600401610bd2906141a3565b60405180910390fd5b6000610be683610ed0565b90508073ffffffffffffffffffffffffffffffffffffffff168573ffffffffffffffffffffffffffffffffffffffff1614610c56576040517f08c379a0000000000000000000000000000000000000000000000000000000008152600401610c4d90614323565b60405180910390fd5b610c61858585611e7e565b5050505050565b6000610c7460ca612095565b905090565b6040518060400160405280601c81526020017f4c4943454e5345445f555345525f57414c4c45545f464143544f52590000000081525081565b610cc3610cbd611cec565b826120aa565b610d02576040517f08c379a0000000000000000000000000000000000000000000000000000000008152600401610cf990614303565b60405180910390fd5b610d0d838383611e7e565b505050565b6000610d658260c960008673ffffffffffffffffffffffffffffffffffffffff1673ffffffffffffffffffffffffffffffffffffffff16815260200190815260200160002061218890919063ffffffff16565b905092915050565b6040518060400160405280600b81526020017f41444d494e5f50524f585900000000000000000000000000000000000000000081525081565b6040518060400160405280600a81526020017f524f4f545f4c4f4749430000000000000000000000000000000000000000000081525081565b610dfa8383836040518060200160405280600081525061158d565b505050565b600080610e168360ca6121a290919063ffffffff16565b50905080915050919050565b6040518060400160405280601381526020017f4c4943454e5345445f555345525f4556454e540000000000000000000000000081525081565b6000610e6682610ed0565b9050919050565b6040518060400160405280600a81526020017f42554c4b5f49535355450000000000000000000000000000000000000000000081525081565b600060fc60009054906101000a900473ffffffffffffffffffffffffffffffffffffffff16905090565b6000610f00826040518060600160405280602981526020016145b76029913960ca6121d19092919063ffffffff16565b9050919050565b6000610f11611dad565b8073ffffffffffffffffffffffffffffffffffffffff163373ffffffffffffffffffffffffffffffffffffffff1614610f7f576040517f08c379a0000000000000000000000000000000000000000000000000000000008152600401610f7690614343565b60405180910390fd5b600160fb6000828254019250508190555060005b73__IDGenerator___________________________634a7dd52360fb546040518263ffffffff1660e01b8152600401610fcc9190614363565b60206040518083038186803b158015610fe457600080fd5b505af4158015610ff8573d6000803e3d6000fd5b505050506040513d601f19601f8201168201806040525081019061101c919061366e565b905061102781611ccf565b610f935761103584826121f0565b8092505050919050565b606060d18054600181600116156101000203166002900480601f0160208091040260200160405190810160405280929190818152602001828054600181600116156101000203166002900480156110d75780601f106110ac576101008083540402835291602001916110d7565b820191906000526020600020905b8154815290600101906020018083116110ba57829003601f168201915b5050505050905090565b6040518060400160405280601381526020017f4c4943454e5345445f555345525f4c4f4749430000000000000000000000000081525081565b60008073ffffffffffffffffffffffffffffffffffffffff168273ffffffffffffffffffffffffffffffffffffffff16141561118b576040517f08c379a0000000000000000000000000000000000000000000000000000000008152600401611182906141e3565b60405180910390fd5b6111d260c960008473ffffffffffffffffffffffffffffffffffffffff1673ffffffffffffffffffffffffffffffffffffffff16815260200190815260200160002061237e565b9050919050565b6111e1611cec565b73ffffffffffffffffffffffffffffffffffffffff16606560009054906101000a900473ffffffffffffffffffffffffffffffffffffffff1673ffffffffffffffffffffffffffffffffffffffff1614611270576040517f08c379a000000000000000000000000000000000000000000000000000000000815260040161126790614263565b60405180910390fd5b600073ffffffffffffffffffffffffffffffffffffffff16606560009054906101000a900473ffffffffffffffffffffffffffffffffffffffff1673ffffffffffffffffffffffffffffffffffffffff167f8be0079c531659141344cd1fd0a4f28419497f9722a3daafe3b4186f6b6457e060405160405180910390a36000606560006101000a81548173ffffffffffffffffffffffffffffffffffffffff021916908373ffffffffffffffffffffffffffffffffffffffff160217905550565b600061133b611cec565b905090565b6000606560009054906101000a900473ffffffffffffffffffffffffffffffffffffffff16905090565b606060cf8054600181600116156101000203166002900480601f0160208091040260200160405190810160405280929190818152602001828054600181600116156101000203166002900480156114025780601f106113d757610100808354040283529160200191611402565b820191906000526020600020905b8154815290600101906020018083116113e557829003601f168201915b5050505050905090565b611414611cec565b73ffffffffffffffffffffffffffffffffffffffff168273ffffffffffffffffffffffffffffffffffffffff161415611482576040517f08c379a000000000000000000000000000000000000000000000000000000000815260040161147990614183565b60405180910390fd5b8060cd600061148f611cec565b73ffffffffffffffffffffffffffffffffffffffff1673ffffffffffffffffffffffffffffffffffffffff16815260200190815260200160002060008473ffffffffffffffffffffffffffffffffffffffff1673ffffffffffffffffffffffffffffffffffffffff16815260200190815260200160002060006101000a81548160ff0219169083151502179055508173ffffffffffffffffffffffffffffffffffffffff1661153c611cec565b73ffffffffffffffffffffffffffffffffffffffff167f17307eab39ab6107e8899845ad3d59bd9653f200f220920489ca2b5937696c31836040516115819190614086565b60405180910390a35050565b61159e611598611cec565b836120aa565b6115dd576040517f08c379a00000000000000000000000000000000000000000000000000000000081526004016115d490614303565b60405180910390fd5b6115e984848484612393565b50505050565b60606115fa82611ccf565b611639576040517f08c379a0000000000000000000000000000000000000000000000000000000008152600401611630906142c3565b60405180910390fd5b606060d060008481526020019081526020016000208054600181600116156101000203166002900480601f0160208091040260200160405190810160405280929190818152602001828054600181600116156101000203166002900480156116e25780601f106116b7576101008083540402835291602001916116e2565b820191906000526020600020905b8154815290600101906020018083116116c557829003601f168201915b50505050509050600060d180546001816001161561010002031660029004905014156117115780915050611775565b6000815111156117465760d18160405160200161172f929190613ffb565b604051602081830303815290604052915050611775565b60d1611751846123ef565b604051602001611762929190613ffb565b6040516020818303038152906040529150505b919050565b611782611cec565b73ffffffffffffffffffffffffffffffffffffffff16606560009054906101000a900473ffffffffffffffffffffffffffffffffffffffff1673ffffffffffffffffffffffffffffffffffffffff1614611811576040517f08c379a000000000000000000000000000000000000000000000000000000000815260040161180890614263565b60405180910390fd5b8060fc60006101000a81548173ffffffffffffffffffffffffffffffffffffffff021916908373ffffffffffffffffffffffffffffffffffffffff16021790555050565b600060fb54905090565b600060cd60008473ffffffffffffffffffffffffffffffffffffffff1673ffffffffffffffffffffffffffffffffffffffff16815260200190815260200160002060008373ffffffffffffffffffffffffffffffffffffffff1673ffffffffffffffffffffffffffffffffffffffff16815260200190815260200160002060009054906101000a900460ff16905092915050565b6118fb611cec565b73ffffffffffffffffffffffffffffffffffffffff16606560009054906101000a900473ffffffffffffffffffffffffffffffffffffffff1673ffffffffffffffffffffffffffffffffffffffff161461198a576040517f08c379a000000000000000000000000000000000000000000000000000000000815260040161198190614263565b60405180910390fd5b600073ffffffffffffffffffffffffffffffffffffffff168173ffffffffffffffffffffffffffffffffffffffff1614156119fa576040517f08c379a00000000000000000000000000000000000000000000000000000000081526004016119f190614103565b60405180910390fd5b8073ffffffffffffffffffffffffffffffffffffffff16606560009054906101000a900473ffffffffffffffffffffffffffffffffffffffff1673ffffffffffffffffffffffffffffffffffffffff167f8be0079c531659141344cd1fd0a4f28419497f9722a3daafe3b4186f6b6457e060405160405180910390a380606560006101000a81548173ffffffffffffffffffffffffffffffffffffffff021916908373ffffffffffffffffffffffffffffffffffffffff16021790555050565b6000803090506000813b9050600081149250505090565b600060019054906101000a900460ff1680611af05750611aef611aba565b5b80611b0757506000809054906101000a900460ff16155b611b46576040517f08c379a0000000000000000000000000000000000000000000000000000000008152600401611b3d90614283565b60405180910390fd5b60008060019054906101000a900460ff161590508015611b96576001600060016101000a81548160ff02191690831515021790555060016000806101000a81548160ff0219169083151502179055505b611b9e612536565b611ba661261f565b611bb08383612718565b8015611bd15760008060016101000a81548160ff0219169083151502179055505b505050565b600060019054906101000a900460ff1680611bf55750611bf4611aba565b5b80611c0c57506000809054906101000a900460ff16155b611c4b576040517f08c379a0000000000000000000000000000000000000000000000000000000008152600401611c4290614283565b60405180910390fd5b60008060019054906101000a900460ff161590508015611c9b576001600060016101000a81548160ff02191690831515021790555060016000806101000a81548160ff0219169083151502179055505b611ca3612536565b611cab612861565b8015611ccc5760008060016101000a81548160ff0219169083151502179055505b50565b6000611ce58260ca6129f390919063ffffffff16565b9050919050565b600033905090565b8160cc600083815260200190815260200160002060006101000a81548173ffffffffffffffffffffffffffffffffffffffff021916908373ffffffffffffffffffffffffffffffffffffffff160217905550808273ffffffffffffffffffffffffffffffffffffffff16611d6783610ed0565b73ffffffffffffffffffffffffffffffffffffffff167f8c5be1e5ebec7d5bd14f71427d1e84f3dd0314c0f7b2291e5b200ac8c7c3b92560405160405180910390a45050565b600080611db8612a0d565b73ffffffffffffffffffffffffffffffffffffffff1663693ec85e6040518060400160405280600a81526020017f524f4f545f4c4f474943000000000000000000000000000000000000000000008152506040518263ffffffff1660e01b8152600401611e2591906140a1565b60206040518083038186803b158015611e3d57600080fd5b505afa158015611e51573d6000803e3d6000fd5b505050506040513d601f19601f82011682018060405250810190611e7591906133cd565b90508091505090565b8273ffffffffffffffffffffffffffffffffffffffff16611e9e82610ed0565b73ffffffffffffffffffffffffffffffffffffffff1614611ef4576040517f08c379a0000000000000000000000000000000000000000000000000000000008152600401611eeb906142a3565b60405180910390fd5b600073ffffffffffffffffffffffffffffffffffffffff168273ffffffffffffffffffffffffffffffffffffffff161415611f64576040517f08c379a0000000000000000000000000000000000000000000000000000000008152600401611f5b90614163565b60405180910390fd5b611f6f838383612a37565b611f7a600082611cf4565b611fcb8160c960008673ffffffffffffffffffffffffffffffffffffffff1673ffffffffffffffffffffffffffffffffffffffff168152602001908152602001600020612a3c90919063ffffffff16565b5061201d8160c960008573ffffffffffffffffffffffffffffffffffffffff1673ffffffffffffffffffffffffffffffffffffffff168152602001908152602001600020612a5690919063ffffffff16565b50612034818360ca612a709092919063ffffffff16565b50808273ffffffffffffffffffffffffffffffffffffffff168473ffffffffffffffffffffffffffffffffffffffff167fddf252ad1be2c89b69c2b068fc378daa952ba7f163c4a11628f55a4df523b3ef60405160405180910390a4505050565b60006120a382600001612aa5565b9050919050565b60006120b582611ccf565b6120f4576040517f08c379a00000000000000000000000000000000000000000000000000000000081526004016120eb906141a3565b60405180910390fd5b60006120ff83610ed0565b90508073ffffffffffffffffffffffffffffffffffffffff168473ffffffffffffffffffffffffffffffffffffffff16148061216e57508373ffffffffffffffffffffffffffffffffffffffff1661215684610938565b73ffffffffffffffffffffffffffffffffffffffff16145b8061217f575061217e818561185f565b5b91505092915050565b60006121978360000183612ab6565b60001c905092915050565b6000806000806121b58660000186612b23565b915091508160001c8160001c8090509350935050509250929050565b60006121e4846000018460001b84612ba6565b60001c90509392505050565b600073ffffffffffffffffffffffffffffffffffffffff168273ffffffffffffffffffffffffffffffffffffffff161415612260576040517f08c379a000000000000000000000000000000000000000000000000000000000815260040161225790614223565b60405180910390fd5b61226981611ccf565b156122a9576040517f08c379a00000000000000000000000000000000000000000000000000000000081526004016122a090614143565b60405180910390fd5b6122b560008383612a37565b6123068160c960008573ffffffffffffffffffffffffffffffffffffffff1673ffffffffffffffffffffffffffffffffffffffff168152602001908152602001600020612a5690919063ffffffff16565b5061231d818360ca612a709092919063ffffffff16565b50808273ffffffffffffffffffffffffffffffffffffffff16600073ffffffffffffffffffffffffffffffffffffffff167fddf252ad1be2c89b69c2b068fc378daa952ba7f163c4a11628f55a4df523b3ef60405160405180910390a45050565b600061238c82600001612c37565b9050919050565b61239e848484611e7e565b6123aa84848484612c48565b6123e9576040517f08c379a00000000000000000000000000000000000000000000000000000000081526004016123e0906140e3565b60405180910390fd5b50505050565b60606000821415612437576040518060400160405280600181526020017f30000000000000000000000000000000000000000000000000000000000000008152509050612531565b600082905060005b60008214612461578080600101915050600a828161245957fe5b04915061243f565b60608167ffffffffffffffff8111801561247a57600080fd5b506040519080825280601f01601f1916602001820160405280156124ad5781602001600182028036833780820191505090505b50905060006001830390508593505b6000841461252957600a84816124ce57fe5b0660300160f81b828280600190039350815181106124e857fe5b60200101907effffffffffffffffffffffffffffffffffffffffffffffffffffffffffffff1916908160001a905350600a848161252157fe5b0493506124bc565b819450505050505b919050565b600060019054906101000a900460ff16806125555750612554611aba565b5b8061256c57506000809054906101000a900460ff16155b6125ab576040517f08c379a00000000000000000000000000000000000000000000000000000000081526004016125a290614283565b60405180910390fd5b60008060019054906101000a900460ff1615905080156125fb576001600060016101000a81548160ff02191690831515021790555060016000806101000a81548160ff0219169083151502179055505b801561261c5760008060016101000a81548160ff0219169083151502179055505b50565b600060019054906101000a900460ff168061263e575061263d611aba565b5b8061265557506000809054906101000a900460ff16155b612694576040517f08c379a000000000000000000000000000000000000000000000000000000000815260040161268b90614283565b60405180910390fd5b60008060019054906101000a900460ff1615905080156126e4576001600060016101000a81548160ff02191690831515021790555060016000806101000a81548160ff0219169083151502179055505b6126f46301ffc9a760e01b612e29565b80156127155760008060016101000a81548160ff0219169083151502179055505b50565b600060019054906101000a900460ff16806127375750612736611aba565b5b8061274e57506000809054906101000a900460ff16155b61278d576040517f08c379a000000000000000000000000000000000000000000000000000000000815260040161278490614283565b60405180910390fd5b60008060019054906101000a900460ff1615905080156127dd576001600060016101000a81548160ff02191690831515021790555060016000806101000a81548160ff0219169083151502179055505b8260ce90805190602001906127f39291906131c4565b508160cf908051906020019061280a9291906131c4565b5061281b6380ac58cd60e01b612e29565b61282b635b5e139f60e01b612e29565b61283b63780e9d6360e01b612e29565b801561285c5760008060016101000a81548160ff0219169083151502179055505b505050565b600060019054906101000a900460ff1680612880575061287f611aba565b5b8061289757506000809054906101000a900460ff16155b6128d6576040517f08c379a00000000000000000000000000000000000000000000000000000000081526004016128cd90614283565b60405180910390fd5b60008060019054906101000a900460ff161590508015612926576001600060016101000a81548160ff02191690831515021790555060016000806101000a81548160ff0219169083151502179055505b6000612930611cec565b905080606560006101000a81548173ffffffffffffffffffffffffffffffffffffffff021916908373ffffffffffffffffffffffffffffffffffffffff1602179055508073ffffffffffffffffffffffffffffffffffffffff16600073ffffffffffffffffffffffffffffffffffffffff167f8be0079c531659141344cd1fd0a4f28419497f9722a3daafe3b4186f6b6457e060405160405180910390a35080156129f05760008060016101000a81548160ff0219169083151502179055505b50565b6000612a05836000018360001b612eff565b905092915050565b600060fc60009054906101000a900473ffffffffffffffffffffffffffffffffffffffff16905090565b505050565b6000612a4e836000018360001b612f22565b905092915050565b6000612a68836000018360001b61300a565b905092915050565b6000612a9c846000018460001b8473ffffffffffffffffffffffffffffffffffffffff1660001b61307a565b90509392505050565b600081600001805490509050919050565b600081836000018054905011612b01576040517f08c379a0000000000000000000000000000000000000000000000000000000008152600401612af8906140c3565b60405180910390fd5b826000018281548110612b1057fe5b9060005260206000200154905092915050565b60008082846000018054905011612b6f576040517f08c379a0000000000000000000000000000000000000000000000000000000008152600401612b6690614203565b60405180910390fd5b6000846000018481548110612b8057fe5b906000526020600020906002020190508060000154816001015492509250509250929050565b60008084600101600085815260200190815260200160002054905060008114158390612c08576040517f08c379a0000000000000000000000000000000000000000000000000000000008152600401612bff91906140a1565b60405180910390fd5b50846000016001820381548110612c1b57fe5b9060005260206000209060020201600101549150509392505050565b600081600001805490509050919050565b6000612c698473ffffffffffffffffffffffffffffffffffffffff16613156565b612c765760019050612e21565b600060608573ffffffffffffffffffffffffffffffffffffffff1663150b7a0260e01b612ca1611cec565b898888604051602401612cb7949392919061403a565b604051602081830303815290604052907bffffffffffffffffffffffffffffffffffffffffffffffffffffffff19166020820180517bffffffffffffffffffffffffffffffffffffffffffffffffffffffff8381831617835250505050604051612d219190613fe4565b6000604051808303816000865af19150503d8060008114612d5e576040519150601f19603f3d011682016040523d82523d6000602084013e612d63565b606091505b509150915081612dbb57600081511115612d805780518082602001fd5b6040517f08c379a0000000000000000000000000000000000000000000000000000000008152600401612db2906140e3565b60405180910390fd5b600081806020019051810190612dd1919061359d565b905063150b7a0260e01b7bffffffffffffffffffffffffffffffffffffffffffffffffffffffff1916817bffffffffffffffffffffffffffffffffffffffffffffffffffffffff19161493505050505b949350505050565b63ffffffff60e01b817bffffffffffffffffffffffffffffffffffffffffffffffffffffffff19161415612e92576040517f08c379a0000000000000000000000000000000000000000000000000000000008152600401612e8990614123565b60405180910390fd5b600160976000837bffffffffffffffffffffffffffffffffffffffffffffffffffffffff19167bffffffffffffffffffffffffffffffffffffffffffffffffffffffff1916815260200190815260200160002060006101000a81548160ff02191690831515021790555050565b600080836001016000848152602001908152602001600020541415905092915050565b60008083600101600084815260200190815260200160002054905060008114612ffe5760006001820390506000600186600001805490500390506000866000018281548110612f6d57fe5b9060005260206000200154905080876000018481548110612f8a57fe5b9060005260206000200181905550600183018760010160008381526020019081526020016000208190555086600001805480612fc257fe5b60019003818190600052602060002001600090559055866001016000878152602001908152602001600020600090556001945050505050613004565b60009150505b92915050565b600061301683836131a1565b61306f578260000182908060018154018082558091505060019003906000526020600020016000909190919091505582600001805490508360010160008481526020019081526020016000208190555060019050613074565b600090505b92915050565b60008084600101600085815260200190815260200160002054905060008114156131215784600001604051806040016040528086815260200185815250908060018154018082558091505060019003906000526020600020906002020160009091909190915060008201518160000155602082015181600101555050846000018054905085600101600086815260200190815260200160002081905550600191505061314f565b8285600001600183038154811061313457fe5b90600052602060002090600202016001018190555060009150505b9392505050565b60008060007fc5d2460186f7233c927e7db2dcc703c0e500b653ca82273b7bfad8045d85a47060001b9050833f915080821415801561319857506000801b8214155b92505050919050565b600080836001016000848152602001908152602001600020541415905092915050565b828054600181600116156101000203166002900490600052602060002090601f016020900481019282601f1061320557805160ff1916838001178555613233565b82800160010185558215613233579182015b82811115613232578251825591602001919060010190613217565b5b5090506132409190613244565b5090565b61326691905b8082111561326257600081600090555060010161324a565b5090565b90565b6000813590506132788161455a565b92915050565b60008151905061328d8161455a565b92915050565b6000813590506132a281614571565b92915050565b6000813590506132b781614588565b92915050565b6000815190506132cc81614588565b92915050565b600082601f8301126132e357600080fd5b81356132f66132f1826143c6565b614399565b9150808252602083016020830185838301111561331257600080fd5b61331d838284614507565b50505092915050565b600082601f83011261333757600080fd5b813561334a613345826143f2565b614399565b9150808252602083016020830185838301111561336657600080fd5b613371838284614507565b50505092915050565b6000813590506133898161459f565b92915050565b60008151905061339e8161459f565b92915050565b6000602082840312156133b657600080fd5b60006133c484828501613269565b91505092915050565b6000602082840312156133df57600080fd5b60006133ed8482850161327e565b91505092915050565b6000806040838503121561340957600080fd5b600061341785828601613269565b925050602061342885828601613269565b9150509250929050565b60008060006060848603121561344757600080fd5b600061345586828701613269565b935050602061346686828701613269565b92505060406134778682870161337a565b9150509250925092565b6000806000806080858703121561349757600080fd5b60006134a587828801613269565b94505060206134b687828801613269565b93505060406134c78782880161337a565b925050606085013567ffffffffffffffff8111156134e457600080fd5b6134f0878288016132d2565b91505092959194509250565b6000806040838503121561350f57600080fd5b600061351d85828601613269565b925050602061352e85828601613293565b9150509250929050565b6000806040838503121561354b57600080fd5b600061355985828601613269565b925050602061356a8582860161337a565b9150509250929050565b60006020828403121561358657600080fd5b6000613594848285016132a8565b91505092915050565b6000602082840312156135af57600080fd5b60006135bd848285016132bd565b91505092915050565b6000806000606084860312156135db57600080fd5b600084013567ffffffffffffffff8111156135f557600080fd5b61360186828701613326565b935050602084013567ffffffffffffffff81111561361e57600080fd5b61362a86828701613326565b925050604061363b86828701613269565b9150509250925092565b60006020828403121561365757600080fd5b60006136658482850161337a565b91505092915050565b60006020828403121561368057600080fd5b600061368e8482850161338f565b91505092915050565b6136a081614493565b82525050565b6136af81614481565b82525050565b6136be816144a5565b82525050565b60006136cf82614433565b6136d98185614449565b93506136e9818560208601614516565b6136f281614549565b840191505092915050565b600061370882614433565b613712818561445a565b9350613722818560208601614516565b80840191505092915050565b60006137398261443e565b6137438185614465565b9350613753818560208601614516565b61375c81614549565b840191505092915050565b60006137728261443e565b61377c8185614476565b935061378c818560208601614516565b80840191505092915050565b6000815460018116600081146137b557600181146137da5761381e565b607f60028304166137c68187614476565b955060ff198316865280860193505061381e565b600282046137e88187614476565b95506137f38561441e565b60005b82811015613815578154818901526001820191506020810190506137f6565b82880195505050505b505092915050565b6000613833602283614465565b91507f456e756d657261626c655365743a20696e646578206f7574206f6620626f756e60008301527f64730000000000000000000000000000000000000000000000000000000000006020830152604082019050919050565b6000613899603283614465565b91507f4552433732313a207472616e7366657220746f206e6f6e20455243373231526560008301527f63656976657220696d706c656d656e74657200000000000000000000000000006020830152604082019050919050565b60006138ff602683614465565b91507f4f776e61626c653a206e6577206f776e657220697320746865207a65726f206160008301527f64647265737300000000000000000000000000000000000000000000000000006020830152604082019050919050565b6000613965601c83614465565b91507f4552433136353a20696e76616c696420696e74657266616365206964000000006000830152602082019050919050565b60006139a5601c83614465565b91507f4552433732313a20746f6b656e20616c7265616479206d696e746564000000006000830152602082019050919050565b60006139e5602483614465565b91507f4552433732313a207472616e7366657220746f20746865207a65726f2061646460008301527f72657373000000000000000000000000000000000000000000000000000000006020830152604082019050919050565b6000613a4b601983614465565b91507f4552433732313a20617070726f766520746f2063616c6c6572000000000000006000830152602082019050919050565b6000613a8b602c83614465565b91507f4552433732313a206f70657261746f7220717565727920666f72206e6f6e657860008301527f697374656e7420746f6b656e00000000000000000000000000000000000000006020830152604082019050919050565b6000613af1603883614465565b91507f4552433732313a20617070726f76652063616c6c6572206973206e6f74206f7760008301527f6e6572206e6f7220617070726f76656420666f7220616c6c00000000000000006020830152604082019050919050565b6000613b57602a83614465565b91507f4552433732313a2062616c616e636520717565727920666f7220746865207a6560008301527f726f2061646472657373000000000000000000000000000000000000000000006020830152604082019050919050565b6000613bbd602283614465565b91507f456e756d657261626c654d61703a20696e646578206f7574206f6620626f756e60008301527f64730000000000000000000000000000000000000000000000000000000000006020830152604082019050919050565b6000613c23602083614465565b91507f4552433732313a206d696e7420746f20746865207a65726f20616464726573736000830152602082019050919050565b6000613c63602c83614465565b91507f4552433732313a20617070726f76656420717565727920666f72206e6f6e657860008301527f697374656e7420746f6b656e00000000000000000000000000000000000000006020830152604082019050919050565b6000613cc9602083614465565b91507f4f776e61626c653a2063616c6c6572206973206e6f7420746865206f776e65726000830152602082019050919050565b6000613d09602e83614465565b91507f436f6e747261637420696e7374616e63652068617320616c726561647920626560008301527f656e20696e697469616c697a65640000000000000000000000000000000000006020830152604082019050919050565b6000613d6f602983614465565b91507f4552433732313a207472616e73666572206f6620746f6b656e2074686174206960008301527f73206e6f74206f776e00000000000000000000000000000000000000000000006020830152604082019050919050565b6000613dd5602f83614465565b91507f4552433732314d657461646174613a2055524920717565727920666f72206e6f60008301527f6e6578697374656e7420746f6b656e00000000000000000000000000000000006020830152604082019050919050565b6000613e3b602183614465565b91507f4552433732313a20617070726f76616c20746f2063757272656e74206f776e6560008301527f72000000000000000000000000000000000000000000000000000000000000006020830152604082019050919050565b6000613ea1603183614465565b91507f4552433732313a207472616e736665722063616c6c6572206973206e6f74206f60008301527f776e6572206e6f7220617070726f7665640000000000000000000000000000006020830152604082019050919050565b6000613f07602483614465565b91507f4552433732313a207472616e736665722063616c6c6572206973206e6f74206f60008301527f776e6572000000000000000000000000000000000000000000000000000000006020830152604082019050919050565b6000613f6d602883614465565b91507f5468652073656e646572206973206e6f742074686520526f6f744c6f6769632060008301527f636f6e74726163740000000000000000000000000000000000000000000000006020830152604082019050919050565b613fcf816144fd565b82525050565b613fde816144fd565b82525050565b6000613ff082846136fd565b915081905092915050565b60006140078285613798565b91506140138284613767565b91508190509392505050565b600060208201905061403460008301846136a6565b92915050565b600060808201905061404f6000830187613697565b61405c60208301866136a6565b6140696040830185613fc6565b818103606083015261407b81846136c4565b905095945050505050565b600060208201905061409b60008301846136b5565b92915050565b600060208201905081810360008301526140bb818461372e565b905092915050565b600060208201905081810360008301526140dc81613826565b9050919050565b600060208201905081810360008301526140fc8161388c565b9050919050565b6000602082019050818103600083015261411c816138f2565b9050919050565b6000602082019050818103600083015261413c81613958565b9050919050565b6000602082019050818103600083015261415c81613998565b9050919050565b6000602082019050818103600083015261417c816139d8565b9050919050565b6000602082019050818103600083015261419c81613a3e565b9050919050565b600060208201905081810360008301526141bc81613a7e565b9050919050565b600060208201905081810360008301526141dc81613ae4565b9050919050565b600060208201905081810360008301526141fc81613b4a565b9050919050565b6000602082019050818103600083015261421c81613bb0565b9050919050565b6000602082019050818103600083015261423c81613c16565b9050919050565b6000602082019050818103600083015261425c81613c56565b9050919050565b6000602082019050818103600083015261427c81613cbc565b9050919050565b6000602082019050818103600083015261429c81613cfc565b9050919050565b600060208201905081810360008301526142bc81613d62565b9050919050565b600060208201905081810360008301526142dc81613dc8565b9050919050565b600060208201905081810360008301526142fc81613e2e565b9050919050565b6000602082019050818103600083015261431c81613e94565b9050919050565b6000602082019050818103600083015261433c81613efa565b9050919050565b6000602082019050818103600083015261435c81613f60565b9050919050565b60006020820190506143786000830184613fd5565b92915050565b60006020820190506143936000830184613fc6565b92915050565b6000604051905081810181811067ffffffffffffffff821117156143bc57600080fd5b8060405250919050565b600067ffffffffffffffff8211156143dd57600080fd5b601f19601f8301169050602081019050919050565b600067ffffffffffffffff82111561440957600080fd5b601f19601f8301169050602081019050919050565b60008190508160005260206000209050919050565b600081519050919050565b600081519050919050565b600082825260208201905092915050565b600081905092915050565b600082825260208201905092915050565b600081905092915050565b600061448c826144dd565b9050919050565b600061449e826144dd565b9050919050565b60008115159050919050565b60007fffffffff0000000000000000000000000000000000000000000000000000000082169050919050565b600073ffffffffffffffffffffffffffffffffffffffff82169050919050565b6000819050919050565b82818337600083830152505050565b60005b83811015614534578082015181840152602081019050614519565b83811115614543576000848401525b50505050565b6000601f19601f8301169050919050565b61456381614481565b811461456e57600080fd5b50565b61457a816144a5565b811461458557600080fd5b50565b614591816144b1565b811461459c57600080fd5b50565b6145a8816144fd565b81146145b357600080fd5b5056fe4552433732313a206f776e657220717565727920666f72206e6f6e6578697374656e7420746f6b656ea2646970667358221220aa6e0d5103d264828b1323039f29c15c5f784f4b99483c3a77de213116378cb664736f6c634300060b0033",
  "source": "pragma solidity 0.6.11;\npragma experimental ABIEncoderV2;\n\nimport \"@openzeppelin/contracts-ethereum-package/contracts/token/ERC721/ERC721.sol\";\nimport \"@openzeppelin/contracts-ethereum-package/contracts/access/Ownable.sol\";\nimport \"../../common/IStartrailRegistry.sol\";\nimport \"../../lib/contracts/IDGenerator.sol\";\nimport \"../../lib/contracts/Signature.sol\";\nimport \"../../common/IRootLogic.sol\";\nimport \"../../common/IStartrailValidator.sol\";\nimport \"../../name/contracts/NameRegistry.sol\";\nimport \"../../name/contracts/Contracts.sol\";\n\ncontract StartrailRegistry is\n  OwnableUpgradeSafe,\n  ERC721UpgradeSafe,\n  IStartrailRegistry,\n  IStartrailValidator,\n  Contracts\n{\n  /*\n   * State variables\n   */\n  uint256 private idNonce;\n\n  /*\n   * Storage\n   */\n  address private _nameRegistryAddress;\n\n  function getMsgSender() public view returns (address) {\n    return _msgSender();\n  }\n\n  /**\n   * @dev Initializes the StartrailRegistry\n   * @param name string of the name\n   * @param symbol string of the symbol\n   * @param nameRegistry address of the NameRegistry contract\n   */\n  function initialize(\n    string memory name,\n    string memory symbol,\n    address nameRegistry\n  ) public initializer {\n    _nameRegistryAddress = nameRegistry;\n    idNonce = 1;\n    ERC721UpgradeSafe.__ERC721_init(name, symbol);\n    OwnableUpgradeSafe.__Ownable_init();\n  }\n\n  /**\n   * @dev Creates a new StartrailRegistryRecordID\n   * @param sender address of the sender\n   */\n  function mint(address sender)\n    external\n    override\n    onlyRootLogic(_rootLogicAddress())\n    returns (uint256)\n  {\n    idNonce += 1;\n    uint256 tokenId;\n    do {\n      tokenId = IDGenerator.generate(idNonce);\n    } while (ERC721UpgradeSafe._exists(tokenId));\n    ERC721UpgradeSafe._mint(sender, tokenId);\n    return tokenId;\n  }\n\n  /**\n   * @dev Transfers the ownership of a given SRR ID to another address.\n   * @param from address of the current owner\n   * @param to address to receive the ownership\n   * @param tokenId uint256 ID of the SRR to be transferred\n   */\n  function transferSRRFrom(\n    address from,\n    address to,\n    uint256 tokenId\n  ) external override onlyRootLogic(_rootLogicAddress()) {\n    require(\n      ERC721UpgradeSafe._exists(tokenId),\n      \"ERC721: operator query for nonexistent token\"\n    );\n    address owner = ERC721UpgradeSafe.ownerOf(tokenId);\n    require(from == owner, \"ERC721: transfer caller is not owner\");\n    ERC721UpgradeSafe._transfer(from, to, tokenId);\n  }\n\n  /**\n   * @dev Sets the address of the NameRegistry contract\n   * @param nameRegistry address of the NameRegistry contract\n   */\n  function setNameRegistry(address nameRegistry) public onlyOwner {\n    _nameRegistryAddress = nameRegistry;\n  }\n\n  /**\n   * @dev Gets the endpoint address of the RootLogic\n   * @return RootLogic proxy address\n   */\n  function getRootLogicAddress() public view returns (address) {\n    return _rootLogicAddress();\n  }\n\n  /**\n   * @dev Gets the endpoint address of NameRegistry\n   * @return NameRegistry proxy address\n   */\n  function getNameRegistryAddress() public view returns (address) {\n    return _nameRegistryAddress;\n  }\n\n  /**\n   * @dev Gets the owner address of the SRR\n   * @param tokenId uint256 of the SRR ID\n   * @return owner address\n   */\n  function getSRROwner(uint256 tokenId)\n    external\n    override\n    view\n    returns (address)\n  {\n    return ERC721UpgradeSafe.ownerOf(tokenId);\n  }\n\n  /**\n   * @dev Gets the nonce from the storage\n   * @return idNonce from storage\n   */\n  function getIdNonce() public view returns (uint256) {\n    return idNonce;\n  }\n\n  function _nameRegistry() private view returns (NameRegistry) {\n    return NameRegistry(_nameRegistryAddress);\n  }\n\n  function _rootLogicAddress() private view returns (address) {\n    address rootLogicAddress = _nameRegistry().get(ROOT_LOGIC);\n    return rootLogicAddress;\n  }\n\n  // **************************\n  // scope out for Day1\n  // **************************\n\n  // /**\n  //  * @dev transfers StartrailRegistry\n  //  * @param to address of the receiver\n  //  * @param tokenId uint256 of StartrailRegistryRecordID\n  //  * @param sig signature\n  //  */\n  // function transferSRRFrom(\n  //   address to,\n  //   uint256 tokenId,\n  //   Signature.Sig memory sig\n  // ) public validSender(sig) {\n  //   address signer = Signature.getAddress(sig);\n  //   require(ownerOf(tokenId) == signer, \"owner and signer do not match\");\n  //   super._transferFrom(signer, to, tokenId);\n\n  //   emit TransferSRRFrom(signer, to, tokenId);\n  // }\n\n  // /**\n  //  * @dev transfers StartrailRegistry\n  //  * @param from address of the current token owner\n  //  * @param to address of the receiver\n  //  * @param tokenId uint256 of StartrailRegistryRecordID\n  //  * @param _data bytes of private metadata\n  //  */\n  // function safeTransferSRRFrom(\n  //   address from,\n  //   address to,\n  //   uint256 tokenId,\n  //   bytes memory _data\n  // ) public {\n  //   super._safeTransferFrom(from, to, tokenId, _data);\n  //   emit SafeTransferSRRFrom(from, to, tokenId, _data);\n  //   address newOnwer = ownerOf(tokenId);\n  //   IRootLogic logic = IRootLogic(_rootLogicContract);\n  //   // logic.historyProvenance(tokenId, newOnwer, from, _data);\n  // }\n}\n",
  "sourcePath": "/Users/hasnaeen/startbahn/dev/startrail/app/token/contracts/StartrailRegistry.sol",
  "compiler": {
    "name": "solc",
    "version": "0.6.11+commit.5ef660b1.Emscripten.clang"
  },
  "schemaVersion": "3.0.23",
  "updatedAt": "2020-08-19T06:33:15.350Z",
  "networkType": "ethereum",
  "devdoc": {
    "kind": "dev",
    "methods": {
      "approve(address,uint256)": {
        "details": "Approves another address to transfer the given token ID The zero address indicates there is no approved address. There can only be one approved address per token at a given time. Can only be called by the token owner or an approved operator.",
        "params": {
          "to": "address to be approved for the given token ID",
          "tokenId": "uint256 ID of the token to be approved"
        }
      },
      "balanceOf(address)": {
        "details": "Gets the balance of the specified address.",
        "params": {
          "owner": "address to query the balance of"
        },
        "returns": {
          "_0": "uint256 representing the amount owned by the passed address"
        }
      },
      "baseURI()": {
        "details": "Returns the base URI set via {_setBaseURI}. This will be automatically added as a prefix in {tokenURI} to each token's URI, or to the token ID if no specific URI is set for that token ID."
      },
      "getApproved(uint256)": {
        "details": "Gets the approved address for a token ID, or zero if no address set Reverts if the token ID does not exist.",
        "params": {
          "tokenId": "uint256 ID of the token to query the approval of"
        },
        "returns": {
          "_0": "address currently approved for the given token ID"
        }
      },
      "getIdNonce()": {
        "details": "Gets the nonce from the storage",
        "returns": {
          "_0": "idNonce from storage"
        }
      },
      "getNameRegistryAddress()": {
        "details": "Gets the endpoint address of NameRegistry",
        "returns": {
          "_0": "NameRegistry proxy address"
        }
      },
      "getRootLogicAddress()": {
        "details": "Gets the endpoint address of the RootLogic",
        "returns": {
          "_0": "RootLogic proxy address"
        }
      },
      "getSRROwner(uint256)": {
        "details": "Gets the owner address of the SRR",
        "params": {
          "tokenId": "uint256 of the SRR ID"
        },
        "returns": {
          "_0": "owner address"
        }
      },
      "initialize(string,string,address)": {
        "details": "Initializes the StartrailRegistry",
        "params": {
          "name": "string of the name",
          "nameRegistry": "address of the NameRegistry contract",
          "symbol": "string of the symbol"
        }
      },
      "isApprovedForAll(address,address)": {
        "details": "Tells whether an operator is approved by a given owner.",
        "params": {
          "operator": "operator address which you want to query the approval of",
          "owner": "owner address which you want to query the approval of"
        },
        "returns": {
          "_0": "bool whether the given operator is approved by the given owner"
        }
      },
      "mint(address)": {
        "details": "Creates a new StartrailRegistryRecordID",
        "params": {
          "sender": "address of the sender"
        }
      },
      "name()": {
        "details": "Gets the token name.",
        "returns": {
          "_0": "string representing the token name"
        }
      },
      "owner()": {
        "details": "Returns the address of the current owner."
      },
      "ownerOf(uint256)": {
        "details": "Gets the owner of the specified token ID.",
        "params": {
          "tokenId": "uint256 ID of the token to query the owner of"
        },
        "returns": {
          "_0": "address currently marked as the owner of the given token ID"
        }
      },
      "renounceOwnership()": {
        "details": "Leaves the contract without owner. It will not be possible to call `onlyOwner` functions anymore. Can only be called by the current owner. NOTE: Renouncing ownership will leave the contract without an owner, thereby removing any functionality that is only available to the owner."
      },
      "safeTransferFrom(address,address,uint256)": {
        "details": "Safely transfers the ownership of a given token ID to another address If the target address is a contract, it must implement {IERC721Receiver-onERC721Received}, which is called upon a safe transfer, and return the magic value `bytes4(keccak256(\"onERC721Received(address,address,uint256,bytes)\"))`; otherwise, the transfer is reverted. Requires the msg.sender to be the owner, approved, or operator",
        "params": {
          "from": "current owner of the token",
          "to": "address to receive the ownership of the given token ID",
          "tokenId": "uint256 ID of the token to be transferred"
        }
      },
      "safeTransferFrom(address,address,uint256,bytes)": {
        "details": "Safely transfers the ownership of a given token ID to another address If the target address is a contract, it must implement {IERC721Receiver-onERC721Received}, which is called upon a safe transfer, and return the magic value `bytes4(keccak256(\"onERC721Received(address,address,uint256,bytes)\"))`; otherwise, the transfer is reverted. Requires the _msgSender() to be the owner, approved, or operator",
        "params": {
          "_data": "bytes data to send along with a safe transfer check",
          "from": "current owner of the token",
          "to": "address to receive the ownership of the given token ID",
          "tokenId": "uint256 ID of the token to be transferred"
        }
      },
      "setApprovalForAll(address,bool)": {
        "details": "Sets or unsets the approval of a given operator An operator is allowed to transfer all tokens of the sender on their behalf.",
        "params": {
          "approved": "representing the status of the approval to be set",
          "operator": "operator address to set the approval"
        }
      },
      "setNameRegistry(address)": {
        "details": "Sets the address of the NameRegistry contract",
        "params": {
          "nameRegistry": "address of the NameRegistry contract"
        }
      },
      "supportsInterface(bytes4)": {
        "details": "See {IERC165-supportsInterface}. Time complexity O(1), guaranteed to always use less than 30 000 gas."
      },
      "symbol()": {
        "details": "Gets the token symbol.",
        "returns": {
          "_0": "string representing the token symbol"
        }
      },
      "tokenByIndex(uint256)": {
        "details": "Gets the token ID at a given index of all the tokens in this contract Reverts if the index is greater or equal to the total number of tokens.",
        "params": {
          "index": "uint256 representing the index to be accessed of the tokens list"
        },
        "returns": {
          "_0": "uint256 token ID at the given index of the tokens list"
        }
      },
      "tokenOfOwnerByIndex(address,uint256)": {
        "details": "Gets the token ID at a given index of the tokens list of the requested owner.",
        "params": {
          "index": "uint256 representing the index to be accessed of the requested tokens list",
          "owner": "address owning the tokens list to be accessed"
        },
        "returns": {
          "_0": "uint256 token ID at the given index of the tokens list owned by the requested address"
        }
      },
      "tokenURI(uint256)": {
        "details": "Returns the URI for a given token ID. May return an empty string. If a base URI is set (via {_setBaseURI}), it is added as a prefix to the token's own URI (via {_setTokenURI}). If there is a base URI but no token URI, the token's ID will be used as its URI when appending it to the base URI. This pattern for autogenerated token URIs can lead to large gas savings. .Examples |=== |`_setBaseURI()` |`_setTokenURI()` |`tokenURI()` | \"\" | \"\" | \"\" | \"\" | \"token.uri/123\" | \"token.uri/123\" | \"token.uri/\" | \"123\" | \"token.uri/123\" | \"token.uri/\" | \"\" | \"token.uri/<tokenId>\" |=== Requirements: - `tokenId` must exist."
      },
      "totalSupply()": {
        "details": "Gets the total amount of tokens stored by the contract.",
        "returns": {
          "_0": "uint256 representing the total amount of tokens"
        }
      },
      "transferFrom(address,address,uint256)": {
        "details": "Transfers the ownership of a given token ID to another address. Usage of this method is discouraged, use {safeTransferFrom} whenever possible. Requires the msg.sender to be the owner, approved, or operator.",
        "params": {
          "from": "current owner of the token",
          "to": "address to receive the ownership of the given token ID",
          "tokenId": "uint256 ID of the token to be transferred"
        }
      },
      "transferOwnership(address)": {
        "details": "Transfers ownership of the contract to a new account (`newOwner`). Can only be called by the current owner."
      },
      "transferSRRFrom(address,address,uint256)": {
        "details": "Transfers the ownership of a given SRR ID to another address.",
        "params": {
          "from": "address of the current owner",
          "to": "address to receive the ownership",
          "tokenId": "uint256 ID of the SRR to be transferred"
        }
      }
    },
    "version": 1
  },
  "userdoc": {
    "kind": "user",
    "methods": {},
    "version": 1
  }
}