{
  "contractName": "StartrailRegistry",
  "abi": [
    {
      "anonymous": false,
      "inputs": [
        {
          "indexed": true,
          "internalType": "address",
          "name": "owner",
          "type": "address"
        },
        {
          "indexed": true,
          "internalType": "address",
          "name": "approved",
          "type": "address"
        },
        {
          "indexed": true,
          "internalType": "uint256",
          "name": "tokenId",
          "type": "uint256"
        }
      ],
      "name": "Approval",
      "type": "event"
    },
    {
      "anonymous": false,
      "inputs": [
        {
          "indexed": true,
          "internalType": "address",
          "name": "owner",
          "type": "address"
        },
        {
          "indexed": true,
          "internalType": "address",
          "name": "operator",
          "type": "address"
        },
        {
          "indexed": false,
          "internalType": "bool",
          "name": "approved",
          "type": "bool"
        }
      ],
      "name": "ApprovalForAll",
      "type": "event"
    },
    {
      "anonymous": false,
      "inputs": [
        {
          "indexed": true,
          "internalType": "uint256",
          "name": "tokenId",
          "type": "uint256"
        },
        {
          "components": [
            {
              "internalType": "bool",
              "name": "isPrimaryIssuer",
              "type": "bool"
            },
            {
              "internalType": "address",
              "name": "artistAddress",
              "type": "address"
            },
            {
              "internalType": "address",
              "name": "issuer",
              "type": "address"
            }
          ],
          "indexed": false,
          "internalType": "struct IStartrailRegistry.SRR",
          "name": "registryRecord",
          "type": "tuple"
        },
        {
          "indexed": false,
          "internalType": "bytes32",
          "name": "metadataDigest",
          "type": "bytes32"
        }
      ],
      "name": "CreateSRR",
      "type": "event"
    },
    {
      "anonymous": false,
      "inputs": [
        {
          "indexed": true,
          "internalType": "uint256",
          "name": "id",
          "type": "uint256"
        },
        {
          "indexed": true,
          "internalType": "string",
          "name": "customHistoryType",
          "type": "string"
        },
        {
          "indexed": false,
          "internalType": "string",
          "name": "metadataDigest",
          "type": "string"
        }
      ],
      "name": "CustomHistory",
      "type": "event"
    },
    {
      "anonymous": false,
      "inputs": [
        {
          "indexed": true,
          "internalType": "address",
          "name": "previousOwner",
          "type": "address"
        },
        {
          "indexed": true,
          "internalType": "address",
          "name": "newOwner",
          "type": "address"
        }
      ],
      "name": "OwnershipTransferred",
      "type": "event"
    },
    {
      "anonymous": false,
      "inputs": [
        {
          "indexed": true,
          "internalType": "uint256",
          "name": "tokenId",
          "type": "uint256"
        },
        {
          "indexed": true,
          "internalType": "address",
          "name": "from",
          "type": "address"
        },
        {
          "indexed": true,
          "internalType": "address",
          "name": "to",
          "type": "address"
        },
        {
          "indexed": false,
          "internalType": "uint256",
          "name": "timestamp",
          "type": "uint256"
        },
        {
          "indexed": false,
          "internalType": "string",
          "name": "historyMetadataDigest",
          "type": "string"
        },
        {
          "indexed": false,
          "internalType": "string",
          "name": "historyMetadataURI",
          "type": "string"
        }
      ],
      "name": "Provenance",
      "type": "event"
    },
    {
      "anonymous": false,
      "inputs": [
        {
          "indexed": true,
          "internalType": "uint256",
          "name": "tokenId",
          "type": "uint256"
        },
        {
          "indexed": true,
          "internalType": "address",
          "name": "from",
          "type": "address"
        },
        {
          "indexed": true,
          "internalType": "address",
          "name": "to",
          "type": "address"
        },
        {
          "indexed": false,
          "internalType": "uint256",
          "name": "timestamp",
          "type": "uint256"
        },
        {
          "indexed": false,
          "internalType": "bytes32",
          "name": "customHistoryId",
          "type": "bytes32"
        },
        {
          "indexed": false,
          "internalType": "string",
          "name": "historyMetadataDigest",
          "type": "string"
        },
        {
          "indexed": false,
          "internalType": "string",
          "name": "historyMetadataURI",
          "type": "string"
        }
      ],
      "name": "Provenance",
      "type": "event"
    },
    {
      "anonymous": false,
      "inputs": [
        {
          "indexed": false,
          "internalType": "address",
          "name": "owner",
          "type": "address"
        },
        {
          "indexed": false,
          "internalType": "bytes32",
          "name": "commitment",
          "type": "bytes32"
        },
        {
          "indexed": false,
          "internalType": "uint256",
          "name": "tokenId",
          "type": "uint256"
        }
      ],
      "name": "SRRCommitment",
      "type": "event"
    },
    {
      "anonymous": false,
      "inputs": [
        {
          "indexed": false,
          "internalType": "uint256",
          "name": "tokenId",
          "type": "uint256"
        }
      ],
      "name": "SRRCommitmentCancelled",
      "type": "event"
    },
    {
      "anonymous": false,
      "inputs": [
        {
          "indexed": true,
          "internalType": "address",
          "name": "from",
          "type": "address"
        },
        {
          "indexed": true,
          "internalType": "address",
          "name": "to",
          "type": "address"
        },
        {
          "indexed": true,
          "internalType": "uint256",
          "name": "tokenId",
          "type": "uint256"
        }
      ],
      "name": "Transfer",
      "type": "event"
    },
    {
      "anonymous": false,
      "inputs": [
        {
          "indexed": true,
          "internalType": "uint256",
          "name": "tokenId",
          "type": "uint256"
        },
        {
          "components": [
            {
              "internalType": "bool",
              "name": "isPrimaryIssuer",
              "type": "bool"
            },
            {
              "internalType": "address",
              "name": "artistAddress",
              "type": "address"
            },
            {
              "internalType": "address",
              "name": "issuer",
              "type": "address"
            }
          ],
          "indexed": false,
          "internalType": "struct IStartrailRegistry.SRR",
          "name": "registryRecord",
          "type": "tuple"
        }
      ],
      "name": "UpdateSRR",
      "type": "event"
    },
    {
      "anonymous": false,
      "inputs": [
        {
          "indexed": true,
          "internalType": "uint256",
          "name": "tokenId",
          "type": "uint256"
        },
        {
          "indexed": false,
          "internalType": "bytes32",
          "name": "metadataDigest",
          "type": "bytes32"
        }
      ],
      "name": "UpdateSRRMetadataDigest",
      "type": "event"
    },
    {
      "inputs": [],
      "name": "HASH_ALGORITHM",
      "outputs": [
        {
          "internalType": "string",
          "name": "",
          "type": "string"
        }
      ],
      "stateMutability": "view",
      "type": "function",
      "constant": true
    },
    {
      "inputs": [
        {
          "internalType": "uint256",
          "name": "",
          "type": "uint256"
        }
      ],
      "name": "_tokenOwner",
      "outputs": [
        {
          "internalType": "address",
          "name": "",
          "type": "address"
        }
      ],
      "stateMutability": "view",
      "type": "function",
      "constant": true
    },
    {
      "inputs": [
        {
          "internalType": "address",
          "name": "to",
          "type": "address"
        },
        {
          "internalType": "uint256",
          "name": "tokenId",
          "type": "uint256"
        }
      ],
      "name": "approve",
      "outputs": [],
      "stateMutability": "nonpayable",
      "type": "function"
    },
    {
      "inputs": [
        {
          "internalType": "address",
          "name": "owner",
          "type": "address"
        }
      ],
      "name": "balanceOf",
      "outputs": [
        {
          "internalType": "uint256",
          "name": "",
          "type": "uint256"
        }
      ],
      "stateMutability": "view",
      "type": "function",
      "constant": true
    },
    {
      "inputs": [],
      "name": "baseURI",
      "outputs": [
        {
          "internalType": "string",
          "name": "",
          "type": "string"
        }
      ],
      "stateMutability": "view",
      "type": "function",
      "constant": true
    },
    {
      "inputs": [
        {
          "internalType": "uint256",
          "name": "tokenId",
          "type": "uint256"
        }
      ],
      "name": "getApproved",
      "outputs": [
        {
          "internalType": "address",
          "name": "",
          "type": "address"
        }
      ],
      "stateMutability": "view",
      "type": "function",
      "constant": true
    },
    {
      "inputs": [
        {
          "internalType": "address",
          "name": "owner",
          "type": "address"
        },
        {
          "internalType": "address",
          "name": "operator",
          "type": "address"
        }
      ],
      "name": "isApprovedForAll",
      "outputs": [
        {
          "internalType": "bool",
          "name": "",
          "type": "bool"
        }
      ],
      "stateMutability": "view",
      "type": "function",
      "constant": true
    },
    {
      "inputs": [],
      "name": "name",
      "outputs": [
        {
          "internalType": "string",
          "name": "",
          "type": "string"
        }
      ],
      "stateMutability": "view",
      "type": "function",
      "constant": true
    },
    {
      "inputs": [],
      "name": "owner",
      "outputs": [
        {
          "internalType": "address",
          "name": "",
          "type": "address"
        }
      ],
      "stateMutability": "view",
      "type": "function",
      "constant": true
    },
    {
      "inputs": [
        {
          "internalType": "uint256",
          "name": "tokenId",
          "type": "uint256"
        }
      ],
      "name": "ownerOf",
      "outputs": [
        {
          "internalType": "address",
          "name": "",
          "type": "address"
        }
      ],
      "stateMutability": "view",
      "type": "function",
      "constant": true
    },
    {
      "inputs": [],
      "name": "renounceOwnership",
      "outputs": [],
      "stateMutability": "nonpayable",
      "type": "function"
    },
    {
      "inputs": [
        {
          "internalType": "address",
          "name": "from",
          "type": "address"
        },
        {
          "internalType": "address",
          "name": "to",
          "type": "address"
        },
        {
          "internalType": "uint256",
          "name": "tokenId",
          "type": "uint256"
        }
      ],
      "name": "safeTransferFrom",
      "outputs": [],
      "stateMutability": "nonpayable",
      "type": "function"
    },
    {
      "inputs": [
        {
          "internalType": "address",
          "name": "from",
          "type": "address"
        },
        {
          "internalType": "address",
          "name": "to",
          "type": "address"
        },
        {
          "internalType": "uint256",
          "name": "tokenId",
          "type": "uint256"
        },
        {
          "internalType": "bytes",
          "name": "_data",
          "type": "bytes"
        }
      ],
      "name": "safeTransferFrom",
      "outputs": [],
      "stateMutability": "nonpayable",
      "type": "function"
    },
    {
      "inputs": [
        {
          "internalType": "address",
          "name": "operator",
          "type": "address"
        },
        {
          "internalType": "bool",
          "name": "approved",
          "type": "bool"
        }
      ],
      "name": "setApprovalForAll",
      "outputs": [],
      "stateMutability": "nonpayable",
      "type": "function"
    },
    {
      "inputs": [],
      "name": "symbol",
      "outputs": [
        {
          "internalType": "string",
          "name": "",
          "type": "string"
        }
      ],
      "stateMutability": "view",
      "type": "function",
      "constant": true
    },
    {
      "inputs": [
        {
          "internalType": "address",
          "name": "from",
          "type": "address"
        },
        {
          "internalType": "address",
          "name": "to",
          "type": "address"
        },
        {
          "internalType": "uint256",
          "name": "tokenId",
          "type": "uint256"
        }
      ],
      "name": "transferFrom",
      "outputs": [],
      "stateMutability": "nonpayable",
      "type": "function"
    },
    {
      "inputs": [
        {
          "internalType": "address",
          "name": "newOwner",
          "type": "address"
        }
      ],
      "name": "transferOwnership",
      "outputs": [],
      "stateMutability": "nonpayable",
      "type": "function"
    },
    {
      "inputs": [
        {
          "internalType": "address",
          "name": "nameRegistry",
          "type": "address"
        },
        {
          "internalType": "string",
          "name": "URIPrefix",
          "type": "string"
        },
        {
          "internalType": "string",
          "name": "URIPostfix",
          "type": "string"
        },
        {
          "internalType": "bytes32",
          "name": "schemaURIIntegrityDigest",
          "type": "bytes32"
        }
      ],
      "name": "initialize",
      "outputs": [],
      "stateMutability": "nonpayable",
      "type": "function"
    },
    {
      "inputs": [
        {
          "internalType": "string",
          "name": "name",
          "type": "string"
        },
        {
          "internalType": "string",
          "name": "symbol",
          "type": "string"
        }
      ],
      "name": "migrationInit",
      "outputs": [],
      "stateMutability": "nonpayable",
      "type": "function"
    },
    {
      "inputs": [
        {
          "internalType": "address[]",
          "name": "sender",
          "type": "address[]"
        },
        {
          "internalType": "uint256[]",
          "name": "tokenIds",
          "type": "uint256[]"
        }
      ],
      "name": "tokenMigrationBatch",
      "outputs": [],
      "stateMutability": "nonpayable",
      "type": "function"
    },
    {
      "inputs": [
        {
          "internalType": "address",
          "name": "to",
          "type": "address"
        },
        {
          "internalType": "uint256",
          "name": "tokenId",
          "type": "uint256"
        }
      ],
      "name": "tokenMigration",
      "outputs": [],
      "stateMutability": "nonpayable",
      "type": "function"
    },
    {
      "inputs": [
        {
          "internalType": "bytes4",
          "name": "interfaceID",
          "type": "bytes4"
        }
      ],
      "name": "supportsInterface",
      "outputs": [
        {
          "internalType": "bool",
          "name": "",
          "type": "bool"
        }
      ],
      "stateMutability": "view",
      "type": "function",
      "constant": true
    },
    {
      "inputs": [
        {
          "internalType": "bool",
          "name": "isPrimaryIssuer",
          "type": "bool"
        },
        {
          "internalType": "address",
          "name": "artistAddress",
          "type": "address"
        },
        {
          "internalType": "bytes32",
          "name": "metadataDigest",
          "type": "bytes32"
        },
        {
          "components": [
            {
              "internalType": "bytes32",
              "name": "hashed",
              "type": "bytes32"
            },
            {
              "internalType": "uint8",
              "name": "v",
              "type": "uint8"
            },
            {
              "internalType": "bytes32",
              "name": "r",
              "type": "bytes32"
            },
            {
              "internalType": "bytes32",
              "name": "s",
              "type": "bytes32"
            },
            {
              "internalType": "address",
              "name": "sender",
              "type": "address"
            }
          ],
          "internalType": "struct Signature.Sig",
          "name": "sig",
          "type": "tuple"
        }
      ],
      "name": "createSRR",
      "outputs": [
        {
          "internalType": "uint256",
          "name": "",
          "type": "uint256"
        }
      ],
      "stateMutability": "nonpayable",
      "type": "function"
    },
    {
      "inputs": [
        {
          "internalType": "bool",
          "name": "isPrimaryIssuer",
          "type": "bool"
        },
        {
          "internalType": "address",
          "name": "artistAddress",
          "type": "address"
        },
        {
          "internalType": "bytes32",
          "name": "metadataDigest",
          "type": "bytes32"
        }
      ],
      "name": "createSRRFromLicensedUser",
      "outputs": [
        {
          "internalType": "uint256",
          "name": "",
          "type": "uint256"
        }
      ],
      "stateMutability": "nonpayable",
      "type": "function"
    },
    {
      "inputs": [
        {
          "internalType": "bool",
          "name": "isPrimaryIssuer",
          "type": "bool"
        },
        {
          "internalType": "address",
          "name": "artistAddress",
          "type": "address"
        },
        {
          "internalType": "bytes32",
          "name": "metadataDigest",
          "type": "bytes32"
        },
        {
          "internalType": "address",
          "name": "issuerAddress",
          "type": "address"
        }
      ],
      "name": "createSRRFromBulk",
      "outputs": [
        {
          "internalType": "uint256",
          "name": "",
          "type": "uint256"
        }
      ],
      "stateMutability": "nonpayable",
      "type": "function"
    },
    {
      "inputs": [
        {
          "internalType": "uint256",
          "name": "tokenId",
          "type": "uint256"
        },
        {
          "internalType": "bool",
          "name": "isPrimaryIssuer",
          "type": "bool"
        },
        {
          "internalType": "address",
          "name": "artistAddress",
          "type": "address"
        }
      ],
      "name": "updateSRRFromLicensedUser",
      "outputs": [
        {
          "internalType": "uint256",
          "name": "",
          "type": "uint256"
        }
      ],
      "stateMutability": "nonpayable",
      "type": "function"
    },
    {
      "inputs": [
        {
          "internalType": "uint256",
          "name": "tokenId",
          "type": "uint256"
        },
        {
          "internalType": "bytes32",
          "name": "metadataDigest",
          "type": "bytes32"
        }
      ],
      "name": "updateSRRMetadata",
      "outputs": [],
      "stateMutability": "nonpayable",
      "type": "function"
    },
    {
      "inputs": [
        {
          "internalType": "uint256",
          "name": "tokenId",
          "type": "uint256"
        }
      ],
      "name": "getSRROwner",
      "outputs": [
        {
          "internalType": "address",
          "name": "",
          "type": "address"
        }
      ],
      "stateMutability": "view",
      "type": "function",
      "constant": true
    },
    {
      "inputs": [
        {
          "internalType": "uint256",
          "name": "tokenId",
          "type": "uint256"
        },
        {
          "internalType": "bytes32",
          "name": "commitment",
          "type": "bytes32"
        },
        {
          "internalType": "string",
          "name": "historyMetadataDigest",
          "type": "string"
        },
        {
          "internalType": "uint256",
          "name": "customHistoryId",
          "type": "uint256"
        }
      ],
      "name": "approveSRRByCommitment",
      "outputs": [],
      "stateMutability": "nonpayable",
      "type": "function"
    },
    {
      "inputs": [
        {
          "internalType": "uint256",
          "name": "tokenId",
          "type": "uint256"
        },
        {
          "internalType": "bytes32",
          "name": "commitment",
          "type": "bytes32"
        },
        {
          "internalType": "string",
          "name": "historyMetadataDigest",
          "type": "string"
        }
      ],
      "name": "approveSRRByCommitment",
      "outputs": [],
      "stateMutability": "nonpayable",
      "type": "function"
    },
    {
      "inputs": [
        {
          "internalType": "uint256",
          "name": "tokenId",
          "type": "uint256"
        }
      ],
      "name": "cancelSRRCommitment",
      "outputs": [],
      "stateMutability": "nonpayable",
      "type": "function"
    },
    {
      "inputs": [
        {
          "internalType": "address",
          "name": "to",
          "type": "address"
        },
        {
          "internalType": "bytes32",
          "name": "reveal",
          "type": "bytes32"
        },
        {
          "internalType": "uint256",
          "name": "tokenId",
          "type": "uint256"
        }
      ],
      "name": "transferSRRByReveal",
      "outputs": [],
      "stateMutability": "nonpayable",
      "type": "function"
    },
    {
      "inputs": [
        {
          "internalType": "address",
          "name": "nameRegistry",
          "type": "address"
        }
      ],
      "name": "setNameRegistryAddress",
      "outputs": [],
      "stateMutability": "nonpayable",
      "type": "function"
    },
    {
      "inputs": [
        {
          "internalType": "bytes32",
          "name": "digest",
          "type": "bytes32"
        }
      ],
      "name": "setTokenURISchemaIntegrityDigest",
      "outputs": [],
      "stateMutability": "nonpayable",
      "type": "function"
    },
    {
      "inputs": [
        {
          "internalType": "string",
          "name": "URIPrefix",
          "type": "string"
        },
        {
          "internalType": "string",
          "name": "URIPostfix",
          "type": "string"
        }
      ],
      "name": "setTokenURIParts",
      "outputs": [],
      "stateMutability": "nonpayable",
      "type": "function"
    },
    {
      "inputs": [
        {
          "internalType": "uint256",
          "name": "tokenId",
          "type": "uint256"
        }
      ],
      "name": "getSRR",
      "outputs": [
        {
          "components": [
            {
              "internalType": "bool",
              "name": "isPrimaryIssuer",
              "type": "bool"
            },
            {
              "internalType": "address",
              "name": "artistAddress",
              "type": "address"
            },
            {
              "internalType": "address",
              "name": "issuer",
              "type": "address"
            }
          ],
          "internalType": "struct IStartrailRegistry.SRR",
          "name": "registryRecord",
          "type": "tuple"
        },
        {
          "internalType": "bytes32",
          "name": "metadataDigest",
          "type": "bytes32"
        }
      ],
      "stateMutability": "view",
      "type": "function",
      "constant": true
    },
    {
      "inputs": [
        {
          "internalType": "uint256",
          "name": "tokenId",
          "type": "uint256"
        }
      ],
      "name": "getSRRCommitment",
      "outputs": [
        {
          "internalType": "bytes32",
          "name": "",
          "type": "bytes32"
        }
      ],
      "stateMutability": "view",
      "type": "function",
      "constant": true
    },
    {
      "inputs": [
        {
          "internalType": "uint256",
          "name": "tokenId",
          "type": "uint256"
        }
      ],
      "name": "tokenURISchemaIntegrity",
      "outputs": [
        {
          "internalType": "bytes",
          "name": "digest",
          "type": "bytes"
        },
        {
          "internalType": "string",
          "name": "hashAlgorithm",
          "type": "string"
        }
      ],
      "stateMutability": "view",
      "type": "function",
      "constant": true
    },
    {
      "inputs": [
        {
          "internalType": "uint256",
          "name": "tokenId",
          "type": "uint256"
        }
      ],
      "name": "tokenURIIntegrity",
      "outputs": [
        {
          "internalType": "bytes",
          "name": "digest",
          "type": "bytes"
        },
        {
          "internalType": "string",
          "name": "hashAlgorithm",
          "type": "string"
        }
      ],
      "stateMutability": "view",
      "type": "function",
      "constant": true
    },
    {
      "inputs": [
        {
          "internalType": "uint256",
          "name": "tokenId",
          "type": "uint256"
        }
      ],
      "name": "tokenURI",
      "outputs": [
        {
          "internalType": "string",
          "name": "",
          "type": "string"
        }
      ],
      "stateMutability": "view",
      "type": "function",
      "constant": true
    },
    {
      "inputs": [
        {
          "internalType": "string",
          "name": "metadataDigest",
          "type": "string"
        }
      ],
      "name": "tokenURI",
      "outputs": [
        {
          "internalType": "string",
          "name": "",
          "type": "string"
        }
      ],
      "stateMutability": "view",
      "type": "function",
      "constant": true
    },
    {
      "inputs": [
        {
          "internalType": "uint256",
          "name": "tokenId",
          "type": "uint256"
        }
      ],
      "name": "getHistoryMetadataDigest",
      "outputs": [
        {
          "internalType": "string",
          "name": "",
          "type": "string"
        }
      ],
      "stateMutability": "view",
      "type": "function",
      "constant": true
    },
    {
      "inputs": [
        {
          "internalType": "uint256",
          "name": "id",
          "type": "uint256"
        },
        {
          "internalType": "string",
          "name": "name",
          "type": "string"
        },
        {
          "internalType": "string",
          "name": "customHistoryType",
          "type": "string"
        },
        {
          "internalType": "string",
          "name": "metadataDigest",
          "type": "string"
        }
      ],
      "name": "writeCustomHistory",
      "outputs": [],
      "stateMutability": "nonpayable",
      "type": "function"
    },
    {
      "inputs": [
        {
          "internalType": "uint256",
          "name": "id",
          "type": "uint256"
        }
      ],
      "name": "getCustomHistoryNameById",
      "outputs": [
        {
          "internalType": "string",
          "name": "",
          "type": "string"
        }
      ],
      "stateMutability": "view",
      "type": "function",
      "constant": true
    },
    {
      "inputs": [
        {
          "internalType": "address",
          "name": "from",
          "type": "address"
        },
        {
          "internalType": "address",
          "name": "to",
          "type": "address"
        },
        {
          "internalType": "uint256",
          "name": "tokenId",
          "type": "uint256"
        }
      ],
      "name": "transferSRRFrom",
      "outputs": [],
      "stateMutability": "nonpayable",
      "type": "function"
    },
    {
      "inputs": [
        {
          "internalType": "bytes32",
          "name": "metadataDigest",
          "type": "bytes32"
        },
        {
          "internalType": "address",
          "name": "artistAddress",
          "type": "address"
        }
      ],
      "name": "getTokenId",
      "outputs": [
        {
          "internalType": "uint256",
          "name": "",
          "type": "uint256"
        }
      ],
      "stateMutability": "view",
      "type": "function",
      "constant": true
    }
  ],
  "bytecode": "0x608060405234801561001057600080fd5b50614e3c806100206000396000f3fe608060405234801561001057600080fd5b506004361061028a5760003560e01c8063715018a61161015c578063a03c35d7116100ce578063c87b56dd11610087578063c87b56dd146105a0578063ca9b846d146105b3578063caae188e146105c6578063d3c371a4146105d9578063e985e9c5146105ec578063f2fde38b146105ff5761028a565b8063a03c35d714610539578063a22cb4651461054c578063b88d4fde1461055f578063b9bb3f5914610572578063c0b0072414610585578063c23fff0b146105985761028a565b806387c4af1e1161012057806387c4af1e146104dd578063897ac755146104f05780638da5cb5b1461050357806395d89b411461050b5780639a1df735146105135780639db171a0146105265761028a565b8063715018a614610489578063796db312146104915780637a40d44f146104a457806381882bd0146104b757806386492c3d146104ca5761028a565b8063491a0de01161020057806356f73511116101b957806356f73511146104225780635f915423146104355780636258f93e146104485780636352211e1461045b5780636c0360eb1461046e57806370a08231146104765761028a565b8063491a0de01461039557806349846680146103a85780634c5ad05d146103c95780634cf12d26146103e95780634d7ef472146103fc5780634da0ab621461040f5761028a565b80631c0939c5116102525780631c0939c5146103155780631fe831001461032857806323b872dd1461034957806326e2c0441461035c5780634247794c1461036f57806342842e0e146103825761028a565b806301ffc9a71461028f57806306fdde03146102b8578063081812fc146102cd578063095ea7b3146102ed578063109a037a14610302575b600080fd5b6102a261029d366004613e8e565b610612565b6040516102af9190614424565b60405180910390f35b6102c0610681565b6040516102af9190614492565b6102e06102db366004613e52565b610718565b6040516102af91906143bc565b6103006102fb366004613c36565b610764565b005b610300610310366004613ab0565b6107fc565b610300610323366004613c61565b610870565b61033b610336366004613e52565b6108d8565b6040516102af929190614ce6565b610300610357366004613ab0565b610a9b565b61030061036a366004613b87565b610ad3565b61030061037d366004613e52565b610c73565b610300610390366004613ab0565b610d23565b6103006103a3366004613f18565b610d3e565b6103bb6103b6366004613e52565b610e4d565b6040516102af929190614464565b6103dc6103d7366004613e6a565b610f0e565b6040516102af91906141c4565b6102c06103f7366004613ee5565b610fa3565b61030061040a366004613fc8565b61108a565b61030061041d366004613bbb565b6111e7565b6102c0610430366004613e52565b61146c565b6102e0610443366004613e52565b61158c565b6103dc610456366004613d40565b611597565b6102e0610469366004613e52565b61164c565b6102c0611667565b6103dc610484366004613a40565b6116c8565b61030061170c565b6102e061049f366004613e52565b61178b565b6103006104b2366004613e52565b6117a6565b6103006104c5366004613fe9565b611845565b6103dc6104d8366004613f87565b611a61565b6103006104eb366004613f18565b611bb3565b6103dc6104fe366004613e52565b611d1d565b6102e0611da5565b6102c0611db4565b6102c0610521366004613e52565b611e15565b6103dc610534366004613d5f565b611f0d565b61030061054736600461407c565b611fd4565b61030061055a366004613b5a565b6120b7565b61030061056d366004613af0565b612185565b6103dc610580366004613db1565b6121be565b610300610593366004614037565b6122b7565b6102c06125bc565b6102c06105ae366004613e52565b6125de565b6103006105c1366004613c36565b612728565b6103bb6105d4366004613e52565b6127db565b6103006105e7366004613a40565b6128e2565b6102a26105fa366004613a78565b6129b2565b61030061060d366004613a40565b6129e0565b60006301ffc9a760e01b6001600160e01b03198316148061064357506341953f0760e11b6001600160e01b03198316145b8061065e57506380ac58cd60e01b6001600160e01b03198316145b806106795750635b5e139f60e01b6001600160e01b03198316145b90505b919050565b60a38054604080516020601f600260001961010060018816150201909516949094049384018190048102820181019092528281526060939092909183018282801561070d5780601f106106e25761010080835404028352916020019161070d565b820191906000526020600020905b8154815290600101906020018083116106f057829003601f168201915b505050505090505b90565b600061072382612a97565b6107485760405162461bcd60e51b815260040161073f906148dc565b60405180910390fd5b50600090815260a160205260409020546001600160a01b031690565b600061076f8261164c565b9050806001600160a01b0316836001600160a01b031614156107a35760405162461bcd60e51b815260040161073f90614ab1565b806001600160a01b03166107b5612ab4565b6001600160a01b031614806107d157506107d1816105fa612ab4565b6107ed5760405162461bcd60e51b815260040161073f906147c9565b6107f78383612ab8565b505050565b61080581612a97565b6108215760405162461bcd60e51b815260040161073f906146d5565b600061082c8261164c565b9050806001600160a01b0316846001600160a01b03161461085f5760405162461bcd60e51b815260040161073f90614bd2565b61086a848484612b26565b50505050565b610878612c32565b6108945760405162461bcd60e51b815260040161073f90614928565b60005b81518110156107f7576108d08382815181106108af57fe5b60200260200101518383815181106108c357fe5b6020026020010151612728565b600101610897565b6108e0613895565b6000826108ec81612a97565b6109085760405162461bcd60e51b815260040161073f90614721565b6000848152600260205260408082209051909190610925906142d5565b6040518091039020815260200190815260200160002060006040516109499061428b565b6040805191829003909120825260208083019390935290810160009081205460ff1615158652868152918290528082209051909190610987906142d5565b6040518091039020815260200190815260200160002060006040516109ab906142a6565b604080519182900390912082526020808301939093529081016000908120546001600160a01b0316868401528681529182905280822090519091906109ef906142d5565b604051809103902081526020019081526020016000206000604051610a1390614375565b604080519182900390912082526020808301939093529081016000908120546001600160a01b03168683015286815260059092528082209051909190610a58906142d5565b604051809103902081526020019081526020016000206000604051610a7c9061430e565b6040518091039020815260200190815260200160002054915050915091565b610aac610aa6612ab4565b82612d49565b610ac85760405162461bcd60e51b815260040161073f90614af2565b6107f7838383612b26565b80610add81612a97565b610af95760405162461bcd60e51b815260040161073f90614721565b600083604051602001610b0c91906141c4565b604051602081830303815290604052805190602001209050610b2d83611d1d565b8114610b4b5760405162461bcd60e51b815260040161073f9061495f565b6000610b568461158c565b9050610c57848288600660008981526020019081526020016000206000604051610b7f90614328565b604051809103902081526020019081526020016000206000604051610ba39061430e565b604051809103902081526020019081526020016000208054600181600116156101000203166002900480601f016020809104026020016040519081016040528092919081815260200182805460018160011615610100020316600290048015610c4d5780601f10610c2257610100808354040283529160200191610c4d565b820191906000526020600020905b815481529060010190602001808311610c3057829003601f168201915b5050505050612dc6565b610c6084612e2c565b610c6b8187866107fc565b505050505050565b806000610c7f8261158c565b90506001600160a01b038116331480610c9b5750610c9b612c32565b610cb75760405162461bcd60e51b815260040161073f90614b87565b82610cc181612a97565b610cdd5760405162461bcd60e51b815260040161073f90614721565b610ce684612e2c565b7fe4d7874df736cca373c5dd3bdf5df443422997d6c00887fcec2ca658486718e384604051610d1591906141c4565b60405180910390a150505050565b6107f783838360405180602001604052806000815250612185565b610d46612c32565b610d625760405162461bcd60e51b815260040161073f90614928565b600080805260066020526040518391600080516020614de783398151915291610d8a906142d5565b604051809103902081526020019081526020016000206000604051610dae90614360565b604051809103902081526020019081526020016000209080519060200190610dd79291906138b5565b50600080805260066020526040518291600080516020614de783398151915291610e00906142d5565b604051809103902081526020019081526020016000206000604051610e24906142bf565b6040518091039020815260200190815260200160002090805190602001906107f79291906138b5565b60608082610e5a81612a97565b610e765760405162461bcd60e51b815260040161073f90614721565b6000848152600560205260408082209051909190610e93906142d5565b604051809103902081526020019081526020016000206000604051610eb79061430e565b6040518091039020815260200190815260200160002054604051602001610ede91906141c4565b60408051601f19818403018152828201909152600682526539b430991a9b60d11b60208301529590945092505050565b604051630e1793b160e31b815260009073__IDGenerator___________________________906370bc9d8890610f4a908690869060040161442f565b60206040518083038186803b158015610f6257600080fd5b505af4158015610f76573d6000803e3d6000fd5b505050506040513d601f19601f82011682018060405250810190610f9a9190613f6f565b90505b92915050565b60008080526006602052604051606091600080516020614de783398151915291610fcc906142d5565b604051809103902081526020019081526020016000206000604051610ff090614360565b6040518091039020815260200190815260200160002082600660008081526020019081526020016000206000604051611028906142d5565b60405180910390208152602001908152602001600020600060405161104c906142bf565b604051809103902081526020019081526020016000206040516020016110749392919061420e565b6040516020818303038152906040529050919050565b611092612f04565b6001600160a01b031663938509d3336040518263ffffffff1660e01b81526004016110bd91906143bc565b60206040518083038186803b1580156110d557600080fd5b505afa1580156110e9573d6000803e3d6000fd5b505050506040513d601f19601f8201168201806040525081019061110d9190613d24565b6111295760405162461bcd60e51b815260040161073f90614c90565b8161113381612a97565b61114f5760405162461bcd60e51b815260040161073f90614721565b600083815260056020526040808220905184929061116c906142d5565b6040518091039020815260200190815260200160002060006040516111909061430e565b6040518091039020815260200190815260200160002081905550827f066fee88cab40947b280fc684b91be9189e54fec4ea099ad23d9ba420d113d4b836040516111da91906141c4565b60405180910390a2505050565b600854610100900460ff16806112005750611200612f8a565b8061120e575060085460ff16155b61122a5760405162461bcd60e51b815260040161073f906149cb565b600854610100900460ff16158015611255576008805460ff1961ff0019909116610100171660011790555b6000808052602081905260405186917fad3228b676f7d3cd4284a5443f17f1962b36e491b30a40b2405849e597ba5fb59161128f90614387565b6040518091039020815260200190815260200160002060006040516112b390614387565b6040518091039020815260200190815260200160002060006101000a8154816001600160a01b0302191690836001600160a01b031602179055508360066000808152602001908152602001600020600060405161130f906142d5565b60405180910390208152602001908152602001600020600060405161133390614360565b60405180910390208152602001908152602001600020908051906020019061135c9291906138b5565b50600080805260066020526040518491600080516020614de783398151915291611385906142d5565b6040518091039020815260200190815260200160002060006040516113a9906142bf565b6040518091039020815260200190815260200160002090805190602001906113d29291906138b5565b506000808052600560205260405183917f05b8ccbb9d4d8fb16ea74ce3c29a41f1b461fbdaff4714a0d9a8eb05499746bc9161140d906142d5565b60405180910390208152602001908152602001600020600060405161143190614345565b6040518091039020815260200190815260200160002081905550611453612f90565b8015611465576008805461ff00191690555b5050505050565b60608161147881612a97565b6114945760405162461bcd60e51b815260040161073f90614721565b60008381526006602052604080822090519091906114b190614328565b6040518091039020815260200190815260200160002060006040516114d59061430e565b604051809103902081526020019081526020016000208054600181600116156101000203166002900480601f01602080910402602001604051908101604052809291908181526020018280546001816001161561010002031660029004801561157f5780601f106115545761010080835404028352916020019161157f565b820191906000526020600020905b81548152906001019060200180831161156257829003601f168201915b5050505050915050919050565b60006106798261164c565b60006115a1612f04565b6001600160a01b031663938509d3336040518263ffffffff1660e01b81526004016115cc91906143bc565b60206040518083038186803b1580156115e457600080fd5b505afa1580156115f8573d6000803e3d6000fd5b505050506040513d601f19601f8201168201806040525081019061161c9190613d24565b6116385760405162461bcd60e51b815260040161073f90614c90565b61164484848433613023565b949350505050565b6000908152609f60205260409020546001600160a01b031690565b60a68054604080516020601f600260001961010060018816150201909516949094049384018190048102820181019092528281526060939092909183018282801561070d5780601f106106e25761010080835404028352916020019161070d565b60006001600160a01b0382166116f05760405162461bcd60e51b815260040161073f90614826565b506001600160a01b0316600090815260a0602052604090205490565b611714612ab4565b606d546001600160a01b039081169116146117415760405162461bcd60e51b815260040161073f90614996565b606d546040516000916001600160a01b0316907f8be0079c531659141344cd1fd0a4f28419497f9722a3daafe3b4186f6b6457e0908390a3606d80546001600160a01b0319169055565b609f602052600090815260409020546001600160a01b031681565b6117ae612c32565b6117ca5760405162461bcd60e51b815260040161073f90614928565b6000808052600560205260405182917f05b8ccbb9d4d8fb16ea74ce3c29a41f1b461fbdaff4714a0d9a8eb05499746bc91611804906142d5565b60405180910390208152602001908152602001600020600060405161182890614345565b604051809103902081526020019081526020016000208190555050565b8260006118518261158c565b90506001600160a01b03811633148061186d575061186d612c32565b6118895760405162461bcd60e51b815260040161073f90614b87565b8461189381612a97565b6118af5760405162461bcd60e51b815260040161073f90614721565b60006118ba8761158c565b6000888152600560205260408082209051929350916118d8906142d5565b6040518091039020815260200190815260200160002060006040516118fc906143a6565b6040518091039020815260200190815260200160002054600014611952577fe4d7874df736cca373c5dd3bdf5df443422997d6c00887fcec2ca658486718e38760405161194991906141c4565b60405180910390a15b600087815260056020526040808220905188929061196f906142d5565b604051809103902081526020019081526020016000206000604051611993906143a6565b6040518091039020815260200190815260200160002081905550846006600089815260200190815260200160002060006040516119cf90614328565b6040518091039020815260200190815260200160002060006040516119f39061430e565b604051809103902081526020019081526020016000209080519060200190611a1c9291906138b5565b507fcdbfdef7607032fffe5ee3842c85173a06cfec881d773a96b04e17fbffc2c69d818789604051611a5093929190614403565b60405180910390a150505050505050565b6000611a6b612f04565b6001600160a01b031663938509d3336040518263ffffffff1660e01b8152600401611a9691906143bc565b60206040518083038186803b158015611aae57600080fd5b505afa158015611ac2573d6000803e3d6000fd5b505050506040513d601f19601f82011682018060405250810190611ae69190613d24565b611b025760405162461bcd60e51b815260040161073f90614c90565b83611b0c81612a97565b611b285760405162461bcd60e51b815260040161073f90614721565b611b338585856131aa565b611b4f5760405162461bcd60e51b815260040161073f90614758565b6040805160608101825285151581526001600160a01b03851660208201523381830152905186917fb98f49356fbcbbd9b5095e1fe59804755dd39c72fa41309a59fd2830909a54cf91611ba29190614cd8565b60405180910390a250929392505050565b611bbb612ab4565b606d546001600160a01b03908116911614611be85760405162461bcd60e51b815260040161073f90614996565b600080805260026020526040517fac33ff75c19e70fe83507db0d683fd3465c996598dc972688b7ace676c89077b9190611c21906142ef565b604051809103902081526020019081526020016000206000604051611c45906142ef565b604080519182900390912082526020820192909252016000205460ff16611d0157611c7082826132a3565b600080805260026020526040516001917fac33ff75c19e70fe83507db0d683fd3465c996598dc972688b7ace676c89077b91611cab906142ef565b604051809103902081526020019081526020016000206000604051611ccf906142ef565b6040518091039020815260200190815260200160002060006101000a81548160ff021916908315150217905550611d19565b60405162461bcd60e51b815260040161073f90614c16565b5050565b600081611d2981612a97565b611d455760405162461bcd60e51b815260040161073f90614721565b6000838152600560205260408082209051909190611d62906142d5565b604051809103902081526020019081526020016000206000604051611d86906143a6565b6040518091039020815260200190815260200160002054915050919050565b606d546001600160a01b031690565b60a48054604080516020601f600260001961010060018816150201909516949094049384018190048102820181019092528281526060939092909183018282801561070d5780601f106106e25761010080835404028352916020019161070d565b600081815260066020526040808220905160609290611e3390614241565b604051809103902081526020019081526020016000206000604051611e5790614241565b604051809103902081526020019081526020016000208054600181600116156101000203166002900480601f016020809104026020016040519081016040528092919081815260200182805460018160011615610100020316600290048015611f015780601f10611ed657610100808354040283529160200191611f01565b820191906000526020600020905b815481529060010190602001808311611ee457829003601f168201915b50505050509050919050565b600080611f18612f04565b6001600160a01b031663f72d0b3b60026040518263ffffffff1660e01b8152600401611f449190614d2c565b60206040518083038186803b158015611f5c57600080fd5b505afa158015611f70573d6000803e3d6000fd5b505050506040513d601f19601f82011682018060405250810190611f949190613a5c565b90506001600160a01b0381163314611fbe5760405162461bcd60e51b815260040161073f906144a5565b611fca86868686613023565b9695505050505050565b611fdc612c32565b611ff85760405162461bcd60e51b815260040161073f90614928565b600084815260066020526040808220905185929061201590614241565b60405180910390208152602001908152602001600020600060405161203990614241565b6040518091039020815260200190815260200160002090805190602001906120629291906138b5565b508160405161207191906141cd565b6040518091039020847f81eddf14458e7c01254dd82e62e80d552c8a5caf622e6a425d25ee69836a4a19836040516120a99190614492565b60405180910390a350505050565b6120bf612ab4565b6001600160a01b0316826001600160a01b031614156120f05760405162461bcd60e51b815260040161073f9061469e565b8060a260006120fd612ab4565b6001600160a01b03908116825260208083019390935260409182016000908120918716808252919093529120805460ff191692151592909217909155612141612ab4565b6001600160a01b03167f17307eab39ab6107e8899845ad3d59bd9653f200f220920489ca2b5937696c31836040516121799190614424565b60405180910390a35050565b612196612190612ab4565b83612d49565b6121b25760405162461bcd60e51b815260040161073f90614af2565b61086a848484846132ca565b60008160006121d082600001516132fd565b90506000600182846020015185604001518660600151604051600081526020016040526040516122039493929190614446565b6020604051602081039080840390855afa158015612225573d6000803e3d6000fd5b505050602060405103519050806001600160a01b031683608001516001600160a01b0316146122665760405162461bcd60e51b815260040161073f90614870565b61226e612ab4565b606d546001600160a01b0390811691161461229b5760405162461bcd60e51b815260040161073f90614996565b6122ab8888888860800151613023565b50505050949350505050565b8360006122c38261158c565b90506001600160a01b0381163314806122df57506122df612c32565b6122fb5760405162461bcd60e51b815260040161073f90614b87565b8561230581612a97565b6123215760405162461bcd60e51b815260040161073f90614721565b600084815260066020526040808220905186929061233e90614241565b60405180910390208152602001908152602001600020600060405161236290614241565b60405180910390208152602001908152602001600020805460018160011615610100020316600290049050600014156123ad5760405162461bcd60e51b815260040161073f90614b43565b60006123b88961158c565b60008a8152600560205260408082209051929350916123d6906142d5565b6040518091039020815260200190815260200160002060006040516123fa906143a6565b6040518091039020815260200190815260200160002054600014612450577fe4d7874df736cca373c5dd3bdf5df443422997d6c00887fcec2ca658486718e38960405161244791906141c4565b60405180910390a15b60008981526005602052604080822090518a929061246d906142d5565b604051809103902081526020019081526020016000206000604051612491906143a6565b604051809103902081526020019081526020016000208190555086600660008b815260200190815260200160002060006040516124cd90614328565b6040518091039020815260200190815260200160002060006040516124f19061430e565b60405180910390208152602001908152602001600020908051906020019061251a9291906138b5565b50600089815260016020526040808220905188929061253890614328565b60405180910390208152602001908152602001600020600060405161255c90614241565b60405180910390208152602001908152602001600020819055507fcdbfdef7607032fffe5ee3842c85173a06cfec881d773a96b04e17fbffc2c69d81898b6040516125a993929190614403565b60405180910390a1505050505050505050565b6040518060400160405280600681526020016539b430991a9b60d11b81525081565b60606125e982612a97565b6126055760405162461bcd60e51b815260040161073f90614a62565b600082815260a5602090815260409182902080548351601f600260001961010060018616150201909316929092049182018490048402810184019094528084526060939283018282801561269a5780601f1061266f5761010080835404028352916020019161269a565b820191906000526020600020905b81548152906001019060200180831161267d57829003601f168201915b505060a654939450505050600260001961010060018416150201909116046126c357905061067c565b8051156126f55760a6816040516020016126de9291906141e9565b60405160208183030381529060405291505061067c565b60a66127008461332d565b6040516020016127119291906141e9565b604051602081830303815290604052915050919050565b612730612c32565b61274c5760405162461bcd60e51b815260040161073f90614928565b60008181526020819052604080822090518290612768906142d5565b60405180910390208152602001908152602001600020600060405161278c90614375565b60408051918290039091208252602082019290925201600020546001600160a01b0316146127c3576127be8282613408565b611d19565b60405162461bcd60e51b815260040161073f90614c59565b606080826127e881612a97565b6128045760405162461bcd60e51b815260040161073f90614721565b60008481526020819052604080822090518290612820906142d5565b6040518091039020815260200190815260200160002060006040516128449061428b565b60408051918290039091208252602082019290925201600020546001600160a01b031614156128855760405162461bcd60e51b815260040161073f906144ed565b600080805260056020526040517f05b8ccbb9d4d8fb16ea74ce3c29a41f1b461fbdaff4714a0d9a8eb05499746bc91906128be906142d5565b604051809103902081526020019081526020016000206000604051610eb790614345565b6128ea612ab4565b606d546001600160a01b039081169116146129175760405162461bcd60e51b815260040161073f90614996565b6000808052602081905260405182917fad3228b676f7d3cd4284a5443f17f1962b36e491b30a40b2405849e597ba5fb59161295190614387565b60405180910390208152602001908152602001600020600060405161297590614387565b6040518091039020815260200190815260200160002060006101000a8154816001600160a01b0302191690836001600160a01b0316021790555050565b6001600160a01b03918216600090815260a26020908152604080832093909416825291909152205460ff1690565b6129e8612ab4565b606d546001600160a01b03908116911614612a155760405162461bcd60e51b815260040161073f90614996565b6001600160a01b038116612a3b5760405162461bcd60e51b815260040161073f906145a6565b606d546040516001600160a01b038084169216907f8be0079c531659141344cd1fd0a4f28419497f9722a3daafe3b4186f6b6457e090600090a3606d80546001600160a01b0319166001600160a01b0392909216919091179055565b6000908152609f60205260409020546001600160a01b0316151590565b3390565b600081815260a16020526040902080546001600160a01b0319166001600160a01b0384169081179091558190612aed8261164c565b6001600160a01b03167f8c5be1e5ebec7d5bd14f71427d1e84f3dd0314c0f7b2291e5b200ac8c7c3b92560405160405180910390a45050565b826001600160a01b0316612b398261164c565b6001600160a01b031614612b5f5760405162461bcd60e51b815260040161073f90614a19565b6001600160a01b038216612b855760405162461bcd60e51b815260040161073f9061465a565b612b908383836107f7565b612b9b600082612ab8565b6001600160a01b03808416600090815260a06020526040808220805460001901905591841681522054612bd590600163ffffffff6134e416565b506000818152609f602052604080822080546001600160a01b0319166001600160a01b0386811691821790925591518493918716917fddf252ad1be2c89b69c2b068fc378daa952ba7f163c4a11628f55a4df523b3ef91a4505050565b6000612c3c612f04565b6001600160a01b031663938509d3336040518263ffffffff1660e01b8152600401612c6791906143bc565b60206040518083038186803b158015612c7f57600080fd5b505afa158015612c93573d6000803e3d6000fd5b505050506040513d601f19601f82011682018060405250810190612cb79190613d24565b612cc357506000610715565b336000816001600160a01b031663419900776040518163ffffffff1660e01b815260040160206040518083038186803b158015612cff57600080fd5b505afa158015612d13573d6000803e3d6000fd5b505050506040513d601f19601f82011682018060405250810190612d379190613ec6565b6002811115612d4257fe5b1491505090565b6000612d5482612a97565b612d705760405162461bcd60e51b815260040161073f906146d5565b6000612d7b8361164c565b9050806001600160a01b0316846001600160a01b03161480612db65750836001600160a01b0316612dab84610718565b6001600160a01b0316145b80611644575061164481856129b2565b426060612dd283610fa3565b9050836001600160a01b0316856001600160a01b0316877f7ead3b4ab8784feb4b0e4662f1b1436cbb7ce34397455233d5a99f01707bfb89858786604051612e1c93929190614d01565b60405180910390a4505050505050565b60008181526005602052604080822090518290612e48906142d5565b604051809103902081526020019081526020016000206000604051612e6c906143a6565b604051809103902081526020019081526020016000208190555060405180602001604052806000815250600660008381526020019081526020016000206000604051612eb790614328565b604051809103902081526020019081526020016000206000604051612edb9061430e565b604051809103902081526020019081526020016000209080519060200190611d199291906138b5565b600080805260208190526040517fad3228b676f7d3cd4284a5443f17f1962b36e491b30a40b2405849e597ba5fb5908290612f3e90614387565b604051809103902081526020019081526020016000206000604051612f6290614387565b60408051918290039091208252602082019290925201600020546001600160a01b0316905090565b303b1590565b600854610100900460ff1680612fa95750612fa9612f8a565b80612fb7575060085460ff16155b612fd35760405162461bcd60e51b815260040161073f906149cb565b600854610100900460ff16158015612ffe576008805460ff1961ff0019909116610100171660011790555b613006613509565b61300e61358a565b8015613020576008805461ff00191690555b50565b600080613031838587613664565b9050826000808381526020019081526020016000206000604051613054906142d5565b60405180910390208152602001908152602001600020600060405161307890614375565b6040518091039020815260200190815260200160002060006101000a8154816001600160a01b0302191690836001600160a01b03160217905550836005600083815260200190815260200160002060006040516130d4906142d5565b6040518091039020815260200190815260200160002060006040516130f89061430e565b604051809103902081526020019081526020016000208190555061311d8187876131aa565b6131395760405162461bcd60e51b815260040161073f90614783565b807f8cf4110de18b813ef8193d0617c668b48076f2fc9d1d5767d627d9ec5ffcce1a60405180606001604052808915158152602001886001600160a01b03168152602001866001600160a01b031681525086604051613199929190614ce6565b60405180910390a295945050505050565b60008160008086815260200190815260200160002060006040516131cd906142d5565b6040518091039020815260200190815260200160002060006040516131f1906142a6565b6040518091039020815260200190815260200160002060006101000a8154816001600160a01b0302191690836001600160a01b031602179055508260026000868152602001908152602001600020600060405161324d906142d5565b6040518091039020815260200190815260200160002060006040516132719061428b565b60408051918290039091208252602082019290925201600020805460ff19169115159190911790555060019392505050565b81516132b69060a39060208501906138b5565b5080516107f79060a49060208401906138b5565b6132d5848484612b26565b6132e184848484613722565b61086a5760405162461bcd60e51b815260040161073f90614524565b600081604051602001613310919061425a565b604051602081830303815290604052805190602001209050919050565b60608161335257506040805180820190915260018152600360fc1b602082015261067c565b8160005b811561336a57600101600a82049150613356565b60608167ffffffffffffffff8111801561338357600080fd5b506040519080825280601f01601f1916602001820160405280156133ae576020820181803683370190505b50859350905060001982015b83156133ff57600a840660300160f81b828280600190039350815181106133dd57fe5b60200101906001600160f81b031916908160001a905350600a840493506133ba565b50949350505050565b6001600160a01b03821661342e5760405162461bcd60e51b815260040161073f906148a7565b61343781612a97565b156134545760405162461bcd60e51b815260040161073f906145ec565b613460600083836107f7565b6001600160a01b038216600090815260a0602052604090205461348a90600163ffffffff6134e416565b506000818152609f602052604080822080546001600160a01b0319166001600160a01b03861690811790915590518392907fddf252ad1be2c89b69c2b068fc378daa952ba7f163c4a11628f55a4df523b3ef908290a45050565b600082820183811015610f9a5760405162461bcd60e51b815260040161073f90614623565b600854610100900460ff16806135225750613522612f8a565b80613530575060085460ff16155b61354c5760405162461bcd60e51b815260040161073f906149cb565b600854610100900460ff1615801561300e576008805460ff1961ff0019909116610100171660011790558015613020576008805461ff001916905550565b600854610100900460ff16806135a357506135a3612f8a565b806135b1575060085460ff16155b6135cd5760405162461bcd60e51b815260040161073f906149cb565b600854610100900460ff161580156135f8576008805460ff1961ff0019909116610100171660011790555b6000613602612ab4565b606d80546001600160a01b0319166001600160a01b038316908117909155604051919250906000907f8be0079c531659141344cd1fd0a4f28419497f9722a3daafe3b4186f6b6457e0908290a3508015613020576008805461ff001916905550565b60008073__IDGenerator___________________________6370bc9d8885856040518363ffffffff1660e01b81526004016136a092919061442f565b60206040518083038186803b1580156136b857600080fd5b505af41580156136cc573d6000803e3d6000fd5b505050506040513d601f19601f820116820180604052508101906136f09190613f6f565b90506136fb81612a97565b156137185760405162461bcd60e51b815260040161073f90614576565b6116448582613408565b6000613736846001600160a01b031661385c565b61374257506001611644565b600060606001600160a01b038616630a85bd0160e11b613760612ab4565b89888860405160240161377694939291906143d0565b60408051601f198184030181529181526020820180516001600160e01b03166001600160e01b03199094169390931790925290516137b491906141cd565b6000604051808303816000865af19150503d80600081146137f1576040519150601f19603f3d011682016040523d82523d6000602084013e6137f6565b606091505b509150915081613828578051156138105780518082602001fd5b60405162461bcd60e51b815260040161073f90614524565b60008180602001905181019061383e9190613eaa565b6001600160e01b031916630a85bd0160e11b14935061164492505050565b6000813f7fc5d2460186f7233c927e7db2dcc703c0e500b653ca82273b7bfad8045d85a470818114801590611644575050151592915050565b604080516060810182526000808252602082018190529181019190915290565b828054600181600116156101000203166002900490600052602060002090601f016020900481019282601f106138f657805160ff1916838001178555613923565b82800160010185558215613923579182015b82811115613923578251825591602001919060010190613908565b5061392f929150613933565b5090565b61071591905b8082111561392f5760008155600101613939565b8035610f9d81614dad565b600082601f830112613968578081fd5b813561397b61397682614d61565b614d3a565b81815291506020808301908481018184028601820187101561399c57600080fd5b60005b848110156139bb5781358452928201929082019060010161399f565b505050505092915050565b600082601f8301126139d6578081fd5b813567ffffffffffffffff8111156139ec578182fd5b6139ff601f8201601f1916602001614d3a565b9150808252836020828501011115613a1657600080fd5b8060208401602084013760009082016020015292915050565b803560ff81168114610f9d57600080fd5b600060208284031215613a51578081fd5b8135610f9a81614dad565b600060208284031215613a6d578081fd5b8151610f9a81614dad565b60008060408385031215613a8a578081fd5b8235613a9581614dad565b91506020830135613aa581614dad565b809150509250929050565b600080600060608486031215613ac4578081fd5b8335613acf81614dad565b92506020840135613adf81614dad565b929592945050506040919091013590565b60008060008060808587031215613b05578081fd5b8435613b1081614dad565b93506020850135613b2081614dad565b925060408501359150606085013567ffffffffffffffff811115613b42578182fd5b613b4e878288016139c6565b91505092959194509250565b60008060408385031215613b6c578182fd5b8235613b7781614dad565b91506020830135613aa581614dc2565b600080600060608486031215613b9b578283fd5b8335613ba681614dad565b95602085013595506040909401359392505050565b60008060008060808587031215613bd0578182fd5b8435613bdb81614dad565b9350602085013567ffffffffffffffff80821115613bf7578384fd5b613c03888389016139c6565b94506040870135915080821115613c18578384fd5b50613c25878288016139c6565b949793965093946060013593505050565b60008060408385031215613c48578182fd5b8235613c5381614dad565b946020939093013593505050565b60008060408385031215613c73578182fd5b823567ffffffffffffffff80821115613c8a578384fd5b81850186601f820112613c9b578485fd5b80359250613cab61397684614d61565b80848252602080830192508084018a828389028701011115613ccb578889fd5b8894505b86851015613cf6578035613ce281614dad565b845260019490940193928101928101613ccf565b509096508701359350505080821115613d0d578283fd5b50613d1a85828601613958565b9150509250929050565b600060208284031215613d35578081fd5b8151610f9a81614dc2565b600080600060608486031215613d54578081fd5b8335613acf81614dc2565b60008060008060808587031215613d74578182fd5b8435613d7f81614dc2565b93506020850135613d8f81614dad565b9250604085013591506060850135613da681614dad565b939692955090935050565b600080600080848603610100811215613dc8578283fd5b8535613dd381614dc2565b94506020860135613de381614dad565b93506040860135925060a0605f1982011215613dfd578182fd5b50613e0860a0614d3a565b60608601358152613e1c8760808801613a2f565b602082015260a0860135604082015260c08601356060820152613e428760e0880161394d565b6080820152939692955090935050565b600060208284031215613e63578081fd5b5035919050565b60008060408385031215613e7c578182fd5b823591506020830135613aa581614dad565b600060208284031215613e9f578081fd5b8135610f9a81614dd0565b600060208284031215613ebb578081fd5b8151610f9a81614dd0565b600060208284031215613ed7578081fd5b815160038110610f9a578182fd5b600060208284031215613ef6578081fd5b813567ffffffffffffffff811115613f0c578182fd5b611644848285016139c6565b60008060408385031215613f2a578182fd5b823567ffffffffffffffff80821115613f41578384fd5b613f4d868387016139c6565b93506020850135915080821115613f62578283fd5b50613d1a858286016139c6565b600060208284031215613f80578081fd5b5051919050565b600080600060608486031215613f9b578081fd5b833592506020840135613fad81614dc2565b91506040840135613fbd81614dad565b809150509250925092565b60008060408385031215613fda578182fd5b50508035926020909101359150565b600080600060608486031215613ffd578081fd5b8335925060208401359150604084013567ffffffffffffffff811115614021578182fd5b61402d868287016139c6565b9150509250925092565b6000806000806080858703121561404c578182fd5b8435935060208501359250604085013567ffffffffffffffff811115614070578283fd5b613c25878288016139c6565b60008060008060808587031215614091578182fd5b84359350602085013567ffffffffffffffff808211156140af578384fd5b6140bb888389016139c6565b945060408701359150808211156140d0578384fd5b6140dc888389016139c6565b935060608701359150808211156140f1578283fd5b50613b4e878288016139c6565b60008151808452614116816020860160208601614d81565b601f01601f19169290920160200192915050565b60008154600180821660008114614148576001811461415f57614191565b60ff198316865260028304607f1686019350614191565b600283048560005260208060002060005b838110156141895781548a820152908501908201614170565b505050860193505b50505092915050565b8051151582526020808201516001600160a01b039081169184019190915260409182015116910152565b90815260200190565b600082516141df818460208701614d81565b9190910192915050565b60006141f5828561412a565b8351614205818360208801614d81565b01949350505050565b600061421a828661412a565b845161422a818360208901614d81565b6142368183018661412a565b979650505050505050565b6c637573746f6d486973746f727960981b8152600d0190565b7f19457468657265756d205369676e6564204d6573736167653a0a3332000000008152601c810191909152603c0190565b6e34b9a83934b6b0b93ca4b9b9bab2b960891b8152600f0190565b6c6172746973744164647265737360981b8152600d0190565b690aaa492a0dee6e8ccd2f60b31b8152600a0190565b6d1c9959da5cdd1c9e549958dbdc9960921b8152600e0190565b72115490cdcc8c5b5a59dc985d1a5bdb925b9a5d606a1b815260130190565b6d1b595d1859185d18511a59d95cdd60921b8152600e0190565b70686973746f727950726f76656e616e636560781b815260110190565b6e1cd8da195b58555492511a59d95cdd608a1b8152600f0190565b680aaa492a0e4caccd2f60bb1b815260090190565b6534b9b9bab2b960d11b815260060190565b726e616d6552656769737472794164647265737360681b815260130190565b6918dbdb5b5a5d1b595b9d60b21b8152600a0190565b6001600160a01b0391909116815260200190565b6001600160a01b0385811682528416602082015260408101839052608060608201819052600090611fca908301846140fe565b6001600160a01b039390931683526020830191909152604082015260600190565b901515815260200190565b9182526001600160a01b0316602082015260400190565b93845260ff9290921660208401526040830152606082015260800190565b60006040825261447760408301856140fe565b828103602084015261448981856140fe565b95945050505050565b600060208252610f9a60208301846140fe565b60208082526028908201527f5468652073656e6465722069736e2774207468652062756c6b2069737375652060408201526718dbdb9d1c9858dd60c21b606082015260800190565b6020808252601a908201527f74686520746f6b656e496420646f6573206e6f74206578697374000000000000604082015260600190565b60208082526032908201527f4552433732313a207472616e7366657220746f206e6f6e20455243373231526560408201527131b2b4bb32b91034b6b83632b6b2b73a32b960711b606082015260800190565b6020808252601690820152754552433732313a204120746f6b656e2065786973747360501b604082015260600190565b60208082526026908201527f4f776e61626c653a206e6577206f776e657220697320746865207a65726f206160408201526564647265737360d01b606082015260800190565b6020808252601c908201527f4552433732313a20746f6b656e20616c7265616479206d696e74656400000000604082015260600190565b6020808252601b908201527f536166654d6174683a206164646974696f6e206f766572666c6f770000000000604082015260600190565b60208082526024908201527f4552433732313a207472616e7366657220746f20746865207a65726f206164646040820152637265737360e01b606082015260800190565b60208082526019908201527f4552433732313a20617070726f766520746f2063616c6c657200000000000000604082015260600190565b6020808252602c908201527f4552433732313a206f70657261746f7220717565727920666f72206e6f6e657860408201526b34b9ba32b73a103a37b5b2b760a11b606082015260800190565b6020808252601a908201527f54686520746f6b656e496420646f6573206e6f74206578697374000000000000604082015260600190565b6020808252601190820152703330b4b6103a37903ab83230ba32a9a92960791b604082015260600190565b60208082526026908201527f6661696c20746f20736176652053746172747261696c20526567697374727920604082015265149958dbdc9960d21b606082015260800190565b60208082526038908201527f4552433732313a20617070726f76652063616c6c6572206973206e6f74206f7760408201527f6e6572206e6f7220617070726f76656420666f7220616c6c0000000000000000606082015260800190565b6020808252602a908201527f4552433732313a2062616c616e636520717565727920666f7220746865207a65604082015269726f206164647265737360b01b606082015260800190565b6020808252601e908201527f546865207369676e617475726520697320696e617070726f7072696174650000604082015260600190565b6020808252818101527f4552433732313a206d696e7420746f20746865207a65726f2061646472657373604082015260600190565b6020808252602c908201527f4552433732313a20617070726f76656420717565727920666f72206e6f6e657860408201526b34b9ba32b73a103a37b5b2b760a11b606082015260800190565b6020808252601b908201527f5468652073656e646572206973206e6f74207468652061646d696e0000000000604082015260600190565b6020808252601c908201527f48617368206f662072657665616c20646f65736e2774206d6174636800000000604082015260600190565b6020808252818101527f4f776e61626c653a2063616c6c6572206973206e6f7420746865206f776e6572604082015260600190565b6020808252602e908201527f436f6e747261637420696e7374616e63652068617320616c726561647920626560408201526d195b881a5b9a5d1a585b1a5e995960921b606082015260800190565b60208082526029908201527f4552433732313a207472616e73666572206f6620746f6b656e2074686174206960408201526839903737ba1037bbb760b91b606082015260800190565b6020808252602f908201527f4552433732314d657461646174613a2055524920717565727920666f72206e6f60408201526e3732bc34b9ba32b73a103a37b5b2b760891b606082015260800190565b60208082526021908201527f4552433732313a20617070726f76616c20746f2063757272656e74206f776e656040820152603960f91b606082015260800190565b60208082526031908201527f4552433732313a207472616e736665722063616c6c6572206973206e6f74206f6040820152701ddb995c881b9bdc88185c1c1c9bdd9959607a1b606082015260800190565b60208082526024908201527f54686520637573746f6d20686973746f727920696420646f6573206e6f7420656040820152631e1a5cdd60e21b606082015260800190565b6020808252602b908201527f53656e646572206973206e656974686572206120535252206f776e6572206e6f60408201526a39103a34329030b236b4b760a91b606082015260800190565b60208082526024908201527f4552433732313a207472616e736665722063616c6c6572206973206e6f74206f6040820152633bb732b960e11b606082015260800190565b60208082526023908201527f4d6967726174696f6e20696e697420616c726561647920696e766f6b6564206f6040820152626e636560e81b606082015260800190565b60208082526018908201527f5468697320746f6b656e20646f65736e27742065786973740000000000000000604082015260600190565b60208082526028908201527f5468652073656e646572206973206e6f74206c6963656e73656420757365722060408201526718dbdb9d1c9858dd60c21b606082015260800190565b60608101610f9d828461419a565b60808101614cf4828561419a565b8260608301529392505050565b600084825260606020830152614d1a60608301856140fe565b8281036040840152611fca81856140fe565b60ff91909116815260200190565b60405181810167ffffffffffffffff81118282101715614d5957600080fd5b604052919050565b600067ffffffffffffffff821115614d77578081fd5b5060209081020190565b60005b83811015614d9c578181015183820152602001614d84565b8381111561086a5750506000910152565b6001600160a01b038116811461302057600080fd5b801515811461302057600080fd5b6001600160e01b03198116811461302057600080fdfe54cdd369e4e8a8515e52ca72ec816c2101831ad1f18bf44102ed171459c9b4f8a26469706673582212208e3df146a2339dd34dfd4ed9ccb7fbbb8fb8ecd129fc3f12700888063aac44e864736f6c634300060b0033",
  "immutableReferences": {},
  "source": "pragma solidity 0.6.11;\npragma experimental ABIEncoderV2;\n\nimport \"@openzeppelin/contracts-ethereum-package/contracts/access/Ownable.sol\";\nimport \"../../common/IStartrailRegistry.sol\";\nimport \"../../lib/contracts/Signature.sol\";\nimport \"../../common/IStartrailValidator.sol\";\nimport \"../../name/contracts/NameRegistry.sol\";\nimport \"../../name/contracts/Contracts.sol\";\nimport \"./Storage.sol\";\nimport \"./IERC2477.sol\";\nimport \"./ILicensedUserType.sol\";\nimport \"./ERC721.sol\";\nimport \"../../lib/contracts/IDGenerator.sol\";\n\n// IRootLogic,\ncontract StartrailRegistry is\n    IStartrailValidator,\n    Contracts,\n    IERC2477,\n    Storage,\n    OwnableUpgradeSafe,\n    ERC721UpgradeSafe,\n    IStartrailRegistry\n{\n    /*\n     * Constants\n     */\n    // Static\n    uint256 private constant SRR_GLOBAL_SLOT = 0;\n    // types\n    bytes32 private constant _SRR = keccak256(\"registryRecord\");\n    bytes32 private constant _HISTORY = keccak256(\"historyProvenance\");\n\n    // values\n    bytes32 private constant _IS_PRIMARY_ISSUER = keccak256(\"isPrimaryIssuer\");\n    bytes32 private constant _ISSUER = keccak256(\"issuer\");\n    bytes32 private constant _ARTIST_ADDRESS = keccak256(\"artistAddress\");\n    bytes32 private constant _ROYALTY_RATE = keccak256(\"royaltyRate\");\n    bytes32 private constant _ROYALTY_RATE_DECIMALS = keccak256(\n        \"royaltyRateDecimals\"\n    );\n    bytes32 private constant _COMMITMENT = keccak256(\"commitment\");\n    bytes32 private constant _NAME_REGISTRY = keccak256(\"nameRegistryAddress\");\n\n    // metadata\n    bytes32 private constant _URI_PREFIX = keccak256(\"URIPrefix\");\n    bytes32 private constant _URI_POSTFIX = keccak256(\"URIPostfix\");\n    bytes32 private constant _SCHEMA_URI_DIGEST = keccak256(\"schemaURIDigest\");\n    bytes32 private constant _METADATA_DIGEST = keccak256(\"metadataDigest\");\n    bytes32 private constant _MIGRATION_INIT = keccak256(\"ERC721migrationInit\");\n\n    bytes32 private constant _CUSTOM_HISTORY = keccak256(\"customHistory\");\n    /*\n     * Hashing function.\n     */\n    string public constant HASH_ALGORITHM = \"sha256\";\n\n    /*\n     * Modifiers\n     */\n    modifier onlyAdmin() {\n        require(_isAdmin(), \"The sender is not the admin\");\n        _;\n    }\n\n    modifier onlyLicensedUser() {\n        require(\n            _nameRegistry().instantiation(msg.sender),\n            \"The sender is not licensed user contract\"\n        );\n        _;\n    }\n\n    modifier onlyBulk() {\n        address bulkIssueAddress = _nameRegistry().get(BULK_ISSUE);\n        require(\n            bulkIssueAddress == msg.sender,\n            \"The sender isn't the bulk issue contract\"\n        );\n        _;\n    }\n\n    modifier onlyArtist(uint256 tokenId) {\n        require(\n            msg.sender == _addressStorage[tokenId][_SRR][_ARTIST_ADDRESS] ||\n                _isAdmin(),\n            \"This is neither a artist nor the admin\"\n        );\n        _;\n    }\n\n    modifier onlyPrimaryIssuer(uint256 tokenId) {\n        require(\n            (msg.sender == _addressStorage[tokenId][_SRR][_ISSUER] &&\n                _boolStorage[tokenId][_SRR][_IS_PRIMARY_ISSUER]) || _isAdmin(),\n            \"This is neither a primary issuer nor the admin\"\n        );\n        _;\n    }\n\n    modifier onlySRROwner(uint256 tokenId) {\n        address owner = getSRROwner(tokenId);\n        require(\n            owner == msg.sender || _isAdmin(),\n            \"Sender is neither a SRR owner nor the admin\"\n        );\n        _;\n    }\n\n    modifier tokenExists(uint256 tokenId) {\n        require(\n            ERC721UpgradeSafe._exists(tokenId),\n            \"The tokenId does not exist\"\n        );\n        _;\n    }\n\n    modifier customHistoryIdExists(uint256 customHistoryId) {\n        require(\n            bytes(_stringStorage[customHistoryId][_CUSTOM_HISTORY][_CUSTOM_HISTORY]).length != 0,\n            // _stringStorage[customHistoryId][_CUSTOM_HISTORY][_CUSTOM_HISTORY] == address(0x0),\n            \"The custom history id does not exist\"\n        );\n        _;\n    }\n\n    /**\n     * @dev Initializes the address of the nameRegistry contract\n     * @param nameRegistry address of the NameRegistry\n     * @param URIPrefix string of the URI prefix of the scheme where SRR metadata is saved\n     * @param URIPostfix string of the URI postfix of the scheme\n     * @param schemaURIIntegrityDigest bytes32 of the URI digest of the scheme\n     */\n    function initialize(\n        address nameRegistry,\n        string memory URIPrefix,\n        string memory URIPostfix,\n        bytes32 schemaURIIntegrityDigest\n    ) public initializer {\n        _addressStorage[SRR_GLOBAL_SLOT][_NAME_REGISTRY][_NAME_REGISTRY] = nameRegistry;\n        _stringStorage[SRR_GLOBAL_SLOT][_SRR][_URI_PREFIX] = URIPrefix;\n        _stringStorage[SRR_GLOBAL_SLOT][_SRR][_URI_POSTFIX] = URIPostfix;\n        _bytes32Storage[SRR_GLOBAL_SLOT][_SRR][_SCHEMA_URI_DIGEST] = schemaURIIntegrityDigest;\n        OwnableUpgradeSafe.__Ownable_init();\n    }\n\n    function migrationInit(string memory name, string memory symbol)\n        public\n        onlyOwner\n    {\n        if (!_boolStorage[SRR_GLOBAL_SLOT][_MIGRATION_INIT][_MIGRATION_INIT]) {\n            ERC721UpgradeSafe.__ERC721_init_from_SR(name, symbol);\n            _boolStorage[SRR_GLOBAL_SLOT][_MIGRATION_INIT][_MIGRATION_INIT] = true;\n        } else {\n            revert(\"Migration init already invoked once\");\n        }\n    }\n\n    function tokenMigrationBatch(\n        address[] memory sender,\n        uint256[] memory tokenIds\n    ) public onlyAdmin {\n        for (uint256 index = 0; index < tokenIds.length; index++) {\n            tokenMigration(sender[index], tokenIds[index]);\n        }\n    }\n\n    function tokenMigration(address to, uint256 tokenId) public onlyAdmin {\n        if (_addressStorage[tokenId][_SRR][_ISSUER] != address(0)) {\n            ERC721UpgradeSafe._mint(to, tokenId);\n        } else {\n            revert(\"This token doesn't exist\");\n        }\n    }\n\n    function supportsInterface(bytes4 interfaceID)\n        external\n        override\n        view\n        returns (bool)\n    {\n        return\n            // bytes4(keccak256('supportsInterface(bytes4)')) == 0x01ffc9a7\n            interfaceID == 0x01ffc9a7 || // ERC165\n            /*\n             *   bytes4(keccak256('tokenURIIntegrity(uint256)')) == 0x49846680\n             *   bytes4(keccak256('tokenURISchemaIntegrity(uint256)')) == 0xcaae188e\n             *\n             *   => 0x49846680 ^ 0xcaae188e == 0x832a7e0e\n             */\n            interfaceID == 0x832a7e0e || // ERC2477\n            /*\n             *     bytes4(keccak256('balanceOf(address)')) == 0x70a08231\n             *     bytes4(keccak256('ownerOf(uint256)')) == 0x6352211e\n             *     bytes4(keccak256('approve(address,uint256)')) == 0x095ea7b3\n             *     bytes4(keccak256('getApproved(uint256)')) == 0x081812fc\n             *     bytes4(keccak256('setApprovalForAll(address,bool)')) == 0xa22cb465\n             *     bytes4(keccak256('isApprovedForAll(address,address)')) == 0xe985e9c5\n             *     bytes4(keccak256('transferFrom(address,address,uint256)')) == 0x23b872dd\n             *     bytes4(keccak256('safeTransferFrom(address,address,uint256)')) == 0x42842e0e\n             *     bytes4(keccak256('safeTransferFrom(address,address,uint256,bytes)')) == 0xb88d4fde\n             *\n             *     => 0x70a08231 ^ 0x6352211e ^ 0x095ea7b3 ^ 0x081812fc ^\n             *        0xa22cb465 ^ 0xe985e9c ^ 0x23b872dd ^ 0x42842e0e ^ 0xb88d4fde == 0x80ac58cd\n             */\n            interfaceID == 0x80ac58cd || // ERC721\n            /*\n             *     bytes4(keccak256('name()')) == 0x06fdde03\n             *     bytes4(keccak256('symbol()')) == 0x95d89b41\n             *     bytes4(keccak256('tokenURI(uint256)')) == 0xc87b56dd\n             *\n             *     => 0x06fdde03 ^ 0x95d89b41 ^ 0xc87b56dd == 0x5b5e139f\n             */\n            interfaceID == 0x5b5e139f; // ERC721Metadata\n    }\n\n    /**\n     * @dev Creates a registryRecord of an artwork\n     * @param isPrimaryIssuer boolean whether the user is a primary issuer\n     * @param artistAddress address of the artist contract\n     * @param metadataDigest bytes32 of metadata hash\n     * @param sig signature\n     * @return uint256 tokenId\n     */\n    function createSRR(\n        bool isPrimaryIssuer,\n        address artistAddress,\n        bytes32 metadataDigest,\n        Signature.Sig memory sig\n    )\n        public\n        override(IStartrailRegistry)\n        validSender(sig)\n        onlyOwner\n        returns (uint256)\n    {\n        _createSRR(isPrimaryIssuer, artistAddress, metadataDigest, sig.sender);\n    }\n\n    /**\n     * @dev Creates a registryRecord of an artwork from LicensedUserLogic contract\n     * @param isPrimaryIssuer address of the issuer user contract\n     * @param artistAddress address of the artist contract\n     * @param metadataDigest bytes32 of metadata hash\n     * @return uint256 tokenId\n     */\n    function createSRRFromLicensedUser(\n        bool isPrimaryIssuer,\n        address artistAddress,\n        bytes32 metadataDigest\n    ) public override(IStartrailRegistry) onlyLicensedUser returns (uint256) {\n        return\n            _createSRR(\n                isPrimaryIssuer,\n                artistAddress,\n                metadataDigest,\n                msg.sender\n            );\n    }\n\n    function createSRRFromBulk(\n        bool isPrimaryIssuer,\n        address artistAddress,\n        bytes32 metadataDigest,\n        address issuerAddress\n    ) public override(IStartrailRegistry) onlyBulk returns (uint256) {\n        return\n            _createSRR(\n                isPrimaryIssuer,\n                artistAddress,\n                metadataDigest,\n                issuerAddress\n            );\n    }\n\n    /**\n     * @dev Updates the registryRecord\n     * @param tokenId uint256 of StartrailRegistryRecordID\n     * @param isPrimaryIssuer boolean whether the user is a primary issuer\n     * @return uint256 tokenId\n     */\n    function updateSRRFromLicensedUser(\n        uint256 tokenId,\n        bool isPrimaryIssuer,\n        address artistAddress\n    )\n        public\n        override(IStartrailRegistry)\n        onlyLicensedUser\n        tokenExists(tokenId)\n        returns (uint256)\n    {\n        require(\n            _saveSRR(tokenId, isPrimaryIssuer, artistAddress),\n            \"fail to updateSRR\"\n        );\n        emit UpdateSRR(\n            tokenId,\n            SRR(isPrimaryIssuer, artistAddress, msg.sender)\n        );\n        return tokenId;\n    }\n\n    /**\n     * @dev Updates the SRR metadata\n     * @param tokenId uint256 of StartrailRegistryRecordID\n     * @param metadataDigest bytes32 of the metadata hash\n     */\n    function updateSRRMetadata(uint256 tokenId, bytes32 metadataDigest)\n        external\n        override(IStartrailRegistry)\n        onlyLicensedUser\n        tokenExists(tokenId)\n    {\n        _bytes32Storage[tokenId][_SRR][_METADATA_DIGEST] = metadataDigest;\n        emit UpdateSRRMetadataDigest(tokenId, metadataDigest);\n    }\n\n    /**\n     * @dev Gets the owner address of the SRR\n     * @param tokenId uint256 of the SRR ID\n     * @return owner address\n     */\n    function getSRROwner(uint256 tokenId)\n        public\n        override(IStartrailRegistry)\n        view\n        returns (address)\n    {\n        return ERC721UpgradeSafe.ownerOf(tokenId);\n    }\n\n    /**\n     * @dev Approves the given commitment hash to transfer the SRR\n     * @param tokenId uint256 ID of the SRR\n     * @param commitment bytes32 of the commitment hash\n     * @param historyMetadataDigest string of the history metadata digest\n     */\n    function approveSRRByCommitment(\n        uint256 tokenId,\n        bytes32 commitment,\n        string memory historyMetadataDigest\n    )\n        public\n        override(IStartrailRegistry)\n        onlySRROwner(tokenId)\n        tokenExists(tokenId)\n    {\n        address owner = getSRROwner(tokenId);\n        if (_bytes32Storage[tokenId][_SRR][_COMMITMENT] != \"\") {\n            emit SRRCommitmentCancelled(tokenId);\n        }\n        _bytes32Storage[tokenId][_SRR][_COMMITMENT] = commitment;\n        _stringStorage[tokenId][_HISTORY][_METADATA_DIGEST] = historyMetadataDigest;\n        emit SRRCommitment(owner, commitment, tokenId);\n    }\n\n    /**\n     * @dev Approves the given commitment hash to transfer the SRR\n     * @param tokenId uint256 ID of the SRR\n     * @param commitment bytes32 of the commitment hash\n     * @param historyMetadataDigest string of the history metadata digest\n     * @param customHistoryId to map with custom history\n     */\n    function approveSRRByCommitment(\n        uint256 tokenId,\n        bytes32 commitment,\n        string memory historyMetadataDigest,\n        uint256 customHistoryId\n    )\n        public\n        override(IStartrailRegistry)\n        onlySRROwner(tokenId)\n        tokenExists(tokenId)\n        customHistoryIdExists(customHistoryId)\n    {\n        address owner = getSRROwner(tokenId);\n        if (_bytes32Storage[tokenId][_SRR][_COMMITMENT] != \"\") {\n            emit SRRCommitmentCancelled(tokenId);\n        }\n        _bytes32Storage[tokenId][_SRR][_COMMITMENT] = commitment;\n        _stringStorage[tokenId][_HISTORY][_METADATA_DIGEST] = historyMetadataDigest;\n        _uintStorage[tokenId][_HISTORY][_CUSTOM_HISTORY] = customHistoryId;\n        emit SRRCommitment(owner, commitment, tokenId);\n    }\n\n    /**\n     * @dev Cancels the current commitment of a given SRR\n     * @param tokenId uint256 ID of the SRR\n     */\n    function cancelSRRCommitment(uint256 tokenId)\n        public\n        override(IStartrailRegistry)\n        onlySRROwner(tokenId)\n        tokenExists(tokenId)\n    {\n        _clearSRRCommitment(tokenId);\n        emit SRRCommitmentCancelled(tokenId);\n    }\n\n    /**\n     * @dev Transfers the ownership of a given SRR ID to another address.\n     * @param to address to receive the ownership\n     * @param reveal bytes32 of the reveal hash value to restore the commitment value\n     * @param tokenId uint256 ID of the SRR to be transferred\n     */\n    function transferSRRByReveal(\n        address to,\n        bytes32 reveal,\n        uint256 tokenId\n    ) public override(IStartrailRegistry) tokenExists(tokenId) {\n        bytes32 commitment = keccak256(abi.encodePacked(reveal));\n        require(\n            commitment == getSRRCommitment(tokenId),\n            \"Hash of reveal doesn't match\"\n        );\n\n        address from = getSRROwner(tokenId);\n        _historyProvenance(\n            tokenId,\n            from,\n            to,\n            _stringStorage[tokenId][_HISTORY][_METADATA_DIGEST]\n        );\n        _clearSRRCommitment(tokenId);\n        transferSRRFrom(from, to, tokenId);\n    }\n\n    /**\n     * @dev Sets the addresses of the reference\n     * @param nameRegistry address of the NameRegistry\n     */\n    function setNameRegistryAddress(address nameRegistry)\n        public\n        override(IStartrailRegistry)\n        onlyOwner\n    {\n        _addressStorage[SRR_GLOBAL_SLOT][_NAME_REGISTRY][_NAME_REGISTRY] = nameRegistry;\n    }\n\n    /**\n     * @dev Sets the scheme URI digests of SRR metadata\n     * @param digest bytes32 of the scheme URI digests\n     */\n    function setTokenURISchemaIntegrityDigest(bytes32 digest)\n        public\n        override(IStartrailRegistry)\n        onlyAdmin\n    {\n        _bytes32Storage[SRR_GLOBAL_SLOT][_SRR][_SCHEMA_URI_DIGEST] = digest;\n    }\n\n    /**\n     * @dev Sets the URI info of the scheme where SRR metadata is saved\n     * @param URIPrefix string of the URI prefix of the scheme\n     * @param URIPostfix string of the URI postfix of the scheme\n     */\n    function setTokenURIParts(string memory URIPrefix, string memory URIPostfix)\n        public\n        override(IStartrailRegistry)\n        onlyAdmin\n    {\n        _stringStorage[SRR_GLOBAL_SLOT][_SRR][_URI_PREFIX] = URIPrefix;\n        _stringStorage[SRR_GLOBAL_SLOT][_SRR][_URI_POSTFIX] = URIPostfix;\n    }\n\n    /**\n     * @dev Gets the registryRecord related with the tokenId\n     * @param tokenId uint256 ID of StartrailRegistry\n     * @return registryRecord dataset / metadataDigest\n     */\n    function getSRR(uint256 tokenId)\n        public\n        override(IStartrailRegistry)\n        view\n        tokenExists(tokenId)\n        returns (SRR memory registryRecord, bytes32 metadataDigest)\n    {\n        registryRecord\n            .isPrimaryIssuer = _boolStorage[tokenId][_SRR][_IS_PRIMARY_ISSUER];\n        registryRecord\n            .artistAddress = _addressStorage[tokenId][_SRR][_ARTIST_ADDRESS];\n        registryRecord.issuer = _addressStorage[tokenId][_SRR][_ISSUER];\n        metadataDigest = _bytes32Storage[tokenId][_SRR][_METADATA_DIGEST];\n    }\n\n    /**\n     * @dev Gets the given commitment hash to transfer the SRR\n     * @param tokenId uint256 ID of StartrailRegistry\n     * @return commitment hash\n     */\n    function getSRRCommitment(uint256 tokenId)\n        public\n        override(IStartrailRegistry)\n        view\n        tokenExists(tokenId)\n        returns (bytes32)\n    {\n        return _bytes32Storage[tokenId][_SRR][_COMMITMENT];\n    }\n\n    /**\n     * @dev Gets the scheme digests and hash\n     * @param tokenId uint256 ID of StartrailRegistry\n     */\n    function tokenURISchemaIntegrity(uint256 tokenId)\n        external\n        override(IERC2477)\n        view\n        tokenExists(tokenId)\n        returns (bytes memory digest, string memory hashAlgorithm)\n    {\n        require(\n            _addressStorage[tokenId][_SRR][_IS_PRIMARY_ISSUER] != address(0),\n            \"the tokenId does not exist\"\n        );\n        digest = abi.encodePacked(\n            _bytes32Storage[SRR_GLOBAL_SLOT][_SRR][_SCHEMA_URI_DIGEST]\n        );\n        hashAlgorithm = HASH_ALGORITHM;\n    }\n\n    /**\n     * @dev Gets the metadata digests of SRR and hash\n     * @param tokenId uint256 ID of StartrailRegistry\n     */\n    function tokenURIIntegrity(uint256 tokenId)\n        external\n        override(IERC2477)\n        view\n        tokenExists(tokenId)\n        returns (bytes memory digest, string memory hashAlgorithm)\n    {\n        digest = abi.encodePacked(\n            _bytes32Storage[tokenId][_SRR][_METADATA_DIGEST]\n        );\n        hashAlgorithm = HASH_ALGORITHM;\n    }\n\n    /**\n     * @dev Gets URI where the matadata is saved\n     * @param metadataDigest string of metadata digests\n     * @return URI\n     */\n    function tokenURI(string memory metadataDigest)\n        public\n        override(IStartrailRegistry)\n        view\n        returns (string memory)\n    {\n        return\n            string(\n                abi.encodePacked(\n                    _stringStorage[SRR_GLOBAL_SLOT][_SRR][_URI_PREFIX],\n                    metadataDigest,\n                    _stringStorage[SRR_GLOBAL_SLOT][_SRR][_URI_POSTFIX]\n                )\n            );\n    }\n\n    /**\n     * @dev Gets metadata digests\n     * @param tokenId uint256 of StartrailRegistryRecordID\n     * @return history metadata digest\n     */\n    function getHistoryMetadataDigest(uint256 tokenId)\n        public\n        override(IStartrailRegistry)\n        view\n        tokenExists(tokenId)\n        returns (string memory)\n    {\n        return _stringStorage[tokenId][_HISTORY][_METADATA_DIGEST];\n    }\n\n    /**\n     * @dev Write custom history ig: exhibithion \n     * @param id to determine the history\n     * @param name of the custom history\n     * @param customHistoryType of the custom history\n     * @param metadataDigest representing custom history\n     */\n    function writeCustomHistory(\n        uint256 id,\n        string memory name,\n        string memory customHistoryType,\n        string memory metadataDigest\n    ) public override(IStartrailRegistry) onlyAdmin {\n        _stringStorage[id][_CUSTOM_HISTORY][_CUSTOM_HISTORY] = name;\n        emit CustomHistory(id, customHistoryType, metadataDigest);\n    }\n\n    function getCustomHistoryNameById(uint256 id) public override(IStartrailRegistry) view returns (string memory) {\n        return _stringStorage[id][_CUSTOM_HISTORY][_CUSTOM_HISTORY];\n    }\n\n    /*\n     * private functions\n     */\n\n    function _createSRR(\n        bool isPrimaryIssuer,\n        address artistAddress,\n        bytes32 metadataDigest,\n        address sender\n    ) private returns (uint256) {\n        uint256 tokenId = _mint(sender, metadataDigest, artistAddress);\n        _addressStorage[tokenId][_SRR][_ISSUER] = sender;\n        _bytes32Storage[tokenId][_SRR][_METADATA_DIGEST] = metadataDigest;\n        require(\n            _saveSRR(tokenId, isPrimaryIssuer, artistAddress),\n            \"fail to save Startrail Registry Record\"\n        );\n        emit CreateSRR(\n            tokenId,\n            SRR(isPrimaryIssuer, artistAddress, sender),\n            metadataDigest\n        );\n        return tokenId;\n    }\n\n    /**\n     * @dev Saves the registryRecord\n     * @param tokenId uint256 of StartrailRegistryRecordID\n     * @param isPrimaryIssuer boolean whether the user is a primary issuer\n     * @return bool whether the process is successful\n     */\n    function _saveSRR(\n        uint256 tokenId,\n        bool isPrimaryIssuer,\n        address artistAddress\n    ) private returns (bool) {\n        _addressStorage[tokenId][_SRR][_ARTIST_ADDRESS] = artistAddress;\n        _boolStorage[tokenId][_SRR][_IS_PRIMARY_ISSUER] = isPrimaryIssuer;\n        return true;\n    }\n\n    function _isAdmin() private view returns (bool) {\n        if (!_nameRegistry().instantiation(msg.sender)) return false;\n        ILicensedUserType logic = ILicensedUserType(msg.sender);\n        return logic.getUserType() == ILicensedUserType.UserType.ADMIN;\n    }\n\n    function _historyProvenance(\n        uint256 tokenId,\n        address from,\n        address to,\n        string memory historyMetadataDigest\n    ) private {\n        uint256 timestamp = block.timestamp;\n        string memory historyMetadataURI = tokenURI(historyMetadataDigest);\n        emit Provenance(\n            tokenId,\n            from,\n            to,\n            timestamp,\n            historyMetadataDigest,\n            historyMetadataURI\n        );\n    }\n\n    function _clearSRRCommitment(uint256 tokenId) private {\n        _bytes32Storage[tokenId][_SRR][_COMMITMENT] = \"\";\n        _stringStorage[tokenId][_HISTORY][_METADATA_DIGEST] = \"\";\n    }\n\n    function _nameRegistry() private view returns (NameRegistry) {\n        return\n            NameRegistry(\n                _addressStorage[SRR_GLOBAL_SLOT][_NAME_REGISTRY][_NAME_REGISTRY]\n            );\n    }\n\n    /**\n     * @dev Generate a ERC721 token ID and mint for ERC721\n     * @param sender address of the sender\n     * @param metadataDigest metadataDigest for token\n     * @return uint256 tokenId\n     */\n    function _mint(\n        address sender,\n        bytes32 metadataDigest,\n        address artistAddress\n    ) private returns (uint256) {\n        uint256 tokenId;\n        tokenId = IDGenerator.generate(metadataDigest, artistAddress);\n        require(!ERC721UpgradeSafe._exists(tokenId), \"ERC721: A token exists\");\n        ERC721UpgradeSafe._mint(sender, tokenId);\n        return tokenId;\n    }\n\n    /**\n     * @dev Transfers the ownership of a given SRR ID to another address.\n     * @param from address of the current owner\n     * @param to address to receive the ownership\n     * @param tokenId uint256 ID of the SRR to be transferred\n     */\n    function transferSRRFrom(\n        address from,\n        address to,\n        uint256 tokenId\n    ) public {\n        require(\n            ERC721UpgradeSafe._exists(tokenId),\n            \"ERC721: operator query for nonexistent token\"\n        );\n        address owner = ERC721UpgradeSafe.ownerOf(tokenId);\n        require(from == owner, \"ERC721: transfer caller is not owner\");\n        ERC721UpgradeSafe._transfer(from, to, tokenId);\n    }\n\n    /**\n     * @dev Gets the tokenID from ID Generator using metadataDigest.\n     * @param metadataDigest bytes32 metadata digest of token\n     * @return tokenId from metadataDigest\n     */\n    function getTokenId(bytes32 metadataDigest, address artistAddress)\n        external\n        override(IStartrailRegistry)\n        view\n        returns (uint256)\n    {\n        return IDGenerator.generate(metadataDigest, artistAddress);\n    }\n}\n",
  "sourcePath": "/Users/hasnaeen/startbahn/dev/startrail/app/startrailregistry/contracts/StartrailRegistry.sol",
  "compiler": {
    "name": "solc",
    "version": "0.6.11+commit.5ef660b1.Emscripten.clang"
  },
  "schemaVersion": "3.2.5",
  "updatedAt": "2020-11-05T13:13:09.642Z",
  "networkType": "ethereum",
  "devdoc": {
    "kind": "dev",
    "methods": {
      "approve(address,uint256)": {
        "details": "Approves another address to transfer the given token ID The zero address indicates there is no approved address. There can only be one approved address per token at a given time. Can only be called by the token owner or an approved operator.",
        "params": {
          "to": "address to be approved for the given token ID",
          "tokenId": "uint256 ID of the token to be approved"
        }
      },
      "approveSRRByCommitment(uint256,bytes32,string)": {
        "details": "Approves the given commitment hash to transfer the SRR",
        "params": {
          "commitment": "bytes32 of the commitment hash",
          "historyMetadataDigest": "string of the history metadata digest",
          "tokenId": "uint256 ID of the SRR"
        }
      },
      "approveSRRByCommitment(uint256,bytes32,string,uint256)": {
        "details": "Approves the given commitment hash to transfer the SRR",
        "params": {
          "commitment": "bytes32 of the commitment hash",
          "customHistoryId": "to map with custom history",
          "historyMetadataDigest": "string of the history metadata digest",
          "tokenId": "uint256 ID of the SRR"
        }
      },
      "balanceOf(address)": {
        "details": "Gets the balance of the specified address.",
        "params": {
          "owner": "address to query the balance of"
        },
        "returns": {
          "_0": "uint256 representing the amount owned by the passed address"
        }
      },
      "baseURI()": {
        "details": "Returns the base URI set via {_setBaseURI}. This will be automatically added as a prefix in {tokenURI} to each token's URI, or to the token ID if no specific URI is set for that token ID."
      },
      "cancelSRRCommitment(uint256)": {
        "details": "Cancels the current commitment of a given SRR",
        "params": {
          "tokenId": "uint256 ID of the SRR"
        }
      },
      "createSRR(bool,address,bytes32,(bytes32,uint8,bytes32,bytes32,address))": {
        "details": "Creates a registryRecord of an artwork",
        "params": {
          "artistAddress": "address of the artist contract",
          "isPrimaryIssuer": "boolean whether the user is a primary issuer",
          "metadataDigest": "bytes32 of metadata hash",
          "sig": "signature"
        },
        "returns": {
          "_0": "uint256 tokenId"
        }
      },
      "createSRRFromLicensedUser(bool,address,bytes32)": {
        "details": "Creates a registryRecord of an artwork from LicensedUserLogic contract",
        "params": {
          "artistAddress": "address of the artist contract",
          "isPrimaryIssuer": "address of the issuer user contract",
          "metadataDigest": "bytes32 of metadata hash"
        },
        "returns": {
          "_0": "uint256 tokenId"
        }
      },
      "getApproved(uint256)": {
        "details": "Gets the approved address for a token ID, or zero if no address set Reverts if the token ID does not exist.",
        "params": {
          "tokenId": "uint256 ID of the token to query the approval of"
        },
        "returns": {
          "_0": "address currently approved for the given token ID"
        }
      },
      "getHistoryMetadataDigest(uint256)": {
        "details": "Gets metadata digests",
        "params": {
          "tokenId": "uint256 of StartrailRegistryRecordID"
        },
        "returns": {
          "_0": "history metadata digest"
        }
      },
      "getSRR(uint256)": {
        "details": "Gets the registryRecord related with the tokenId",
        "params": {
          "tokenId": "uint256 ID of StartrailRegistry"
        },
        "returns": {
          "registryRecord": "dataset / metadataDigest"
        }
      },
      "getSRRCommitment(uint256)": {
        "details": "Gets the given commitment hash to transfer the SRR",
        "params": {
          "tokenId": "uint256 ID of StartrailRegistry"
        },
        "returns": {
          "_0": "commitment hash"
        }
      },
      "getSRROwner(uint256)": {
        "details": "Gets the owner address of the SRR",
        "params": {
          "tokenId": "uint256 of the SRR ID"
        },
        "returns": {
          "_0": "owner address"
        }
      },
      "getTokenId(bytes32,address)": {
        "details": "Gets the tokenID from ID Generator using metadataDigest.",
        "params": {
          "metadataDigest": "bytes32 metadata digest of token"
        },
        "returns": {
          "_0": "tokenId from metadataDigest"
        }
      },
      "initialize(address,string,string,bytes32)": {
        "details": "Initializes the address of the nameRegistry contract",
        "params": {
          "URIPostfix": "string of the URI postfix of the scheme",
          "URIPrefix": "string of the URI prefix of the scheme where SRR metadata is saved",
          "nameRegistry": "address of the NameRegistry",
          "schemaURIIntegrityDigest": "bytes32 of the URI digest of the scheme"
        }
      },
      "isApprovedForAll(address,address)": {
        "details": "Tells whether an operator is approved by a given owner.",
        "params": {
          "operator": "operator address which you want to query the approval of",
          "owner": "owner address which you want to query the approval of"
        },
        "returns": {
          "_0": "bool whether the given operator is approved by the given owner"
        }
      },
      "name()": {
        "details": "Gets the token name.",
        "returns": {
          "_0": "string representing the token name"
        }
      },
      "owner()": {
        "details": "Returns the address of the current owner."
      },
      "ownerOf(uint256)": {
        "details": "Gets the owner of the specified token ID.",
        "params": {
          "tokenId": "uint256 ID of the token to query the owner of"
        },
        "returns": {
          "_0": "address currently marked as the owner of the given token ID"
        }
      },
      "renounceOwnership()": {
        "details": "Leaves the contract without owner. It will not be possible to call `onlyOwner` functions anymore. Can only be called by the current owner. NOTE: Renouncing ownership will leave the contract without an owner, thereby removing any functionality that is only available to the owner."
      },
      "safeTransferFrom(address,address,uint256)": {
        "details": "Safely transfers the ownership of a given token ID to another address If the target address is a contract, it must implement {IERC721Receiver-onERC721Received}, which is called upon a safe transfer, and return the magic value `bytes4(keccak256(\"onERC721Received(address,address,uint256,bytes)\"))`; otherwise, the transfer is reverted. Requires the msg.sender to be the owner, approved, or operator",
        "params": {
          "from": "current owner of the token",
          "to": "address to receive the ownership of the given token ID",
          "tokenId": "uint256 ID of the token to be transferred"
        }
      },
      "safeTransferFrom(address,address,uint256,bytes)": {
        "details": "Safely transfers the ownership of a given token ID to another address If the target address is a contract, it must implement {IERC721Receiver-onERC721Received}, which is called upon a safe transfer, and return the magic value `bytes4(keccak256(\"onERC721Received(address,address,uint256,bytes)\"))`; otherwise, the transfer is reverted. Requires the _msgSender() to be the owner, approved, or operator",
        "params": {
          "_data": "bytes data to send along with a safe transfer check",
          "from": "current owner of the token",
          "to": "address to receive the ownership of the given token ID",
          "tokenId": "uint256 ID of the token to be transferred"
        }
      },
      "setApprovalForAll(address,bool)": {
        "details": "Sets or unsets the approval of a given operator An operator is allowed to transfer all tokens of the sender on their behalf.",
        "params": {
          "approved": "representing the status of the approval to be set",
          "operator": "operator address to set the approval"
        }
      },
      "setNameRegistryAddress(address)": {
        "details": "Sets the addresses of the reference",
        "params": {
          "nameRegistry": "address of the NameRegistry"
        }
      },
      "setTokenURIParts(string,string)": {
        "details": "Sets the URI info of the scheme where SRR metadata is saved",
        "params": {
          "URIPostfix": "string of the URI postfix of the scheme",
          "URIPrefix": "string of the URI prefix of the scheme"
        }
      },
      "setTokenURISchemaIntegrityDigest(bytes32)": {
        "details": "Sets the scheme URI digests of SRR metadata",
        "params": {
          "digest": "bytes32 of the scheme URI digests"
        }
      },
      "symbol()": {
        "details": "Gets the token symbol.",
        "returns": {
          "_0": "string representing the token symbol"
        }
      },
      "tokenURI(string)": {
        "details": "Gets URI where the matadata is saved",
        "params": {
          "metadataDigest": "string of metadata digests"
        },
        "returns": {
          "_0": "URI"
        }
      },
      "tokenURI(uint256)": {
        "details": "Returns the URI for a given token ID. May return an empty string. If a base URI is set (via {_setBaseURI}), it is added as a prefix to the token's own URI (via {_setTokenURI}). If there is a base URI but no token URI, the token's ID will be used as its URI when appending it to the base URI. This pattern for autogenerated token URIs can lead to large gas savings. .Examples |=== |`_setBaseURI()` |`_setTokenURI()` |`tokenURI()` | \"\" | \"\" | \"\" | \"\" | \"token.uri/123\" | \"token.uri/123\" | \"token.uri/\" | \"123\" | \"token.uri/123\" | \"token.uri/\" | \"\" | \"token.uri/<tokenId>\" |=== Requirements: - `tokenId` must exist."
      },
      "tokenURIIntegrity(uint256)": {
        "details": "Gets the metadata digests of SRR and hash",
        "params": {
          "tokenId": "uint256 ID of StartrailRegistry"
        }
      },
      "tokenURISchemaIntegrity(uint256)": {
        "details": "Gets the scheme digests and hash",
        "params": {
          "tokenId": "uint256 ID of StartrailRegistry"
        }
      },
      "transferFrom(address,address,uint256)": {
        "details": "Transfers the ownership of a given token ID to another address. Usage of this method is discouraged, use {safeTransferFrom} whenever possible. Requires the msg.sender to be the owner, approved, or operator.",
        "params": {
          "from": "current owner of the token",
          "to": "address to receive the ownership of the given token ID",
          "tokenId": "uint256 ID of the token to be transferred"
        }
      },
      "transferOwnership(address)": {
        "details": "Transfers ownership of the contract to a new account (`newOwner`). Can only be called by the current owner."
      },
      "transferSRRByReveal(address,bytes32,uint256)": {
        "details": "Transfers the ownership of a given SRR ID to another address.",
        "params": {
          "reveal": "bytes32 of the reveal hash value to restore the commitment value",
          "to": "address to receive the ownership",
          "tokenId": "uint256 ID of the SRR to be transferred"
        }
      },
      "transferSRRFrom(address,address,uint256)": {
        "details": "Transfers the ownership of a given SRR ID to another address.",
        "params": {
          "from": "address of the current owner",
          "to": "address to receive the ownership",
          "tokenId": "uint256 ID of the SRR to be transferred"
        }
      },
      "updateSRRFromLicensedUser(uint256,bool,address)": {
        "details": "Updates the registryRecord",
        "params": {
          "isPrimaryIssuer": "boolean whether the user is a primary issuer",
          "tokenId": "uint256 of StartrailRegistryRecordID"
        },
        "returns": {
          "_0": "uint256 tokenId"
        }
      },
      "updateSRRMetadata(uint256,bytes32)": {
        "details": "Updates the SRR metadata",
        "params": {
          "metadataDigest": "bytes32 of the metadata hash",
          "tokenId": "uint256 of StartrailRegistryRecordID"
        }
      },
      "writeCustomHistory(uint256,string,string,string)": {
        "details": "Write custom history ig: exhibithion ",
        "params": {
          "customHistoryType": "of the custom history",
          "id": "to determine the history",
          "metadataDigest": "representing custom history",
          "name": "of the custom history"
        }
      }
    },
    "version": 1
  },
  "userdoc": {
    "kind": "user",
    "methods": {},
    "version": 1
  }
}