{
  "contractName": "StartrailRegistry",
  "abi": [
    {
      "anonymous": false,
      "inputs": [
        {
          "indexed": true,
          "internalType": "address",
          "name": "owner",
          "type": "address"
        },
        {
          "indexed": true,
          "internalType": "address",
          "name": "approved",
          "type": "address"
        },
        {
          "indexed": true,
          "internalType": "uint256",
          "name": "tokenId",
          "type": "uint256"
        }
      ],
      "name": "Approval",
      "type": "event"
    },
    {
      "anonymous": false,
      "inputs": [
        {
          "indexed": true,
          "internalType": "address",
          "name": "owner",
          "type": "address"
        },
        {
          "indexed": true,
          "internalType": "address",
          "name": "operator",
          "type": "address"
        },
        {
          "indexed": false,
          "internalType": "bool",
          "name": "approved",
          "type": "bool"
        }
      ],
      "name": "ApprovalForAll",
      "type": "event"
    },
    {
      "anonymous": false,
      "inputs": [
        {
          "indexed": true,
          "internalType": "address",
          "name": "previousOwner",
          "type": "address"
        },
        {
          "indexed": true,
          "internalType": "address",
          "name": "newOwner",
          "type": "address"
        }
      ],
      "name": "OwnershipTransferred",
      "type": "event"
    },
    {
      "anonymous": false,
      "inputs": [
        {
          "indexed": true,
          "internalType": "address",
          "name": "from",
          "type": "address"
        },
        {
          "indexed": true,
          "internalType": "address",
          "name": "to",
          "type": "address"
        },
        {
          "indexed": true,
          "internalType": "uint256",
          "name": "tokenId",
          "type": "uint256"
        }
      ],
      "name": "Transfer",
      "type": "event"
    },
    {
      "constant": false,
      "inputs": [
        {
          "internalType": "address",
          "name": "to",
          "type": "address"
        },
        {
          "internalType": "uint256",
          "name": "tokenId",
          "type": "uint256"
        }
      ],
      "name": "approve",
      "outputs": [],
      "payable": false,
      "stateMutability": "nonpayable",
      "type": "function"
    },
    {
      "constant": true,
      "inputs": [
        {
          "internalType": "address",
          "name": "owner",
          "type": "address"
        }
      ],
      "name": "balanceOf",
      "outputs": [
        {
          "internalType": "uint256",
          "name": "",
          "type": "uint256"
        }
      ],
      "payable": false,
      "stateMutability": "view",
      "type": "function"
    },
    {
      "constant": true,
      "inputs": [
        {
          "internalType": "uint256",
          "name": "tokenId",
          "type": "uint256"
        }
      ],
      "name": "getApproved",
      "outputs": [
        {
          "internalType": "address",
          "name": "",
          "type": "address"
        }
      ],
      "payable": false,
      "stateMutability": "view",
      "type": "function"
    },
    {
      "constant": true,
      "inputs": [
        {
          "internalType": "address",
          "name": "owner",
          "type": "address"
        },
        {
          "internalType": "address",
          "name": "operator",
          "type": "address"
        }
      ],
      "name": "isApprovedForAll",
      "outputs": [
        {
          "internalType": "bool",
          "name": "",
          "type": "bool"
        }
      ],
      "payable": false,
      "stateMutability": "view",
      "type": "function"
    },
    {
      "constant": true,
      "inputs": [],
      "name": "isOwner",
      "outputs": [
        {
          "internalType": "bool",
          "name": "",
          "type": "bool"
        }
      ],
      "payable": false,
      "stateMutability": "view",
      "type": "function"
    },
    {
      "constant": true,
      "inputs": [],
      "name": "name",
      "outputs": [
        {
          "internalType": "string",
          "name": "",
          "type": "string"
        }
      ],
      "payable": false,
      "stateMutability": "view",
      "type": "function"
    },
    {
      "constant": true,
      "inputs": [],
      "name": "owner",
      "outputs": [
        {
          "internalType": "address",
          "name": "",
          "type": "address"
        }
      ],
      "payable": false,
      "stateMutability": "view",
      "type": "function"
    },
    {
      "constant": true,
      "inputs": [
        {
          "internalType": "uint256",
          "name": "tokenId",
          "type": "uint256"
        }
      ],
      "name": "ownerOf",
      "outputs": [
        {
          "internalType": "address",
          "name": "",
          "type": "address"
        }
      ],
      "payable": false,
      "stateMutability": "view",
      "type": "function"
    },
    {
      "constant": false,
      "inputs": [],
      "name": "renounceOwnership",
      "outputs": [],
      "payable": false,
      "stateMutability": "nonpayable",
      "type": "function"
    },
    {
      "constant": false,
      "inputs": [
        {
          "internalType": "address",
          "name": "from",
          "type": "address"
        },
        {
          "internalType": "address",
          "name": "to",
          "type": "address"
        },
        {
          "internalType": "uint256",
          "name": "tokenId",
          "type": "uint256"
        }
      ],
      "name": "safeTransferFrom",
      "outputs": [],
      "payable": false,
      "stateMutability": "nonpayable",
      "type": "function"
    },
    {
      "constant": false,
      "inputs": [
        {
          "internalType": "address",
          "name": "from",
          "type": "address"
        },
        {
          "internalType": "address",
          "name": "to",
          "type": "address"
        },
        {
          "internalType": "uint256",
          "name": "tokenId",
          "type": "uint256"
        },
        {
          "internalType": "bytes",
          "name": "_data",
          "type": "bytes"
        }
      ],
      "name": "safeTransferFrom",
      "outputs": [],
      "payable": false,
      "stateMutability": "nonpayable",
      "type": "function"
    },
    {
      "constant": false,
      "inputs": [
        {
          "internalType": "address",
          "name": "to",
          "type": "address"
        },
        {
          "internalType": "bool",
          "name": "approved",
          "type": "bool"
        }
      ],
      "name": "setApprovalForAll",
      "outputs": [],
      "payable": false,
      "stateMutability": "nonpayable",
      "type": "function"
    },
    {
      "constant": true,
      "inputs": [
        {
          "internalType": "bytes4",
          "name": "interfaceId",
          "type": "bytes4"
        }
      ],
      "name": "supportsInterface",
      "outputs": [
        {
          "internalType": "bool",
          "name": "",
          "type": "bool"
        }
      ],
      "payable": false,
      "stateMutability": "view",
      "type": "function"
    },
    {
      "constant": true,
      "inputs": [],
      "name": "symbol",
      "outputs": [
        {
          "internalType": "string",
          "name": "",
          "type": "string"
        }
      ],
      "payable": false,
      "stateMutability": "view",
      "type": "function"
    },
    {
      "constant": true,
      "inputs": [
        {
          "internalType": "uint256",
          "name": "index",
          "type": "uint256"
        }
      ],
      "name": "tokenByIndex",
      "outputs": [
        {
          "internalType": "uint256",
          "name": "",
          "type": "uint256"
        }
      ],
      "payable": false,
      "stateMutability": "view",
      "type": "function"
    },
    {
      "constant": true,
      "inputs": [
        {
          "internalType": "address",
          "name": "owner",
          "type": "address"
        },
        {
          "internalType": "uint256",
          "name": "index",
          "type": "uint256"
        }
      ],
      "name": "tokenOfOwnerByIndex",
      "outputs": [
        {
          "internalType": "uint256",
          "name": "",
          "type": "uint256"
        }
      ],
      "payable": false,
      "stateMutability": "view",
      "type": "function"
    },
    {
      "constant": true,
      "inputs": [
        {
          "internalType": "uint256",
          "name": "tokenId",
          "type": "uint256"
        }
      ],
      "name": "tokenURI",
      "outputs": [
        {
          "internalType": "string",
          "name": "",
          "type": "string"
        }
      ],
      "payable": false,
      "stateMutability": "view",
      "type": "function"
    },
    {
      "constant": true,
      "inputs": [],
      "name": "totalSupply",
      "outputs": [
        {
          "internalType": "uint256",
          "name": "",
          "type": "uint256"
        }
      ],
      "payable": false,
      "stateMutability": "view",
      "type": "function"
    },
    {
      "constant": false,
      "inputs": [
        {
          "internalType": "address",
          "name": "from",
          "type": "address"
        },
        {
          "internalType": "address",
          "name": "to",
          "type": "address"
        },
        {
          "internalType": "uint256",
          "name": "tokenId",
          "type": "uint256"
        }
      ],
      "name": "transferFrom",
      "outputs": [],
      "payable": false,
      "stateMutability": "nonpayable",
      "type": "function"
    },
    {
      "constant": false,
      "inputs": [
        {
          "internalType": "address",
          "name": "newOwner",
          "type": "address"
        }
      ],
      "name": "transferOwnership",
      "outputs": [],
      "payable": false,
      "stateMutability": "nonpayable",
      "type": "function"
    },
    {
      "constant": false,
      "inputs": [
        {
          "internalType": "string",
          "name": "name",
          "type": "string"
        },
        {
          "internalType": "string",
          "name": "symbol",
          "type": "string"
        },
        {
          "internalType": "address",
          "name": "nameRegistry",
          "type": "address"
        }
      ],
      "name": "initialize",
      "outputs": [],
      "payable": false,
      "stateMutability": "nonpayable",
      "type": "function"
    },
    {
      "constant": false,
      "inputs": [
        {
          "internalType": "string",
          "name": "name",
          "type": "string"
        },
        {
          "internalType": "string",
          "name": "symbol",
          "type": "string"
        }
      ],
      "name": "initialize",
      "outputs": [],
      "payable": false,
      "stateMutability": "nonpayable",
      "type": "function"
    },
    {
      "constant": false,
      "inputs": [],
      "name": "initialize",
      "outputs": [],
      "payable": false,
      "stateMutability": "nonpayable",
      "type": "function"
    },
    {
      "constant": false,
      "inputs": [
        {
          "internalType": "address",
          "name": "sender",
          "type": "address"
        }
      ],
      "name": "initialize",
      "outputs": [],
      "payable": false,
      "stateMutability": "nonpayable",
      "type": "function"
    },
    {
      "constant": false,
      "inputs": [
        {
          "internalType": "address",
          "name": "sender",
          "type": "address"
        }
      ],
      "name": "mint",
      "outputs": [
        {
          "internalType": "uint256",
          "name": "",
          "type": "uint256"
        }
      ],
      "payable": false,
      "stateMutability": "nonpayable",
      "type": "function"
    },
    {
      "constant": false,
      "inputs": [
        {
          "internalType": "address",
          "name": "from",
          "type": "address"
        },
        {
          "internalType": "address",
          "name": "to",
          "type": "address"
        },
        {
          "internalType": "uint256",
          "name": "tokenId",
          "type": "uint256"
        }
      ],
      "name": "transferSRRFrom",
      "outputs": [],
      "payable": false,
      "stateMutability": "nonpayable",
      "type": "function"
    },
    {
      "constant": false,
      "inputs": [
        {
          "internalType": "address",
          "name": "nameRegistry",
          "type": "address"
        }
      ],
      "name": "setNameRegistry",
      "outputs": [],
      "payable": false,
      "stateMutability": "nonpayable",
      "type": "function"
    },
    {
      "constant": true,
      "inputs": [],
      "name": "getRootLogicAddress",
      "outputs": [
        {
          "internalType": "address",
          "name": "",
          "type": "address"
        }
      ],
      "payable": false,
      "stateMutability": "view",
      "type": "function"
    },
    {
      "constant": true,
      "inputs": [],
      "name": "getNameRegistryAddress",
      "outputs": [
        {
          "internalType": "address",
          "name": "",
          "type": "address"
        }
      ],
      "payable": false,
      "stateMutability": "view",
      "type": "function"
    },
    {
      "constant": true,
      "inputs": [
        {
          "internalType": "uint256",
          "name": "tokenId",
          "type": "uint256"
        }
      ],
      "name": "getSRROwner",
      "outputs": [
        {
          "internalType": "address",
          "name": "",
          "type": "address"
        }
      ],
      "payable": false,
      "stateMutability": "view",
      "type": "function"
    },
    {
      "constant": true,
      "inputs": [],
      "name": "getIdNonce",
      "outputs": [
        {
          "internalType": "uint256",
          "name": "",
          "type": "uint256"
        }
      ],
      "payable": false,
      "stateMutability": "view",
      "type": "function"
    }
  ],
  "bytecode": "0x6080604052613f01806100136000396000f3fe608060405234801561001057600080fd5b50600436106101e55760003560e01c80636352211e1161010f578063a22cb465116100a2578063ddb8e35011610071578063ddb8e3501461057c578063e36a350914610598578063e985e9c5146105b6578063f2fde38b146105e6576101e5565b8063a22cb465146104f8578063b88d4fde14610514578063c4d66de814610530578063c87b56dd1461054c576101e5565b80638129fc1c116100de5780638129fc1c146104945780638da5cb5b1461049e5780638f32d59b146104bc57806395d89b41146104da576101e5565b80636352211e146103fa5780636a6278421461042a57806370a082311461045a578063715018a61461048a576101e5565b806318160ddd116101875780634cd88b76116101565780634cd88b76146103605780634f6ccce71461037c5780635f915423146103ac57806362b9bdc2146103dc576101e5565b806318160ddd146102da57806323b872dd146102f85780632f745c591461031457806342842e0e14610344576101e5565b8063081812fc116101c3578063081812fc14610254578063095ea7b3146102845780630bdd4f50146102a0578063109a037a146102be576101e5565b806301ffc9a7146101ea57806306fdde031461021a578063077f224a14610238575b600080fd5b61020460048036036101ff9190810190612edc565b610602565b6040516102119190613968565b60405180910390f35b61022261066a565b60405161022f91906139a5565b60405180910390f35b610252600480360361024d9190810190612f9a565b61070d565b005b61026e60048036036102699190810190613019565b610867565b60405161027b9190613901565b60405180910390f35b61029e60048036036102999190810190612ea0565b6108ec565b005b6102a8610aa7565b6040516102b59190613901565b60405180910390f35b6102d860048036036102d39190810190612d9a565b610ab6565b005b6102e2610b3d565b6040516102ef9190613c67565b60405180910390f35b610312600480360361030d9190810190612d9a565b610b4a565b005b61032e60048036036103299190810190612ea0565b610baa565b60405161033b9190613c67565b60405180910390f35b61035e60048036036103599190810190612d9a565b610c53565b005b61037a60048036036103759190810190612f2e565b610c73565b005b61039660048036036103919190810190613019565b610daf565b6040516103a39190613c67565b60405180910390f35b6103c660048036036103c19190810190613019565b610e19565b6040516103d39190613901565b60405180910390f35b6103e4610e2b565b6040516103f19190613901565b60405180910390f35b610414600480360361040f9190810190613019565b610e56565b6040516104219190613901565b60405180910390f35b610444600480360361043f9190810190612d0c565b610f08565b6040516104519190613c67565b60405180910390f35b610474600480360361046f9190810190612d0c565b611034565b6040516104819190613c67565b60405180910390f35b6104926110f3565b005b61049c6111fb565b005b6104a6611305565b6040516104b39190613901565b60405180910390f35b6104c461132f565b6040516104d19190613968565b60405180910390f35b6104e261138e565b6040516104ef91906139a5565b60405180910390f35b610512600480360361050d9190810190612e64565b611431565b005b61052e60048036036105299190810190612de9565b6115b2565b005b61054a60048036036105459190810190612d0c565b611614565b005b61056660048036036105619190810190613019565b6117bc565b60405161057391906139a5565b60405180910390f35b61059660048036036105919190810190612d0c565b6118ba565b005b6105a0611946565b6040516105ad9190613c67565b60405180910390f35b6105d060048036036105cb9190810190612d5e565b611951565b6040516105dd9190613968565b60405180910390f35b61060060048036036105fb9190810190612d0c565b6119e5565b005b600060666000837bffffffffffffffffffffffffffffffffffffffffffffffffffffffff19167bffffffffffffffffffffffffffffffffffffffffffffffffffffffff1916815260200190815260200160002060009054906101000a900460ff169050919050565b60606101058054600181600116156101000203166002900480601f0160208091040260200160405190810160405280929190818152602001828054600181600116156101000203166002900480156107035780601f106106d857610100808354040283529160200191610703565b820191906000526020600020905b8154815290600101906020018083116106e657829003601f168201915b5050505050905090565b600060019054906101000a900460ff168061072c575061072b611a38565b5b8061074357506000809054906101000a900460ff16155b610782576040517f08c379a000000000000000000000000000000000000000000000000000000000815260040161077990613b87565b60405180910390fd5b60008060019054906101000a900460ff1615905080156107d2576001600060016101000a81548160ff02191690831515021790555060016000806101000a81548160ff0219169083151502179055505b6107da611a4f565b6107e26111fb565b6107ec8484610c73565b8161016d60006101000a81548173ffffffffffffffffffffffffffffffffffffffff021916908373ffffffffffffffffffffffffffffffffffffffff160217905550600161016c8190555061084033611614565b80156108615760008060016101000a81548160ff0219169083151502179055505b50505050565b600061087282611b50565b6108b1576040517f08c379a00000000000000000000000000000000000000000000000000000000081526004016108a890613b47565b60405180910390fd5b609a600083815260200190815260200160002060009054906101000a900473ffffffffffffffffffffffffffffffffffffffff169050919050565b60006108f782610e56565b90508073ffffffffffffffffffffffffffffffffffffffff168373ffffffffffffffffffffffffffffffffffffffff161415610968576040517f08c379a000000000000000000000000000000000000000000000000000000000815260040161095f90613be7565b60405180910390fd5b8073ffffffffffffffffffffffffffffffffffffffff16610987611bc2565b73ffffffffffffffffffffffffffffffffffffffff1614806109b657506109b5816109b0611bc2565b611951565b5b6109f5576040517f08c379a00000000000000000000000000000000000000000000000000000000081526004016109ec90613ac7565b60405180910390fd5b82609a600084815260200190815260200160002060006101000a81548173ffffffffffffffffffffffffffffffffffffffff021916908373ffffffffffffffffffffffffffffffffffffffff160217905550818373ffffffffffffffffffffffffffffffffffffffff168273ffffffffffffffffffffffffffffffffffffffff167f8c5be1e5ebec7d5bd14f71427d1e84f3dd0314c0f7b2291e5b200ac8c7c3b92560405160405180910390a4505050565b6000610ab1611bca565b905090565b610abe611bca565b8073ffffffffffffffffffffffffffffffffffffffff163373ffffffffffffffffffffffffffffffffffffffff1614610b2c576040517f08c379a0000000000000000000000000000000000000000000000000000000008152600401610b2390613c47565b60405180910390fd5b610b37848484611c9b565b50505050565b600060d180549050905090565b610b5b610b55611bc2565b82611cbf565b610b9a576040517f08c379a0000000000000000000000000000000000000000000000000000000008152600401610b9190613c07565b60405180910390fd5b610ba5838383611c9b565b505050565b6000610bb583611034565b8210610bf6576040517f08c379a0000000000000000000000000000000000000000000000000000000008152600401610bed906139c7565b60405180910390fd5b60cf60008473ffffffffffffffffffffffffffffffffffffffff1673ffffffffffffffffffffffffffffffffffffffff1681526020019081526020016000208281548110610c4057fe5b9060005260206000200154905092915050565b610c6e838383604051806020016040528060008152506115b2565b505050565b600060019054906101000a900460ff1680610c925750610c91611a38565b5b80610ca957506000809054906101000a900460ff16155b610ce8576040517f08c379a0000000000000000000000000000000000000000000000000000000008152600401610cdf90613b87565b60405180910390fd5b60008060019054906101000a900460ff161590508015610d38576001600060016101000a81548160ff02191690831515021790555060016000806101000a81548160ff0219169083151502179055505b610d40611d9d565b610d4957600080fd5b826101059080519060200190610d60929190612b00565b50816101069080519060200190610d78929190612b00565b50610d89635b5e139f60e01b611db4565b8015610daa5760008060016101000a81548160ff0219169083151502179055505b505050565b6000610db9610b3d565b8210610dfa576040517f08c379a0000000000000000000000000000000000000000000000000000000008152600401610df190613c27565b60405180910390fd5b60d18281548110610e0757fe5b90600052602060002001549050919050565b6000610e2482610e56565b9050919050565b600061016d60009054906101000a900473ffffffffffffffffffffffffffffffffffffffff16905090565b6000806099600084815260200190815260200160002060009054906101000a900473ffffffffffffffffffffffffffffffffffffffff169050600073ffffffffffffffffffffffffffffffffffffffff168173ffffffffffffffffffffffffffffffffffffffff161415610eff576040517f08c379a0000000000000000000000000000000000000000000000000000000008152600401610ef690613b07565b60405180910390fd5b80915050919050565b6000610f12611bca565b8073ffffffffffffffffffffffffffffffffffffffff163373ffffffffffffffffffffffffffffffffffffffff1614610f80576040517f08c379a0000000000000000000000000000000000000000000000000000000008152600401610f7790613c47565b60405180910390fd5b600161016c60008282540192505081905550600073__IDGenerator___________________________634a7dd52361016c546040518263ffffffff1660e01b8152600401610fce9190613c82565b60206040518083038186803b158015610fe657600080fd5b505af4158015610ffa573d6000803e3d6000fd5b505050506040513d601f19601f8201168201806040525061101e9190810190613042565b905061102a8482611e8a565b8092505050919050565b60008073ffffffffffffffffffffffffffffffffffffffff168273ffffffffffffffffffffffffffffffffffffffff1614156110a5576040517f08c379a000000000000000000000000000000000000000000000000000000000815260040161109c90613ae7565b60405180910390fd5b6110ec609b60008473ffffffffffffffffffffffffffffffffffffffff1673ffffffffffffffffffffffffffffffffffffffff168152602001908152602001600020611eab565b9050919050565b6110fb61132f565b61113a576040517f08c379a000000000000000000000000000000000000000000000000000000000815260040161113190613b67565b60405180910390fd5b600073ffffffffffffffffffffffffffffffffffffffff16603360009054906101000a900473ffffffffffffffffffffffffffffffffffffffff1673ffffffffffffffffffffffffffffffffffffffff167f8be0079c531659141344cd1fd0a4f28419497f9722a3daafe3b4186f6b6457e060405160405180910390a36000603360006101000a81548173ffffffffffffffffffffffffffffffffffffffff021916908373ffffffffffffffffffffffffffffffffffffffff160217905550565b600060019054906101000a900460ff168061121a5750611219611a38565b5b8061123157506000809054906101000a900460ff16155b611270576040517f08c379a000000000000000000000000000000000000000000000000000000000815260040161126790613b87565b60405180910390fd5b60008060019054906101000a900460ff1615905080156112c0576001600060016101000a81548160ff02191690831515021790555060016000806101000a81548160ff0219169083151502179055505b6112c8611d9d565b6112d157600080fd5b6112e163780e9d6360e01b611db4565b80156113025760008060016101000a81548160ff0219169083151502179055505b50565b6000603360009054906101000a900473ffffffffffffffffffffffffffffffffffffffff16905090565b6000603360009054906101000a900473ffffffffffffffffffffffffffffffffffffffff1673ffffffffffffffffffffffffffffffffffffffff16611372611bc2565b73ffffffffffffffffffffffffffffffffffffffff1614905090565b60606101068054600181600116156101000203166002900480601f0160208091040260200160405190810160405280929190818152602001828054600181600116156101000203166002900480156114275780601f106113fc57610100808354040283529160200191611427565b820191906000526020600020905b81548152906001019060200180831161140a57829003601f168201915b5050505050905090565b611439611bc2565b73ffffffffffffffffffffffffffffffffffffffff168273ffffffffffffffffffffffffffffffffffffffff1614156114a7576040517f08c379a000000000000000000000000000000000000000000000000000000000815260040161149e90613a87565b60405180910390fd5b80609c60006114b4611bc2565b73ffffffffffffffffffffffffffffffffffffffff1673ffffffffffffffffffffffffffffffffffffffff16815260200190815260200160002060008473ffffffffffffffffffffffffffffffffffffffff1673ffffffffffffffffffffffffffffffffffffffff16815260200190815260200160002060006101000a81548160ff0219169083151502179055508173ffffffffffffffffffffffffffffffffffffffff16611561611bc2565b73ffffffffffffffffffffffffffffffffffffffff167f17307eab39ab6107e8899845ad3d59bd9653f200f220920489ca2b5937696c31836040516115a69190613968565b60405180910390a35050565b6115c36115bd611bc2565b83611cbf565b611602576040517f08c379a00000000000000000000000000000000000000000000000000000000081526004016115f990613c07565b60405180910390fd5b61160e84848484611eb9565b50505050565b600060019054906101000a900460ff16806116335750611632611a38565b5b8061164a57506000809054906101000a900460ff16155b611689576040517f08c379a000000000000000000000000000000000000000000000000000000000815260040161168090613b87565b60405180910390fd5b60008060019054906101000a900460ff1615905080156116d9576001600060016101000a81548160ff02191690831515021790555060016000806101000a81548160ff0219169083151502179055505b81603360006101000a81548173ffffffffffffffffffffffffffffffffffffffff021916908373ffffffffffffffffffffffffffffffffffffffff160217905550603360009054906101000a900473ffffffffffffffffffffffffffffffffffffffff1673ffffffffffffffffffffffffffffffffffffffff16600073ffffffffffffffffffffffffffffffffffffffff167f8be0079c531659141344cd1fd0a4f28419497f9722a3daafe3b4186f6b6457e060405160405180910390a380156117b85760008060016101000a81548160ff0219169083151502179055505b5050565b60606117c782611b50565b611806576040517f08c379a00000000000000000000000000000000000000000000000000000000081526004016117fd90613bc7565b60405180910390fd5b61010760008381526020019081526020016000208054600181600116156101000203166002900480601f0160208091040260200160405190810160405280929190818152602001828054600181600116156101000203166002900480156118ae5780601f10611883576101008083540402835291602001916118ae565b820191906000526020600020905b81548152906001019060200180831161189157829003601f168201915b50505050509050919050565b6118c261132f565b611901576040517f08c379a00000000000000000000000000000000000000000000000000000000081526004016118f890613b67565b60405180910390fd5b8061016d60006101000a81548173ffffffffffffffffffffffffffffffffffffffff021916908373ffffffffffffffffffffffffffffffffffffffff16021790555050565b600061016c54905090565b6000609c60008473ffffffffffffffffffffffffffffffffffffffff1673ffffffffffffffffffffffffffffffffffffffff16815260200190815260200160002060008373ffffffffffffffffffffffffffffffffffffffff1673ffffffffffffffffffffffffffffffffffffffff16815260200190815260200160002060009054906101000a900460ff16905092915050565b6119ed61132f565b611a2c576040517f08c379a0000000000000000000000000000000000000000000000000000000008152600401611a2390613b67565b60405180910390fd5b611a3581611f15565b50565b6000803090506000813b9050600081149250505090565b600060019054906101000a900460ff1680611a6e5750611a6d611a38565b5b80611a8557506000809054906101000a900460ff16155b611ac4576040517f08c379a0000000000000000000000000000000000000000000000000000000008152600401611abb90613b87565b60405180910390fd5b60008060019054906101000a900460ff161590508015611b14576001600060016101000a81548160ff02191690831515021790555060016000806101000a81548160ff0219169083151502179055505b611b1c612045565b611b2c6380ac58cd60e01b611db4565b8015611b4d5760008060016101000a81548160ff0219169083151502179055505b50565b6000806099600084815260200190815260200160002060009054906101000a900473ffffffffffffffffffffffffffffffffffffffff169050600073ffffffffffffffffffffffffffffffffffffffff168173ffffffffffffffffffffffffffffffffffffffff161415915050919050565b600033905090565b600080611bd561213e565b73ffffffffffffffffffffffffffffffffffffffff1663693ec85e6040518060400160405280600a81526020017f524f4f545f4c4f474943000000000000000000000000000000000000000000008152506040518263ffffffff1660e01b8152600401611c429190613983565b60206040518083038186803b158015611c5a57600080fd5b505afa158015611c6e573d6000803e3d6000fd5b505050506040513d601f19601f82011682018060405250611c929190810190612d35565b90508091505090565b611ca6838383612169565b611cb08382612398565b611cba8282612536565b505050565b6000611cca82611b50565b611d09576040517f08c379a0000000000000000000000000000000000000000000000000000000008152600401611d0090613aa7565b60405180910390fd5b6000611d1483610e56565b90508073ffffffffffffffffffffffffffffffffffffffff168473ffffffffffffffffffffffffffffffffffffffff161480611d8357508373ffffffffffffffffffffffffffffffffffffffff16611d6b84610867565b73ffffffffffffffffffffffffffffffffffffffff16145b80611d945750611d938185611951565b5b91505092915050565b6000611daf6380ac58cd60e01b610602565b905090565b63ffffffff60e01b817bffffffffffffffffffffffffffffffffffffffffffffffffffffffff19161415611e1d576040517f08c379a0000000000000000000000000000000000000000000000000000000008152600401611e1490613a27565b60405180910390fd5b600160666000837bffffffffffffffffffffffffffffffffffffffffffffffffffffffff19167bffffffffffffffffffffffffffffffffffffffffffffffffffffffff1916815260200190815260200160002060006101000a81548160ff02191690831515021790555050565b611e9482826125fd565b611e9e8282612536565b611ea7816127af565b5050565b600081600001549050919050565b611ec4848484611c9b565b611ed0848484846127fb565b611f0f576040517f08c379a0000000000000000000000000000000000000000000000000000000008152600401611f06906139e7565b60405180910390fd5b50505050565b600073ffffffffffffffffffffffffffffffffffffffff168173ffffffffffffffffffffffffffffffffffffffff161415611f85576040517f08c379a0000000000000000000000000000000000000000000000000000000008152600401611f7c90613a07565b60405180910390fd5b8073ffffffffffffffffffffffffffffffffffffffff16603360009054906101000a900473ffffffffffffffffffffffffffffffffffffffff1673ffffffffffffffffffffffffffffffffffffffff167f8be0079c531659141344cd1fd0a4f28419497f9722a3daafe3b4186f6b6457e060405160405180910390a380603360006101000a81548173ffffffffffffffffffffffffffffffffffffffff021916908373ffffffffffffffffffffffffffffffffffffffff16021790555050565b600060019054906101000a900460ff16806120645750612063611a38565b5b8061207b57506000809054906101000a900460ff16155b6120ba576040517f08c379a00000000000000000000000000000000000000000000000000000000081526004016120b190613b87565b60405180910390fd5b60008060019054906101000a900460ff16159050801561210a576001600060016101000a81548160ff02191690831515021790555060016000806101000a81548160ff0219169083151502179055505b61211a6301ffc9a760e01b611db4565b801561213b5760008060016101000a81548160ff0219169083151502179055505b50565b600061016d60009054906101000a900473ffffffffffffffffffffffffffffffffffffffff16905090565b8273ffffffffffffffffffffffffffffffffffffffff1661218982610e56565b73ffffffffffffffffffffffffffffffffffffffff16146121df576040517f08c379a00000000000000000000000000000000000000000000000000000000081526004016121d690613ba7565b60405180910390fd5b600073ffffffffffffffffffffffffffffffffffffffff168273ffffffffffffffffffffffffffffffffffffffff16141561224f576040517f08c379a000000000000000000000000000000000000000000000000000000000815260040161224690613a67565b60405180910390fd5b61225881612919565b61229f609b60008573ffffffffffffffffffffffffffffffffffffffff1673ffffffffffffffffffffffffffffffffffffffff1681526020019081526020016000206129d7565b6122e6609b60008473ffffffffffffffffffffffffffffffffffffffff1673ffffffffffffffffffffffffffffffffffffffff1681526020019081526020016000206129fa565b816099600083815260200190815260200160002060006101000a81548173ffffffffffffffffffffffffffffffffffffffff021916908373ffffffffffffffffffffffffffffffffffffffff160217905550808273ffffffffffffffffffffffffffffffffffffffff168473ffffffffffffffffffffffffffffffffffffffff167fddf252ad1be2c89b69c2b068fc378daa952ba7f163c4a11628f55a4df523b3ef60405160405180910390a4505050565b60006123f0600160cf60008673ffffffffffffffffffffffffffffffffffffffff1673ffffffffffffffffffffffffffffffffffffffff16815260200190815260200160002080549050612a1090919063ffffffff16565b9050600060d060008481526020019081526020016000205490508181146124dd57600060cf60008673ffffffffffffffffffffffffffffffffffffffff1673ffffffffffffffffffffffffffffffffffffffff168152602001908152602001600020838154811061245d57fe5b906000526020600020015490508060cf60008773ffffffffffffffffffffffffffffffffffffffff1673ffffffffffffffffffffffffffffffffffffffff16815260200190815260200160002083815481106124b557fe5b90600052602060002001819055508160d0600083815260200190815260200160002081905550505b60cf60008573ffffffffffffffffffffffffffffffffffffffff1673ffffffffffffffffffffffffffffffffffffffff16815260200190815260200160002080548091906001900361252f9190612b80565b5050505050565b60cf60008373ffffffffffffffffffffffffffffffffffffffff1673ffffffffffffffffffffffffffffffffffffffff1681526020019081526020016000208054905060d060008381526020019081526020016000208190555060cf60008373ffffffffffffffffffffffffffffffffffffffff1673ffffffffffffffffffffffffffffffffffffffff1681526020019081526020016000208190806001815401808255809150509060018203906000526020600020016000909192909190915055505050565b600073ffffffffffffffffffffffffffffffffffffffff168273ffffffffffffffffffffffffffffffffffffffff16141561266d576040517f08c379a000000000000000000000000000000000000000000000000000000000815260040161266490613b27565b60405180910390fd5b61267681611b50565b156126b6576040517f08c379a00000000000000000000000000000000000000000000000000000000081526004016126ad90613a47565b60405180910390fd5b816099600083815260200190815260200160002060006101000a81548173ffffffffffffffffffffffffffffffffffffffff021916908373ffffffffffffffffffffffffffffffffffffffff16021790555061274f609b60008473ffffffffffffffffffffffffffffffffffffffff1673ffffffffffffffffffffffffffffffffffffffff1681526020019081526020016000206129fa565b808273ffffffffffffffffffffffffffffffffffffffff16600073ffffffffffffffffffffffffffffffffffffffff167fddf252ad1be2c89b69c2b068fc378daa952ba7f163c4a11628f55a4df523b3ef60405160405180910390a45050565b60d18054905060d260008381526020019081526020016000208190555060d181908060018154018082558091505090600182039060005260206000200160009091929091909150555050565b600061281c8473ffffffffffffffffffffffffffffffffffffffff16612a5a565b6128295760019050612911565b60008473ffffffffffffffffffffffffffffffffffffffff1663150b7a0261284f611bc2565b8887876040518563ffffffff1660e01b8152600401612871949392919061391c565b602060405180830381600087803b15801561288b57600080fd5b505af115801561289f573d6000803e3d6000fd5b505050506040513d601f19601f820116820180604052506128c39190810190612f05565b905063150b7a0260e01b7bffffffffffffffffffffffffffffffffffffffffffffffffffffffff1916817bffffffffffffffffffffffffffffffffffffffffffffffffffffffff1916149150505b949350505050565b600073ffffffffffffffffffffffffffffffffffffffff16609a600083815260200190815260200160002060009054906101000a900473ffffffffffffffffffffffffffffffffffffffff1673ffffffffffffffffffffffffffffffffffffffff16146129d4576000609a600083815260200190815260200160002060006101000a81548173ffffffffffffffffffffffffffffffffffffffff021916908373ffffffffffffffffffffffffffffffffffffffff1602179055505b50565b6129ef60018260000154612a1090919063ffffffff16565b816000018190555050565b6001816000016000828254019250508190555050565b6000612a5283836040518060400160405280601e81526020017f536166654d6174683a207375627472616374696f6e206f766572666c6f770000815250612aa5565b905092915050565b60008060007fc5d2460186f7233c927e7db2dcc703c0e500b653ca82273b7bfad8045d85a47060001b9050833f91506000801b8214158015612a9c5750808214155b92505050919050565b6000838311158290612aed576040517f08c379a0000000000000000000000000000000000000000000000000000000008152600401612ae491906139a5565b60405180910390fd5b5060008385039050809150509392505050565b828054600181600116156101000203166002900490600052602060002090601f016020900481019282601f10612b4157805160ff1916838001178555612b6f565b82800160010185558215612b6f579182015b82811115612b6e578251825591602001919060010190612b53565b5b509050612b7c9190612bac565b5090565b815481835581811115612ba757818360005260206000209182019101612ba69190612bac565b5b505050565b612bce91905b80821115612bca576000816000905550600101612bb2565b5090565b90565b600081359050612be081613e62565b92915050565b600081519050612bf581613e62565b92915050565b600081359050612c0a81613e79565b92915050565b600081359050612c1f81613e90565b92915050565b600081519050612c3481613e90565b92915050565b600082601f830112612c4b57600080fd5b8135612c5e612c5982613cca565b613c9d565b91508082526020830160208301858383011115612c7a57600080fd5b612c85838284613e0f565b50505092915050565b600082601f830112612c9f57600080fd5b8135612cb2612cad82613cf6565b613c9d565b91508082526020830160208301858383011115612cce57600080fd5b612cd9838284613e0f565b50505092915050565b600081359050612cf181613ea7565b92915050565b600081519050612d0681613ea7565b92915050565b600060208284031215612d1e57600080fd5b6000612d2c84828501612bd1565b91505092915050565b600060208284031215612d4757600080fd5b6000612d5584828501612be6565b91505092915050565b60008060408385031215612d7157600080fd5b6000612d7f85828601612bd1565b9250506020612d9085828601612bd1565b9150509250929050565b600080600060608486031215612daf57600080fd5b6000612dbd86828701612bd1565b9350506020612dce86828701612bd1565b9250506040612ddf86828701612ce2565b9150509250925092565b60008060008060808587031215612dff57600080fd5b6000612e0d87828801612bd1565b9450506020612e1e87828801612bd1565b9350506040612e2f87828801612ce2565b925050606085013567ffffffffffffffff811115612e4c57600080fd5b612e5887828801612c3a565b91505092959194509250565b60008060408385031215612e7757600080fd5b6000612e8585828601612bd1565b9250506020612e9685828601612bfb565b9150509250929050565b60008060408385031215612eb357600080fd5b6000612ec185828601612bd1565b9250506020612ed285828601612ce2565b9150509250929050565b600060208284031215612eee57600080fd5b6000612efc84828501612c10565b91505092915050565b600060208284031215612f1757600080fd5b6000612f2584828501612c25565b91505092915050565b60008060408385031215612f4157600080fd5b600083013567ffffffffffffffff811115612f5b57600080fd5b612f6785828601612c8e565b925050602083013567ffffffffffffffff811115612f8457600080fd5b612f9085828601612c8e565b9150509250929050565b600080600060608486031215612faf57600080fd5b600084013567ffffffffffffffff811115612fc957600080fd5b612fd586828701612c8e565b935050602084013567ffffffffffffffff811115612ff257600080fd5b612ffe86828701612c8e565b925050604061300f86828701612bd1565b9150509250925092565b60006020828403121561302b57600080fd5b600061303984828501612ce2565b91505092915050565b60006020828403121561305457600080fd5b600061306284828501612cf7565b91505092915050565b61307481613dd9565b82525050565b61308381613d65565b82525050565b61309281613d77565b82525050565b60006130a382613d22565b6130ad8185613d43565b93506130bd818560208601613e1e565b6130c681613e51565b840191505092915050565b60006130dc82613d38565b6130e68185613d54565b93506130f6818560208601613e1e565b6130ff81613e51565b840191505092915050565b600061311582613d2d565b61311f8185613d54565b935061312f818560208601613e1e565b61313881613e51565b840191505092915050565b6000613150602b83613d54565b91507f455243373231456e756d657261626c653a206f776e657220696e646578206f7560008301527f74206f6620626f756e64730000000000000000000000000000000000000000006020830152604082019050919050565b60006131b6603283613d54565b91507f4552433732313a207472616e7366657220746f206e6f6e20455243373231526560008301527f63656976657220696d706c656d656e74657200000000000000000000000000006020830152604082019050919050565b600061321c602683613d54565b91507f4f776e61626c653a206e6577206f776e657220697320746865207a65726f206160008301527f64647265737300000000000000000000000000000000000000000000000000006020830152604082019050919050565b6000613282601c83613d54565b91507f4552433136353a20696e76616c696420696e74657266616365206964000000006000830152602082019050919050565b60006132c2601c83613d54565b91507f4552433732313a20746f6b656e20616c7265616479206d696e746564000000006000830152602082019050919050565b6000613302602483613d54565b91507f4552433732313a207472616e7366657220746f20746865207a65726f2061646460008301527f72657373000000000000000000000000000000000000000000000000000000006020830152604082019050919050565b6000613368601983613d54565b91507f4552433732313a20617070726f766520746f2063616c6c6572000000000000006000830152602082019050919050565b60006133a8602c83613d54565b91507f4552433732313a206f70657261746f7220717565727920666f72206e6f6e657860008301527f697374656e7420746f6b656e00000000000000000000000000000000000000006020830152604082019050919050565b600061340e603883613d54565b91507f4552433732313a20617070726f76652063616c6c6572206973206e6f74206f7760008301527f6e6572206e6f7220617070726f76656420666f7220616c6c00000000000000006020830152604082019050919050565b6000613474602a83613d54565b91507f4552433732313a2062616c616e636520717565727920666f7220746865207a6560008301527f726f2061646472657373000000000000000000000000000000000000000000006020830152604082019050919050565b60006134da602983613d54565b91507f4552433732313a206f776e657220717565727920666f72206e6f6e657869737460008301527f656e7420746f6b656e00000000000000000000000000000000000000000000006020830152604082019050919050565b6000613540602083613d54565b91507f4552433732313a206d696e7420746f20746865207a65726f20616464726573736000830152602082019050919050565b6000613580602c83613d54565b91507f4552433732313a20617070726f76656420717565727920666f72206e6f6e657860008301527f697374656e7420746f6b656e00000000000000000000000000000000000000006020830152604082019050919050565b60006135e6602083613d54565b91507f4f776e61626c653a2063616c6c6572206973206e6f7420746865206f776e65726000830152602082019050919050565b6000613626602e83613d54565b91507f436f6e747261637420696e7374616e63652068617320616c726561647920626560008301527f656e20696e697469616c697a65640000000000000000000000000000000000006020830152604082019050919050565b600061368c602983613d54565b91507f4552433732313a207472616e73666572206f6620746f6b656e2074686174206960008301527f73206e6f74206f776e00000000000000000000000000000000000000000000006020830152604082019050919050565b60006136f2602f83613d54565b91507f4552433732314d657461646174613a2055524920717565727920666f72206e6f60008301527f6e6578697374656e7420746f6b656e00000000000000000000000000000000006020830152604082019050919050565b6000613758602183613d54565b91507f4552433732313a20617070726f76616c20746f2063757272656e74206f776e6560008301527f72000000000000000000000000000000000000000000000000000000000000006020830152604082019050919050565b60006137be603183613d54565b91507f4552433732313a207472616e736665722063616c6c6572206973206e6f74206f60008301527f776e6572206e6f7220617070726f7665640000000000000000000000000000006020830152604082019050919050565b6000613824602c83613d54565b91507f455243373231456e756d657261626c653a20676c6f62616c20696e646578206f60008301527f7574206f6620626f756e647300000000000000000000000000000000000000006020830152604082019050919050565b600061388a602883613d54565b91507f5468652073656e646572206973206e6f742074686520526f6f744c6f6769632060008301527f636f6e74726163740000000000000000000000000000000000000000000000006020830152604082019050919050565b6138ec81613dcf565b82525050565b6138fb81613dcf565b82525050565b6000602082019050613916600083018461307a565b92915050565b6000608082019050613931600083018761306b565b61393e602083018661307a565b61394b60408301856138e3565b818103606083015261395d8184613098565b905095945050505050565b600060208201905061397d6000830184613089565b92915050565b6000602082019050818103600083015261399d818461310a565b905092915050565b600060208201905081810360008301526139bf81846130d1565b905092915050565b600060208201905081810360008301526139e081613143565b9050919050565b60006020820190508181036000830152613a00816131a9565b9050919050565b60006020820190508181036000830152613a208161320f565b9050919050565b60006020820190508181036000830152613a4081613275565b9050919050565b60006020820190508181036000830152613a60816132b5565b9050919050565b60006020820190508181036000830152613a80816132f5565b9050919050565b60006020820190508181036000830152613aa08161335b565b9050919050565b60006020820190508181036000830152613ac08161339b565b9050919050565b60006020820190508181036000830152613ae081613401565b9050919050565b60006020820190508181036000830152613b0081613467565b9050919050565b60006020820190508181036000830152613b20816134cd565b9050919050565b60006020820190508181036000830152613b4081613533565b9050919050565b60006020820190508181036000830152613b6081613573565b9050919050565b60006020820190508181036000830152613b80816135d9565b9050919050565b60006020820190508181036000830152613ba081613619565b9050919050565b60006020820190508181036000830152613bc08161367f565b9050919050565b60006020820190508181036000830152613be0816136e5565b9050919050565b60006020820190508181036000830152613c008161374b565b9050919050565b60006020820190508181036000830152613c20816137b1565b9050919050565b60006020820190508181036000830152613c4081613817565b9050919050565b60006020820190508181036000830152613c608161387d565b9050919050565b6000602082019050613c7c60008301846138e3565b92915050565b6000602082019050613c9760008301846138f2565b92915050565b6000604051905081810181811067ffffffffffffffff82111715613cc057600080fd5b8060405250919050565b600067ffffffffffffffff821115613ce157600080fd5b601f19601f8301169050602081019050919050565b600067ffffffffffffffff821115613d0d57600080fd5b601f19601f8301169050602081019050919050565b600081519050919050565b600081519050919050565b600081519050919050565b600082825260208201905092915050565b600082825260208201905092915050565b6000613d7082613daf565b9050919050565b60008115159050919050565b60007fffffffff0000000000000000000000000000000000000000000000000000000082169050919050565b600073ffffffffffffffffffffffffffffffffffffffff82169050919050565b6000819050919050565b6000613de482613deb565b9050919050565b6000613df682613dfd565b9050919050565b6000613e0882613daf565b9050919050565b82818337600083830152505050565b60005b83811015613e3c578082015181840152602081019050613e21565b83811115613e4b576000848401525b50505050565b6000601f19601f8301169050919050565b613e6b81613d65565b8114613e7657600080fd5b50565b613e8281613d77565b8114613e8d57600080fd5b50565b613e9981613d83565b8114613ea457600080fd5b50565b613eb081613dcf565b8114613ebb57600080fd5b5056fea365627a7a72315820ace441f57905fe2a85d40f9c19dc7e1637e97d0d8f7f69bf1c06411ed62eeb136c6578706572696d656e74616cf564736f6c63430005100040",
  "source": "pragma solidity 0.5.16;\npragma experimental ABIEncoderV2;\n\nimport \"@openzeppelin/contracts-ethereum-package/contracts/token/ERC721/ERC721Full.sol\";\nimport \"@openzeppelin/contracts-ethereum-package/contracts/ownership/Ownable.sol\";\nimport \"@openzeppelin/upgrades/contracts/Initializable.sol\";\nimport \"../../common/IStartrailRegistry.sol\";\nimport \"../../lib/contracts/IDGenerator.sol\";\nimport \"../../lib/contracts/Signature.sol\";\nimport \"../../common/IRootLogic.sol\";\nimport \"../../common/IStartrailValidator.sol\";\nimport \"../../name/contracts/NameRegistry.sol\";\nimport \"../../name/contracts/Contracts.sol\";\n\ncontract StartrailRegistry is\n  Initializable,\n  Ownable,\n  ERC721Full,\n  IStartrailRegistry,\n  IStartrailValidator,\n  Contracts\n{\n  /*\n   * State variables\n   */\n  uint256 private idNonce;\n\n  /*\n   * Storage\n   */\n  address private _nameRegistryAddress;\n\n  /**\n   * @dev Initializes the StartrailRegistry\n   * @param name string of the name\n   * @param symbol string of the symbol\n   * @param nameRegistry address of the NameRegistry contract\n   */\n  function initialize(\n    string memory name,\n    string memory symbol,\n    address nameRegistry\n  ) public initializer {\n    ERC721.initialize();\n    ERC721Enumerable.initialize();\n    ERC721Metadata.initialize(name, symbol);\n    _nameRegistryAddress = nameRegistry;\n    idNonce = 1;\n    Ownable.initialize(msg.sender);\n  }\n\n  /**\n   * @dev Creates a new StartrailRegistryRecordID\n   * @param sender address of the sender\n   */\n  function mint(address sender)\n    external\n    onlyRootLogic(_rootLogicAddress())\n    returns (uint256)\n  {\n    idNonce += 1;\n    uint256 tokenId = IDGenerator.generate(idNonce);\n    super._mint(sender, tokenId);\n    return tokenId;\n  }\n\n  /**\n   * @dev Transfers the ownership of a given SRR ID to another address.\n   * @param from address of the current owner\n   * @param to address to receive the ownership\n   * @param tokenId uint256 ID of the SRR to be transferred\n   */\n  function transferSRRFrom(\n    address from,\n    address to,\n    uint256 tokenId\n  ) public onlyRootLogic(_rootLogicAddress()) {\n    super._transferFrom(from, to, tokenId);\n  }\n\n  /**\n   * @dev Sets the address of the NameRegistry contract\n   * @param nameRegistry address of the NameRegistry contract\n   */\n  function setNameRegistry(address nameRegistry) public onlyOwner {\n    _nameRegistryAddress = nameRegistry;\n  }\n\n  /**\n   * @dev Gets the endpoint address of the RootLogic\n   * @return RootLogic proxy address\n   */\n  function getRootLogicAddress() public view returns (address) {\n    return _rootLogicAddress();\n  }\n\n  /**\n   * @dev Gets the endpoint address of NameRegistry\n   * @return NameRegistry proxy address\n   */\n  function getNameRegistryAddress() public view returns (address) {\n    return _nameRegistryAddress;\n  }\n\n  /**\n   * @dev Gets the owner address of the SRR\n   * @param tokenId uint256 of the SRR ID\n   * @return owner address\n   */\n  function getSRROwner(uint256 tokenId) public view returns (address) {\n    return super.ownerOf(tokenId);\n  }\n\n  /**\n   * @dev Gets the nonce from the storage\n   * @return idNonce from storage\n   */\n  function getIdNonce() public view returns (uint256) {\n    return idNonce;\n  }\n\n  function _nameRegistry() private view returns (NameRegistry) {\n    return NameRegistry(_nameRegistryAddress);\n  }\n\n  function _rootLogicAddress() private view returns (address) {\n    address rootLogicAddress = _nameRegistry().get(ROOT_LOGIC);\n    return rootLogicAddress;\n  }\n\n  // **************************\n  // scope out for Day1\n  // **************************\n\n  // /**\n  //  * @dev transfers StartrailRegistry\n  //  * @param to address of the receiver\n  //  * @param tokenId uint256 of StartrailRegistryRecordID\n  //  * @param sig signature\n  //  */\n  // function transferSRRFrom(\n  //   address to,\n  //   uint256 tokenId,\n  //   Signature.Sig memory sig\n  // ) public validSender(sig) {\n  //   address signer = Signature.getAddress(sig);\n  //   require(ownerOf(tokenId) == signer, \"owner and signer do not match\");\n  //   super._transferFrom(signer, to, tokenId);\n\n  //   emit TransferSRRFrom(signer, to, tokenId);\n  // }\n\n  // /**\n  //  * @dev transfers StartrailRegistry\n  //  * @param from address of the current token owner\n  //  * @param to address of the receiver\n  //  * @param tokenId uint256 of StartrailRegistryRecordID\n  //  * @param _data bytes of private metadata\n  //  */\n  // function safeTransferSRRFrom(\n  //   address from,\n  //   address to,\n  //   uint256 tokenId,\n  //   bytes memory _data\n  // ) public {\n  //   super._safeTransferFrom(from, to, tokenId, _data);\n  //   emit SafeTransferSRRFrom(from, to, tokenId, _data);\n  //   address newOnwer = ownerOf(tokenId);\n  //   IRootLogic logic = IRootLogic(_rootLogicContract);\n  //   // logic.historyProvenance(tokenId, newOnwer, from, _data);\n  // }\n}\n",
  "sourcePath": "/root/project/app/token/contracts/StartrailRegistry.sol",
  "compiler": {
    "name": "solc",
    "version": "0.5.16+commit.9c3226ce.Emscripten.clang"
  },
  "schemaVersion": "3.0.23",
  "updatedAt": "2020-08-03T06:29:35.515Z",
  "networkType": "ethereum",
  "devdoc": {
    "methods": {
      "approve(address,uint256)": {
        "details": "Approves another address to transfer the given token ID The zero address indicates there is no approved address. There can only be one approved address per token at a given time. Can only be called by the token owner or an approved operator.",
        "params": {
          "to": "address to be approved for the given token ID",
          "tokenId": "uint256 ID of the token to be approved"
        }
      },
      "balanceOf(address)": {
        "details": "Gets the balance of the specified address.",
        "params": {
          "owner": "address to query the balance of"
        },
        "return": "uint256 representing the amount owned by the passed address"
      },
      "getApproved(uint256)": {
        "details": "Gets the approved address for a token ID, or zero if no address set Reverts if the token ID does not exist.",
        "params": {
          "tokenId": "uint256 ID of the token to query the approval of"
        },
        "return": "address currently approved for the given token ID"
      },
      "getIdNonce()": {
        "details": "Gets the nonce from the storage",
        "return": "idNonce from storage"
      },
      "getNameRegistryAddress()": {
        "details": "Gets the endpoint address of NameRegistry",
        "return": "NameRegistry proxy address"
      },
      "getRootLogicAddress()": {
        "details": "Gets the endpoint address of the RootLogic",
        "return": "RootLogic proxy address"
      },
      "getSRROwner(uint256)": {
        "details": "Gets the owner address of the SRR",
        "params": {
          "tokenId": "uint256 of the SRR ID"
        },
        "return": "owner address"
      },
      "initialize()": {
        "details": "Constructor function."
      },
      "initialize(address)": {
        "details": "Initializes the contract setting the deployer as the initial owner."
      },
      "initialize(string,string)": {
        "details": "Constructor function"
      },
      "initialize(string,string,address)": {
        "details": "Initializes the StartrailRegistry",
        "params": {
          "name": "string of the name",
          "nameRegistry": "address of the NameRegistry contract",
          "symbol": "string of the symbol"
        }
      },
      "isApprovedForAll(address,address)": {
        "details": "Tells whether an operator is approved by a given owner.",
        "params": {
          "operator": "operator address which you want to query the approval of",
          "owner": "owner address which you want to query the approval of"
        },
        "return": "bool whether the given operator is approved by the given owner"
      },
      "isOwner()": {
        "details": "Returns true if the caller is the current owner."
      },
      "mint(address)": {
        "details": "Creates a new StartrailRegistryRecordID",
        "params": {
          "sender": "address of the sender"
        }
      },
      "name()": {
        "details": "Gets the token name.",
        "return": "string representing the token name"
      },
      "owner()": {
        "details": "Returns the address of the current owner."
      },
      "ownerOf(uint256)": {
        "details": "Gets the owner of the specified token ID.",
        "params": {
          "tokenId": "uint256 ID of the token to query the owner of"
        },
        "return": "address currently marked as the owner of the given token ID"
      },
      "renounceOwnership()": {
        "details": "Leaves the contract without owner. It will not be possible to call `onlyOwner` functions anymore. Can only be called by the current owner.     * > Note: Renouncing ownership will leave the contract without an owner, thereby removing any functionality that is only available to the owner."
      },
      "safeTransferFrom(address,address,uint256)": {
        "details": "Safely transfers the ownership of a given token ID to another address If the target address is a contract, it must implement {IERC721Receiver-onERC721Received}, which is called upon a safe transfer, and return the magic value `bytes4(keccak256(\"onERC721Received(address,address,uint256,bytes)\"))`; otherwise, the transfer is reverted. Requires the msg.sender to be the owner, approved, or operator",
        "params": {
          "from": "current owner of the token",
          "to": "address to receive the ownership of the given token ID",
          "tokenId": "uint256 ID of the token to be transferred"
        }
      },
      "safeTransferFrom(address,address,uint256,bytes)": {
        "details": "Safely transfers the ownership of a given token ID to another address If the target address is a contract, it must implement {IERC721Receiver-onERC721Received}, which is called upon a safe transfer, and return the magic value `bytes4(keccak256(\"onERC721Received(address,address,uint256,bytes)\"))`; otherwise, the transfer is reverted. Requires the _msgSender() to be the owner, approved, or operator",
        "params": {
          "_data": "bytes data to send along with a safe transfer check",
          "from": "current owner of the token",
          "to": "address to receive the ownership of the given token ID",
          "tokenId": "uint256 ID of the token to be transferred"
        }
      },
      "setApprovalForAll(address,bool)": {
        "details": "Sets or unsets the approval of a given operator An operator is allowed to transfer all tokens of the sender on their behalf.",
        "params": {
          "approved": "representing the status of the approval to be set",
          "to": "operator address to set the approval"
        }
      },
      "setNameRegistry(address)": {
        "details": "Sets the address of the NameRegistry contract",
        "params": {
          "nameRegistry": "address of the NameRegistry contract"
        }
      },
      "supportsInterface(bytes4)": {
        "details": "See {IERC165-supportsInterface}.     * Time complexity O(1), guaranteed to always use less than 30 000 gas."
      },
      "symbol()": {
        "details": "Gets the token symbol.",
        "return": "string representing the token symbol"
      },
      "tokenByIndex(uint256)": {
        "details": "Gets the token ID at a given index of all the tokens in this contract Reverts if the index is greater or equal to the total number of tokens.",
        "params": {
          "index": "uint256 representing the index to be accessed of the tokens list"
        },
        "return": "uint256 token ID at the given index of the tokens list"
      },
      "tokenOfOwnerByIndex(address,uint256)": {
        "details": "Gets the token ID at a given index of the tokens list of the requested owner.",
        "params": {
          "index": "uint256 representing the index to be accessed of the requested tokens list",
          "owner": "address owning the tokens list to be accessed"
        },
        "return": "uint256 token ID at the given index of the tokens list owned by the requested address"
      },
      "tokenURI(uint256)": {
        "details": "Returns an URI for a given token ID. Throws if the token ID does not exist. May return an empty string.",
        "params": {
          "tokenId": "uint256 ID of the token to query"
        }
      },
      "totalSupply()": {
        "details": "Gets the total amount of tokens stored by the contract.",
        "return": "uint256 representing the total amount of tokens"
      },
      "transferFrom(address,address,uint256)": {
        "details": "Transfers the ownership of a given token ID to another address. Usage of this method is discouraged, use {safeTransferFrom} whenever possible. Requires the msg.sender to be the owner, approved, or operator.",
        "params": {
          "from": "current owner of the token",
          "to": "address to receive the ownership of the given token ID",
          "tokenId": "uint256 ID of the token to be transferred"
        }
      },
      "transferOwnership(address)": {
        "details": "Transfers ownership of the contract to a new account (`newOwner`). Can only be called by the current owner."
      },
      "transferSRRFrom(address,address,uint256)": {
        "details": "Transfers the ownership of a given SRR ID to another address.",
        "params": {
          "from": "address of the current owner",
          "to": "address to receive the ownership",
          "tokenId": "uint256 ID of the SRR to be transferred"
        }
      }
    }
  },
  "userdoc": {
    "methods": {}
  }
}